:060000008A150A163928DA
:1030000083120313F3010B08F200330803178D003A
:103010000313340803178F007308F000F00D7010CD
:103020007008031335078400000803178C0003138E
:103030003508F007700A8400000803178E00831615
:103040008C170C158B1355308D00AA308D008C1405
:103050000000000072088B000C1183120313B30AE6
:103060000319B40A7308033A03193828F30A03282A
:02307000080056
:1030720083120313B001B101B2013108203E840072
:1030820030088000B00A00303206031D4A2807309B
:10309200310603195028B10A0319B20A3E28B001B9
:1030A200B101B2013108F0003208F100F00DF10D6A
:1030B20070107008283E840030088000B00A310881
:1030C200F0003208F100F00DF10D70102830F00719
:1030D200700A840030088000B00A00303206031DF6
:1030E20074280330310603197A28B10A0319B20A87
:1030F2005328B301B4012830B50000200430B300D6
:10310200B4012830B50000200830B300B4012830E3
:10311200B50000200C30B300B4012830B500002007
:043122009128922836
:04400E00F22F000786
:00000001FF
