:040000009831002C07
:0437FC0000000800C1
:043800000224012C71
:103804006F26B327D427D327EF302000CD00CE274F
:10381400AC2670080319632DED30CD00CE273B3064
:103824002000CD000030CE0079257008CC004C0873
:10383400803A031D702C8030CD00CE272100200853
:103844002000CD00210021082000CE00AA27A230AC
:103854002000CD000030CE003B27A6302000CD0054
:103864000030CE003B27AA302000CD000030CE002F
:103874003B27AE302000CD000030CE003B27B230D5
:103884002000CD000030CE003B2721003608200068
:10389400CD00CE27210037082000CD00CE272100FF
:1038A40038082000CD00CE272000C601C701B9305A
:1038B400460784000030473D85000008CD00CE2730
:1038C400003020004706031D692C1F3046060319EB
:1038D4006F2CC60A0319C70A592C622D4C08023AE8
:1038E400031D992C3B08003A031D862C3C30D6005E
:1038F4000030D70010277008A6007108A7007208CE
:10390400A8007308A900982C3B08013A031D982CC1
:103914003C30D6000030D70010277008AA00710888
:10392400AB007208AC007308AD00982C622D4C08F3
:10393400813A031DB12CEE30CD00CE27D6270630B8
:10394400FB001330FC00AD30FD00FD0BA72CFC0B7D
:10395400A72CFB0BA72C000000000028622D2000E0
:103964004C08103A031D0A2D3B30D6000030D70016
:1039740010277008A2007108A3007208A40073083D
:10398400A500C601C7012208C8002308C9002408ED
:10399400CA002508CB000130C8020030C93BCA3B2D
:1039A400CB3B80304B06F0008030C71B7F30700269
:1039B400031DE82C0030C71BFF304A02031DE82C0E
:1039C40047084902031DE82C46084802031C062D3B
:1039D4002A30CD000030CE00D7270030C71BFF307F
:1039E400F0004B06031D002D70084A06031D002D30
:1039F40047084906031D002D480846060319062DED
:103A0400C60A0319C70AC52C1030CD00CE27622D73
:103A140020004C08303A031D252D3B30A000003017
:103A2400A1002630CD000030CE000430CF00D001FC
:103A3400D101D2012008D3002108D4007B273030E3
:103A4400CD00CE27622D20004C08313A031D622D93
:103A54003B30D6000030D70010277008A200710850
:103A6400A3007208A4007308A5003F30A000003032
:103A7400A1007308003C031D492D7208003C031D7E
:103A8400492D7108003C031D492D7008003C0318A2
:103A94005D2D20002630CD000030CE002208CF005E
:103AA4002308D0002408D1002508D2002008D30020
:103AB4002108D4007B2720003130CD00CE27622D91
:103AC400112CD527D627EE302000CD00CE27063086
:103AD400FB001330FC00AD30FD00FD0B6F2DFC0B23
:0E3AE4006F2DFB0B6F2D00000000FE2308006D
:103AF200FF302000CF00D001D101D201D301D40187
:103B0200D50150084D07D60051084E3DD700622717
:103B120070080319252E4F08FF3A031DA12D5008E6
:103B22004D07840051084E3D85000008CF008030CB
:103B32004F05F1007108003A0319A02D262E252EFB
:103B42004F08023A031DB22DD00A0319D10A5108B7
:103B5200003C031DAE2D5008043C0318B12D262E47
:103B6200252E4F08103A031DC32DD00A0319D10A7E
:103B72005108003C031DBF2D5008033C0318C22D01
:103B8200262E252E4F08303A031DD42D0030510227
:103B9200031DCD2D03305002031CD02D262ED00A3A
:103BA2000319D10A252E4F08313A031D252E51083B
:103BB200003C031DDE2D5008023C0318212E00306C
:103BC2005106031DE62D03305006031DF62D3B3032
:103BD200D6000030D70010277008D2007108D30039
:103BE2007208D4007308D500212E04305207F00069
:103BF2000030533DF1000030543DF2000030553D9D
:103C0200F3007008F4007108F5007208F6007308FA
:103C1200F7000130F4020030F53BF63BF73B770842
:103C2200003C031D1E2E7608003C031D1E2E750847
:103C32005102031D1E2E74085002031C212E262E33
:103C4200D00A0319D10A252E822D4F08F000080050
:103C52000B082000DA008B13230015151513951697
:103C620020005608230091002000570823009200EC
:103C72002000DB015B08F000F101F035F10D700866
:103C8200580784007108593D8500000823009300FD
:103C9200013100089400A127910A0319920A200019
:103CA2005B081E3A0319572EDB0A3B2E230095129E
:103CB2003E302000580784000030593D850000083E
:103CC20023009300013100089400A1271511200060
:0C3CD200DA1B6D2E8B136E2E8B17080072
:103CDE0039302100A000A1011030A200A301A401DF
:103CEE00A5010430A600A701A801A9010030AA0071
:103CFE002030AB000030AC000030AD000030AE0024
:103D0E001C30AF00B001B1010030B2000430B3007E
:103D1E00B401B5010130B6000130B700B801B930B9
:103D2E00860000308700D83084009F308500C3277E
:103D3E008101FF302000B200A601A701A801A90150
:0A3D4E00AA01AB01AC01AD010800B1
:103D58002000CD01CE01CF01D00113304F02031D49
:103D6800B72E88304E020318DD2E5030D6000030B2
:103D7800D700622770080319C72E5008ED3AFF30A4
:103D8800031D0030CD004D080319CB2EDD2E643005
:103D9800CE070030CF3D0230FB000430FC00BA30C3
:103DA800FD00FD0BD52EFC0BD52EFB0BD52E0000F0
:083DB800B12E4D08F0000800D7
:103DC00097302000B7001F30B8005C30B9000030D9
:103DD000BA008B30C2001F30C3000030C400003076
:103DE000C500BB30B3001F30B4000030B500003058
:103DF000B600FF30AE00FF30AF000030B000003042
:103E0000B10023009E1690309D0021008E160E12E8
:103E10002000911E0F2F23001908F000082F080022
:103E2000200056088400570885000008F700D60ACD
:103E30000319D70A56088400570885000008F600C1
:103E4000D60A0319D70A56088400570885000008C7
:103E5000F500D60A0319D70A5608840057088500CA
:103E60000008F4007408F0007508F1007608F2000C
:063E70007708F3000800D2
:103E760020004D0884004E0885000008D600C9279A
:103E8600013020004D07840000304E3D85000008BB
:103E9600D600C927023020004D07840000304E3D71
:103EA60085000008D600C927033020004D0784008E
:0E3EB60000304E3D85000008D600C9270800E8
:103EC4002000D80156088600570887008101BB27C7
:103ED4007008003A0319782F8B27200056088600B3
:103EE4005708870070088100FF30D8005808F00098
:023EF4000800C4
:103EF60020004D0884004E0885000008D6000131D8
:103F06000008D7005308D8005408D900292608000D
:103F160023001908F2009D1C922F1D121D1672080F
:083F2600F1007108F000080031
:103F2E0023009E189C2F0000972F20005C08230072
:043F3E009A000800DD
:103F4200553023009600AA30960095140000000018
:023F5200080065
:103F540020004D08D600C92720004E08D600C927E6
:023F6400080053
:103F660023009F15CF309B009C011E15E0260800FC
:103F760000302000911A0130F1007108F0000800AD
:0C3F860012000319C82F1E00C32F0800F2
:0A3F920020005608DC009727080005
:0A3F9C0020004D08D600C9270800D8
:023FA600080011
:023FA80008000F
:023FAA0008000D
:023FAC0008000B
:023FAE00080009
:103FB000533461346D3470346C346534203441349E
:103FC000703470346C3469346334613474346934FB
:063FD0006F346E34003472
:020000040001F9
:04000E00E23EF31FBC
:00000001FF
