:10000000F8080400000000000000000000000000EC
:1000100000000000000000000000000000000000E0
:1000200000000000000000000000000000000000D0
:100030000000000098070000000000000000000021
:10004000000000006E070000CA070000000000006A
:1000500000000000000000000000000000000000A0
:100060000000000000000000000000000000000090
:1000700000000000E8070000000000000000000091
:100080000000000000000000000000000000000070
:100090000000000000000000000000000000000060
:1000A0000000000000000000000000000000000050
:1000B0000000000000000000000000000000000040
:1011F000AF802000F0BF200020A0B700000020003A
:1012000034A0B700400020004420B700E024EF00E5
:10121000E224EF00CD82A900C002A900C022A900EB
:10122000C8E2A800C902A900C982A900C9A2A900F0
:10123000C9C2A9004427EF0064E0A800AD80A8005F
:10124000ADA0A800ADC0A8008660A9009660A80067
:1012500042E1A9004201A9004221A9004241A9009E
:101260004261A9004281A90040A1A8004101A90052
:101270004121A9004141A90040C1A90040E1A900C4
:10128000F0FF2F0054A1B700F0FF2F0056A1B700C8
:1012900084E0A90094E0A80041E1A90066E1A9006A
:1012A0006601A9006621A9006641A9006661A9003E
:1012B0006681A90064A1A8006501A9006521A900B3
:1012C0006541A90064C1A90064E1A90000802F0064
:1012D00078A1B700401220007AA1B7008500A900CC
:1012E0009500A80065E1A8000021EF0005E1A90034
:1012F0000481A80004A1A80001002100400A2000E8
:10130000108870008460A9009460A8000020EF009D
:101310000220EF0010408800214088000020EF00EC
:101320000220EF003040880041408800F0FF2F008D
:1013300000408800CDC2AA00FEFF3700FFFF370043
:00134000AD
:100FD0001000FA003400F8003600F800801F780096
:100FE000200020000C000900B01F7800CA82BF005A
:100FF00000E0AE0075003700CD02A800CD82A90048
:1010000041E1A9005281BF00100798005081BF0044
:10101000000798005221EF005021EF0041E1A800A5
:101020000E0090009E009000BFFE0700D27B2300C0
:101030006338230017FF0700200798003107980046
:101040000420EF000620EF001240880023408800B3
:101050000420EF000620EF009BFF07000000E000E7
:101060000020EF000100340000A0EE000000E200CC
:101070000A0032002E019000BE0190000000200006
:1010800001272400CDFD07000200200003102400EA
:10109000CAFD07001040880021408800020020009F
:1010A000C328240010408000214080005EFE07001D
:1010B0000000E0000020EF0001003D0000A0EE0075
:1010C0007007980002002C00A35D240010408000EF
:1010D000214080007CFF07000000E0000020EF00BE
:1010E0000100340000A0EE00FE00900000807000BF
:1010F000040032000020EF000220EF0010408800C2
:10110000214088000420EF000620EF0010408000FE
:10111000214080006CFF07000000E0000020EF008D
:101120000100340000A0EE000000E20026003200C2
:101130002E009000BE009000A256280083B223002B
:1011400074FE070022952400D399230071FE070046
:1011500040079800510798000420EF000620EF0098
:1011600031FE07000000E0000020EF0001003C001D
:1011700000A0EE000000E2000400320020952400F0
:10118000D19923004007980051079800D27B230093
:10119000633823004E009000DE00900087FD0700BA
:1011A00026FE07000420EF00024088000021EF0027
:1011B0004801DE00C809DD0003017100C809DE0036
:1011C0001208880005E1A800CD02A9008660A900E8
:1011D000A00120000C0009004F1078004F0078009B
:1011E0003600F9003400F9000080FA0000400600E3
:0011F000FF
:100B28000000FA000200070046060400000000006A
:100B38000400E20006003A000005EB000200E200B3
:100B48000F003E000000E200270032000C003700D2
:100B5800A10088000200E2000400350008003C0003
:100B68000000E2002000320005003700600010009D
:100B7800E080180002003B0001F02C001A0037004A
:100B88000084BE006011B8006B0920000982CF0004
:100B9800020039000882CF000441B00069425200C7
:100BA8000E00320008003B00828171006101640080
:100BB8008904D1000884D3008B05E8000442E800CA
:100BC800F9FF3A00050037000804440089844C0006
:100BD8008B05E9000442E900FBFF3A000300070027
:100BE8000AF0A70003E0A80000000600810020002A
:100BF800618055000B003D000B00200061FE2F00B6
:100C08000100E1001D00340082817100610164006F
:100C18008904D1000884D3000000E800FAFF3A00F4
:100C28007100200061006400030070000200600091
:100C38000900320061044400E0844C000988A500E2
:100C4800050032008B05E8006808E10002003A0060
:100C58008904D1000884D300F20F20000258E10073
:100C680005003D00C75DDD00F907B2008980750009
:100C780008008800000006000BF827001B00880009
:0C0C8800000005000080FA0000000600DB
:100C94000000FA00020007006007040000000000E2
:100CA400889FBE008A9FBE008C1F7800300007001A
:100CB4003700330003866C006450E10024003200E6
:100CC4006420E100270032006150E100220032007C
:100CD4006120E100210032008B854200EB07B10066
:100CE4000134B800003AB8000804420089844A007C
:100CF400013AB8000030B8008880400009014A0079
:100D040004003300000040008180480002014900D3
:100D14008B05E900C909DD00830170000100320080
:100D240013002000C814DE004814DD004709DE006B
:100D34001200B200C808DE00088470002400070016
:100D440001F0A1000CF0A70003E0A800190037008F
:100D54006120E1001B0032000881BE000280BE0059
:100D6400F7FF37006150E100FCFF3A00150037003F
:100D74000084BE003C0007000083BE000485BE0062
:100D84000280BE0038000700844F75000000060092
:100D94000280BE006450E100050036006420E100DA
:100DA400020036000968A30001003A000880BE0072
:100DB40002C0A8004F0678004F05BE004F04BE00D5
:100DC40000000600F0FF2F00F1FF2700F9FF3700B5
:100DD40081002000618055000B003D000B002000C5
:100DE40061FE2F000100E1001D00340082817100CA
:100DF400610164008904D1000884D3000000E80084
:100E0400FAFF3A00710020006100640003007000E2
:100E1400020060000900320061044400E0844C00D8
:100E24000988A500050032008B05E8006808E10088
:100E340002003A008904D1000884D300F20F200094
:100E44000258E10005003D00C75DDD00F907B2006E
:100E54008980750008008800000006000BF8270050
:100E64001B00880000000500C70ADE00F107B2007D
:100E7400F50FB20008003200E1CF42000200320058
:100E840002E0A80024000500810F70000100320078
:100E94000408050044000500810F700002003A00B8
:100EA400140005008502E9000000400081C04800EC
:100EB400FCFF3B0002E0A800240005000080FA00CB
:040EC4000000060024
:100EC8000000FA00F4FF2F0001FE07000080FA007E
:040ED8000000060010
:1006D8000000FA0002000700DA030400000000002E
:1006E800841F7800140007004F00780011003300C1
:1006F800F0FF2F00838F6C0006003B0004056500A7
:100708000A00A7000800370009F0A6001000200022
:1007180008003700820F5400838F5C000300390003
:100728001000200001003E000000200009F0A70092
:100738000000EA00000006000084BE000600070072
:100748000083BE000485BE000280BE0002000700D0
:10075800844F750000000600C70ADE00F107B200EA
:10076800F50FB20008003200E1CF4200020032006B
:1007780002E0A80024000500810F7000010032008B
:100788000408050044000500810F700002003A00CB
:10079800140005008502E9000000400081C04800FF
:1007A800FCFF3B0002E0A800240005000080FA00DE
:0407B8000000060037
:1007BC000000FA0002000700100504000000000011
:1007CC00889FBE008A9FBE008C1F78003E000700E9
:1007DC004500330003866C006450E1002E003200AB
:1007EC006420E100330032006150E1002F00320040
:1007FC006120E1003100320085855500EB07B00027
:10080C0009002000080420000500370008044400FB
:10081C0089844C000A0031000603430087834B0097
:10082C000001530081815B00F8FF33000283BE009E
:10083C001000A8000804440089844C00F6FF39001D
:10084C00C639DD0083017300010032001300200063
:10085C008904D1000884D3000998A3000500320054
:10086C000800A7000600A8008904D1000884D30062
:10087C008B05E8008904D1000884D3000001EB004B
:10088C000281D2002800070001F0A1000CF0A700A3
:10089C0003E0A8001D0037006420E1001F003200B7
:1008AC000881BE000280BE00F7FF37006120E10026
:1008BC001A0032006000B800F3FF3700000020007F
:1008CC0001F82700F0FF37000084BE003C00070051
:1008DC000083BE000485BE000280BE003800070005
:1008EC00844F7500000006000280BE006450E100D9
:1008FC00050036006420E100020036000968A30000
:10090C0001003A000880BE0002C0A8004F06780023
:10091C004F05BE004F04BE0000000600F0FF2F0084
:10092C00F1FF2700F9FF370081002000618055009E
:10093C000B003D000B00200061FE2F000100E100C8
:10094C001D00340082817100610164008904D100B2
:10095C000884D3000000E800FAFF3A007100200080
:10096C0061006400030070000200600009003200A6
:10097C0061044400E0844C000988A50005003200A5
:10098C008B05E8006808E10002003A008904D100F8
:10099C000884D300F20F20000258E10005003D004E
:1009AC00C75DDD00F907B20089807500080088007A
:1009BC00000006000BF827001B0088000000050053
:1009CC00C70ADE00F107B200F50FB20008003200D2
:1009DC00E1CF42000200320002E0A8002400050032
:1009EC00810F70000100320004080500440005006E
:1009FC00810F700002003A00140005008502E90026
:100A0C000000400081C04800FCFF3B0002E0A80051
:0C0A1C00240005000080FA000000060025
:100A28000000FA001400200029FF07000080FA00E7
:040A380000000600B4
:100B14000000FA0007E0AA0038FE07000080FA008F
:040B240000000600C7
:100400000000FA000200070068030400000000007A
:10041000889FBE008A9FBE008C1F7800590007008D
:10042000600033006450E1004F0032006420E100BE
:100430005200320003826C0007003B000905D00027
:100440000306D000820F54000C065D000200390044
:100450000200320039008800C30088008582550000
:1004600004003D000003FD008103FD008502EA0059
:100470008B854200840F720002003B006000100078
:10048000E08018006011B8000005EB007A28E10058
:100490000A00390006008800C75DDD00F707B200DA
:1004A000878075002D003700828171002A00880046
:1004B000610560008180D1000080D3008502E900E1
:1004C000F9FF3B00060440008784480002003B001F
:1004D00060041400E0841C000988A30007003200B7
:1004E0008A81710082817100610164008904D100F8
:1004F0000884D3008B05E800170037000978A300B3
:1005000013003A001600E200130034008B05E900E6
:100510000804440089844C000A4474000978A3004C
:100520000D003A001600E200070034008B05E900D8
:100530000804440089844C0001003A000B002000AC
:100540000978A300F7FF32000001EB00020037003A
:10055000828171002A008800220007000CF0A700A9
:1005600003E0A800180037006420E10002003A0010
:10057000838F6C00180033000881BE000280BE002B
:10058000110037000084BE003C0007000083BE005D
:100590000485BE000280BE0038000700844F75004D
:1005A000000006000280BE006450E1000500360035
:1005B0006420E100020036000968A30001003A004F
:1005C0000880BE0002C0A8004F0678004F05BE009C
:1005D0004F04BE0000000600F0FF2F00F1FF2700CF
:1005E000F9FF370081002000618055000B003D00BD
:1005F0000B00200061FE2F000100E1001D0034000F
:1006000082817100610164008904D1000884D300F3
:100610000000E800FAFF3A00710020006100640069
:100620000300700002006000090032006104440011
:10063000E0844C000988A500050032008B05E80025
:100640006808E10002003A008904D1000884D30060
:10065000F20F20000258E10005003D00C75DDD00FB
:10066000F907B200898075000800880000000600C4
:100670000BF827001B00880000000500C70ADE00F9
:10068000F107B200F50FB20008003200E1CF4200DE
:100690000200320002E0A80024000500810F700073
:1006A000010032000408050044000500810F7000BD
:1006B00002003A00140005008502E9000000400035
:1006C00081C04800FCFF3B0002E0A80024000500B8
:0806D0000080FA0000000600A2
:100A3C000000FA0002000700860504000000000018
:100A4C000081BE00190007000470A70003F0A1008C
:100A5C0003F8A30013003A006509B100100032003E
:100A6C00090035006928E10002003500010028006A
:100A7C000000050000004000818048008502E9006C
:100A8C00FCFF3A0000000600F88F4200050035001C
:100A9C008100D1000080D3008502E800FCFF3A0001
:100AAC00000006008000EB0000000500C70ADE0015
:100ABC00F107B200F50FB20008003200E1CF42009E
:100ACC000200320002E0A80024000500810F700033
:100ADC00010032000408050044000500810F70007D
:100AEC0002003A00140005008502E90000004000F5
:100AFC0081C04800FCFF3B0002E0A8002400050078
:080B0C000080FA000000060061
:100F94003400F8003600F800801F7800200020009C
:100FA4000C000900B01F78008500A900C422AA0023
:100FB400A00120000C0009004F1078004F007800B9
:0C0FC4003600F9003400F900004006007F
:100EDC003400F8003600F800801F78002000200055
:100EEC000C000900B01F780084E0A900C402A8001F
:100EFC00570320000E20ED00FEFF3A00000000001A
:100F0C00C402A90041E1A900A00120000C000900C5
:100F1C004F1078004F0078003600F9003400F900CB
:040F2C00004006007B
:100F30003400F8003600F800801F78002000200000
:100F40000C000900B01F7800008020001000E000B5
:100F500002003200CD82A90001003700CD82A80036
:100F60000021EF001027200002A1B700F0FF2F00A2
:100F7000004088008460A900A00120000C00090046
:100F80004F1078004F0078003600F9003400F90067
:040F90000040060017
:0200000401F009
:200000000F000000FFFF000003000000E1000000BB0000005F000000FF0000008300000053
:00000001FF
