:060000008A150A16A02B70
:04373C000000080081
:04374000A223A12BF4
:1037440017269027A327A627EF30C9009D278A268E
:1037540070080319D92CED30C9009D273130C900F8
:10376400EE247008C8004808803A031DF82B803006
:10377400C9009D27831620088312C90083162108D7
:103784008312CA008027A230C9000F27A630C900BF
:103794000F27AA30C9000F27AE30C9000F27B23057
:1037A400C9000F27831636088312C9009D27831684
:1037B40037088312C9009D27831638088312C9006D
:1037C4009D27A001A1012008B93E84000008C9007A
:1037D4009D2700302106031DF12B1F3020060319FD
:1037E400F72BA00A0319A10AE52BD82C4808023AA2
:1037F400031D1D2C3108003A031D0C2C3230D3005C
:10380400ED267008A2007108A3007208A4007308D2
:10381400A5001C2C3108013A031D1C2C3230D300A6
:10382400ED267008A6007108A7007208A8007308A6
:10383400A9001C2CD82C4808813A031D352CEE30E5
:10384400C9009D27A5270630FB001330FC00AD30CE
:10385400FD00FD0B2B2CFC0B2B2CFB0B2B2C00004D
:1038640000000028D82C4808103A031D962C31304B
:10387400D300ED267008AD007108AE007208AF00E9
:103884007308B000A001A1010130F000F101F201C0
:10389400F3012D08C4002E08C5002F08C600300807
:1038A400C7007008C4027108031C710FC5027208B6
:1038B400031C720FC6027308031C730FC702803007
:1038C4004706F0008030A11B7F307002031D762C68
:1038D4000030A11BFF304602031D762C210845024F
:1038E400031D762C20084402031C922C2630C900A8
:1038F400BD260030A11BFF30F0004706031D8C2CB1
:1039040070084606031D8C2C21084506031D8C2CCB
:10391400440820060319922CA00A0319A10A462C74
:103924001030C9009D27D82C4808303A031DA82C14
:103934002230C9001030CA00CB01CC01CD01313096
:10394400CE00AB253030C9009D27D82C4808313A29
:10395400031DD82C3130D300ED267008AD0071085A
:10396400AE007208AF007308B0007308003C031D7A
:10397400C52C7208003C031DC52C7108003C031DB6
:10398400C52C7008003C0318D42C2230C9002D0823
:10399400CA002E08CB002F08CC003008CD003530EB
:1039A400CE00AB253130C9009D27D82CB02BA427DD
:1039B400A527EE30C9009D270630FB001330FC001C
:1039C400AD30FD00FD0BE42CFC0BE42CFB0BE42CD4
:0839D400000000009E23080022
:1039DC00FF3083120313CA00CB01CC01CD01CE0101
:1039EC00CF01D0014B084907D300282770080319D1
:1039FC00A72D4A08FF3A031D112D4B0849078400D7
:103A0C000008CA0080304A05F1007108003A031919
:103A1C00102DA82DA72D4A08023A031D222DCB0AE2
:103A2C000319CC0A4C08003C031D1E2D4B08043C0A
:103A3C000318212DA82DA72D4A08103A031D332D4C
:103A4C00CB0A0319CC0A4C08003C031D2F2D4B0844
:103A5C00033C0318322DA82DA72D4A08303A031D1C
:103A6C00442D00304C02031D3D2D0F304B02031C26
:103A7C00402DA82DCB0A0319CC0AA72D4A08313AA0
:103A8C00031DA72D4C08003C031D4E2D4B08023C7A
:103A9C000318A32D00304C06031D562D03304B0686
:103AAC00031D642D3130D300ED267008CD00710854
:103ABC00CE007208CF007308D000A32D0430F8009C
:103ACC00F901FA01FB014D08F8074E0803184E0FD7
:103ADC00F9074F0803184F0FFA0750080318500F37
:103AEC00FB070130F000F101F201F3017808F4005A
:103AFC007908F5007A08F6007B08F7007008F402E4
:103B0C007108031C710FF5027208031C720FF60288
:103B1C007308031C730FF7027708003C031DA02DDC
:103B2C007608003C031DA02D75084C02031DA02D2A
:103B3C0074084B02031CA32DA82DCB0A0319CC0A25
:0A3B4C00A72DF82C4A08F00008002D
:103B560083120313CF01D001D101D2014D085202C5
:103B6600031DBF2D4C085102031DBF2D4B085002EB
:103B7600031DBF2D4A084F020318162E490884005C
:103B86000008D300840A0008D4004E08D500512648
:103B9600490884000008F400840A0008F500840A35
:103BA6000008F600840A0008F7000430F000F1016E
:103BB600F201F3017408F00775080318750FF10791
:103BC60076080318760FF20777080318770FF307BE
:103BD60049088400700880007108840A8000720811
:103BE600840A80007308840A80000830CE070830F3
:103BF600F000F101F201F3014F08F0075008031835
:103C0600500FF10751080318510FF2075208031815
:103C1600520FF3077008CF007108D0007208D10068
:083C26007308D200B12D080063
:103C2E00393083160313A000A1012030A200A30196
:103C3E00A401A5011030A600A701A801A90100301A
:103C4E00AA002030AB000030AC000030AD00A03038
:103C5E00AE001B30AF00B001B1014830B2000430ED
:103C6E00B300B401B501B6010130B700B801B930E7
:103C7E008400A730F0001F30F1003D278001FF3097
:103C8E00AA00A201A301A401A501A601A701A801F2
:043C9E00A901080070
:103CA20083120313F3010B08F200530803178D006C
:103CB2000313540803178F007308F000F00D7010FF
:103CC2007008031355078400000803178C000313C0
:103CD2005508F007700A8400000803178E00831647
:103CE2008C170C158B1355308D00AA308D008C1457
:103CF2000000000072088B000C1183120313D30A18
:103D02000319D40A7308033A0319892EF30A542EAD
:023D12000800A7
:103D140083120313C901CA01CB01CC0113304B0236
:103D2400031D962E88304A020318BA2E4C30D30055
:103D3400282770080319A42E4C08ED3AFF30031D00
:103D44000030C90049080319A82EBA2E6430CA07E6
:103D54000318CB0A0230FB000430FC00BA30FD002B
:103D6400FD0BB22EFC0BB22EFB0BB22E0000902EDC
:063D74004908F000080000
:103D7A0083120313490884000008F400840A000827
:103D8A00F500840A0008F600840A0008F7001030DB
:103D9A00F000F101F201F3017408F0077508031845
:103DAA00750FF10776080318760FF20777080318DC
:103DBA00770FF30749088400700880007108840AA5
:103DCA0080007208840A80007308840A8000080050
:103DDA0083120313F401F501F601F7015308840075
:103DEA000008F700D30A530884000008F600D30A33
:103DFA00530884000008F500D30A53088400000819
:103E0A00F4007408F0007508F1007608F2007708EB
:043E1A00F3000800A9
:103E1E0083120313490884000008D3009727490A28
:103E2E0084000008D3009727023049078400000859
:103E3E00D30097270330490784000008D300972743
:023E4E0008006A
:103E500083120313D401530884008001772770086C
:103E6000003A03193A2F6027530884007008800035
:0A3E7000FF30D4005408F0000800F1
:103E7A00831203137008AB007108AC0089278A15F6
:103E8A000A16003803194F2F8000840AAB0A031957
:063E9A00AC0A432F0800F2
:103EA0008316031398169030831298008316871791
:103EB000071383128C1E5F2F1A08F000592F080079
:103EC000831203131A08F200981C682F1812181690
:0A3ED0007208F1007108F00008000C
:103EDA00831603139818732F00006D2F8312560848
:043EEA009900080033
:103EEE000030831203138C1A0130F1007108F000B8
:023EFE000800BA
:103F0000831203134908D30097274A08D300972741
:023F10000800A7
:0E3F1200831203132C088A002B08820008007B
:0E3F200033308316031399001815502708003C
:0C3F2E00831203135308D6006D2708000F
:0C3F3A00831203134908D30097270800E6
:023F4600080071
:023F480008006F
:023F4A0008006D
:023F4C0008006B
:103F4E00533461346D3470346C3465342034413400
:103F5E00703470346C34693463346134743469345D
:063F6E006F346E340034D4
:04400E00F22F000786
:00000001FF
