:100000008EA404000000000000000000A0A3000077
:10001000BEA30000DCA3000082A3000000000000DB
:1000200000000000000000000000000000000000D0
:1000300000000000BEA5000000000000000000005D
:1000400000000000000000000000000000000000B0
:1000500000000000FAA30000000000000000000003
:100060000000000000000000000000000000000090
:100070000000000000000000000000000000000080
:100080000000000000000000000000000000000070
:100090000000000000000000000000000000000060
:1000A00044A4000000000000000000000000000068
:1000B0000000000000000000000000000000000040
:1000C0000000000000000000000000000000000030
:1000D0000000000000000000000000000000000020
:1000E0000000000000000000000000000000000010
:020000040001F9
:10491C000F1F2300F07F240020A0B7001000200000
:10492C0034A0B700400020004420B7008A1F780054
:10493C008B1F78008C1F78008D1F78008FFB070071
:10494C0085FB0700AA002000C1ED07003D002000F8
:10495C008C0120001620EF000A022000001020001D
:10496C00801F78000020EF00801F78000020EF00EF
:10497C00801F78000020EF00801F780032FF0700B6
:10498C008F00B10047FF07006000E10001003A0012
:10499C000000FE003D0020008C0120001620EF00DE
:1049AC000A02200000102000801F78000020EF0079
:1049BC00801F78000020EF00801F78000020EF009F
:1049CC00801F7800E7FB07008F00B100FCFB07009D
:1049DC001AF90700110D2300804878006F04E100DC
:1049EC0003003A001420EF00DAF607000800370045
:1049FC00D4F807006000E100030032001AC0B300D5
:104A0C00D4F60700020037001420EF00D1F607009F
:104A1C0038F9070075FA07004A0620008CED0700EC
:104A2C008AFA070059F90700C05D2000508B8900F5
:104A3C00A0FB2200104078006004E100020032006C
:104A4C00F0FF2F00E08689003AFA0700401F200093
:104A5C00508B8900ABBF20008A0A2300DEF80700C8
:104A6C0082FA0700CFF40700F2F4070000F5070004
:104A7C000A05200047F607001A0A2000BBEB0700C6
:104A8C005A042000B9EB07000AF9210041F607008F
:104A9C00EA262B00B5EB0700A0FA22009040780024
:104AAC00F0CFB300000CE1000E003200AAFA220095
:104ABC0006F507001620EF000045780049EE0700C8
:104ACC004A06200026F60700AAFA2200FFF4070087
:104ADC001620EF000045780042EE07004A06200041
:104AEC001FF607000020EF00905188000020EF0017
:104AFC00407D8900E10A23000020EF008048780007
:104B0C000400A900CA02AE000400A800100D230086
:104B1C00104078006F04E1000220EF0001003A0021
:104B2C0002A0EE000060EF000400AF000060EC009B
:104B3C000080FB0001007000070032001A0020000A
:104B4C0037F30700E7F30700C6F3070019F6070071
:104B5C005CED0700EAFF37000000FE00CF0678008E
:104B6C004F067800CF0578004F057800FFFF37001F
:004B7C0039
:103788008A1F78008B1F78008C1F78000060FE006D
:10379800F1F32F0040742000108860002001200001
:1037A80046A7B7004A0620002AF20700F0FF2F00BC
:1037B8002CA3B700CD42A90000000000C942A9000F
:1037C80000000000CC42A90000000000C842A90087
:1037D80000000000CC62A90000000000C862A90037
:1037E80000000000D402A90000000000D002A900D7
:1037F80000000000D422A90000000000D022A90087
:103808001CF207002CC1B3001BC0B3007AC0B30080
:1038180021F20700ACC0B3001620EF006AC1B30064
:103828001DF20700BCC0B3001620EF009AC0B30019
:1038380019F20700FCC0B3001BC0B3003AC1B300C3
:1038480015F207007CC0B3001620EF004AC1B30090
:1038580011F207008CC0B3001620EF005AC1B30064
:103868000DF20700BCC0B3001BC0B300FAC0B30020
:1038780009F207003CC0B3001620EF002AC1B300CC
:1038880005F20700DCC0B3001BC0B300BAC0B30028
:1038980001F207005CC0B3001620EF009AC1B30024
:1038A800FDF10700B1E70700CDA2A9000000000064
:1038B800C9A2A900711623000020EF0080487800F3
:1038C8000020EF00208789000020EF000087890092
:1038D8000020EF00F08689000AB024000B002000C9
:1038E8007CF407000020EF00000178006810E10078
:1038F80003003100170007000420EC00FBFF37002D
:103908000020EF00408B89000020EF00708F8900B5
:103918000020EF00108789000AB024000B00200067
:1039280085F307000020EF00000178006810E1002F
:103938000300310084FF07000420EC00FBFF370080
:10394800B6F107004F067800CF0578004F057800DC
:043958000000060065
:10005C000020EF000A00E1000400310084F80700E2
:10006C000060FE000020EC00FAFF370000000600E4
:00007C0084
:020000040000FA
:10E27C00A7A021000E20ED00FEFF3A0000000000D8
:08E28C00000000000000060084
:020000040001F9
:10007C000000FA00217420006204200073052000A7
:10008C00824878008348780042C7A9000080FA00B3
:04009C00000006005A
:1000A0000000FA008D1F78001D00200057FB07009C
:1000B0008000780001007800CF0678000080FA0008
:0400C0000000060036
:020000040000FA
:10EE0C000000FA007954E100020036000220EF0005
:10EE1C00C6013700605CE10088003A006168E100DF
:10EE2C0001003A00920407006054E10003003A002C
:10EE3C00006C20000C4878007D0037006154E10024
:10EE4C0003003A00106C20000C4878007800370062
:10EE5C006254E10003003A00206C20000C4878005A
:10EE6C00730037006354E10003003A00306C20005B
:10EE7C000C4878006E0037006454E10003003A003F
:10EE8C00406C20000C487800690037006554E100A4
:10EE9C0003003A00506C20000C48780064003700E6
:10EEAC006654E10003003A00606C20000C487800C6
:10EEBC005F0037006754E10003003A00706C2000DB
:10EECC000C4878005A0037006854E10003003A00FF
:10EEDC00806C20000C487800550037006954E10024
:10EEEC0003003A00906C20000C487800500037006A
:10EEFC006A54E10003003A00A06C20000C48780032
:10EF0C004B0037006B54E10003003A00B06C20005A
:10EF1C000C487800460037006C54E10003003A00BE
:10EF2C00C06C20000C487800410037006D54E100A3
:10EF3C0003003A00D06C20000C4878003C003700ED
:10EF4C006E54E10003003A00E06C20000C4878009D
:10EF5C00370037006F54E10003003A00F06C2000DA
:10EF6C000C487800320037007054E10003003A007E
:10EF7C00006D20000C4878002D0037007154E10022
:10EF8C0003003A00106D20000C4878002800370070
:10EF9C007254E10003003A00206D20000C48780008
:10EFAC00230037007354E10003003A00306D200059
:10EFBC000C4878001E0037007454E10003003A003E
:10EFCC00406D20000C487800190037007554E100A2
:10EFDC0003003A00506D20000C48780014003700F4
:10EFEC007654E10003003A00606D20000C48780074
:10EFFC000F0037007754E10003003A00706D2000D9
:10F00C000C4878000A0037007854E10003003A00FD
:10F01C00806D20000C487800050037007954E10021
:10F02C0003003A00906D20000C4878000000370077
:10F03C006168E10001003A00CBF90700615CE10076
:10F04C0083003A006168E10001003A0008040700FF
:10F05C006064E10003003A00106820000A48780060
:10F06C00780037006164E10003003A00206820005A
:10F07C000A487800730037006264E10003003A002C
:10F08C00606820000A4878006E0037006364E10075
:10F09C0003003A00706820000A48780069003700C5
:10F0AC006464E10003003A00806820000A4878009C
:10F0BC00640037006564E10003003A0090682000AA
:10F0CC000A4878005F0037006664E10003003A00EC
:10F0DC00E06820000A4878005A0037006764E100B5
:10F0EC0003003A00F06820000A4878005500370009
:10F0FC006864E10003003A00406920000A48780087
:10F10C00500037006964E10003003A0050692000A8
:10F11C000A4878004B0037006A64E10003003A00AB
:10F12C00606920000A487800460037006B64E100F3
:10F13C0003003A00406A20000A487800410037007A
:10F14C006C64E10003003A00506A20000A48780021
:10F15C003C0037006D64E10003003A00606A200057
:10F16C000A487800370037006E64E10003003A006B
:10F17C00706A20000A487800320037006F64E100A2
:10F18C0003003A00806A20000A4878002D003700FE
:10F19C007064E10003003A00906A20000A4878008D
:10F1AC00280037007164E10003003A00A06A2000D7
:10F1BC000A487800230037007264E10003003A002B
:10F1CC00C06A20000A4878001E0037007364E10012
:10F1DC0003003A00D06A20000A4878001900370072
:10F1EC007464E10003003A00E06A20000A487800E9
:10F1FC00140037007564E10003003A00006B200036
:10F20C000A4878000F0037007664E10003003A00EA
:10F21C00106B20000A4878000A0037007764E10080
:10F22C0003003A00206B20000A48780005003700E4
:10F23C007864E10003003A00406B20000A48780033
:10F24C00000037006168E10001003A0046F9070050
:10F25C006054E10005003A001600AE00C802A90097
:10F26C001600AF00C802A800AF0037006154E100DF
:10F27C0005003A001600AE00C822A9001600AF0027
:10F28C00C822A800A80037006254E10005003A002B
:10F29C001600AE00C842A9001600AF00C842A80074
:10F2AC00A10037006354E10005003A001600AE00DF
:10F2BC00C862A9001600AF00C862A8009A00370007
:10F2CC006454E10005003A001600AE00C882A900A3
:10F2DC001600AF00C882A800930037006554E10007
:10F2EC0005003A001600AE00C8A2A9001600AF0037
:10F2FC00C8A2A8008C0037006654E10005003A0053
:10F30C001600AE00C8C2A9001600AF00C8C2A80003
:10F31C00850037006754E10005003A001600AE0086
:10F32C00C8E2A9001600AF00C8E2A8007E003700B2
:10F33C006854E10005003A001600AE00C902A900AD
:10F34C001600AF00C902A800770037006954E1002D
:10F35C0005003A001600AE00C922A9001600AF0045
:10F36C00C922A800700037006A54E10005003A0079
:10F37C001600AE00C942A9001600AF00C942A80091
:10F38C00690037006B54E10005003A001600AE002E
:10F39C00C962A9001600AF00C962A800620037005C
:10F3AC006C54E10005003A001600AE00C982A900B9
:10F3BC001600AF00C982A8005B0037006D54E10055
:10F3CC0005003A001600AE00C9A2A9001600AF0055
:10F3DC00C9A2A800540037006E54E10005003A00A1
:10F3EC001600AE00C9C2A9001600AF00C9C2A80021
:10F3FC004D0037006F54E10005003A001600AE00D6
:10F40C00C9E2A9001600AF00C9E2A8004600370007
:10F41C007054E10005003A001600AE00D002A900BD
:10F42C001600AF00D002A8003F0037007154E10075
:10F43C0005003A001600AE00D022A9001600AF005D
:10F44C00D022A800380037007254E10005003A00C1
:10F45C001600AE00D042A9001600AF00D042A800A2
:10F46C00310037007354E10005003A001600AE007D
:10F47C00D062A9001600AF00D062A8002A003700A5
:10F48C007454E10005003A001600AE00D082A900C9
:10F49C001600AF00D082A800230037007554E1009D
:10F4AC0005003A001600AE00D0A2A9001600AF006D
:10F4BC00D0A2A8001C0037007654E10005003A00E9
:10F4CC001600AE00D0C2A9001600AF00D0C2A80032
:10F4DC00150037007754E10005003A001600AE0025
:10F4EC00D0E2A9001600AF00D0E2A8000E00370051
:10F4FC007854E10005003A001600AE00D102A900D4
:10F50C001600AF00D102A800070037007954E100C3
:10F51C0005003A001600AE00D122A9001600AF007B
:10F52C00D122A80000003700F10F20000100780064
:08F53C000080FA000000060047
:10D774000000FA00217420006204200073052000D8
:10D78400824878008348780042C7A8000080FA00E5
:04D79400000006008B
:020000040001F9
:100ADC000800FA00F0FF2F0040478800E0CA290008
:100AEC0050478800F0FF2F0060478800F0FF2F0070
:100AFC00704788002022EF000000280022A2B700D7
:100B0C002062A9009CFA0700823E2000030020000E
:100B1C0090FA07000003BE009BFA07008000EB0070
:100B2C008100D1000080D30064024000E0824800C4
:100B3C000A01BE000402E900030035000201D000E6
:100B4C008381D200FBFF370002079800130798003F
:100B5C00869FBE008A9FBE000600BE000082EB008E
:100B6C005DF707004F05BE004F03BE00200798003D
:100B7C00310798008A9FBE000600BE000E0190004F
:100B8C009E0190000082EB007FF707004F05BE002E
:100B9C008001780001027800600047005081D1008C
:100BAC00C080D300640047003008E1002090E100D1
:100BBC0003003D00E180410060014A000200370063
:100BCC0083007800040178006008E1006090E10087
:100BDC002F003A0068FA0700823E20000300200034
:100BEC005CFA07000003BE0067FA07008000EB0008
:100BFC008100D1000080D30062024000E0824800F6
:100C0C000A01BE000402E900030035000201D00015
:100C1C008381D200FBFF370002079800130798006E
:100C2C00869FBE000600BE000082EB002AF707007C
:100C3C004F03BE0020079800310798000600BE0045
:100C4C000E0190009E0190000082EB004EF7070011
:100C5C008001780001027800600047005081D100CB
:100C6C00C080D300640047003008E1002090E10010
:100C7C0003003D00E180410060014A0002003700A2
:100C8C0083007800040178002062A800000037007F
:100C9C0080222000618850002222A90021E2A800B5
:100CAC002342A80024FA07000080FA000000060086
:000CBC0038
:020000040000FA
:10F5840002C42900030020000200BE00000006009F
:00F5940077
:0CF59400210020000100780000000600AB
:10F5440028002000A74620000E20ED00FEFF3A0010
:0CF554001020ED00FCFF3A000000060053
:10F560000000FA00020AB800500088000200B8004B
:10F5700081004200032AB800810042000080FA00A6
:04F580000000060081
:10E8E4000000FA0002000700C674040000000000E3
:10E8F4000800E20002003A001000070000000600D1
:10E90400811F78000200E20002003D006000100058
:10E91400E08018000600E20002003D0060011100E2
:10E92400E0811900050007004F00E00002003B00F1
:10E9340060001000E08018000000060002000700DC
:10E944000480BE00000006006022B8000602200019
:10E954000000D0008180D2000482D2008582D200DF
:10E964000000A8000202520083825A0003003B0008
:10E974000202420083824A000000A1000603E9006B
:10E98400F3FF3A00000006000080FA0000000600D1
:00E9940083
:10E994000000FA00020007001875040000000000DF
:10E9A4000800E20002003A00100007000000060020
:10E9B400839F68000200E20002003D006000100036
:10E9C400E08018000600E20002003D006001110032
:10E9D400E0811900050007004F00E00002003B0041
:10E9E40060001000E0801800000006006022B800FB
:10E9F400060220000000D0008180D2000482D200F0
:10EA04008582D2000000A8000202520083825A00CC
:10EA140003003B000202420083824A000000A1007E
:10EA24000603E900F3FF3A00000006000080FA0044
:04EA340000000600D8
:020000040001F9
:10395C000000FA0031118000010078000080FA00AC
:04396C000000060051
:100740000800FA00F0FF2F004047880080BA290017
:1007500050478800F0FF2F0060478800F0FF2F000F
:10076000704788003022EF000000280032A2B70056
:100770003062A90083FB0700823E200003002000B6
:1007800077FB07000003BE0082FB07008000EB0040
:100790008100D1000080D30064024000E082480064
:1007A0000A01BE000402E900030035000201D00086
:1007B0008381D200FBFF37000207980013079800DF
:1007C000869FBE008A9FBE000600BE000082EB002E
:1007D00044F807004F05BE004F03BE0020079800F5
:1007E000310798008A9FBE000600BE000E019000EF
:1007F0009E0190000082EB0066F807004F05BE00E6
:100800008001780001027800600047005081D1002B
:10081000C080D300640047003008E1002090E10070
:1008200003003D00E180410060014A000200370002
:1008300083007800040178006008E1006090E10026
:100840002F003A004FFB0700823E200003002000EB
:1008500043FB07000003BE004EFB07008000EB00D7
:100860008100D1000080D30062024000E082480095
:100870000A01BE000402E900030035000201D000B5
:100880008381D200FBFF370002079800130798000E
:10089000869FBE000600BE000082EB0011F8070034
:1008A0004F03BE0020079800310798000600BE00E5
:1008B0000E0190009E0190000082EB0035F80700C9
:1008C0008001780001027800600047005081D1006B
:1008D000C080D300640047003008E1002090E100B0
:1008E00003003D00E180410060014A000200370042
:1008F00083007800040178003062A800000037000F
:1009000080232000618850003222A90031E2A80033
:100910003342A8000BFB07000080FA00000006002D
:00092000D7
:103750000000FA00B1118000010078000080FA003A
:04376000000006005F
:100024000421EF000021EF00F0E1240002A1B70059
:1000340005E1A80040442200A4A0B7008460A90000
:100044009460A8008560A9009560A80087C0A900F5
:0800540097C0A800000006009F
:10376400004E200020A3B7002223EF007070200039
:1037740024A3B7003223EF003023EF0021E3A80095
:04378400000006003B
:104654000000FA00CEB897003EBA97002EB9970032
:104664009EB997004022EF004222EF00F0FF2F0096
:10467400F0468800F0FF2F00004788000B0075000B
:104684000C0070000D007000010070000400700048
:1046940082007000202420000388700040C2A9001A
:0C46A40041E2A8000080FA0000000600BF
:1046B000CCA2A80000000000C8A2A9000020EF00C2
:1046C0006A04E10004003100ECE60700E14040002C
:1046D00001407800FAFF370045EE07000080FB003C
:1046E000610060006000E10003003A0031EE070065
:1046F0000220EF0001003700F1FF2F0001007800D9
:0447000000000600AF
:020000040000FA
:10FFF0008A1F7800CCA2A900000000007ACDB300CF
:020000040001F9
:10000000B9FA07008CFA0700D0A1200090407800D0
:10001000CCA2A80000000000014078004F05780045
:0400200000000600D6
:020000040000FA
:10EAE800401280004022AF00FEFF37000A80FB0082
:10EAF80048A2B7004002AE00FEFF37004012800077
:04EB08000000060003
:10EA3800401280004022AF00FEFF37004822EF005E
:10EA48004002AE00FEFF3700D1A1200048C2BF003F
:08EA5800804878000000060070
:10FFB4008A1F7800CCA2A90000000000DAC3B300B5
:10FFC400C8FA0700AAC2B300C6FA07000AC8B300F9
:10FFD400C4FA07006ACAB300C2FA0700CCA2A80098
:0CFFE4009EFA07004F05780000000600A0
:10EA60000420EF00401F20000010E1000C003100E6
:10EA70005F050700C1A12000804878008080FB006E
:10EA800000082000008060006000E100010032000A
:10EA900003003700CDF907000420EC00F1FF370038
:04EAA000000006006C
:10D1CC00A72920000E20ED00FEFF3A000000000011
:08D1DC00000000000000060045
:020000040001F9
:103970000000FA00CEB897003EBA97002EB9970023
:103980009EB997006022EF006222EF00F0FF2F0047
:10399000F0468800F0FF2F00004788000B007500FC
:1039A0000C0070000D007000010070000400700039
:1039B00082007000202620000388700060C2A900E9
:0C39C00061E2A8000080FA000000060090
:1039CC008A1F78008B1F78008C1F78008D1F780061
:1039DC00E2932000E0972A00110020000006BE00B0
:1039EC00020578008005EB0036F70700F294200002
:1039FC0080982A00110020000006BE000205780005
:103A0C008005EB002FF707000020EF000220EF00ED
:103A1C0090478800A147880061F8220030C5B300A8
:103A2C0080587800D0C4B3008058780030C5B300FB
:103A3C008058780030C4B300805878000020EF0024
:103A4C00805878000820EF006820E1005400310015
:103A5C00900020000401B800608F2000020040009C
:103A6C008000780000C3B3008058780000C3B30016
:103A7C0080587800E0C2B3008058780000C3B300CF
:103A8C008058780000C3B300805878000020EF0005
:103A9C0080587800900020000401B80000992000A4
:103AAC00020040008000780000C3B300805878000A
:103ABC0000C3B30080587800E0C2B300805878008F
:103ACC0000C3B3008058780000C3B300805878005E
:103ADC000020EF0080587800400020008020DD009E
:103AEC0060EC2200010040008000780000C2B300AE
:103AFC00805878000020EF008058780010012000DA
:103B0C000401B80020C120000200400080007800B1
:103B1C0000C3B3008058780000C3B300805878000D
:103B2C0000C3B3008058780000C3B30080587800FD
:103B3C0000C3B3008058780000C3B30080587800ED
:103B4C0000C3B3008058780000C3B30080587800DD
:103B5C0000C3B3008058780000C3B30080587800CD
:103B6C0000C3B3008058780000C3B30080587800BD
:103B7C0000C3B3008058780000C3B30080587800AD
:103B8C0000C3B3008058780000C3B300805878009D
:103B9C000020EF00805878000820EC00AAFF3700C6
:103BAC000420EF006410E1000B0031004000200005
:103BBC008010DD0060F422000100400080007800DD
:103BCC0000C2B300805878000020EF0080587800C5
:103BDC000420EC00F3FF37000820EF006420E10024
:103BEC000B003100100120000401B800809D200062
:103BFC00020040008000780000C3B30080587800B9
:103C0C000020EF00805878000820EC00F3FF37000C
:103C1C000C0420001620EF00AAC9200097F607001C
:103C2C000C0420001620EF002AE8220093F607006F
:103C3C000C0420001620EF002ACE20008FF607007F
:103C4C000C0120001620EF000A9720008BF60700CD
:103C5C000C0120001620EF000A98200087F60700C0
:103C6C000020EF008060880021A220000020EF00DF
:103C7C00804878008C0020001620EF006AAE2000EF
:103C8C007EF607000420EF0001002000E0AE2000CB
:103C9C0081004000E09320008008780090A3200071
:103CAC008200400040C0B30080487800F0A820009B
:103CBC008200400040C0B3008048780040BA200029
:103CCC008200400000C1B30080487800E100410050
:103CDC0001017800100020008008DD00E0AE20001B
:103CEC0081004000F09420008008780090A3200010
:103CFC008200400060C0B30080487800F0A820002B
:103D0C008200400040C0B3008048780040BA2000D8
:103D1C008200400000C2B30080487800E1004100FE
:103D2C0001017800100020008008DD00E0AE2000CA
:103D3C0081004000208F20008008780090A3200094
:103D4C008200400030C4B30080487800F0A8200006
:103D5C008200400040C0B3008048780040BA200088
:103D6C008200400040C0B30080487800E100410070
:103D7C0001017800100020008008DD00E0AE20007A
:103D8C008100400060F822008008780090A3200099
:103D9C008200400040C0B30080487800F0A82000AA
:103DAC00820040000020EF008048780040BA2000DC
:103DBC0082004000F0C1B30080487800E10041006F
:103DCC0001017800100020008008DD00E0AE20002A
:103DDC0081004000A0CD20008008780090A3200036
:103DEC008200400000C4B30080487800F0A8200096
:103DFC00820040000020EF008048780040BA20008C
:103E0C008200400040C0B30080487800E1004100CF
:103E1C0001017800100020008008DD00E0AE2000D9
:103E2C0081004000E0CD20008008780090A32000A5
:103E3C008200400000C4B30080487800F0A8200045
:103E4C00820040000020EF008048780040BA20003B
:103E5C008200400040C0B30080487800E10041007F
:103E6C0001017800100020008008DD00E0AE200089
:103E7C008100400020EC22008008780090A32000F4
:103E8C008200400000C4B30080487800F0A82000F5
:103E9C00820040000020EF008048780040BA2000EB
:103EAC008200400040C0B30080487800E10041002F
:103EBC0001017800100020008008DD00E0AE200039
:103ECC008100400020FB22008008780090A3200095
:103EDC008200400000C4B30080487800F0A82000A5
:103EEC00820040000020EF008048780040BA20009B
:103EFC008200400040C0B30080487800E1004100DF
:103F0C0001017800100020008008DD00E0AE2000E8
:103F1C008100400060FB22008008780090A3200004
:103F2C008200400000C4B30080487800F0A8200054
:103F3C00820040000020EF008048780040BA20004A
:103F4C008200400040C0B30080487800E10041008E
:103F5C0001017800100020008008DD00E0AE200098
:103F6C0081004000A0FA22008008780090A3200075
:103F7C008200400000C4B30080487800F0A8200004
:103F8C00820040000020EF008048780040BA2000FA
:103F9C008200400040C0B30080487800E10041003E
:103FAC0001017800100020008008DD00E0AE200048
:103FBC0081004000E0FA22008008780090A32000E5
:103FCC008200400000C4B30080487800F0A82000B4
:103FDC00820040000020EF008048780040BA2000AA
:103FEC008200400040C0B30080487800E1004100EE
:103FFC0001017800100020008008DD00E0AE2000F8
:10400C0081004000C0FB22008008780090A32000B3
:10401C008200400000C4B30080487800F0A8200063
:10402C00820040000020EF008048780040BA200059
:10403C008200400040C0B30080487800E10041009D
:10404C0001017800100020008008DD00E0AE2000A7
:10405C008100400000FC22008008780090A3200022
:10406C008200400000C4B30080487800F0A8200013
:10407C00820040000020EF008048780040BA200009
:10408C008200400040C0B30080487800E10041004D
:10409C0001017800100020008008DD00E0AE200057
:1040AC0081004000A0BF20008008780090A3200071
:1040BC008200400040C0B30080487800F0A8200087
:1040CC008200400040C0B3008048780040BA200015
:1040DC0082004000C0C0B30080487800E10041007D
:1040EC0001017800100020008008DD00E0AE200007
:1040FC0081004000A0FB22008008780090A32000E3
:10410C008200400010C4B30080487800F0A8200062
:10411C00820040000020EF008048780040BA200068
:10412C008200400010C0B30080487800E1004100DC
:10413C0001017800100020008008DD00E0AE2000B6
:10414C0081004000A0B920008008780090A32000D6
:10415C008200400010C4B30080487800F0A8200012
:10416C00820040000020EF008048780040BA200018
:10417C008200400020C0B30080487800E10041007C
:10418C0001017800100020008008DD00E0AE200066
:10419C008100400050AE20008008780090A32000E1
:1041AC008200400010C4B30080487800F0A82000C2
:1041BC00820040000020EF008048780040BA2000C8
:1041CC008200400010C0B3008048780061024100BA
:1041DC000620EF006818E1001700310010002000E5
:1041EC008020DD00E0AE20000101400040002000F6
:1041FC008018DD0060EC22000109400090A3200033
:10420C008400400040C0B30080487800F0A8200033
:10421C00840040000020EF008048780040BA200065
:10422C0084004000F0C0B300804878000820EC0007
:10423C000620EC00E7FF37000620EF006418E100D1
:10424C0017003100100020008020DD00E0AE2000BF
:10425C0001014000400020008018DD0060F42200C5
:10426C000109400090A320008400400040C0B3002E
:10427C0080487800F0A82000840040000020EF0067
:10428C008048780040BA200084004000F0C0B300A1
:10429C00804878000820EC000620EC00E7FF37008F
:1042AC00100020008020DD00E0AE200081004000E6
:1042BC00F0C020008008780090A32000840040000B
:1042CC0010C4B30080487800F0A82000840040009F
:1042DC000020EF008048780040BA200084004000A5
:1042EC0010C0B30080487800610342000420EF0046
:1042FC006810E10015003100100020008030DD0056
:10430C00E0AE200081004000C0B9200082084000CF
:10431C0090A320008600400010C4B30080487800B1
:10432C00F0A820008600400040C0B3008048780010
:10433C0040BA20008600400010C0B30080487800CE
:10434C000C20EC000420EC00E9FF37000620EF0005
:10435C006818E10017003100100020008030DD00EB
:10436C00E0AE200001014000100020008018DD00AC
:10437C00009720000109400090A320008600400017
:10438C0020C0B30080487800F0A8200086004000D0
:10439C0040C0B3008048780040BA2000860040003E
:1043AC0020C0B300804878000C20EC000620EC0004
:1043BC00E7FF37000A20EF006828E1001700310002
:1043CC00100020008030DD00E0AE20000102400033
:1043DC00900020000501B800608F2000020A400008
:1043EC0090A320008600400040C0B30080487800B5
:1043FC00F0A820008600400040C0B3008048780040
:10440C0040BA20008600400080C0B300804878008D
:10441C000C20EC000A20EC00E7FF37000620EF0030
:10442C006818E10017003100100020008030DD001A
:10443C00E0AE200001014000100020008018DD00DB
:10444C00009820000109400090A320008600400045
:10445C0010C4B30080487800F0A82000860040000B
:10446C0040C0B3008048780040BA2000860040006D
:10447C0020C0B300804878000C20EC000620EC0033
:10448C00E7FF37000A20EF006828E1001700310031
:10449C00100020008030DD00E0AE20000102400062
:1044AC00900020000501B80000992000020A40008D
:1044BC0090A320008600400040C0B30080487800E4
:1044CC00F0A820008600400040C0B300804878006F
:1044DC0040BA20008600400080C0B30080487800BD
:1044EC000C20EC000A20EC00E7FF37000A20EF005C
:1044FC006828E10017003100100020008030DD003A
:10450C00E0AE200001024000100120000501B800BF
:10451C0020C12000020A400090A320008600400029
:10452C0040C0B30080487800F0A82000860040000E
:10453C0040C0B3008048780040BA2000860040009C
:10454C0000C1B300804878000C20EC000A20EC007D
:10455C00E7FF37000620EF006418E1001700310078
:10456C00100020008030DD00E0AE20000101400092
:10457C00100020008018DD0060AE20000109400012
:10458C0090A320008600400010C4B300804878003F
:10459C00F0A820008600400040C0B300804878009E
:1045AC0040BA20008600400020C0B300804878004C
:1045BC000C20EC000620EC00E7FF37000A20EF008F
:1045CC006428E10017003100100020008030DD006D
:1045DC00E0AE200001024000100120000501B800EF
:1045EC00809D2000020A400090A32000860040001D
:1045FC0040C0B30080487800F0A82000860040003E
:10460C0040C0B3008048780040BA200086004000CB
:10461C0000C1B300804878000C20EC000A20EC00AC
:10462C00E7FF3700CF0678004F067800CF057800FB
:08463C004F05780000000600A4
:1016D0000800FA000C0798001D0798002A079800D8
:1016E0003B0798000E0090009E009000A10188002A
:1016F00010417800024378002E00900002487800E4
:101700006034E10001003A002B0037008E009000A9
:10171000F0FF270080806000F0FF27000008E10054
:101720000A003A00600047008C9FBE008A9FBE00FE
:101730001B0020000C0020000005780030F307009B
:101740004F05BE004F06BE00050037001100200007
:10175000020020006000470010984000101049006F
:10176000AE009000F0FF270080806000F0FF2700AF
:101770000008E1000A003A00640047008C9FBE00A8
:101780008A9FBE001B0020000C002000000578008E
:101790001BF307004F05BE004F06BE0005003700D3
:1017A0001100200002002000640047001098400053
:1017B00010104900CBFF3700BE0090002E009000B3
:0817C0000080FA0000000600A1
:020000040000FA
:10E400000000FA0000002800010020000058E10090
:10E4100001E0E100070031001A00BE000B014000DE
:10E420008C81480005E0AE0002003700028DBE007E
:10E430002A0037000A0078008000EB0062014000EB
:10E44000E0814800020278000A0078008000EB00BA
:10E4500061004000E08048008002780012407800AF
:10E460000080FB00610060006000E10004003A00F1
:10E470009580FB00F007200000806000804A780053
:10E48000144078000080FB004100DE00004A780064
:10E490001A00BE000B1D40000C9548001440780087
:10E4A0000080FB004100DD00004A78009580FB0001
:10E4B00000082000008060006000E10003003200DE
:10E4C0001480FB0061007000004A78009580FB001A
:10E4D0000008200000807000804A78000080FA0068
:04E4E0000000060032
:020000040001F9
:101688000C0378000A0278008B82FB000C00E20051
:10169800030032000603E90006800900055A7800B5
:0416A8000000060038
:102E48000200FA000020EF0000079800C802A8005E
:102E5800C822A8006880A80068A0A8000000000098
:102E6800CA02AF000100370020003700CA22AF00B5
:102E7800010037001D003700C802A900C822A800B9
:102E880000000000CC02A80000000000600047001D
:102E98001000A000CA22AE001000A100CC02A900B8
:102EA80000000000600047001010A100CA22AE0018
:102EB8001010A00000000000CC02A80000000000D4
:102EC800600047001020A000CA22AE001020A10018
:102ED800CC02A90000000000600047001030A100EB
:102EE800CA22AE001030A000C802A8000E00900050
:082EF8000080FA000000060052
:102560000200FA008B1F78008C1F78000420EF0017
:102570008A1F78008A4578001420EF0032FC07009B
:102580004F057800C1A2200080487800610041001A
:10259000000178008A1F78008A45780000057800DD
:1025A00029FC07004F057800D1A220008048780060
:1025B00061004100000178008A1F78008A45780098
:1025C0000005780020FC07004F057800E1A22000FC
:1025D0008048780061004100000178008A1F78007F
:1025E0008A4578000005780017FC07004F05780041
:1025F000F1A22000804878006100410000017800CD
:102600008A1F78008A457800000578000EFC0700D4
:102610004F05780031A22000804878006100410019
:10262000000178008A1F78008A457800000578004C
:1026300005FC07004F05780041A220008048780083
:1026400061004100000178008A1F78008A45780007
:1026500000057800FCFB07004F05780051A2200020
:102660008048780061004100000178008A1F7800EE
:102670008A45780000057800F3FB07004F057800D5
:1026800061A22000804878006100410000017800CC
:102690008A1F78008A45780000057800EAFB070069
:1026A0004F05780071A22000804878006100410049
:1026B000000178008A1F78008A45780000057800BC
:1026C000E1FB07004F05780081A2200080487800D8
:1026D00061004100000178008A1F78008A45780077
:1026E00000057800D8FB07004F05780091A2200074
:1026F0008048780061004100000178008A1F78005E
:102700008A45780000057800CFFB07004F05780068
:10271000A1A22000804878006100410000017800FB
:102720008A1F78008A45780000057800C6FB0700FC
:102730004F05780021FB22008048780061004100AD
:10274000000178008A1F78008A457800000578002B
:10275000BDFB07004F05780031FB22008048780060
:1027600061004100000178008A1F78008A457800E6
:1027700000057800B4FB07004F05780041FB2200FC
:102780008048780061004100000178008A1F7800CD
:102790008A45780000057800ABFB07004F057800FC
:1027A00051FB220080487800610041000001780060
:1027B0008A1F78008A45780000057800A2FB070090
:1027C0004F05780041A32000804878006100410057
:1027D000000178008A1F78008A457800000578009B
:1027E00099FB07004F05780051A32000804878002E
:1027F00061004100000178008A1F78008A45780056
:102800000005780090FB07004F05780061A32000C9
:102810008048780061004100000178008A1F78003C
:102820008A4578000005780087FB07004F0578008F
:1028300071A3200080487800610041000001780009
:102840008A1F78008A457800000578007EFB070023
:102850004F057800A1FA220080487800610041000D
:10286000000178008A1F78008A457800000578000A
:1028700075FB07004F057800B1FA22008048780008
:1028800061004100000178008A1F78008A457800C5
:10289000000578006CFB07004F057800C1FA2200A4
:1028A0008048780061004100000178008A1F7800AC
:1028B0008A4578000005780063FB07004F05780023
:1028C000D1FA2200804878006100410000017800C0
:1028D0008A1F78008A457800000578005AFB0700B7
:1028E0004F057800A1FB220080487800610041007C
:1028F000000178008A1F78008A457800000578007A
:1029000051FB07004F057800A1B9200080487800EE
:1029100061004100000178008A1F78008A45780034
:102920000005780048FB07004F057800B1B920008A
:1029300080487800610041008A1F78008A4578004D
:102940000005780040FB07004F057800B1FB22002E
:1029500080487800030220000420EF007F10E1008F
:102960000D00310060F822000200400000079800CE
:102970008A1F78008A4578000305780032FB07003B
:102980004F0578008E009000804878000620EC000B
:102990000420EC00F1FF370060F8220082004000C4
:1029A0000020EF0080487800020420008A1F780091
:1029B0008A4578000A04200023FB07004F057800B1
:1029C000E1FA2200804878006100410000017800AF
:1029D0008A1F78008A457800000578001AFB0700F6
:1029E0004F057800F1FA220080487800610041002C
:1029F000000178008A1F78008A4578000005780079
:102A000011FB07004F05780001FB22008048780089
:102A100061004100000178008A1F78008A45780033
:102A20000005780008FB07004F05780011FB220025
:102A30008048780061004100000178008A1F78001A
:102A40008A45780000057800FFFA07004F057800F6
:102A5000C1FB22008048780061004100000178003D
:102A60008A1F78008A45780000057800F6FA07008A
:102A70004F057800D1FB22008048780061004100BA
:102A8000000178008A1F78008A45780000057800E8
:102A9000EDFA07004F057800E1FB2200804878003E
:102AA00061004100000178008A1F78008A457800A3
:102AB00000057800E4FA07004F057800F1FB2200DA
:102AC0008048780061004100000178008A1F78008A
:102AD0008A45780000057800DBFA07004F0578008A
:102AE00001FC22008048780061004100000178006C
:102AF0008A1F78008A45780000057800D2FA07001E
:102B00004F05780011FC22008048780061004100E8
:102B1000000178008A1F78008A4578000005780057
:102B2000C9FA07004F05780021FC22008048780090
:102B3000610041008A1F78008A457800000578000E
:102B4000C1FA07004F05780031FC22008048780068
:102B50000C20EF000020EF00000278006820E10068
:102B60001D0031000A20EF006F28E1001000310045
:102B7000400020008020DD0060EC220001004000C9
:102B800005004000000798008A1F78008A457800F9
:102B90000605780092FA07004F0578008E00900035
:102BA000804878000A20EC000C20EC00EEFF370093
:102BB000400020008020DD0060EC22000100400089
:102BC000850040000020EF00804878000C20EC00D9
:102BD0000820EC00E1FF37000820EF0086027800B3
:102BE0006420E1001E0031000020EF0000037800A7
:102BF0006F30E10010003100400020008020DD0037
:102C000060F4220001004000060040000007980028
:102C10008A1F78008A4578000505780070FA070059
:102C20004F0578008E009000804878000C20EC0062
:102C30000A20EC00EEFF3700400020008020DD007D
:102C400060F4220001004000860040000020EF00F8
:102C5000804878000A20EC000820EC00E0FF3700F4
:102C6000A1CD2000C0A220008A1F78004C002000C7
:102C700080057800010578008CFA070021EC22001D
:102C800070A220004C00200080057800010578002B
:102C900086FA0700E1CD200030A220004C00200081
:102CA000800578000105780080FA070061FB2200AA
:102CB00040A320004C00200080057800010578002A
:102CC0007AFA07004F0578006054E10004003A00EA
:102CD0008A1F780088F807003BFB07004F05780043
:102CE00051AE20000020EF0080487800F1C02000A5
:102CF0000020EF008048780081A320000020EF0032
:102D00008048780071FA22000020EF0080487800A7
:102D1000D05C80006000E10004003A00B1A2200015
:102D200010C0B3008048780003003700B1A2200033
:102D30000020EF00804878000020EF0080518800DC
:102D40004F067800CF0578000080FA0000000600EA
:002D500083
:10164800605CE10007003A00F0992A008A00400037
:101658001000200034A0B7001140780080407800C6
:10166800030037008005EB00C2F3070080407800D4
:081678000140780000000600AB
:020000040000FA
:10E57C00F0FF2F00F1012000000065008180650094
:10E58C000005BE00CCA2A900000000008A9FBE00BE
:10E59C003AC0B300510107004F05BE008A9FBE0070
:10E5AC000B4578004D0107004F05BE0040012000CF
:10E5BC000020EC00104078008A9FBE0000457800D7
:10E5CC00460107004F05BE00440107001701070074
:10E5DC00D0A1200090407800CCA2A8000140780087
:04E5EC000000060025
:020000040001F9
:1015E0008A1F78008B1F7800605CE10007003A00DA
:1015F000B09E2A008A0040001000200034A0B700EE
:101600001140780080407800090037000A01780016
:101610008001EB00002020000100200000004100BC
:10162000818049000005BE00D4F3070080407800A7
:1016300001407800CF0578004F05780000000600D3
:00164000AA
:1016AC000C0378000A0278008B0278000C00E20030
:1016BC00030032000603E90006800900355A780061
:0416CC000000060014
:100EF8000200FA008A1F78008B1F78008C1F780088
:100F08008D1F7800A0FB2200104078006104E100EA
:100F180003003600A1FB220010C0B300804878000F
:100F28001BC0B3001420EF0074F507000420EF0085
:100F3800A1CD20000020EF00800178006418E100B6
:100F4800080031001CC0B300914578000205780004
:100F580006F607000420EC000620EC000220EC0056
:100F6800F6FF3700E1CD20000020EF008001780077
:100F78006418E100080031001CC0B30091457800F6
:100F880002057800F9F507000420EC000620EC00C3
:100F98000220EC00F6FF370021EC22000020EF00D1
:100FA800800178006418E100080031001CC0B3001B
:100FB8009145780002057800ECF507000420EC0064
:100FC8000620EC000220EC00F6FF370021FB22008F
:100FD8000020EF00800178006418E100080031006B
:100FE8001CC0B3009145780002057800DFF50700C2
:100FF8000420EC000620EC000220EC00F6FF37008D
:1010080061FB22000020EF00800178006418E100F5
:10101800080031001CC0B300914578000205780033
:10102800D2F507000420EC000620EC000220EC00BA
:10103800F6FF3700A1FA22000020EF0080017800B7
:101048006418E100080031001CC0B3009145780025
:1010580002057800C5F507000420EC000620EC0026
:101068000220EC00F6FF3700A0FB22001CC0B300F2
:101078009045780002057800BCF50700E1004100C2
:1010880001017800A0B920001CC0B3009045780089
:1010980001057800B5F50700E1004100010178007D
:1010A800B0B920001CC0B300904578000105780055
:1010B800AEF50700E1004100B0FB22001CC0B30000
:1010C8009045780001057800A8F507000302200084
:1010D80061F822000420EF00000220000010E10067
:1010E800090031001CC0B300914578000305780061
:1010F8009EF50700618041000420EC000220EC000E
:1011080080017800F4FF370002042000E1FA220091
:101118000020EF00800178006418E1000800310029
:101128001CC0B30091457800020578008FF50700D0
:101138000420EC000620EC000220EC00F6FF37004B
:10114800C1FB22000020EF00800178006418E10054
:10115800080031001CC0B3009145780002057800F2
:1011680082F507000420EC000620EC000220EC00C9
:10117800F6FF370001FC22000020EF008201780012
:10118800000178006410E100090031001CC0B300C0
:10119800914578000305780074F5070061804100E7
:1011A8000420EC000220EC0080017800F5FF3700F5
:1011B8001BC0B3001420EF002AF50700EC1F200025
:1011C8000D0020001420EF001620EF00A6F1070004
:1011D800000798001CC0B3008E459000EA1F20004D
:1011E80062F50700600047000020EC00104078001E
:1011F8001CC0B30080457800FA1F20005BF507008B
:101208001BC0B3001420EF0016F50700CF067800C6
:101218004F067800CF0578004F0578000080FA0067
:0412280000000600BC
:020000040000FA
:10E50400CCA2A90000000000615CE10005003A0013
:10E514008A1F78004AC8B300720107004F057800CB
:10E52400040037008A1F78007AC8B3006D01070021
:10E534004F0578008A1F78001420EF006901070056
:10E544001420EF00670107001420EF0065010700A5
:10E554004F0578000220EF00002020000008E100B1
:10E56400030031005F0107000220EC00FAFF3700CE
:08E57400CCA2A8000000060083
:10E774008A1F7800F01F2000000065000005780063
:10E78400CCA2A900000000006164E10005003A0089
:10E794008A1F78004AC8B300D20007004F057800EA
:10E7A400040037008A1F78007AC8B300CD00070040
:10E7B4004F0578008A1F78001420EF00C900070075
:10E7C4004F057800400120000020EC001040780044
:10E7D4008A1F780000457800C20007004F057800C2
:10E7E400C00007000B457800BE000700CCA2A800BB
:08E7F4004F057800000006004B
:10E66C008A1F7800C150DD00F0FF2100008060009F
:10E67C0000057800CCA2A90000000000615CE1005C
:10E68C0005003A008A1F78000AC6B3001301070080
:10E69C004F057800040037008A1F78001AC6B300B3
:10E6AC000E0107004F057800400120000020EC000F
:10E6BC00104078008A1F7800004578000701070099
:10E6CC004F057800050107008A1F78001420EF0021
:10E6DC00020107004F057800CCA2A800DD0007005E
:10E6EC00C0A120009080FB0000042000008060008E
:10E6FC006000E10001003A0019003700CCA2A9002B
:10E70C0000000000615CE10005003A008A1F7800FF
:10E71C003AC8B300F10007004F0578000400370039
:10E72C008A1F78006AC8B300EC0007004F05780018
:10E73C00400120000020EC00104078008A1F780077
:10E74C0000457800E50007004F057800E30007005E
:10E75C001420EF00E1000700CCA2A800BD000700C8
:08E76C004F05780000000600D3
:10D870000200FA00F0FF2F00F10120000000650017
:10D88000818065000005BE00F0FF2F0000079800B2
:10D89000CCA2A900000000008A9FBE003AC0B300DD
:10D8A000910407004F05BE008A9FBE000B4578001B
:10D8B0008D0407004F05BE00400120000020EC0051
:10D8C000104078008A9FBE0000457800860407005B
:10D8D0004F05BE00840407000820EF000A20EF0077
:10D8E0000C20E1000DA8E1001600310052040700F1
:10D8F000600047000020EC0090417800D0A120009B
:10D900009080FB00600047001080FB008080680072
:10D91000100020008008DD00E0672A008100400040
:10D920001000200034A0B700110178008380FB00B4
:10D93000600047000288680061024200E0824A00FD
:10D94000E7FF3700CCA2A8000E0090000080FA008C
:04D9500000000600CD
:020000040001F9
:1019C8008A1F78008B1F78008C1F780061EC22003A
:1019D8000020EF0000017800000820000010E1005E
:1019E800070031001CC0B30091457800020578005B
:1019F8005EF307000420EC000220EC00F6FF37003D
:101A080061F422000020EF000001780000042000AB
:101A18000010E1000900310000082000000041002A
:101A28001CC0B30091457800000578004FF307000B
:101A38000420EC000220EC00F4FF37001BC0B300C8
:101A48001A00200007F307004F067800CF0578003A
:081A58004F05780000000600B4
:102D50000400FA008A1F78008B1F78008C1F78000F
:102D60008D1F78000C20EF00EC1F20000D002000CC
:102D70001420EF001620EF00BDEA070000017800E4
:102D8000EA1F20000B002000FCED07000047980020
:102D9000600047000020EC0010079800FA1F200098
:102DA0000B002000F5ED07009E00900080487800A1
:102DB000600047001010E10002003A00F1FF2F0010
:102DC000010037008600780001007800CF06780007
:102DD0004F067800CF0578004F0578000080FA0094
:042DE00000000600E9
:102F00008A1F78008B1F780024E822000A20EF0037
:102F1000000420000028E1000C00310005017800C9
:102F20008001EB0000402000010020000000410073
:102F3000818049000005BE0090ED0700004A78003E
:102F40000A20EC000820EC00F1FF37000E20EF0013
:102F50006838E1000D003100300020008038DD00CD
:102F600020E8220001024000100120000701B80003
:102F700020C1200002004000800578000405780090
:102F8000AAF807000E20EC00F1FF3700CF0578000B
:082F90004F0578000000060067
:10122C000400FA008B0078000020EF008058780052
:10123C000420EF006810E1000F003100820045002F
:10124C00600047008A9FBE00800578001145780039
:10125C005DFA07004F05BE00600047008A9FBE0084
:10126C000B0578008005780032F907004F05BE00A9
:10127C000420EC00EFFF37000080FA0000000600AD
:00128C0062
:020000040000FA
:10FBD4008B02780040012000000278001443780072
:10FBE4004433DE00F600B2000603B00090032000A8
:10FBF4000030E1000100360067034300865A7800B4
:10FC040014437800F600B2000603B000900320000D
:10FC14000030E1000100360067034300865A780093
:0CFC24000003EB00864A78000000060098
:10F740000A0278008B0278003404E000FEFF3A00E1
:10F750000402E900155A78003504E000FDFF3A0084
:04F76000000006009F
:020000040001F9
:1033F8008A1F78000420EF006810E10012003100F5
:10340800300020008010DD0020E82200010040008C
:103418009040780060C2B300000CE10008003A0058
:10342800300020008010DD0020E82200010040006C
:10343800821F78000005780050F807004F017800D7
:103448000420EC00ECFF37004F0578000000060070
:0034580074
:10158400A8F807008A1F78005AC5B30074F807004A
:101594004F05780013C0B3000380FB000020ED006A
:1015A400000045008A1F7800104578006CF8070099
:1015B4004F057800681CE1000300320061C041005F
:1015C40080417800F4FF37008A1F78004ACBB300CB
:0C15D40063F807004F05780000000600D7
:020000040000FA
:10F828000220EF00803EFC00C142A800000000005A
:10F83800C4E2A90000000000C0E2A9008DF507009D
:10F84800C4E2A8008FF507008AF50700C4E2A90002
:10F8580000E8230052A0B70086F5070085F50700E9
:10F86800C342AF0002003700F1FF2F00000037004D
:10F8780084F507005220EF00010078000000060020
:00F8880080
:10CE7C00071920000E20ED00FEFF3A00000006000E
:00CE8C00A6
:10CE8C0057D020000E20ED00FEFF3A0000000000FD
:04CE9C00000006008C
:10F76400C142A80000000000C4E2A900000000009B
:10F77400C0E2A90000F50700FFF407000420EF0031
:10F784006810E1001E003100803EFC00C4E2A800C5
:10F79400F9F40700F8F40700100020000200DD006F
:10F7A4008A80FB000080FB00008060000220EF00E4
:10F7B4006000E1000200320010C0B3008040780015
:10F7C400610CE10001003A00C4E2A900AAF50700B7
:10F7D400E9F40700E8F40700E7F40700E6F407009B
:10F7E400E5F40700E4F40700C4E2A900E2F407002A
:10F7F400E1F407005220EF000420EC00E0FF3700A2
:04F8040000000600FA
:10CB7C00170220000E20ED00FEFF3A00000000001E
:04CB8C00000006009F
:020000040001F9
:103458008A1F7800F2F00700CACCB300BFF007005B
:103468004AC4B300BDF007004F057800000006000D
:0034780054
:102F98000200FA008A1F78008B1F78008C1F7800C7
:102FA800AFFA070000082200A12A2D003046880049
:102FB8004146880010EE220001002000F0858900BB
:102FC80001868900A4FA07000020EF00D046880097
:102FD8000020EF000220EF0050468800614688007C
:102FE8000020EF00E04688000020EF00A04688009F
:102FF8000020EF00504388000020EF004040880088
:103008000020EF00C0868900518020000020EF00DA
:1030180080487800A18320000020EF0080487800D5
:103028000020EF00B04588000182200000C2B300F4
:10303800805878000020EF0080587800C902A80066
:10304800D4E2A80000000000D0E2A900AA002000F5
:1030580000F40700F0F90700AA002000FDF30700BC
:1030680003FA07000B0021004AC0B300EEF2070084
:10307800EBFF25006AC0B300EBF207000B00260047
:103088006AC1B300E8F207001B0026008AC1B3003A
:10309800E5F207000B002100AAC8B300E2F207001E
:1030A80000002100704088001620EF001420EF0077
:1030B800DDF207000B8020006AC8B300DAF20700CF
:1030C800EB5E2000AAC4B300D7F207005B01200022
:1030D8004AC4B300D4F20700805180006000E100C8
:1030E8001F003200800A2300104078000047980033
:1030F80060004700E1004000900A230090487800F3
:103108008E0590004AC6B300C7F20700A00A230044
:10311800104078000047980060004700E100400038
:10312800B00A2300904878008E0590002AC6B300A4
:10313800BDF20700C00A230010407800004798003D
:1031480060004700E1004000D00A23009048780062
:103158008E0590000AC6B300B3F2070021003700BD
:103168004AC6B3008FF2070000079800810A2300BF
:103178000E40900080487800600047000020EC0076
:1031880090407800900A2300014878002AC6B300CE
:1031980084F2070000079800A10A23000E4090005F
:1031A80080487800600047000020EC0090407800DC
:1031B800B00A2300014878000AC6B30079F2070074
:1031C80000079800C10A23000E409000804878004C
:1031D800600047000020EC0090407800D00A2300EF
:1031E800014878002AC4B3006EF20700000798006F
:1031F8006100700000079800800578002AC4B300B9
:1032080089F207001B5E20004AC0B3006EF9070070
:103218001B002000EAC1B300DDF10700803E20005A
:10322800F0438800803E20001086890000A8240012
:1032380041282400804388009143880000A8240086
:10324800412824006044880071448800ABF90700D5
:103258000EF30700CFF307001820EF001620EF0049
:103268001420EF005CF407000C0120001620EF008A
:103278004AFC220002F907000C0120001620EF008A
:103288004AFD2200FEF807002AC0B3008BF30700AE
:10329800AA0020006FF30700A0002000C085890065
:1032A8000020EF00308689000020EF000220EF00A8
:1032B8005040880061408800004625000100200039
:1032C800D0448800E1448800F10A23000020EF0080
:1032D800804878000020EF00304088000020EF0090
:1032E800E08689000020EF00704388000020EF008E
:1032F800604388000000210010408800300420004E
:10330800C04488004004200070468800401F200008
:10331800D0868900401F2000508B8900F00F2000C4
:10332800004088004F067800CF0578004F057800E8
:083338000080FA00000006000D
:081A68001F00FC000000060055
:081A60005220EF000000060017
:0C18200000000000D4E2A8000000060058
:101878008A1F78008B1F78004B2321006AC1B300B0
:10188800E9F807006AC1B300C6F807004123210040
:101898000100E10001003A0001003700F6FF3700BF
:1018A8000B012000EAC6B30039F80700AAC1B3004B
:1018B800BCF8070001A021008100600000A0210001
:1018C8000008E10001003A0001003700F7FF370087
:1018D80068F207006AC1B300B2F807006000E100CF
:1018E80001003A0001003700E3FF370061F207000A
:0C18F800CF0578004F05780000000600C6
:020000040000FA
:10FC30008A1F78008B1F78008C1F78000B067800D5
:10FC40008A4578002AC2B3002DF507004F067800D8
:0CFC5000CF0578004F057800000006008A
:10D100008A1F780015F707000AF707000B4578001B
:10D1100008F707000C45780006F70700800120009B
:10D120000020EC00104078000045780001F707006F
:0CD13000BB1107004F057800000006004E
:08AD5C00D4E2A900000006008A
:10AD3400401380006022AF00FEFF37000A80FB0052
:10AD440068A2B7006002AE00FEFF37004113800026
:08AD5400014078000000060038
:10FBAC008A1F78008B1F78008A4578000AC2B30040
:10FBBC003BF507008000780001007800CF05780045
:08FBCC004F057800000006005F
:10D0AC000400FA008A1F780029F707001EF7070012
:10D0BC000B4578001CF707001420EF001AF7070047
:10D0CC0000479800600047000020EC001007980013
:10D0DC001420EF0014F707009E00900080487800A1
:10D0EC00CC1107000E0090004F0578000080FA006C
:04D0FC00000006002A
:10F998008A1F78008B1F78008C1F78000B06780070
:10F9A8008A4578004AC2B300D3F507004F067800AD
:0CF9B800CF0578004F0578000000060025
:020000040001F9
:1017D0008A1F78008A80FB00001020000100700042
:1017E0008B1F7800800578004AC5B30010F9070008
:1017F000CF0578006AC6B3000DF907008A1F78008C
:10180000AAC6B300E9F807004F0578006100600040
:101810006000E100F9FF3A004F0578000000060083
:00182000C8
:101904008A1F78008B1F78008C1F78000620EF0058
:10191400621CE100270031008380FB0040002000AE
:101924008008DD0060FE22000100400066004000E7
:101934004C0020001620EF000005780051FF07003E
:101944008380FB00400020008008DD0060FE220050
:10195400010040006A0040006C0020001620EF00E7
:101964000005780047FF07008380FB00400020004B
:101974008008DD0060FE2200810040000020EF00AE
:10198400800878008380FB00400020008008DD0090
:1019940060FE220001004000620140000020EF00D0
:1019A4000220EF000089BE0061C041008041780040
:1019B400D7FF37004F067800CF0578004F05780031
:0419C4000000060019
:020000040000FA
:10FE94008A1F78008B1F78008C1F78000E20EF00DB
:10FEA400693CE1003E0031008780FB002001200016
:10FEB4000101B80060002300020040004C00200053
:10FEC4001620EF0000057800EE0507008780FB0090
:10FED400200120000101B80060002300020040005E
:10FEE400640040006C0020001620EF00000578003C
:10FEF400E40507008780FB00200120000101B80011
:10FF04006000230002004000EA0040000020EF00EF
:10FF1400800878008780FB00200120000101B800E0
:10FF24006000230002004000EC0040000020EF00CD
:10FF3400800878008780FB00200120000101B800C0
:10FF44006000230002004000EE0040000020EF00AB
:10FF5400800878008780FB00200120000101B800A0
:10FF64006000230002004000F00040000020EF0089
:10FF7400804878008780FB00200120000101B80040
:10FF84006000230002004000F10040000020EF0068
:10FF94008048780061C0430080437800C0FF370088
:10FFA4004F067800CF0578004F0578000000060062
:00FFB4004D
:020000040001F9
:10019C008A1F78008B1F78008C1F78000E20EF00D0
:1001AC00683CE100870031008780FB00C0422000E2
:1001BC000101B80020D22000820040000020EF0096
:1001CC00800878008780FB00C04220000101B80045
:1001DC0020D2200002004000E20040000020EF008E
:1001EC00800878008780FB00C04220000101B80025
:1001FC0020D2200002004000640040004C0020008F
:10020C001620EF00000578001C0507008780FB0016
:10021C00C04220000101B80020D2200002004000A2
:10022C00680040006C0020001620EF0000057800EC
:10023C00120507008780FB00C04220000101B800B6
:10024C0020D2200002004000EE0040000020EF0011
:10025C00800878008780FB00C04220000101B800B4
:10026C0020D2200002004000700140000020EF006E
:10027C000220EF000089BE008780FB00C0422000F6
:10028C000101B80020D2200002004000740140009F
:10029C000020EF000220EF000089BE008780FB00E9
:1002AC00C04220000101B80020D220000200400012
:1002BC00F80040000020EF00800878008780FB00E9
:1002CC00C04220000101B80020D2200002004000F2
:1002DC00FA0040000020EF00800878008780FB00C7
:1002EC00C04220000101B80020D2200002004000D2
:1002FC00FC004000C0002000800878008780FB00D4
:10030C00C04220000101B80020D2200002004000B1
:10031C007E0140000020EF000220EF000089BE00AB
:10032C008780FB00C04220000101B80020D22000D1
:10033C008200400020022000008140000020EF00DD
:10034C000220EF000089BE008780FB00C042200025
:10035C000101B80020D22000820040006002200081
:10036C00808040000020EF00800878008780FB0030
:10037C00C04220000101B80020D2200082004000C1
:10038C0080022000808040000020EF008008780070
:10039C008780FB00C04220000101B80020D2200061
:1003AC0082004000A0022000008040008000780005
:1003BC000020EF008058780061C043008043780033
:1003CC0077FF37004F067800CF0578004F0578008F
:0403DC000000060017
:1003E0002A7F89008B8589007C86890000000600B1
:0003F0000D
:0C00C400000D23000A4878000000060030
:103340008A1F78008B1F78008C1F78000420EF0004
:1033500000A62E000010E100110031000060FE0008
:10336000A9F50700CAC1B30010F20700010420004C
:10337000010060006000E10001003200A3F50700D9
:1033800092E7070091E7070089F507006000E10078
:1033900001003200020037000420EC00ECFF37008F
:1033A000304080006000E1000B0032004C00200043
:1033B000FBCFB3004A0D2300B3F807006C002000D8
:1033C000FBCFB3002A0B2300AFF807008BC0B3007C
:1033D000FACFB30006F40700E08681006000E10048
:1033E000010032001DF207004F067800CF0578007B
:0833F0004F0578000000060003
:040A080000000600E4
:100A0C000400FA008A1F78008B1F78008C1F780076
:100A1C000C6420000B8020007A40800028FB07002B
:100A2C007B4080006AC8B3007EFC07001DFB0700FA
:100A3C00E1802000804878001AFB0700F18020003C
:100A4C00804878004B8120006AC8B30075FC070011
:100A5C00600047000020EC001007980011FB070015
:100A6C009E009000804878000EFB0700004798001D
:100A7C0080802000304488000B102000EAC1B300B5
:100A8C00C2FB070071408000000021000008E1005B
:100A9C0004003A00EBFF25006AC0B30061FC0700BC
:100AAC00050037007040800000A0ED008005780044
:100ABC006AC0B3005BFC07000E0090004F06780084
:100ACC00CF0578004F0578000080FA000000060082
:000ADC001A
:020000040000FA
:10F6CC008A1F78008B1F78006060E10001003A000F
:10F6DC00150037008B1F78008A057800AAC0B3008C
:10F6EC0050010700CF057800EAC0B3004D010700B8
:10F6FC008C057800CAC0B3004A0107004B032000F8
:10F70C00EAC1B300A10007008A1F7800EAC1B30068
:10F71C00230107004F057800010220000100600062
:10F72C006000E100F8FF3A00CF0578004F05780043
:04F73C0000000600C3
:10F6B0008A1F78008AC2B30037F8070080407800BC
:0CF6C000014078004F05780000000600B3
:10D798008A1F78006FF5070064F507001420EF0072
:10D7A80062F50700804078001B10070001407800F0
:08D7B8004F0578000000060097
:020000040001F9
:1009B0000200FA008A1F7800F0FF2F00000798005D
:1009C000AAC1B30079FC07000110200001006000FB
:1009D0006000E10008003A00AAC1B30073FC070000
:1009E00001102000010060006000E10002003A00F8
:1009F0000020EF00000798000E0090004F057800DF
:080A00000080FA00000006006E
:1003F0000400FA008A1F78008C1F7800685CE10016
:1004000001003600CA0037008B80FB00200120006D
:100410000101B80060002300020040006C024000AF
:100420008B80FB00200120000101B8006000230048
:10043000020040006A004000100A78008B80FB0038
:10044000200120000101B8006000230002004000EC
:10045000710240008B80FB00200120000101B800E8
:10046000600023000200400070004000104A780045
:100470008B80FB00200120000101B80060002300F8
:1004800002004000EA004000F0FF2F0080087800E2
:100490008B80FB00200120000101B80060002300D8
:1004A00002004000F00040000020EF00804878008B
:1004B0008B80FB00200120000101B80060002300B8
:1004C000020040008A9FBE004C0020001620EF0072
:1004D000000578006C0407004F05BE008B80FB0010
:1004E000200120000101B80060002300020040004C
:1004F000640040008A9FBE006C0020001620EF00C0
:1005000000057800600407004F05BE006054E1005C
:1005100001003A00860037008B80FB00200120009C
:100520000101B80060002300020040008B1F78002A
:100530004C0020004B0D2300000578005B040700F1
:10054000CF0578008B80FB00200120000101B8005E
:100550006000230002004000640040008B1F780010
:100560006C0020002B0B2300000578004F040700CF
:10057000CF0578003FFC0700C0032000000798006B
:100580008B1F78008BC0B300CA002000BEFC0700A0
:10059000CF0578001420EF009BFC07005AC4B3007D
:1005A00099FC07001420EF0097FC0700600047004B
:1005B0000020EC00104078000045780092FC070015
:1005C0000E45900090FC0700CACAB3008EFC0700DD
:1005D0000AC8B3008CFC07001420EF008AFC070057
:1005E0001420EF0088FC07000AC8B30086FC07004F
:1005F0001AC0B30084FC07001420EF0082FC07003F
:100600001420EF0080FC0700ADFC07008B1F780072
:100610004B012000EA002000E1FB070010079800D2
:10062000620047000020EC00104078008045780010
:100630008A01200094FC0700CF0578002E45900029
:1006400071FC07008B1F78008BC0B3002A022000CA
:100650008DFC0700CF0578001420EF006AFC07002E
:100660001420EF0068FC07001420EF0066FC070070
:100670003AC0B30064FC07001420EF0062FC0700DE
:100680004AC1B30060FC0700AAC0B3005EFC0700CB
:1006900000032000000798000105200060004700CB
:1006A0001008E100080036008A1F78000E4590000F
:1006B00055FC07004F05780011002000600047003E
:1006C00010884000F4FF37008A9FBE008B02200094
:1006D0002A022000B2FB07001007980062004700C2
:1006E0000020EC0010407800804578004A0220008D
:1006F00065FC07004F05BE008A1F78002E4590005C
:1007000041FC0700AA0420007CFC07004F0578008C
:100710008B80FB00200120000101B8006000230055
:1007200002004000EE0040000020EF00800878004A
:100730004F0678004F0578000080FA0000000600A0
:00074000B9
:020000040000FA
:10F674008A1F78008B1F78008C1F78006C00200094
:10F684001620EF002A0B2300D5F607006C0020009B
:10F694006B0020008A0A2300D1F607004F06780089
:0CF6A400CF0578004F057800000006003C
:10D1E4006060E10001003A00180037008A1F7800EF
:10D1F4008AC8B3008D0A07004F057800D6F60700E9
:10D204008A1F7800AAC2B300C9F607004F05780048
:10D214008A0078000020EF00810178000001780086
:10D224000C10E100080031008A1F780013457800D3
:10D23400BFF607004F057800618041000420EC0030
:10D2440080017800F6FF3700741107000000060023
:00D25400DA
:10F888008A1F78008B1F78008A0578008AC8B30021
:10F89800E5000700CF0578002EED0700AAC2B300E7
:10F8A80022ED07000B45780020ED0700DA07070076
:08F8B8004F0578000000060076
:10F808008A1F78008B1F78008A457800AAC2B30047
:10F818008EF60700CF0578004F0578000000060037
:00F82800E0
:10D254008A1F7800C0F60700B5F607000B45780072
:10D26400B3F607006D1107004F05780000000600B3
:00D27400BA
:10F8C0008A1F78008B1F78008C1F78004C00200066
:10F8D000AB012000CAA2200042F607004C00200025
:10F8E000EB0120004A0D23003EF607004F0678008A
:0CF8F000CF0578004F05780000000600EE
:10F5A0000400FA008A1F78008B1F78000020EF000B
:10F5B000000798006058E10001003A002800370079
:10F5C0008A1F7800EAC1B300780107004F05780070
:10F5D00001022000010060006000E100F8FF3A0035
:10F5E0008B1F78008A057800AAC0B300900107003D
:10F5F000CF057800CAC0B3008D010700CB01200001
:10F60000EAC1B3006EF807000B022000EAC1B300A4
:10F61000E10007008A1F7800EAC1B3006301070018
:10F620004F05780001022000010060006000E10049
:10F63000F8FF3A000AC1B3005C0107001007980008
:10F64000620047000020EC0010407800004798005E
:10F6500060004700E10040002E40900080487800A4
:10F660000E009000CF0578004F0578000080FA006A
:04F670000000060090
:10D7C0008A1F78008B1F78008C1F78000B0678006A
:10D7D0008A4578006AC2B30049FE07004F06780008
:0CD7E000CF0578004F057800000006001F
:10F8FC008A1F78008B1F78000060FE008A1F78003A
:10F90C001620EF001420EF00C60007004F0578000A
:10F91C008A0578002AC0B300C20007002B00200023
:10F92C00EAC1B30019000700120020008A1F7800FA
:10F93C00EAC1B3009A0007004F057800620060002E
:10F94C006000E10006003200610041000001780017
:10F95C006000E10001003A0001003700F3FF3700BE
:0CF96C00CF0578004F0578000000060071
:10FC5C000400FA008A1F78008B1F78008C1F780034
:10FC6C000020EF0000079800F10A23000020EF00AD
:10FC7C00804878000020EF00204798002E4090002C
:10FC8C006304E10026003100460307006000E10038
:10FC9C0001003A00760037007A46800033FF0700F7
:10FCAC00F10A230010C0B300804878001AC0B300DA
:10FCBC0041FF07000020EF00504388000420EF00B4
:10FCCC0082007800A01623001008E1000900310022
:10FCDC009EFF0700F00A2300104078006204E10048
:10FCEC0001003A0003003700524380008200780084
:10FCFC00F4FF37007A468000F7F90700F00A23007A
:10FD0C00104078006204E10001003A000400370062
:10FD1C00AE4090006200470061C84000D7FF37003A
:10FD2C00F00A2300104078006204E1000400320065
:10FD3C00F10A23000020EF00804878004C003700C7
:10FD4C000020EF00204798002E4090006304E10053
:10FD5C0029003100130307006000E10004003A00A1
:10FD6C00F10A23000020EF008048780040003700A3
:10FD7C007A468000FDFE0700F10A230020C0B30084
:10FD8C00804878003AC0B3000BFF07000020EF005A
:10FD9C00504388000420EF0082007800A016230056
:10FDAC001008E1000900310068FF0700F00A230089
:10FDBC00104078006304E10001003A0003003700B2
:10FDCC005243800082007800F4FF37007A468000AE
:10FDDC00C1F90700F00A2300104078006304E10029
:10FDEC0001003A0004003700AE409000620047006A
:10FDFC0061C84000D4FF3700F00A2300104078009F
:10FE0C006304E10004003200F10A23000020EF003B
:10FE1C0080487800160037004C0020005B872000DB
:10FE2C00CAA220001E0607004C002000AB8A20004E
:10FE3C007AA220001A0607004C0020006B8D2000CF
:10FE4C003AA22000160607004C002000EB8A200086
:10FE5C004AA32000120607000020EF000220EF004A
:10FE6C005040880061408800F0FF2F000007980088
:10FE7C000E0090004F067800CF0578004F057800F3
:08FE8C000080FA0000000600EE
:10F978008A1F78008B1F78008A0578008ACCB3002C
:10F9880098F70700CF0578004F05780000000600BB
:00F998006F
:10D7EC000820EF006058E10002003A008400780045
:10D7FC001A003700DEF207006000E1000200320080
:10D80C00F1FF2F001500370040C6B3000054E100B3
:10D81C0002003A0043FC22000100370043FD2200C5
:10D82C000220EF0004017800680CE1000A003100CE
:10D83C00130078006000E10003003A008B097800C7
:10D84C00F1FF2F000500370006A0EC0061C040007E
:10D85C0080407800F4FF37008200780001007800E7
:04D86C0000000600B2
:10A37C000220EF006058E10001003A0015003700A0
:10A38C0040C6B3000054E10002003A0043FC220036
:10A39C000100370043FD22000020EF00010178008E
:10A3AC0080407800680CE10009003100130078004F
:10A3BC000B00E10002003A00F1FF2F00050037000E
:10A3CC0006A0EC0061C0400080407800F5FF37002B
:0CA3DC00820078000100780000000600FC
:10F9C4008A1F78008B1F78008C1F78008A1F7800AC
:10F9D4006C002000FBCFB3001420EF00D8F0070028
:10F9E4006C0020006B0020008A0A2300FCF507004D
:10F9F4004C0020001620EF00AA012000D0F00700E0
:10FA04004C002000FBCFB300EA012000CCF007003B
:10FA14004F057800C2F007006354E100060032008D
:10FA24008A1F78004C002000CBA220005A872000B7
:10FA34001D0707004F057800940F20008A1F7800E7
:10FA4400CC002000BAAA2A001B002000F5F307000E
:10FA54004B0020001420EF00E1F30700CB0020004E
:10FA64001420EF00DEF307006B0020008A0A230055
:10FA7400C3F30700AB0C20001420EF00D8F30700F9
:10FA84004C0020007AAB2A001B002000E5F307009D
:10FA94005AC3B3005BFF07001AC0B30059FF070045
:10FAA4004F05780057FF07008A1F78002AC3B30068
:10FAB40054FF07004AC0B30052FF07004B00200068
:10FAC4005A872000AEF307004F0578006602420013
:10FAD4006354E1000A003A006AC3B30049FF070017
:10FAE4004AC0B30047FF07004B0020009A8720005C
:10FAF400A3F307006600420080017800010037008C
:10FB0400840178005C002000BAAB2A001B002000AE
:10FB1400C4F30700FACFB3003AFF070003067800E6
:10FB24007B468000CA4480008DEC07004F067800B5
:0CFB3400CF0578004F05780000000600A7
:10BD44008A1F78006060E10001003A0013003700A8
:10BD54008B1F78008A0578008AC8B300B30F0700E8
:10BD6400CF057800FCFB0700AAC2B300F0FB070074
:10BD74000020EF00000178000C10E1000600310003
:10BD84008A1F78000B457800E9FB07004F0578000F
:10BD94000420EC00F8FF3700A01607004F057800D8
:04BDA4000000060095
:10BD24008A1F78008B1F78001620EF009A022000EB
:10BD3400D40E0700CF0578004F05780000000600F8
:00BD4400FF
:10CA28006060E10001003A0013003700C9F8070010
:10CA38008A9FBE00AAC2B300BCF807004F05BE001B
:10CA48000420EF000C10E1000A003100AB0188005F
:10CA58008A9FBE001A457800B4F807004F05BE004B
:10CA680061004500E0804D000005BE000420EC0098
:0CCA7800F4FF3700681307000000060000
:10C9E4006058E10001003A000D003700DAF8070052
:10C9F4008A1F7800AAC2B300CDF807004F0578005B
:10CA04000020EF00000178000B10E100030031006A
:10CA1400C7F807000420EC00FBFF37007F13070072
:04CA24000000060008
:10C984006058E10001003A0014003700F2F8070093
:10C994008A1F7800AAC2B300E5F807004F057800A3
:10C9A4008A0078000020EF008101780000017800FF
:10C9B4000B10E100080031008A1F7800134578004D
:10C9C400DBF807004F057800618041000420EC008B
:10C9D40080017800F6FF370090130700000006007E
:00C9E40053
:10AD64000200FA008A1F78008B1F78008A9FBE00B9
:10AD74008BC0B300CA002000C21207004F05BE00FA
:10AD84008A1F78001420EF009E1207005AC4B300F3
:10AD94009C1207001420EF009A12070011002000F3
:10ADA400E087200010884000600047007C084600CF
:10ADB400600047000020EC00104078000045780057
:10ADC400901207000E4590008E120700F0872000B5
:10ADD400104578008B120700E087200010457800AA
:10ADE400881207001420EF00861207001420EF00D9
:10ADF400841207000AC8B300821207001AC1B30004
:10AE0400801207001420EF007E1207001420EF00C8
:10AE14007C1207004F0578008A9FBE004B0120007A
:10AE2400EA002000DD11070020868900500C230071
:10AE3400904578008A012000921207004F05BE0059
:10AE4400400C23008A1F7800104578006D1207001B
:10AE54004F057800600120000020EC0010407800CD
:10AE64008A9FBE00804578002A02200085120700D0
:10AE74004F05BE008A1F78000B4578006112070059
:10AE84004F057800400120000020EC0010407800BD
:10AE94008A1F7800004578005A1207004F05780091
:10AEA4005812070060004700680846006000470029
:10AEB4000020EC0010407800004578005112070093
:10AEC4000E4590004F1207001420EF004D120700AA
:10AED4001420EF004B1207000E4090006141600007
:10AEE400A0022000000046001620EF0000057800B4
:10AEF400641207001420EF00421207000280FB00D6
:10AF040080004600A0022000008040008C1F7800D2
:10AF14008C00200080057800AA012000EA110700B7
:10AF24004F0678000280FB0080004600A00220004B
:10AF340000804000680040001620EF000005780003
:10AF4400501207001AC1B3002E1207006000470018
:10AF54000020EC001040780000457800291207001A
:10AF64000E459000271207008280FB006000470016
:10AF7400108040006C004000800578002A02200008
:10AF840086110700004488006000E10002003A00D6
:10AF9400F0FF2F00004488001088200090457800BE
:10AFA4008A0220003712070000882000104578002C
:10AFB40014120700A00220000000460000079800B9
:10AFC400000578004C120700CF0578004F05780083
:08AFD4000080FA0000000600F5
:10FB58008A1F78000060FE00CAC1B30011000700C8
:10FB680001042000010060006000E1000B00320089
:10FB7800A4030700018020000100E10007003A000B
:10FB88003044800077004000000578000AF0070044
:10FB98007104E10001003A000EED07004F057800FE
:04FBA8000000060053
:10BBC0008A1F78008B1F78008A0578006AC8B30046
:10BBD0001710070061FC07008AC2B30055FC07007C
:10BBE0001420EF0053FC0700804078000C1707007A
:10BBF00001407800CF0578004F057800000006006E
:00BC000044
:10AFDC000A00FA008A1F78008B1F78008C1F7800FB
:10AFEC008D1F7800600047000020EC00400798009F
:10AFFC00410220006088200010804000000578008D
:10B00C00EC020700CE00900080487800A5110700E4
:10B01C00004798008E0590008ACCB300D4FC070042
:10B02C006000E10006003A00000D2300104078009B
:10B03C006104E10001003A0066FC0700D70237000A
:10B04C00304480007800400000057800D9020700E9
:10B05C00510C23008048780092110700410C23000A
:10B06C008048780081022000608820001080400019
:10B07C0000057800CF020700118820008048780076
:10B08C008811070001882000804878003044800037
:10B09C007000400000057800C602070031882000CF
:10B0AC00804878007F1107002188200080487800B4
:10B0BC00104480006E004000000678001620EF005F
:10B0CC003A4480007E1107001620EF008A01200010
:10B0DC00EA1107001420EF00C81107004B012000F3
:10B0EC00EA0020002B110700410C23001100E100A5
:10B0FC0001003200A9023700104480007C00E100FE
:10B10C0001003E00A5023700104480006141600040
:10B11C001620EF008A022000D81107001420EF003F
:10B12C00B6110700104480006E0040001620EF009E
:10B13C0000057800D11107001420EF00AF110700B3
:10B14C008280FB0020882000108040006E004000B0
:10B15C008C00200080057800AA01200058110700FF
:10B16C008280FB0020882000108040006E00400090
:10B17C00680040001620EF0000057800BF110700A2
:10B18C001AC1B3009D110700410120002088200046
:10B19C0010881000308820001045780097110700A7
:10B1AC002088200010457800941107008280FB0055
:10B1BC0020882000108040006C0040008005780042
:10B1CC002A022000F3100700018820001100E10082
:10B1DC00010032007102370081002000208820001D
:10B1EC0010881000620047000020EC004007980017
:10B1FC0021022000608820001080400000057800AB
:10B20C006C020700CE0090008048780025110700E2
:10B21C0020479800304480007A0040004C00200009
:10B22C000B8D200000057800CEFB0700B107200035
:10B23C00620047001008E1000420EF0001003A0012
:10B24C0004A0EE008E009000F0B925000008E1008B
:10B25C000020EF0001003A0000A0EE0000006100A9
:10B26C001E00320001032000208820001008E1009D
:10B27C001A003A00210520006088200090804000D0
:10B28C00640047004C002000800578000105780020
:10B29C007AFB0700F11907002E019000BE01900007
:10B2AC00A18C2000608C20003118410021904900B5
:10B2BC00E8190700F0FF2F00D04688000020EF00AF
:10B2CC00E04688000020EF00A0468800FBB925006E
:10B2DC008ACCB30086FB0700300237009E0090003A
:10B2EC00808920001008E1000420EF0001003A00E2
:10B2FC0004A0EE008E009000E08C20001008E1000D
:10B30C000020EF0001003A0000A0EE0000006100F8
:10B31C00DE003200A1022000608820001080400076
:10B32C00000578002302070000417800F10A230091
:10B33C0091407800610CE1000220EF0001003A001E
:10B34C0002A0EE006204E1000020EF0001003A00D0
:10B35C0000A0EE00008060000000E200400032001F
:10B36C00A103200060882000108040004C002000C9
:10B37C005B872000000578007AFB070031448000D1
:10B38C0090112000008040000005780009020700A1
:10B39C000820EF006024E1002D003A00C1100700E6
:10B3AC000041780051C3B3000104E1000A003A00E7
:10B3BC00BC1007006104E10005003A00B910070059
:10B3CC006204E10001003200F40137000100370093
:10B3DC00F20137001D00370060C3B3000014E10018
:10B3EC0009003A00AF1007006404E10004003A00C1
:10B3FC004B0020009A872000B1FD070001003700A8
:10B40C00E601370011003700F0CFB3000014E10063
:10B41C0003003A0010C0B300004278000B00370064
:10B42C00A01007008040780084417800014178002A
:10B43C006014E100040032009A10070061405100D2
:10B44C0000417800FAFF370003427800D1FF370043
:10B45C00F10A230020C0B300804878008A0037002E
