:100000009C1604000000000000000000000000003A
:1000100000000000000000000000000000000000E0
:1000200000000000000000000000000000000000D0
:1000300000000000000000000000000000000000C0
:100040000000000000000000061600000000000094
:1000500000000000000000000000000000000000A0
:100060000000000000000000000000000000000090
:10007000000000004420000000000000000000001C
:100080000000000000000000000000000000000070
:100090000000000000000000000000000000000060
:1000A0000000000000000000000000000000000050
:1000B0000000000000000000000000000000000040
:102D38008F8D2000F0FF200020A0B70000002000A9
:102D480034A0B700400020004420B7003400FA0047
:102D58008A1F78008B1F78008C1F7800E024EF0012
:102D6800E224EF000020EF00D04488000020EF00AC
:102D7800B04688000020EF00904688000020EF0051
:102D8800A04688000020EF00B04488000020EF0033
:102D9800C04488000020EF00004688000020EF00B3
:102DA8000220EF0010468800214688000020EF002E
:102DB8000220EF0050468800614688000020EF009E
:102DC8000220EF007046880081468800D0CC2C0095
:102DD800C1EC230090448800A1448800CD22A800BB
:102DE800C462A900C442A900C002A800C922A9005F
:102DF800C062A900C042A9004427EF0011E1A90060
:102E080013E1A9001061A8001021A90010C1A900B0
:102E18001081A90010A1A90001002100800A20004A
:102E28001088700000E023000CA1B7009004200077
:102E38000EA1B7000821EF000621EF00A800A800A6
:102E4800A820A900A840A9008500A9009500A8000D
:102E580011E1A8000A202C001B00200007FE070033
:102E680098002000773522000E20ED00FEFF3A0082
:102E78001020ED00FCFF3A00E000470030C5B30029
:102E88008058780040C5B3008058780010C4B3005B
:102E980080587800C0C4B30080587800C0C4B3001C
:102EA80080587800F0C5B3008058780040C4B3005B
:102EB8008058780090C4B3008058780030C5B300BB
:102EC8008058780040C5B3008058780020C5B3000A
:102ED8008058780090C4B3008058780020C4B300AC
:102EE8008058780050C5B3008058780040C5B300BA
:102EF80080587800F0C4B3008058780020C5B3002B
:102F080080587800F0C5B3008058780000C5B30039
:102F18008058780050C4B3008058780020C5B300AA
:102F28008058780090C4B30080587800F0C4B3008B
:102F38008058780040C4B30080587800D0C3B300EC
:102F4800805878000020EF00805878006000470023
:102F580000057800B5FD07000C802000AA9929001B
:102F68009BE923000EF907000A802000AFFD070047
:102F7800E000470040C4B3008058780070C5B30033
:102F880080587800F0C4B3008058780020C5B3009A
:102F98008058780040C4B3008058780080C2B300DD
:102FA8008058780030C5B3008058780040C5B30019
:102FB8008058780010C4B30080587800C0C4B300AB
:102FC80080587800C0C4B30080587800F0C5B300BA
:102FD8008058780040C4B3008058780090C4B3008B
:102FE8008058780030C5B3008058780040C5B300D9
:102FF8008058780020C5B3008058780090C4B3008A
:103008008058780020C4B3008058780050C5B300B9
:103018008058780040C5B30080587800F0C4B300E9
:103028008058780020C5B30080587800F0C5B300F8
:103038008058780000C5B3008058780050C4B300A9
:103048008058780020C5B3008058780090C4B30039
:1030580080587800F0C4B3008058780040C4B300AA
:1030680080587800F0C2B3008058780030C4B300AC
:1030780080587800C0C4B30080587800F0C4B3000A
:103088008058780030C4B30080587800B0C4B300CA
:1030980080587800F0C5B3008058780000C5B300A8
:1030A8008058780050C4B3008058780020C5B30019
:1030B8008058780090C4B30080587800F0C4B300FA
:1030C8008058780040C4B3008058780090C2B3009C
:1030D80080587800D0C3B300805878000020EF00F3
:1030E8008058780060004700000578004FFD070011
:1030F8000C8020000AE023009B042000D7FD070075
:103108000A80200049FD0700E000470000C5B30021
:103118008058780020C5B30080587800C0C4B30038
:1031280080587800D0C3B300805878000020EF00A2
:103138008058780060004700000578003BFD0700D4
:103148000B8020003A088000B8FA07000A802000A7
:1031580036FD0700E000470000C2B3008058780041
:1031680000C2B3008058780000C5B30080587800CA
:1031780020C5B3008058780080C4B3008058780018
:10318800D0C3B300805878000020EF008058780042
:103198006000470000057800ACF707000B802000AE
:1031A8004A088000A1FA07000A802000A7F7070054
:1031B800DA002000E5F40700BBFA07006240A80027
:1031C800AD80A800ADA0A800ADC0A8008660A90089
:1031D8009660A80098002000773522000E20ED00A8
:1031E800FEFF3A001020ED00FCFF3A00D4FD070076
:1031F8000000E2008F03320048FE0700101F98000D
:10320800010320000100E1000B003A000220EF005A
:10321800B14688000220EF00A14688000220EF0096
:10322800B14488000220EF00C14488000220EF006A
:10323800914688007F033700310720000100E10034
:1032480001003A0003003700310520000100E100C9
:1032580054003A00B046800000A0EE00B046880056
:1032680027003200E000470030C5B30080587800DE
:1032780040C7B3008058780010C6B3008058780063
:1032880040C7B3008058780050C6B3008058780013
:1032980000C2B30080587800C0C4B30080587800DA
:1032A800F0C6B3008058780070C6B3008058780024
:1032B80070C6B3008058780090C6B3008058780074
:1032C800E0C6B3008058780070C6B3008058780014
:1032D80000C2B30080587800F0C4B300805878006A
:1032E800E0C4B300805878000020EF0080587800D0
:1032F8006000470000057800C6FC0700280037007A
:10330800E000470030C5B3008058780040C7B300DC
:103318008058780010C6B3008058780040C7B300C2
:103328008058780050C6B3008058780000C2B300B7
:1033380080587800C0C4B30080587800F0C6B30045
:103348008058780070C6B3008058780070C6B30003
:103358008058780090C6B30080587800E0C6B30063
:103368008058780070C6B3008058780000C2B30057
:1033780080587800F0C4B3008058780060C4B30067
:103388008058780060C4B300805878000020EF00AF
:103398008058780060004700000578009DFC070011
:1033A80024033700300620009E1890000008E10032
:1033B80001003A0003003700300420000008E10053
:1033C8002B003A000020EF000220EF005046880052
:1033D800614688000020EF000220EF007046880058
:1033E80081468800E000470030C4B3008058780068
:1033F800F0C6B3008058780050C7B30080587800F2
:10340800E0C6B3008058780040C7B3008058780001
:1034180030C7B3008058780000C2B30080587800E5
:1034280030C4B30080587800C0C6B3008058780014
:1034380050C6B3008058780010C6B3008058780092
:1034480020C7B3008058780050C6B3008058780071
:1034580040C6B300805878000020EF0080587800FC
:1034680060004700000578006AFC0700F102370099
:10347800200620009E1890000008E10001003A0094
:1034880003003700200420000008E1001F013A0073
:1034980081882000D0C0B30080487800918820003F
:1034A8000020EF0080487800E000470020C5B30006
:1034B8008058780050C6B3008058780010C6B30012
:1034C8008058780040C6B3008058780090C6B30092
:1034D80080587800E0C6B3008058780070C6B30002
:1034E8008058780000C2B3008058780020C4B30028
:1034F80080587800C0C6B3008058780010C6B30062
:1035080080587800E0C6B30080587800B0C6B30091
:103518008058780090C6B30080587800E0C6B300A1
:103528008058780070C6B3008058780000C2B30095
:103538008058780060C5B3008058780010C6B30082
:1035480080587800C0C6B3008058780050C7B300D0
:103558008058780050C6B300805878000020EF00EB
:1035680080587800600047000005780029FC0700B3
:103578002CC0B3008B8820000A8020006CFD070057
:10358800E000470020C5B3008058780050C6B3005B
:103598008058780010C6B3008058780040C6B30041
:1035A80080587800A0C3B3008058780000C2B300E8
:1035B800805878000020EF008058780060004700AD
:1035C8000005780019FC07000A80200011FC07009C
:1035D8000A802000EFFC0700CF80DE000081EB00AE
:1035E80055F80700A2702D0033C2230005F6070026
:1035F8005044880061448800D2CC2C00C3D42300F6
:103608008DF607000000E0000020EF000100340004
:1036180000A0EE000000E2004300320050448000A9
:103628006144800090448800A1448800E00047007D
:10363800E0C4B3008058780050C6B30080587800C2
:1036480070C7B3008058780000C2B3008058780073
:1036580020C4B30080587800C0C6B30080587800F2
:1036680010C6B30080587800E0C6B30080587800D0
:10367800B0C6B3008058780090C6B3008058780070
:10368800E0C6B3008058780070C6B3008058780050
:1036980000C2B3008058780060C5B3008058780035
:1036A80010C6B30080587800C0C6B30080587800B0
:1036B80050C7B3008058780050C6B30080587800CF
:1036C80000C2B300805878000020EF0080587800CE
:1036D8006000470000057800D4FB07009044800094
:1036E800A144800002002000832C2400C5F50700B7
:1036F8000C8020000005BE0029F707000A80200082
:10370800CAFB0700E000470050C2B30080587800A9
:103718000020EF008058780060004700000578001E
:10372800BCFB070078003700E000470060C5B30025
:103738008058780010C6B30080587800C0C6B3001F
:103748008058780050C7B3008058780050C6B3003E
:103758008058780000C2B3008058780020C5B300B4
:103768008058780050C6B3008058780010C6B3005F
:103778008058780040C6B3008058780000C2B30073
:103788008058780070C7B3008058780010C6B3001E
:103798008058780030C7B3008058780000C2B30062
:1037A8008058780040C7B30080587800F0C6B3004E
:1037B80080587800F0C6B3008058780000C2B30083
:1037C8008058780030C7B30080587800D0C6B3005E
:1037D8008058780010C6B30080587800C0C6B3007F
:1037E80080587800C0C6B3008058780000C2B30083
:1037F80080587800D0C6B3008058780050C7B3000E
:103808008058780030C7B3008058780040C7B300AC
:103818008058780000C2B3008058780020C6B300F2
:103828008058780050C6B3008058780000C2B300B2
:103838008058780070C6B3008058780020C7B3005D
:103848008058780050C6B3008058780010C6B3007E
:103858008058780040C7B3008058780050C6B3003D
:103868008058780020C7B3008058780000C2B300A1
:103878008058780040C7B3008058780080C6B300ED
:103888008058780010C6B30080587800E0C6B300AE
:103898008058780000C2B3008058780050C3B30045
:1038A8008058780050C2B300805878000020EF009C
:1038B80080587800600047000005780055FB070035
:1038C80090448000A144800002002000832C240042
:1038D8004CF507000C8020000005BE00B0F607007C
:1038E8000A80200051FB0700E000470050C2B300E7
:1038F800805878000020EF0080587800600047006A
:103908000005780043FB0700CA01370000072000C4
:103918009E1890000008E10001003A0003003700FB
:10392800000520000008E10070003A00A046800071
:1039380000A0EE00A046880035003200E0004700F5
:1039480000C5B3008058780050C6B300805878008E
:1039580020C7B3008058780090C6B300805878001C
:10396800F0C6B3008058780040C6B300805878008D
:1039780000C2B3008058780050C4B3008058780063
:1039880020C7B3008058780020C7B300805878005B
:10399800F0C6B3008058780020C7B300805878007C
:1039A80000C2B30080587800C0C4B30080587800C3
:1039B800F0C6B3008058780070C6B300805878000D
:1039C80070C6B3008058780090C6B300805878005D
:1039D800E0C6B3008058780070C6B30080587800FD
:1039E80000C2B30080587800F0C4B3008058780053
:1039F800E0C4B300805878000020EF0080587800B9
:103A0800600047000005780002FB07003600370019
:103A1800E000470000C5B3008058780050C6B300E6
:103A28008058780020C7B3008058780090C6B3004B
:103A380080587800F0C6B3008058780040C6B300BC
:103A48008058780000C2B3008058780050C4B30092
:103A58008058780020C7B3008058780020C7B3008A
:103A680080587800F0C6B3008058780020C7B300AB
:103A78008058780000C2B30080587800C0C4B300F2
:103A880080587800F0C6B3008058780070C6B3003C
:103A98008058780070C6B3008058780090C6B3008C
:103AA80080587800E0C6B3008058780070C6B3002C
:103AB8008058780000C2B30080587800F0C4B30082
:103AC8008058780060C4B3008058780060C4B300A0
:103AD800805878000020EF00805878006000470088
:103AE80000057800CBFA07005201370020072000B4
:103AF8009E1890000008E10001003A00030037001A
:103B0800200520000008E1004C003A0090468000A3
:103B180000A0EE009046880023003200E000470035
:103B280020C5B3008058780000C5B30080587800DD
:103B3800D0C4B3008058780000C2B3008058780021
:103B4800C0C4B30080587800F0C6B300805878002D
:103B580070C6B3008058780070C6B30080587800EB
:103B680090C6B30080587800E0C6B300805878004B
:103B780070C6B3008058780000C2B300805878003F
:103B8800F0C4B30080587800E0C4B30080587800CF
:103B98000020EF008058780060004700000578009A
:103BA8009CFA070024003700E000470020C5B30056
:103BB8008058780000C5B30080587800D0C4B3009E
:103BC8008058780000C2B30080587800C0C4B300A1
:103BD80080587800F0C6B3008058780070C6B300EB
:103BE8008058780070C6B3008058780090C6B3003B
:103BF80080587800E0C6B3008058780070C6B300DB
:103C08008058780000C2B30080587800F0C4B30030
:103C18008058780060C4B3008058780060C4B3004E
:103C2800805878000020EF00805878006000470036
:103C38000005780077FA0700FE00370040072000EB
:103C48009E1890000008E10001003A0003003700C8
:103C5800400520000008E10070003A00B0448000F0
:103C680000A0EE00B044880035003200E0004700B4
:103C780020C5B3008058780050C6B300805878003B
:103C880010C6B30080587800C0C6B30080587800CA
:103C980040C5B3008058780090C6B30080587800BB
:103CA800D0C6B3008058780050C6B300805878005A
:103CB80000C2B3008058780020C5B300805878004F
:103CC80000C5B30080587800D0C4B300805878008D
:103CD80000C2B30080587800C0C4B3008058780090
:103CE800F0C6B3008058780070C6B30080587800DA
:103CF80070C6B3008058780090C6B300805878002A
:103D0800E0C6B3008058780070C6B30080587800C9
:103D180000C2B30080587800F0C4B300805878001F
:103D2800E0C4B300805878000020EF008058780085
:103D3800600047000005780036FA070036003700B3
:103D4800E000470020C5B3008058780050C6B30093
:103D58008058780010C6B30080587800C0C6B300F9
:103D68008058780040C5B3008058780090C6B300EA
:103D780080587800D0C6B3008058780050C6B30089
:103D88008058780000C2B3008058780020C5B3007E
:103D98008058780000C5B30080587800D0C4B300BC
:103DA8008058780000C2B30080587800C0C4B300BF
:103DB80080587800F0C6B3008058780070C6B30009
:103DC8008058780070C6B3008058780090C6B30059
:103DD80080587800E0C6B3008058780070C6B300F9
:103DE8008058780000C2B30080587800F0C4B3004F
:103DF8008058780060C4B3008058780060C4B3006D
:103E0800805878000020EF00805878006000470054
:103E180000057800FFF907008600370090062000AB
:103E28009E1890000008E10001003A0003003700E6
:103E3800900420000008E10070003A00C0448000AF
:103E480000A0EE00C044880035003200E0004700C2
:103E580020C5B3008058780050C6B3008058780059
:103E680010C6B30080587800C0C6B30080587800E8
:103E780040C5B3008058780090C6B30080587800D9
:103E8800D0C6B3008058780050C6B3008058780078
:103E980000C2B3008058780020C5B300805878006D
:103EA80000C5B30080587800D0C4B30080587800AB
:103EB80000C2B30080587800C0C4B30080587800AE
:103EC800F0C6B3008058780070C6B30080587800F8
:103ED80070C6B3008058780090C6B3008058780048
:103EE800E0C6B3008058780070C6B30080587800E8
:103EF80000C2B30080587800F0C4B300805878003E
:103F0800E0C4B300805878000020EF0080587800A3
:103F18006000470000057800BEF90700360037004A
:103F2800E000470020C5B3008058780050C6B300B1
:103F38008058780010C6B30080587800C0C6B30017
:103F48008058780040C5B3008058780090C6B30008
:103F580080587800D0C6B3008058780050C6B300A7
:103F68008058780000C2B3008058780020C5B3009C
:103F78008058780000C5B30080587800D0C4B300DA
:103F88008058780000C2B30080587800C0C4B300DD
:103F980080587800F0C6B3008058780070C6B30027
:103FA8008058780070C6B3008058780090C6B30077
:103FB80080587800E0C6B3008058780070C6B30017
:103FC8008058780000C2B30080587800F0C4B3006D
:103FD8008058780060C4B3008058780060C4B3008B
:103FE800805878000020EF00805878006000470073
:103FF8000005780087F907000E003700F00320005D
:104008009E1890000008E10001003A000700370000
:10401800800620000008E10001003A000300370094
:10402800800420000008E10002003A001EF70700A3
:1040380000003700208D20001000E0000100320051
:10404800A5FA0700608D20001000E0000100320092
:1040580042FA0700408D20001000E0000100320005
:1040680031F60700C462AA005AFC37004F067800F0
:10407800CF0578004F0578000080FA00FFFF370071
:0040880038
:102684000800FA00A02A20002044880020592100D4
:1026940030448800404A210070448800F0FF2F0035
:1026A400804488003022EF000000280032A2B700E6
:1026B4003062A9002FFB0700823E200003002000A7
:1026C40015FC07000003BE0033FB07008000EB008D
:1026D4008100D1000080D30064024000E082480001
:1026E4000A01BE000402E900030035000201D00023
:1026F4008381D200FBFF370002079800130798007C
:10270400869FBE008A9FBE000600BE000082EB00CA
:1027140063F707004F05BE004F03BE002007980073
:10272400310798008A9FBE000600BE000E0190008B
:102734009E0190000082EB0030F707004F05BE00B9
:102744008001780001027800600047005081D100C8
:10275400C080D300640047003008E1002090E1000D
:1027640003003D00E180410060014A00020037009F
:1027740083007800040178006008E1006090E100C3
:102784002F003A00FBFA0700823E200003002000DD
:10279400E1FB07000003BE00FFFA07008000EB0026
:1027A4008100D1000080D30062024000E082480032
:1027B4000A01BE000402E900030035000201D00052
:1027C4008381D200FBFF37000207980013079800AB
:1027D400869FBE000600BE000082EB0030F70700B3
:1027E4004F03BE0020079800310798000600BE0082
:1027F4000E0190009E0190000082EB00FFF607009E
:102804008001780001027800600047005081D10007
:10281400C080D300640047003008E1002090E1004C
:1028240003003D00E180410060014A0002003700DE
:1028340083007800040178003062A80000003700AB
:1028440080232000618850003222A90031E2A800D0
:102854003342A800CBFA07000080FA00000006000B
:0028640074
:1013780002D02700030020000200BE000000060083
:0013880065
:0C139C0021002000010078000000060085
:1013880057052D000E20ED00FEFF3A00000000007A
:04139800000006004B
:10171C000000FA00020AB800500088000200B8006D
:10172C0081004200032AB800810042000080FA00C8
:04173C0000000600A3
:1004A4000000FA0002000700A60204000000000099
:1004B4000800E20002003A001000070000000600F5
:1004C400811F78000200E20002003D00600010007D
:1004D400E08018000600E20002003D006001110007
:1004E400E0811900050007004F00E00002003B0016
:1004F40060001000E0801800000006000200070001
:100504000480BE00000006006022B800060220003D
:100514000000D0008180D2000482D2008582D20003
:100524000000A8000202520083825A0003003B002C
:100534000202420083824A000000A1000603E9008F
:10054400F3FF3A00000006000080FA0000000600F5
:00055400A7
:100400000000FA00020007004E0204000000000095
:100410000800E20002003A00100007000000060099
:10042000839F68000200E20002003D0060001000AF
:10043000E08018000600E20002003D0060011100AB
:10044000E0811900050007004F00E00002003B00BA
:1004500060001000E0801800000006006022B80074
:10046000060220000000D0008180D2000482D20069
:100470008582D2000000A8000202520083825A0046
:1004800003003B000202420083824A000000A100F8
:100490000603E900F3FF3A00000006000080FA00BE
:0404A0000000060052
:102634000000FA000220EF001A4078000041780000
:1026440002407800014178006004E1000A00320091
:102654008A1F78000085FB00BDF707004F0578004E
:10266400E14041000180FB0000004500104078007B
:1026740001417800F4FF37000080FA0000000600F2
:0026840056
:100554000000FA009111800000102000008060006B
:100564006000E10002003A0000000000F9FF3700DB
:0C057400AA1188000080FA0000000600B8
:1013A8002000FA000020EF00500F98008C1F7800F2
:1013B8008A9FBE000A00BE0030FD07004F05BE0030
:1013C8004F0678000001BE00829FBE008C1F780087
:1013D8008A9FBE000420EF000620EF000A00BE002E
:1013E800CBFD07000000E0000020EF0001003D00F9
:1013F80000A0EE004F05BE004F0678004F01BE006A
:101408000000E20002003200F0FF2F00500F9800A9
:1014180062004700829FBE008C1F78008A9FBE0032
:10142800000678000205BE0050FD07004F05BE000B
:101438004F0678004F01BE008C1F78008A9FBE00BF
:101448000200BE000081EB00BB0007004F05BE0094
:101458008A9FBE000001BE000A00BE00B1FD070061
:1014680002002500337C240066FE070003FD070008
:101478004F05BE004F0678000001BE006000E10085
:101488006088E10005003D0060001100E08019005F
:10149800010178008000780002003700820078009F
:1014A800030178006E0047008C1F78008A9FBE00F9
:1014B8000006780001057800820578002BFD0700FA
:1014C8004F05BE004F0678000420EF000020EF0013
:1014D800000798008C00780000C2B300805878009C
:1014E80000C2B3008058780000C2B300805878006A
:1014F80000C2B3008058780000C2B300805878005A
:1015080000C2B3008058780000C2B3008058780049
:1015180000C2B3008058780000C2B3008058780039
:1015280000C2B3008058780000C3B3008058780028
:101538000020EF0080587800821F78008C1F780008
:101548008A9FBE000A00BE00CCFC07004F05BE0003
:101558006000E1006088E1000020EF0001003A002F
:1015680000A0EE00700F98000420EF000620EF00A6
:101578000A00BE0066FD07000000E0000020EF0042
:1015880001003D0000A0EE004F0678004F017800F2
:10159800FE089000008060000000E20005003200B4
:1015A800D0C2B300004E780011002000010178007D
:1015B80000003700AE40900000C2B300000CE1000C
:1015C80007003A000E009000E10040000107980073
:1015D800620047000100400090407800F6FF3700A5
:1015E80082017800600CE1000C0032000300460024
:1015F800014878000E009000E100400001079800C3
:1016080061814100620047000100400010407800FD
:101618008040780082017800F2FF37005E08900071
:101628006000E1000220EF0001003A0002A0EE0095
:101638006018E1000020EF0001003A0000A0EE0071
:1016480000806000060032008300460000C3B3003B
:10165800804878006180410000017800010037006F
:10166800030178006110E1000220EF0001003A0058
:1016780002A0EE007A0047001080600006003200E9
:101688008200460000C3B300804878006100410032
:10169800000178000000370082004600E0C2B30075
:1016A800804878000420EC006000200000079800C3
:1016B800CE509000600CE1001100320000C2B3006F
:1016C800000CE10002003A0001C3B300000037003B
:1016D80002004600014878000E009000E10040003A
:1016E80001079800E10141006E0047000100400039
:1016F800104078000301780080407800EDFF370043
:10170800820046000020EF00804878000080FA0040
:0417180000000600C7
:100974000000FA0000002000010028000050E100FF
:1009840001D8E1001A003A008C007800D0C2B3000C
:100994008058780020C3B3008058780010C3B30097
:1009A4008058780040C3B3008058780070C3B30007
:1009B4008058780040C3B3008058780080C3B300E7
:1009C4008058780030C3B3008058780060C3B30007
:1009D4008058780040C3B3008058780080C3B300C7
:1009E400805878000020EF008058780047003700D6
:1009F4000820EF006050E10060D8E10005003D00F0
:100A0400F4FF2F0060001500E0801D000005BE000B
:100A1400000037008C00780000C2B30080587800D2
:100A240000C2B3008058780000C2B3008058780038
:100A340000C2B3008058780000C2B3008058780028
:100A440000C2B3008058780000C2B3008058780018
:100A540000C2B3008058780000C2B3008058780008
:100A640000C2B3008058780000C3B30080587800F7
:100A74000020EF0080587800EA0246006050E10050
:100A840060D8E1001D003200849FBE008C1F7800F6
:100A94008A9FBE00A2002000030020000A00BE00BE
:100AA4000082EB007EFE07004F05BE004F06780073
:100AB4004F02BE0002032000030020000200400099
:100AC400804A7800849FBE008C1F78008A9FBE00F5
:100AD400A2002000030020000A00BE000082EB00F8
:100AE40046FE07004F05BE004F0678004F02BE00C9
:100AF4000005BE000A20ED00E0FF37000800E20018
:100B040002003200D0C2B300804A78000080FA00AC
:040B140000000600D7
:100884000000FA0002000700B604040000000000A3
:100894000081BE001F0007000470A70003F0A10040
:1008A4006509B100160032000D0035006828E1002A
:1008B40006003500F0FF2F00F1FF27000600E200DC
:1008C40013003B0001002800000005000000400068
:1008D400818048008502E900FCFF3A0008003700E7
:1008E400F88F420002003C008000EB00000005008D
:1008F4008100D1000080D3008502E800FCFF3A00AB
:100904000600E20002003B0060001000E0801800D6
:1009140000000600C70ADE00F107B200F50FB200BE
:1009240008003200E1CF42000200320002E0A800D9
:1009340024000500810F7000010032000408050046
:1009440044000500810F700002003A001400050005
:100954008502E9000000400081C04800FCFF3B0024
:1009640002E0A800240005000080FA000000060050
:0009740083
:100B18000000FA0014002000070007000080FA0017
:040B280000000600C3
:100B40000000FA00020007000E060400000000008A
:100B5000841F7800140007004F0078001100330054
:100B6000F0FF2F00838F6C0006003B00040565003A
:100B70000A00A7000800370009F0A60010002000B6
:100B800008003700820F5400838F5C000300390097
:100B90001000200001003E000000200009F0A70026
:100BA0000000EA00000006000084BE000600070006
:100BB0000083BE000485BE000280BE000200070064
:100BC000844F750000000600C70ADE00F107B2007E
:100BD000F50FB20008003200E1CF420002003200FF
:100BE00002E0A80024000500810F7000010032001F
:100BF0000408050044000500810F700002003A005F
:100C0000140005008502E9000000400081C0480092
:100C1000FCFF3B0002E0A800240005000080FA0071
:040C200000000600CA
:101740000000FA0002000700520C04000000000034
:101750000400E20006003A000005EB000200E2008F
:101760000F003E000000E200270032000C003700AE
:10177000A10088000200E2000400350008003C00DF
:101780000000E20020003200050037006000100079
:10179000E080180002003B0001F02C001A00370026
:1017A0000084BE006011B8006B0920000982CF00E0
:1017B000020039000882CF000441B00069425200A3
:1017C0000E00320008003B0082817100610164005C
:1017D0008904D1000884D3008B05E8000442E800A6
:1017E000F9FF3A00050037000804440089844C00E2
:1017F0008B05E9000442E900FBFF3A000300070003
:101800000AF0A70003E0A800000006008100200005
:10181000618055000B003D000B00200061FE2F0091
:101820000100E1001D00340082817100610164004B
:101830008904D1000884D3000000E800FAFF3A00D0
:10184000710020006100640003007000020060006D
:101850000900320061044400E0844C000988A500BE
:10186000050032008B05E8006808E10002003A003C
:101870008904D1000884D300F20F20000258E1004F
:1018800005003D00C75DDD00F907B20089807500E5
:1018900008008800000006000BF827001B008800E5
:0C18A000000005000080FA0000000600B7
:100B2C000000FA0007E0AA009DFE07000080FA0012
:040B3C0000000600AF
:1005AC000000FA00020007003E04040000000000F6
:1005BC00889FBE008A9FBE008C1F780059000700E0
:1005CC00600033006450E1004F0032006420E10011
:1005DC005200320003826C0007003B000905D0007A
:1005EC000306D000820F54000C065D000200390097
:1005FC000200320039008800C30088008582550053
:10060C0004003D000003FD008103FD008502EA00AB
:10061C008B854200840F720002003B0060001000CA
:10062C00E08018006011B8000005EB007A28E100AA
:10063C000A00390006008800C75DDD00F707B2002C
:10064C00878075002D003700828171002A00880098
:10065C00610560008180D1000080D3008502E90033
:10066C00F9FF3B00060440008784480002003B0071
:10067C0060041400E0841C000988A3000700320009
:10068C008A81710082817100610164008904D1004A
:10069C000884D3008B05E800170037000978A30005
:1006AC0013003A001600E200130034008B05E90039
:1006BC000804440089844C000A4474000978A3009F
:1006CC000D003A001600E200070034008B05E9002B
:1006DC000804440089844C0001003A000B002000FF
:1006EC000978A300F7FF32000001EB00020037008D
:1006FC00828171002A008800220007000CF0A700FC
:10070C0003E0A800180037006420E10002003A0062
:10071C00838F6C00180033000881BE000280BE007D
:10072C00110037000084BE003C0007000083BE00AF
:10073C000485BE000280BE0038000700844F75009F
:10074C00000006000280BE006450E1000500360087
:10075C006420E100020036000968A30001003A00A1
:10076C000880BE0002C0A8004F0678004F05BE00EE
:10077C004F04BE0000000600F0FF2F00F1FF270021
:10078C00F9FF370081002000618055000B003D000F
:10079C000B00200061FE2F000100E1001D00340061
:1007AC0082817100610164008904D1000884D30046
:1007BC000000E800FAFF3A007100200061006400BC
:1007CC000300700002006000090032006104440064
:1007DC00E0844C000988A500050032008B05E80078
:1007EC006808E10002003A008904D1000884D300B3
:1007FC00F20F20000258E10005003D00C75DDD004E
:10080C00F907B20089807500080088000000060016
:10081C000BF827001B00880000000500C70ADE004B
:10082C00F107B200F50FB20008003200E1CF420030
:10083C000200320002E0A80024000500810F7000C5
:10084C00010032000408050044000500810F70000F
:10085C0002003A00140005008502E9000000400087
:10086C0081C04800FCFF3B0002E0A800240005000A
:08087C000080FA0000000600F4
:100E0C000000FA00020007001C08040000000000AB
:100E1C00889FBE008A9FBE008C1F780030000700A0
:100E2C003700330003866C006450E100240032006C
:100E3C006420E100270032006150E1002200320002
:100E4C006120E100210032008B854200EB07B100EC
:100E5C000134B800003AB8000804420089844A0002
:100E6C00013AB8000030B8008880400009014A00FF
:100E7C00040033000000400081804800020149005A
:100E8C008B05E900C909DD00830170000100320007
:100E9C0013002000C814DE004814DD004709DE00F2
:100EAC001200B200C808DE0008847000240007009D
:100EBC0001F0A1000CF0A70003E0A8001900370016
:100ECC006120E1001B0032000881BE000280BE00E0
:100EDC00F7FF37006150E100FCFF3A0015003700C6
:100EEC000084BE003C0007000083BE000485BE00E9
:100EFC000280BE0038000700844F75000000060019
:100F0C000280BE006450E100050036006420E10060
:100F1C00020036000968A30001003A000880BE00F8
:100F2C0002C0A8004F0678004F05BE004F04BE005B
:100F3C0000000600F0FF2F00F1FF2700F9FF37003B
:100F4C0081002000618055000B003D000B0020004B
:100F5C0061FE2F000100E1001D0034008281710050
:100F6C00610164008904D1000884D3000000E8000A
:100F7C00FAFF3A0071002000610064000300700069
:100F8C00020060000900320061044400E0844C005F
:100F9C000988A500050032008B05E8006808E1000F
:100FAC0002003A008904D1000884D300F20F20001B
:100FBC000258E10005003D00C75DDD00F907B200F5
:100FCC008980750008008800000006000BF82700D7
:100FDC001B00880000000500C70ADE00F107B20004
:100FEC00F50FB20008003200E1CF420002003200DF
:100FFC0002E0A80024000500810F700001003200FF
:10100C000408050044000500810F700002003A003E
:10101C00140005008502E9000000400081C0480072
:10102C00FCFF3B0002E0A800240005000080FA0051
:04103C0000000600AA
:102864000200FA008C00780000C2B300805878009F
:1028740000C2B3008058780000C2B30080587800CA
:1028840000C2B3008058780000C2B30080587800BA
:1028940000C2B3008058780000C2B30080587800AA
:1028A40000C2B3008058780000C2B300805878009A
:1028B40000C3B300805878000020EF0080587800EF
:1028C40060004700690846006050E10060D8E100FC
:1028D4001A0032008C1F78008A9FBE00A2002000DC
:1028E400030020000A00BE000002EB00ECF6070023
:1028F4004F05BE0002032000030020000201400037
:102904000E009000024878008A9FBE00A2002000BA
:10291400030020000A00BE000002EB00B7F6070027
:102924004F05BE004F0678000005BE008E009000E3
:102934006000470061885000E3FF37000080FA0020
:042944000000060089
:101C34000000FA008B00780000C2B30080587800DE
:101C440000C2B3008058780000C2B3008058780006
:101C540000C2B3008058780000C3B30080587800F5
:101C64000020EF0080587800E48145006050E100D6
:101C74000C003200A2002000110009000285D800E7
:101C8400000320000080400080497800A20020006A
:101C9400110009000285D800000578000620ED0037
:0C1CA400F2FF37000080FA00000006008C
:101054000200FA000020EF00004798001A407800D0
:1010640080407800014078006004E1000D00320007
:101074008A1F78000085FB00E9FE07004F05780011
:101084008E4090006000470061C840006000470047
:101094001080FB000000450090407800014078007B
:0C10A400F1FF37000080FA000000060099
:100C24000000FA0020448000000001000080FA0067
:040C340000000600B6
:100580000000FA00111180000010200000806000BF
:100590006000E10002003A0000000000F9FF3700AF
:0C05A0002A1188000080FA00000006000C
:101CB0004E00FA008A1F7800E000470000C3B3001E
:101CC0008058780000C2B30080587800A0C3B300E9
:101CD0008058780000C2B3008058780040C4B30038
:101CE0008058780090C6B3008058780030C7B300A1
:101CF0008058780010C6B3008058780020C6B30022
:101D000080587800C0C6B3008058780050C6B30031
:101D10008058780030C7B3008058780000C2B30004
:101D20008058780010C6B30080587800C0C6B30051
:101D300080587800C0C6B3008058780000C2B30055
:101D400080587800C0C4B30080587800F0C6B30053
:101D50008058780070C6B3008058780070C6B30011
:101D60008058780090C6B30080587800E0C6B30071
:101D70008058780070C6B300805878000020EF00CB
:101D800080587800600047000005780023020700B3
:101D9000E000470030C7B30080587800C0C2B300ED
:101DA0008058780030C5B3008058780000C2B30076
:101DB00080587800A0C3B3008058780000C2B300F8
:101DC0008058780030C5B3008058780040C7B30011
:101DD0008058780010C6B3008058780040C7B30020
:101DE0008058780050C6B3008058780000C2B30015
:101DF00080587800C0C4B30080587800F0C6B300A3
:101E00008058780070C6B3008058780070C6B30060
:101E10008058780090C6B30080587800E0C6B300C0
:101E20008058780070C6B300805878000020EF001A
:101E3000805878006000470000057800F70107002F
:101E4000E000470020C7B30080587800C0C2B3004C
:101E50008058780020C5B3008058780000C2B300D5
:101E600080587800A0C3B3008058780000C2B30047
:101E70008058780040C5B30080587800F0C6B300A1
:101E80008058780070C6B3008058780070C6B300E0
:101E900080587800C0C6B3008058780050C6B300A0
:101EA0008058780000C2B3008058780020C5B30085
:101EB0008058780000C5B30080587800D0C4B300C3
:101EC0008058780000C2B30080587800C0C4B300C6
:101ED00080587800F0C6B3008058780070C6B30010
:101EE0008058780070C6B3008058780090C6B30060
:101EF00080587800E0C6B3008058780070C6B30000
:101F0000805878000020EF0080587800600047007B
:101F100000057800C1010700E000470040C7B3009A
:101F200080587800C0C2B3008058780040C5B30024
:101F30008058780000C2B30080587800A0C3B30076
:101F40008058780000C2B3008058780040C5B300C4
:101F500080587800F0C6B3008058780070C6B3008F
:101F60008058780070C6B30080587800C0C6B300AF
:101F70008058780050C6B3008058780000C2B30083
:101F80008058780020C5B3008058780050C6B30050
:101F90008058780010C6B30080587800C0C6B300DF
:101FA0008058780040C7B3008058780090C6B300CE
:101FB00080587800D0C6B3008058780050C6B3006F
:101FC0008058780000C2B3008058780020C5B30064
:101FD0008058780000C5B30080587800D0C4B300A2
:101FE0008058780000C2B30080587800C0C4B300A5
:101FF00080587800F0C6B3008058780070C6B300EF
:102000008058780070C6B3008058780090C6B3003E
:1020100080587800E0C6B3008058780070C6B300DE
:102020008058780000C2B3008058780080C2B300A6
:102030008058780030C6B3008058780010C6B300CE
:1020400080587800E0C6B3008058780000C2B30022
:102050008058780030C6B3008058780010C6B300AE
:102060008058780050C7B3008058780030C7B3005C
:102070008058780050C6B3008058780000C2B30082
:102080008058780090C6B30080587800E0C6B3004E
:102090008058780040C7B3008058780050C6B3001D
:1020A0008058780020C7B3008058780020C7B3005C
:1020B0008058780050C7B3008058780000C7B3003C
:1020C0008058780040C7B3008058780000C2B30041
:1020D0008058780040C7B3008058780090C6B3009D
:1020E00080587800D0C6B3008058780090C6B300FE
:1020F00080587800E0C6B3008058780070C6B300FE
:102100008058780000C2B30080587800F0C6B30051
:102110008058780060C7B3008058780050C6B3007C
:102120008058780020C7B3008058780020C7B300DB
:102130008058780050C7B30080587800E0C6B300DC
:102140008058780000C2B3008058780090C6B30071
:102150008058780030C7B3008058780030C7B3008B
:102160008058780050C7B3008058780050C6B3003C
:102170008058780030C7B3008058780090C2B30010
:10218000805878000020EF008058780060004700F9
:102190000005780021010700E000470000C7B300F8
:1021A00080587800C0C2B3008058780000C5B300E2
:1021B0008058780000C2B30080587800A0C3B300F4
:1021C0008058780000C2B3008058780040C5B30042
:1021D00080587800F0C6B3008058780070C6B3000D
:1021E0008058780070C6B30080587800C0C6B3002D
:1021F0008058780050C6B3008058780000C2B30001
:102200008058780000C5B3008058780050C6B300ED
:102210008058780020C7B30080587800F0C6B3001B
:102220008058780090C6B3008058780040C6B3004C
:102230008058780000C2B3008058780050C4B300C2
:102240008058780020C7B3008058780020C7B300BA
:1022500080587800F0C6B3008058780020C7B300DB
:102260008058780000C2B30080587800C0C4B30022
:1022700080587800F0C6B3008058780070C6B3006C
:102280008058780070C6B3008058780090C6B300BC
:1022900080587800E0C6B3008058780070C6B3005C
:1022A000805878000020EF008058780060004700D8
:1022B00000057800D9000700E000470030C6B300F1
:1022C00080587800C0C2B3008058780030C4B30092
:1022D0008058780000C2B30080587800A0C3B300D3
:1022E0008058780000C2B3008058780030C4B30032
:1022F00080587800C0C6B3008058780050C6B3003C
:102300008058780010C6B3008058780020C7B3000A
:102310008058780000C2B3008058780040C4B300F1
:102320008058780090C6B3008058780030C7B3005A
:102330008058780040C7B3008058780020C7B300A9
:102340008058780020C6B3008058780050C7B3008A
:102350008058780040C7B30080587800F0C6B300BA
:102360008058780020C7B30080587800F0C5B300CB
:102370008058780000C5B3008058780050C6B3007C
:102380008058780020C7B3008058780090C6B3000A
:1023900080587800F0C6B3008058780040C6B3007B
:1023A00080587800F0C5B3008058780050C4B3005E
:1023B0008058780020C7B3008058780020C7B30049
:1023C00080587800F0C6B3008058780020C7B3006A
:1023D0008058780030C7B3008058780000C2B3003E
:1023E0008058780030C6B30080587800F0C6B3003B
:1023F0008058780050C7B30080587800E0C6B3001A
:102400008058780040C7B3008058780050C6B300A9
:102410008058780020C7B300805878000020EF0073
:102420008058780060004700000578007B000700B6
:10243000E000470020C6B30080587800C0C2B30057
:102440008058780020C4B3008058780000C2B300E0
:1024500080587800A0C3B3008058780000C2B30051
:102460008058780030C5B3008058780050C6B3005B
:102470008058780040C7B3008058780000C2B3008D
:102480008058780020C4B30080587800C0C6B300DC
:102490008058780010C6B30080587800E0C6B300BA
:1024A00080587800B0C6B3008058780090C6B3005A
:1024B00080587800E0C6B3008058780070C6B3003A
:1024C0008058780000C2B3008058780000C5B3007F
:1024D0008058780050C6B3008058780020C7B300F9
:1024E0008058780030C6B3008058780050C6B300DA
:1024F00080587800E0C6B3008058780040C7B30029
:102500008058780000C2B3008058780030C7B3000C
:102510008058780050C6B30080587800E0C6B300F9
:102520008058780040C6B3008058780000C2B300DD
:102530008058780010C6B3008058780030C7B300C8
:102540008058780000C2B3008058780010C3B300F0
:102550008058780000C3B3008058780000C2B300F0
:102560008058780080C2B3008058780010C3B30050
:102570008058780000C3B3008058780050C2B30080
:102580008058780090C2B30080587800C0C2B30071
:102590008058780000C2B3008058780050C3B30060
:1025A0008058780000C3B3008058780000C2B300A0
:1025B0008058780080C2B3008058780050C3B300C0
:1025C0008058780000C3B3008058780050C2B30030
:1025D0008058780090C2B3008058780000C2B300E1
:1025E0008058780050C6B3008058780040C7B300C8
:1025F0008058780030C6B300805878000020EF0083
:10260000805878006000470000057800030007004C
:0C2610004F0578000080FA000000060072
:10261C008A1F78008CFA0700DA002000CAF707003E
:08262C004F05780000000600D4
:102948000000FA000220EF003202AF000220EC0083
:0C295800010078000080FA00000006007A
:102B24000000FA00B1118000010078000080FA0072
:042B34000000060097
:102B38000000FA000A0178008B0178000020EF00FD
:102B4800004278006064E1002A003200F0CFB30050
:102B58000064E100030032000C80FB000020ED005F
:102B68000046780076FF07006000E10002003A00A6
:102B780000000000FBFF3700E8FF070080407800F6
:102B8800004978000420EC00130CE10004003A002E
:102B9800614042000620EC00004278000C0037003B
:102BA8000820EF008B0178001B4078000104E10049
:102BB80003003A0061404200E18041000200370012
:102BC8008300780004407800810178000042780092
:102BD800134078006004E10005003A000480FB001F
:102BE800800051000020EF00804878000300370083
:102BF800D4FF37000020EF00004D78000080FA0075
:042C080000000600C2
:10299C000000FA000020EF00087122000E20EF006A
:1029AC001620EF001820EF000C20EF000700450068
:1029BC00104078006004E1001E0032000700450062
:1029CC0090407800D0C2B300000CE10003003A0044
:1029DC00F6FF2F000E20EC00F4FF37000700450037
:1029EC009040780000C2B300000CE1000B003200F4
:1029FC00070045009080FB00000320000080500081
:102A0C008000EB00080178008001EB0040FB070020
:102A1C008085450001064E0000003700A200200012
:102A2C00110009000284D800000478000E20EC008C
:102A3C00DEFF37000C00E2000300320060002000D3
:102A4C0080017800020037005000200080017800DF
:102A5C00060178008B0278000C03780007027800DE
:102A6C000320E10012003200821F7800841F7800DE
:102A7C00831F78008A1F7800050078008600780094
:102A8C00A2002000030020000082EB0059F6070092
:102A9C004F057800CF0178004F0278004F01780085
:102AAC0080027800010378000820EC00ECFF37006E
:102ABC00050078000400E20002003200E000100083
:102ACC000100370080007800010078000080FA00D7
:042ADC0000000600F0
:102AE0001800FA008A1F78008B1F78008C1F78006E
:102AF0006000470000067800EA448000FB44800044
:102B000029FA07006000470000057800C3FE0700AF
:102B10004F067800CF0578004F0578000080FA0056
:042B200000000600AB
:102964000800FA008A1F78008B1F78006000470077
:1029740080057800DA448000E4F80700600047002E
:102984000005780024FF0700CF0578004F05780084
:082994000080FA0000000600BB
:100D10000000FA00000028000050E10010003A0036
:100D20008B007800D0C2B3008058780030C3B30085
:100D30008058780020C3B3008058780070C3B30097
:100D40008058780060C3B3008058780080C3B30037
:100D5000805878000020EF00805878002900370084
:100D60000620EF006050E10004003D00F3FF2F007B
:100D70006000150000057800000037008B00780047
:100D800000C2B3008058780000C2B30080587800D9
:100D900000C2B3008058780000C2B30080587800C9
:100DA00000C2B3008058780000C3B30080587800B8
:100DB0000020EF0080587800658245006050E10017
:100DC0000C003200A2002000110009000205D8002A
:100DD0000003200000804000004A7800A2002000AC
:100DE000110009000205D800000578000820ED0078
:100DF000F2FF37000600E20002003200D0C2B3006A
:0C0E0000004A78000080FA0000000600A4
:101930001600FA008A1F78008B1F78008C1F780031
:1019400060004700000678005A4680006B46800021
:10195000C4030700EB00470030C5B300805878008F
:1019600080C6B30080587800F0C6B3008058780075
:1019700020C7B3008058780040C7B3008058780073
:1019800000C2B3008058780040C5B300805878008A
:10199000A0C3B3008058780000C2B300805878001C
:1019A0000020EF00805878006B00470000057800A9
:1019B00020030700600047000005780017030700B8
:1019C00060004700000678007A4680008B46800061
:1019D000A4030700EB004700C0C4B30080587800A0
:1019E000F0C6B30080587800E0C6B3008058780095
:1019F00070C6B3008058780000C2B30080587800E9
:101A000040C5B30080587800A0C3B3008058780068
:101A100000C2B300805878000020EF0080587800A2
:101A20006B004700000578000203070060004700D4
:101A300000057800F90207004F067800CF0578000E
:0C1A40004F0578000080FA00000006004E
:101040000000FA00F4FF2F00BDFE07000080FA0048
:041050000000060096
:104088000A00FA003400F8003600F800801F7800B3
:10409800200020000C000900B01F78008A1F78005B
:1040A8008B1F78008C1F7800C282BF000000AE0012
:1040B800D30037000681BF00200798000881BF00A1
:1040C800300798000821EF000621EF008500A900BD
:1040D800D04480006000E10009003A000020EF00B1
:1040E8000220EF00E0448800F14488000020EF003F
:1040F8000220EF0000079800110798000A00370017
:104108001C0020002E059000BE0590004DF607000B
:1041180000079800110798000005BE00E1F50700A8
:10412800E0448800F14488000E0090009E00900052
:104138006266260063F6230032F307000001BE0022
:10414800304680004146800071F207000000E00020
:104158000020EF0001003D0000A0EE000000E2009A
:104168000600320050468000614680006100400031
:10417800E080480050468800614688000E009000A4
:104188009E009000D2CC2C00C3F823001DF307003A
:104198000001BE003046800041468000A6F30700BB
:1041A8000000E0000020EF000100340000A0EE0055
:1041B8000000E20006003200704680008146800060
:1041C80061004000E0804800704688008146880011
:1041D800608920001000E000010032003EFA07006C
:1041E800D04480006000E10013003A000020EF0096
:1041F800104488000020EF00004688000020EF00EF
:104208000220EF00E0448800F1448800608D20001F
:104218001000E00001003200D0F907001000200073
:10422800D0448800608D20001000E00001003200BA
:10423800CAF9070072003700D04480006100E1002D
:104248003E003A000200200083242400E04480005D
:10425800F144800078F307000000E0000020EF0040
:104268000100340000A0EE004007980002002C0076
:10427800A35D2400E0448000F144800024F207009C
:104288000000E0000020EF0001003D0000A0EE006B
:10429800CE00900000806000110032000E059000F2
:1042A8009E0590003EF607000E0090009E009000CC
:1042B80092448000A3448000D2F207001C00200032
:1042C8000005BE0027F607000005BE00F1F507004F
:1042D8001100200020882000108840000D003700C1
:1042E800A099290091D9230092448000A34480001A
:1042F800C4F207001C0020000005BE0019F60700E4
:104308000005BE00E3F5070011002000208820000A
:1043180010881000104480006800E1000600350095
:1043280020002000D0448800608D20001000E000AC
:104338000100320089F9070031003700D0448000BD
:104348006200E10007003A0030002000D0448800F5
:10435800608D20001000E000010032007FF90700A6
:1043680027003700D04480006300E10018003A00BD
:104378000E0590009E05900009F607000E059000B6
:104388009E05900017F6070002002000833C2400D9
:10439800E0448000F144800027F307000000E000BB
:1043A8000020EF000100340000A0EE000000E20051
:1043B8000600320040002000D0448800608D2000B4
:1043C8001000E0000100320064F907000C0037001B
:1043D800D04480006400E10007003A000E05900018
:1043E8009E059000EEF507001A4680002B468000D7
:1043F800FCF50700020037000020EF00D0448800D9
:104408000E0090009E0090003046880041468800CB
:104418008660A9004F067800CF0578004F05780020
:10442800A00120000C0009004F1078004F00780010
:104438003600F9003400F9000080FA000040060058
:0044480074
:101A4C000400FA008C1F78000A00BE0039FF070062
:101A5C00D27B230063382300E9FC07004F06780093
:101A6C0000079800110798000C0078008000EB002C
:101A7C0030FF07000E0190009E019000E0FC070073
:101A8C000001BE000200BE000080FA00000006004B
:001A9C004A
:1018AC000400FA000020EF000220EF00000798006F
:1018BC00110798008A9FBE000420EF000620EF005D
:1018CC000A00BE00DBFD07000000E0000020EF0076
:1018DC000100340000A0EE004F05BE000000E20045
:1018EC000C0032000A01BE00000020000127240079
:1018FC0003FE0700020020000310240000FE070076
:10190C0002002000030024003DFD070000079800A2
:10191C00110798000E0090009E0090000080FA00C5
:04192C0000000600B1
:10110C000000FA0002000700B8090400000000000B
:10111C00889FBE008A9FBE008C1F78003E0007008F
:10112C004500330003866C006450E1002E00320051
:10113C006420E100330032006150E1002F003200E6
:10114C006120E1003100320085855500EB07B000CD
:10115C0009002000080420000500370008044400A2
:10116C0089844C000A0031000603430087834B003E
:10117C000001530081815B00F8FF33000283BE0045
:10118C001000A8000804440089844C00F6FF3900C4
:10119C00C639DD008301730001003200130020000A
:1011AC008904D1000884D3000998A30005003200FB
:1011BC000800A7000600A8008904D1000884D30009
:1011CC008B05E8008904D1000884D3000001EB00F2
:1011DC000281D2002800070001F0A1000CF0A7004A
:1011EC0003E0A8001D0037006420E1001F0032005E
:1011FC000881BE000280BE00F7FF37006120E100CD
:10120C001A0032006000B800F3FF37000000200025
:10121C0001F82700F0FF37000084BE003C000700F7
:10122C000083BE000485BE000280BE0038000700AB
:10123C00844F7500000006000280BE006450E1007F
:10124C00050036006420E100020036000968A300A6
:10125C0001003A000880BE0002C0A8004F067800CA
:10126C004F05BE004F04BE0000000600F0FF2F002B
:10127C00F1FF2700F9FF3700810020006180550045
:10128C000B003D000B00200061FE2F000100E1006F
:10129C001D00340082817100610164008904D10059
:1012AC000884D3000000E800FAFF3A007100200027
:1012BC00610064000300700002006000090032004D
:1012CC0061044400E0844C000988A500050032004C
:1012DC008B05E8006808E10002003A008904D1009F
:1012EC000884D300F20F20000258E10005003D00F5
:1012FC00C75DDD00F907B200898075000800880021
:10130C00000006000BF827001B00880000000500F9
:10131C00C70ADE00F107B200F50FB2000800320078
:10132C00E1CF42000200320002E0A80024000500D8
:10133C00810F700001003200040805004400050014
:10134C00810F700002003A00140005008502E900CC
:10135C000000400081C04800FCFF3B0002E0A800F8
:0C136C00240005000080FA0000000600CC
:101BA80000468000C200DD00008A200001004000DD
:101BB8000A88BE00004680000020EC00004688002D
:101BC800004680006800E100020035000020EF00B8
:101BD8000046880034FD070010468800214688002A
:041BE80000000600F3
:1010B0000820EF000A20EF000620EF00C218DD0034
:1010C000008A2000010140001200BE00831F78004A
:1010D0000401BE0035FD0700CF0178000002BE000C
:1010E0006718E100020032000620EC00F3FF370031
:1010F0000400BE00020020000310240003000700CB
:0C1100000001BE000200BE00000006005E
:101B6C008A9FBE000C0078008000EB00F1FE07009D
:101B7C00D27B230063382300A1FC07004F05BE0075
:101B8C000001BE000A00BE005DFD070027FC070037
:0C1B9C000001BE000200BE0000000600B8
:100C38000000FA000200070084060400000000001B
:100C48000081BE00190007000470A70003F0A1008E
:100C580003F8A30013003A006509B1001000320040
:100C6800090035006928E10002003500010028006C
:100C78000000050000004000818048008502E9006E
:100C8800FCFF3A0000000600F88F4200050035001E
:100C98008100D1000080D3008502E800FCFF3A0003
:100CA800000006008000EB0000000500C70ADE0017
:100CB800F107B200F50FB20008003200E1CF4200A0
:100CC8000200320002E0A80024000500810F700035
:100CD800010032000408050044000500810F70007F
:100CE80002003A00140005008502E90000004000F7
:100CF80081C04800FCFF3B0002E0A800240005007A
:080D08000080FA000000060063
:101A9C000A0478008B0478001000F800E70020009E
:101AAC008703E900030035008904D1000884D300C2
:101ABC00FBFF37001200F900F7FF23008784640056
:101ACC001000E20004003200F93F090000000000A1
:101ADC000804E900FAFF3700098009000000000043
:041AEC0000000600F0
:101AF0000400FA000020EF000220EF000007980029
:101B0000110798008A9FBE000420EF000620EF0016
:101B10000A00BE004AFD07000000E0000020EF00C0
:101B20000100340000A0EE004F05BE000000E200FE
:101B30000A0032000A00BE00020020000310240048
:101B4000B2FC07000001BE0000002000012F2400AD
:101B50006EFD070000079800110798000E00900026
:0C1B60009E0090000080FA0000000600CB
:101BEC008A1F78008B1F78008C1F7800CD22A900EB
:101BFC000A00BE0092448000A344800080FC0700D1
:101C0C001C0020000005BE00D5FF07000005BE002B
:101C1C009FFF0700CD22A8004F067800CF05780063
:081C2C004F05780000000600DE
:102C0C001600FA003400F8003600F800801F780037
:102C1C00200020000C000900B01F78008A1F7800EB
:102C2C000821EF000621EF000020EF00D0448800BF
:102C3C000020EF000220EF00E0448800F1448800FF
:102C4C00808920001000E0002E003200E0004700D8
:102C5C0030C5B3008058780040C7B3008058780066
:102C6C0010C6B30080587800C0C6B30080587800F6
:102C7C00C0C6B3008058780000C2B30080587800FA
:102C8C0040C4B3008058780050C6B3008058780018
:102C9C0040C7B3008058780050C6B3008058780005
:102CAC0030C6B3008058780040C7B3008058780015
:102CBC0050C6B3008058780040C6B30080587800E6
:102CCC0000C2B30080587800D0C2B300805878009E
:102CDC0000C2B3008058780090C4B30080587800CC
:102CEC0020C5B3008058780010C5B3008058780018
:102CFC000020EF0080587800600047000005780045
:102D0C0043FE07008500A9004F057800A0012000B4
:102D1C000C0009004F1078004F0078003600F900C5
:0C2D2C003400F9000080FA0000400600AE
:0200000401F009
:240000000F000000FFFF000003000000E1000000BF0000005F000000FF00000083000000DF0000006C
:00000001FF
