:10000000A208040000000000000000000000000042
:1000100000000000000000000000000000000000E0
:1000200000000000000000000000000000000000D0
:1000300000000000000000000000000000000000C0
:100040000000000000000000980700000000000011
:1000500000000000000000000000000000000000A0
:100060000000000000000000000000000000000090
:1000700000000000B80700000000000000000000C1
:100080000000000000000000000000000000000070
:100090000000000000000000000000000000000060
:1000A0000000000000000000000000000000000050
:1000B0000000000000000000000000000000000040
:101144008F802000F0FF200020A0B70000002000C6
:1011540034A0B700400020004420B7000020EF0076
:101164000220EF0020408800314088000020EF007A
:101174000220EF000040880011408800E024EF00C6
:10118400E224EF00C802A900C822A800C9A2A9004D
:10119400C082A900C022EF00CC02A8004427EF00BF
:1011A40062A0A800AD80A800ADA0A800ADC0A800B2
:1011B4008660A9009660A80011E1A90013E1A900C6
:1011C4001061A8001021A90010C1A9001081A90074
:1011D40010A1A90001002100800A200010887000DD
:1011E400F0FF2F000CA1B700F0FF2F000EA1B700F5
:1011F4000821EF000621EF00A800A800A820A900FC
:10120400A840A9008500A9009500A80011E1A80044
:10121400C4A2EE00572120000E20ED00FEFF3A008C
:0C12240000000000FAFF3700FFFF370059
:100F70000400FA003400F8003600F800801F780002
:100F8000200020000C000900B01F78008A1F7800A4
:100F90008B1F7800CA82BF000020AE005E003700C1
:100FA0000681BF00000798000881BF001007980065
:100FB0000821EF000621EF000E0090009E00900037
:100FC000D9FE0700D27B23006338230046FF0700C9
:100FD00020408800314088000420EF000620EF0008
:100FE00002408800134088000420EF000620EF0034
:100FF000CAFF07000000E0000020EF0001003400FD
:1010000000A0EE000000E2000D003200224080004F
:10101000334080000000200001272400ECFD070081
:101020000200200003102400E9FD07000200200058
:10103000030024002CFF07000040880011408800B6
:1010400002002000C32824000040800011408000DE
:10105000DAFD07000000E0000020EF0001003D0085
:1010600000A0EE000000E20003003200A2702D009C
:1010700033BA23001F00370002002C00A35D2400B8
:101080000040800011408000A4FF07000000E00045
:101090000020EF000100340000A0EE000000E2009C
:1010A00004003200F026210031A023000001BE0020
:1010B0001000370000002C00A15D240002408000D9
:1010C0001340800093FE070092F02400E3522B00AF
:1010D00005FF0700F226210033A023008DFE070044
:1010E00002002000030028000200680083806800DE
:1010F0000001BE00CC02A9000200BE00D27B23008A
:1011000063382300B2FD07004CFE07000005BE0057
:10111000E0FE0700CC02A8008660A900CF05780099
:101120004F057800A00120000C0009004F10780046
:101130004F0078003600F9003400F9000080FA0012
:041140000040060065
:100C94000A0478008B0478001000F800E7002000B4
:100CA4008703E900030035008904D1000884D300D8
:100CB400FBFF37001200F900F7FF2300878464006C
:100CC4001000E20004003200F93F090000000000B7
:100CD4000804E900FAFF3700098009000000000059
:040CE4000000060006
:100B28000000FA000200070046060400000000006A
:100B38000400E20006003A000005EB000200E200B3
:100B48000F003E000000E200270032000C003700D2
:100B5800A10088000200E2000400350008003C0003
:100B68000000E2002000320005003700600010009D
:100B7800E080180002003B0001F02C001A0037004A
:100B88000084BE006011B8006B0920000982CF0004
:100B9800020039000882CF000441B00069425200C7
:100BA8000E00320008003B00828171006101640080
:100BB8008904D1000884D3008B05E8000442E800CA
:100BC800F9FF3A00050037000804440089844C0006
:100BD8008B05E9000442E900FBFF3A000300070027
:100BE8000AF0A70003E0A80000000600810020002A
:100BF800618055000B003D000B00200061FE2F00B6
:100C08000100E1001D00340082817100610164006F
:100C18008904D1000884D3000000E800FAFF3A00F4
:100C28007100200061006400030070000200600091
:100C38000900320061044400E0844C000988A500E2
:100C4800050032008B05E8006808E10002003A0060
:100C58008904D1000884D300F20F20000258E10073
:100C680005003D00C75DDD00F907B2008980750009
:100C780008008800000006000BF827001B00880009
:0C0C8800000005000080FA0000000600DB
:100CE8000000FA00020007008A0704000000000064
:100CF800889FBE008A9FBE008C1F780030000700C6
:100D08003700330003866C006450E1002400320091
:100D18006420E100270032006150E1002200320027
:100D28006120E100210032008B854200EB07B10011
:100D38000134B800003AB8000804420089844A0027
:100D4800013AB8000030B8008880400009014A0024
:100D5800040033000000400081804800020149007F
:100D68008B05E900C909DD0083017000010032002C
:100D780013002000C814DE004814DD004709DE0017
:100D88001200B200C808DE000884700024000700C2
:100D980001F0A1000CF0A70003E0A800190037003B
:100DA8006120E1001B0032000881BE000280BE0005
:100DB800F7FF37006150E100FCFF3A0015003700EB
:100DC8000084BE003C0007000083BE000485BE000E
:100DD8000280BE0038000700844F7500000006003E
:100DE8000280BE006450E100050036006420E10086
:100DF800020036000968A30001003A000880BE001E
:100E080002C0A8004F0678004F05BE004F04BE0080
:100E180000000600F0FF2F00F1FF2700F9FF370060
:100E280081002000618055000B003D000B00200070
:100E380061FE2F000100E1001D0034008281710075
:100E4800610164008904D1000884D3000000E8002F
:100E5800FAFF3A007100200061006400030070008E
:100E6800020060000900320061044400E0844C0084
:100E78000988A500050032008B05E8006808E10034
:100E880002003A008904D1000884D300F20F200040
:100E98000258E10005003D00C75DDD00F907B2001A
:100EA8008980750008008800000006000BF82700FC
:100EB8001B00880000000500C70ADE00F107B20029
:100EC800F50FB20008003200E1CF42000200320004
:100ED80002E0A80024000500810F70000100320024
:100EE8000408050044000500810F700002003A0064
:100EF800140005008502E9000000400081C0480098
:100F0800FCFF3B0002E0A800240005000080FA0076
:040F180000000600CF
:100F1C000000FA00F4FF2F0036FD07000080FA00F5
:040F2C0000000600BB
:100400000000FA00020007006E0204000000000075
:10041000841F7800140007004F007800110033009B
:10042000F0FF2F00838F6C0006003B000405650081
:100430000A00A7000800370009F0A60010002000FD
:1004400008003700820F5400838F5C0003003900DE
:100450001000200001003E000000200009F0A7006D
:100460000000EA00000006000084BE00060007004D
:100470000083BE000485BE000280BE0002000700AB
:10048000844F750000000600C70ADE00F107B200C5
:10049000F50FB20008003200E1CF42000200320046
:1004A00002E0A80024000500810F70000100320066
:1004B0000408050044000500810F700002003A00A6
:1004C000140005008502E9000000400081C04800DA
:1004D000FCFF3B0002E0A800240005000080FA00B9
:0404E0000000060012
:1007D0000000FA00020007001A05040000000000F3
:1007E000889FBE008A9FBE008C1F78003E000700D5
:1007F0004500330003866C006450E1002E00320097
:100800006420E100330032006150E1002F0032002B
:100810006120E1003100320085855500EB07B00012
:1008200009002000080420000500370008044400E7
:1008300089844C000A0031000603430087834B0083
:100840000001530081815B00F8FF33000283BE008A
:100850001000A8000804440089844C00F6FF390009
:10086000C639DD008301730001003200130020004F
:100870008904D1000884D3000998A3000500320040
:100880000800A7000600A8008904D1000884D3004E
:100890008B05E8008904D1000884D3000001EB0037
:1008A0000281D2002800070001F0A1000CF0A7008F
:1008B00003E0A8001D0037006420E1001F003200A3
:1008C0000881BE000280BE00F7FF37006120E10012
:1008D0001A0032006000B800F3FF3700000020006B
:1008E00001F82700F0FF37000084BE003C0007003D
:1008F0000083BE000485BE000280BE0038000700F1
:10090000844F7500000006000280BE006450E100C4
:10091000050036006420E100020036000968A300EB
:1009200001003A000880BE0002C0A8004F0678000F
:100930004F05BE004F04BE0000000600F0FF2F0070
:10094000F1FF2700F9FF370081002000618055008A
:100950000B003D000B00200061FE2F000100E100B4
:100960001D00340082817100610164008904D1009E
:100970000884D3000000E800FAFF3A00710020006C
:100980006100640003007000020060000900320092
:1009900061044400E0844C000988A5000500320091
:1009A0008B05E8006808E10002003A008904D100E4
:1009B0000884D300F20F20000258E10005003D003A
:1009C000C75DDD00F907B200898075000800880066
:1009D000000006000BF827001B008800000005003F
:1009E000C70ADE00F107B200F50FB20008003200BE
:1009F000E1CF42000200320002E0A800240005001E
:100A0000810F700001003200040805004400050059
:100A1000810F700002003A00140005008502E90011
:100A20000000400081C04800FCFF3B0002E0A8003D
:0C0A3000240005000080FA000000060011
:1007BC000000FA00140020000EFF07000080FA0071
:0407CC000000060023
:100B14000000FA0007E0AA0071FE07000080FA0056
:040B240000000600C7
:1004E4000000FA0002000700DA0304000000000024
:1004F400889FBE008A9FBE008C1F780059000700A9
:10050400600033006450E1004F0032006420E100D9
:100514005200320003826C0007003B000905D00042
:100524000306D000820F54000C065D00020039005F
:100534000200320039008800C3008800858255001B
:1005440004003D000003FD008103FD008502EA0074
:100554008B854200840F720002003B006000100093
:10056400E08018006011B8000005EB007A28E10073
:100574000A00390006008800C75DDD00F707B200F5
:10058400878075002D003700828171002A00880061
:10059400610560008180D1000080D3008502E900FC
:1005A400F9FF3B00060440008784480002003B003A
:1005B40060041400E0841C000988A30007003200D2
:1005C4008A81710082817100610164008904D10013
:1005D4000884D3008B05E800170037000978A300CE
:1005E40013003A001600E200130034008B05E90002
:1005F4000804440089844C000A4474000978A30068
:100604000D003A001600E200070034008B05E900F3
:100614000804440089844C0001003A000B002000C7
:100624000978A300F7FF32000001EB000200370055
:10063400828171002A008800220007000CF0A700C4
:1006440003E0A800180037006420E10002003A002B
:10065400838F6C00180033000881BE000280BE0046
:10066400110037000084BE003C0007000083BE0078
:100674000485BE000280BE0038000700844F750068
:10068400000006000280BE006450E1000500360050
:100694006420E100020036000968A30001003A006A
:1006A4000880BE0002C0A8004F0678004F05BE00B7
:1006B4004F04BE0000000600F0FF2F00F1FF2700EA
:1006C400F9FF370081002000618055000B003D00D8
:1006D4000B00200061FE2F000100E1001D0034002A
:1006E40082817100610164008904D1000884D3000F
:1006F4000000E800FAFF3A00710020006100640085
:10070400030070000200600009003200610444002C
:10071400E0844C000988A500050032008B05E80040
:100724006808E10002003A008904D1000884D3007B
:10073400F20F20000258E10005003D00C75DDD0016
:10074400F907B200898075000800880000000600DF
:100754000BF827001B00880000000500C70ADE0014
:10076400F107B200F50FB20008003200E1CF4200F9
:100774000200320002E0A80024000500810F70008E
:10078400010032000408050044000500810F7000D8
:1007940002003A00140005008502E9000000400050
:1007A40081C04800FCFF3B0002E0A80024000500D3
:0807B4000080FA0000000600BD
:100A3C000000FA0002000700860504000000000018
:100A4C000081BE00190007000470A70003F0A1008C
:100A5C0003F8A30013003A006509B100100032003E
:100A6C00090035006928E10002003500010028006A
:100A7C000000050000004000818048008502E9006C
:100A8C00FCFF3A0000000600F88F4200050035001C
:100A9C008100D1000080D3008502E800FCFF3A0001
:100AAC00000006008000EB0000000500C70ADE0015
:100ABC00F107B200F50FB20008003200E1CF42009E
:100ACC000200320002E0A80024000500810F700033
:100ADC00010032000408050044000500810F70007D
:100AEC0002003A00140005008502E90000004000F5
:100AFC0081C04800FCFF3B0002E0A8002400050078
:080B0C000080FA000000060061
:100F30003400F8003600F800801F78002000200000
:100F40000C000900B01F78008500A900C402AA00A7
:100F500011E1A900A00120000C0009004F10780049
:100F60004F0078003600F9003400F9000040060018
:000F700081
:0200000401F009
:240000000F000000FFFF000003000000E1000000BF0000005F000000FF00000083000000DF0000006C
:00000001FF
