:10000000C211040000000000000000000000000019
:1000100000000000000000000000000000000000E0
:1000200000000000000000000000000000000000D0
:1000300000000000000000000000000000000000C0
:1000400000000000000000002E1100000000000071
:1000500000000000000000000000000000000000A0
:100060000000000000000000000000000000000090
:100070000000000026170000000000000000000043
:100080000000000000000000000000000000000070
:100090000000000000000000000000000000000060
:1000A0000000000000000000000000000000000050
:1000B0000000000000000000000000000000000040
:10238400CF8C2000F0FF200020A0B7000000200028
:1023940034A0B700400020004420B7003C00FA00FD
:1023A4008A1F78008B1F78008C1F7800E024EF00D0
:1023B400E224EF000020EF00204688000020EF0018
:1023C400504688000020EF00904588000020EF0070
:1023D4000220EF00A0458800B14588000020EF00EE
:1023E4000220EF00E0458800F14588000020EF005E
:1023F4000220EF000046880011468800D0CC2C0053
:10240400C1EC23003046880041468800CD22A80054
:10241400C462A900C442A900C002A800C922A9003C
:10242400C062A900C042A9004427EF0011E1A9003D
:1024340013E1A9001061A8001021A90010C1A9008E
:102444001081A90010A1A90001002100800A200028
:102454001088700000E023000CA1B7009004200055
:102464000EA1B7000821EF000621EF00A800A80084
:10247400A820A900A840A9008500A9009500A800EB
:1024840011E1A8000A202C001B002000F3FE070025
:1024940098002000773522000E20ED00FEFF3A0060
:1024A4001020ED00FCFF3A00E000470030C5B30007
:1024B4008058780040C5B3008058780010C4B30039
:1024C40080587800C0C4B30080587800C0C4B300FA
:1024D40080587800F0C5B3008058780040C4B30039
:1024E4008058780090C4B3008058780030C5B30099
:1024F4008058780040C5B3008058780020C5B300E8
:102504008058780090C4B3008058780020C4B30089
:102514008058780050C5B3008058780040C5B30097
:1025240080587800F0C4B3008058780020C5B30008
:1025340080587800F0C5B3008058780000C5B30017
:102544008058780050C4B3008058780020C5B30088
:102554008058780090C4B30080587800F0C4B30069
:102564008058780040C4B30080587800D0C3B300CA
:10257400805878000020EF00805878006000470001
:102584000005780034FD07002C802000AA9929005A
:102594009BE9230044FD07002A8020002EFD07004C
:1025A400E000470040C4B3008058780070C5B30011
:1025B40080587800F0C4B3008058780020C5B30078
:1025C4008058780040C4B3008058780080C2B300BB
:1025D4008058780030C5B3008058780040C5B300F7
:1025E4008058780010C4B30080587800C0C4B30089
:1025F40080587800C0C4B30080587800F0C5B30098
:102604008058780040C4B3008058780090C4B30068
:102614008058780030C5B3008058780040C5B300B6
:102624008058780020C5B3008058780090C4B30067
:102634008058780020C4B3008058780050C5B30097
:102644008058780040C5B30080587800F0C4B300C7
:102654008058780020C5B30080587800F0C5B300D6
:102664008058780000C5B3008058780050C4B30087
:102674008058780020C5B3008058780090C4B30017
:1026840080587800F0C4B3008058780040C4B30088
:1026940080587800F0C2B3008058780030C4B3008A
:1026A40080587800C0C4B30080587800F0C4B300E8
:1026B4008058780030C4B30080587800B0C4B300A8
:1026C40080587800F0C5B3008058780000C5B30086
:1026D4008058780050C4B3008058780020C5B300F7
:1026E4008058780090C4B30080587800F0C4B300D8
:1026F4008058780040C4B3008058780090C2B3007A
:1027040080587800D0C3B300805878000020EF00D0
:10271400805878006000470000057800CEFC070070
:102724002C8020000AE023009B04200072FC070098
:102734002A802000C8FC0700E000470000C5B30061
:102744008058780020C5B30080587800C0C4B30016
:1027540080587800D0C3B300805878000020EF0080
:10276400805878006000470000057800BAFC070034
:102774002B8020003A08800098FC07002A80200063
:10278400B5FC0700E000470000C2B30080587800A1
:1027940000C2B3008058780000C5B30080587800A8
:1027A40020C5B3008058780080C4B30080587800F6
:1027B400D0C3B300805878000020EF008058780020
:1027C40060004700000578001CF707002B802000FC
:1027D4004A08800081FC07002A80200017F70700C0
:1027E400DA0020009FFA07006240A800AD80A8002C
:1027F400ADA0A800ADC0A8008660A9009660A8009E
:1028040098002000773522000E20ED00FEFF3A00EC
:102814001020ED00FCFF3A0088FE07000000E200F3
:102824004D01320082FD0700501F98004106200030
:102834000100E10001003A000300370041042000D8
:102844000100E10003003A00A18C20009188EA0015
:1028540041013700310620000100E10001003A0087
:1028640003003700310420000100E10009003A00B0
:102874000220EF000420EF00E1458800F2458800C3
:102884000220EF000420EF00014688001246880071
:1028940031013700210620000100E10001003A0067
:1028A40003003700210420000100E10015003A0074
:1028B40001802000D0C0B30080487800118020003F
:1028C4000020EF0080487800FCCFB3000B8020008C
:1028D4002A8020005BFD07002A8020008EFD07006F
:1028E400CF80DE000081EB009DF80700A2702D0070
:1028F40033C22300D7F707003046880041468800DA
:1029040015013700F0032000DE1890000008E100F4
:1029140001003A0007003700800620000008E100AB
:1029240001003A0003003700800420000008E100A1
:1029340009013A00E000470040C6B300805878001F
:10294400C0C2B3008058780040C4B30080587800F7
:1029540000C2B30080587800A0C3B3008058780048
:1029640000C2B3008058780040C4B3008058780097
:1029740050C6B3008058780040C7B3008058780030
:1029840010C6B3008058780090C6B3008058780011
:10299400C0C6B3008058780050C6B3008058780091
:1029A40040C6B3008058780000C2B3008058780055
:1029B400C0C4B30080587800F0C6B30080587800D3
:1029C40070C6B3008058780070C6B3008058780091
:1029D40090C6B30080587800E0C6B30080587800F1
:1029E40070C6B300805878000020EF00805878004B
:1029F4006000470000057800B4F80700E0004700D5
:102A040030C6B30080587800C0C2B3008058780044
:102A140030C4B3008058780000C2B30080587800F6
:102A2400A0C3B3008058780000C2B3008058780077
:102A340030C4B30080587800C0C6B3008058780012
:102A440050C6B3008058780010C6B3008058780090
:102A540020C7B3008058780000C2B30080587800C3
:102A640040C4B3008058780090C6B3008058780002
:102A740030C7B3008058780040C7B300805878004E
:102A840020C7B3008058780020C6B300805878006F
:102A940050C7B3008058780040C7B300805878000E
:102AA400F0C6B3008058780020C7B300805878007F
:102AB400F0C5B3008058780000C5B3008058780092
:102AC40050C6B3008058780020C7B30080587800FF
:102AD40090C6B30080587800F0C6B30080587800E0
:102AE40040C6B30080587800F0C5B3008058780021
:102AF40050C4B3008058780020C7B30080587800D1
:102B040020C7B30080587800F0C6B300805878001E
:102B140020C7B3008058780030C7B30080587800CD
:102B240000C2B3008058780030C6B30080587800E3
:102B3400F0C6B3008058780050C7B30080587800BE
:102B4400E0C6B3008058780040C7B30080587800CE
:102B540050C6B3008058780020C7B300805878006E
:102B64000020EF00805878006000470000057800DE
:102B740056F80700E000470020C6B30080587800EC
:102B8400C0C2B3008058780020C4B30080587800D5
:102B940000C2B30080587800A0C3B3008058780006
:102BA40000C2B3008058780030C5B3008058780064
:102BB40050C6B3008058780040C7B30080587800EE
:102BC40000C2B3008058780020C4B3008058780055
:102BD400C0C6B3008058780010C6B300805878008F
:102BE400E0C6B30080587800B0C6B30080587800BF
:102BF40090C6B30080587800E0C6B30080587800CF
:102C040070C6B3008058780000C2B30080587800C2
:102C140000C5B3008058780050C6B30080587800CF
:102C240020C7B3008058780030C6B30080587800BD
:102C340050C6B30080587800E0C6B30080587800CE
:102C440040C7B3008058780000C2B30080587800B1
:102C540030C7B3008058780050C6B300805878005D
:102C6400E0C6B3008058780040C6B30080587800AE
:102C740000C2B3008058780010C6B30080587800B2
:102C840030C7B3008058780000C2B3008058780081
:102C940010C3B3008058780000C3B3008058780094
:102CA40000C2B3008058780080C2B3008058780016
:102CB40010C3B3008058780000C3B3008058780074
:102CC40050C2B3008058780090C2B3008058780096
:102CD400C0C2B3008058780000C2B30080587800A6
:102CE40050C3B3008058780000C3B3008058780004
:102CF40000C2B3008058780080C2B30080587800C6
:102D040050C3B3008058780000C3B30080587800E3
:102D140050C2B3008058780090C2B3008058780045
:102D240000C2B3008058780050C6B30080587800C1
:102D340040C7B3008058780030C6B300805878008C
:102D44000020EF00805878006000470000057800FC
:102D5400DEF70700000037005046800000A0EE00B8
:102D640031003200E000470020C5B30080587800ED
:102D740000C5B30080587800D0C4B30080587800F0
:102D8400D0C3B300805878000020EF00805878004A
:102D940060004700000578002FFB07002C8020000E
:102DA4003A4480004B4480003FFB07002A80200007
:102DB40029FB0700E000470000C2B30080587800F8
:102DC40000C2B3008058780030C5B3008058780042
:102DD40040C7B3008058780010C6B300805878000C
:102DE40040C7B3008058780050C6B30080587800BC
:102DF400D0C3B300805878000020EF0080587800DA
:102E040060004700000578008CF507002B80200047
:102E14002A468000B3F707002A80200087F50700C0
:102E2400DA0020000FF9070067FA0700C462AA005D
:102E340073FE37004F067800CF0578004F05780001
:082E44000080FA00FFFF3700D7
:102060000800FA004093200050448800A0F12000AE
:10207000804488000012210070448800F0FF2F0087
:10208000604488003022EF000000280032A2B70030
:102090003062A90068FC0700823E20000300200097
:1020A00007FC07000003BE0067FC07008000EB0090
:1020B0008100D1000080D30064024000E08248002B
:1020C0000A01BE000402E900030035000201D0004D
:1020D0008381D200FBFF37000207980013079800A6
:1020E000869FBE008A9FBE000600BE000082EB00F5
:1020F000FCFB07004F05BE004F03BE002007980001
:10210000310798008A9FBE000600BE000E019000B5
:102110009E0190000082EB001EFC07004F05BE00F0
:102120008001780001027800600047005081D100F2
:10213000C080D300640047003008E1002090E10037
:1021400003003D00E180410060014A0002003700C9
:1021500083007800040178006008E1006090E100ED
:102160002F003A0034FC0700823E200003002000CC
:10217000D3FB07000003BE0033FC07008000EB0028
:102180008100D1000080D30062024000E08248005C
:102190000A01BE000402E900030035000201D0007C
:1021A0008381D200FBFF37000207980013079800D5
:1021B000869FBE000600BE000082EB00C9FB070040
:1021C0004F03BE0020079800310798000600BE00AC
:1021D0000E0190009E0190000082EB00EDFB0700D5
:1021E0008001780001027800600047005081D10032
:1021F000C080D300640047003008E1002090E10077
:1022000003003D00E180410060014A000200370008
:1022100083007800040178003062A80000003700D5
:1022200080232000618850003222A90031E2A800FA
:102230003342A80007FC07000080FA0000000600F7
:002240009E
:1012380002D02700030020000200BE0000000600C4
:00124800A6
:0C124800210020000100780000000600DA
:1012540057052D000E20ED00FEFF3A0000000000AF
:041264000000060080
:1010C0000000FA00020AB800500088000200B800D0
:1010D00081004200032AB800810042000080FA002B
:0410E0000000060006
:1010E4000000FA0002000700C60804000000000027
:1010F4000800E20002003A001000070000000600A9
:10110400811F78000200E20002003D006000100030
:10111400E08018000600E20002003D0060011100BA
:10112400E0811900050007004F00E00002003B00C9
:1011340060001000E08018000000060002000700B4
:101144000480BE00000006006022B80006022000F1
:101154000000D0008180D2000482D2008582D200B7
:101164000000A8000202520083825A0003003B00E0
:101174000202420083824A000000A1000603E90043
:10118400F3FF3A00000006000080FA0000000600A9
:001194005B
:101194000000FA0002000700180904000000000023
:1011A4000800E20002003A001000070000000600F8
:1011B400839F68000200E20002003D00600010000E
:1011C400E08018000600E20002003D00600111000A
:1011D400E0811900050007004F00E00002003B0019
:1011E40060001000E0801800000006006022B800D3
:1011F400060220000000D0008180D2000482D200C8
:101204008582D2000000A8000202520083825A00A4
:1012140003003B000202420083824A000000A10056
:101224000603E900F3FF3A00000006000080FA001C
:0412340000000600B0
:101A5C000000FA000220EF001A40780000417800E4
:101A6C0002407800014178006004E1000A00320075
:101A7C008A1F78000085FB00F8FD07004F057800F1
:101A8C00E14041000180FB0000004500104078005F
:101A9C0001417800F4FF37000080FA0000000600D6
:001AAC003A
:101268000000FA009111800000102000008060004A
:101278006000E10002003A0000000000F9FF3700BA
:0C128800AA1188000080FA000000060097
:101AAC002000FA000020EF00500F98008C1F7800E7
:101ABC008A9FBE000A00BE005CFE07004F05BE00F8
:101ACC004F0678000001BE00829FBE008C1F78007C
:101ADC008A9FBE000420EF000620EF000A00BE0023
:101AEC00CC0007000000E0000020EF0001003D00EA
:101AFC0000A0EE004F05BE004F0678004F01BE005F
:101B0C000000E20002003200F0FF2F00500F98009E
:101B1C0062004700829FBE008C1F78008A9FBE0027
:101B2C00000678000205BE00D7FD07004F05BE0079
:101B3C004F0678004F01BE008C1F78008A9FBE00B4
:101B4C000200BE000081EB0003FC07004F05BE0045
:101B5C008A9FBE000001BE000A00BE005FFF0700A6
:101B6C0002002500337C240038FB07002FFE070001
:101B7C004F05BE004F0678000001BE006000E1007A
:101B8C006088E10005003D0060001100E080190054
:101B9C000101780080007800020037008200780094
:101BAC00030178006E0047008C1F78008A9FBE00EE
:101BBC00000678000105780082057800B2FD070068
:101BCC004F05BE004F0678000420EF000020EF0008
:101BDC00000798008C00780000C2B3008058780091
:101BEC0000C2B3008058780000C2B300805878005F
:101BFC0000C2B3008058780000C2B300805878004F
:101C0C0000C2B3008058780000C2B300805878003E
:101C1C0000C2B3008058780000C2B300805878002E
:101C2C0000C2B3008058780000C3B300805878001D
:101C3C000020EF0080587800821F78008C1F7800FD
:101C4C008A9FBE000A00BE00F8FD07004F05BE00CB
:101C5C006000E1006088E1000020EF0001003A0024
:101C6C0000A0EE00700F98000420EF000620EF009B
:101C7C000A00BE00670007000000E0000020EF0033
:101C8C0001003D0000A0EE004F0678004F017800E7
:101C9C00FE089000008060000000E20005003200A9
:101CAC00D0C2B300004E7800110020000101780072
:101CBC0000003700AE40900000C2B300000CE10001
:101CCC0007003A000E009000E10040000107980068
:101CDC00620047000100400090407800F6FF37009A
:101CEC0082017800600CE1000C0032000300460019
:101CFC00014878000E009000E100400001079800B8
:101D0C0061814100620047000100400010407800F2
:101D1C008040780082017800F2FF37005E08900066
:101D2C006000E1000220EF0001003A0002A0EE008A
:101D3C006018E1000020EF0001003A0000A0EE0066
:101D4C0000806000060032008300460000C3B30030
:101D5C008048780061804100000178000100370064
:101D6C00030178006110E1000220EF0001003A004D
:101D7C0002A0EE007A0047001080600006003200DE
:101D8C008200460000C3B300804878006100410027
:101D9C00000178000000370082004600E0C2B3006A
:101DAC00804878000420EC006000200000079800B8
:101DBC00CE509000600CE1001100320000C2B30064
:101DCC00000CE10002003A0001C3B3000000370030
:101DDC0002004600014878000E009000E10040002F
:101DEC0001079800E10141006E004700010040002E
:101DFC00104078000301780080407800EDFF370038
:101E0C00820046000020EF00804878000080FA0035
:041E1C0000000600BC
:101294000000FA0000002000010028000050E100D6
:1012A40001D8E1001A003A008C007800D0C2B300E3
:1012B4008058780020C3B3008058780010C3B3006E
:1012C4008058780040C3B3008058780070C3B300DE
:1012D4008058780040C3B3008058780080C3B300BE
:1012E4008058780030C3B3008058780060C3B300DE
:1012F4008058780040C3B3008058780080C3B3009E
:10130400805878000020EF008058780047003700AC
:101314000820EF006050E10060D8E10005003D00C6
:10132400F4FF2F0060001500E0801D000005BE00E2
:10133400000037008C00780000C2B30080587800A9
:1013440000C2B3008058780000C2B300805878000F
:1013540000C2B3008058780000C2B30080587800FF
:1013640000C2B3008058780000C2B30080587800EF
:1013740000C2B3008058780000C2B30080587800DF
:1013840000C2B3008058780000C3B30080587800CE
:101394000020EF0080587800EA0246006050E10027
:1013A40060D8E1001D003200849FBE008C1F7800CD
:1013B4008A9FBE00A2002000030020000A00BE0095
:1013C4000082EB0046FF07004F05BE004F06780081
:1013D4004F02BE0002032000030020000200400070
:1013E400804A7800849FBE008C1F78008A9FBE00CC
:1013F400A2002000030020000A00BE000082EB00CF
:1014040063FF07004F05BE004F0678004F02BE0081
:101414000005BE000A20ED00E0FF37000800E200EE
:1014240002003200D0C2B300804A78000080FA0083
:0414340000000600AE
:101438000000FA0002000700900A04000000000003
:101448000081BE001F0007000470A70003F0A10080
:101458006509B100160032000D0035006828E1006A
:1014680006003500F0FF2F00F1FF27000600E2001C
:1014780013003B00010028000000050000004000A8
:10148800818048008502E900FCFF3A000800370027
:10149800F88F420002003C008000EB0000000500CD
:1014A8008100D1000080D3008502E800FCFF3A00EB
:1014B8000600E20002003B0060001000E080180017
:1014C80000000600C70ADE00F107B200F50FB200FF
:1014D80008003200E1CF42000200320002E0A8001A
:1014E80024000500810F7000010032000408050087
:1014F80044000500810F700002003A001400050046
:101508008502E9000000400081C04800FCFF3B0064
:1015180002E0A800240005000080FA000000060090
:00152800C3
:101E20000000FA001400200052FA07000080FA00B7
:041E300000000600A8
:100774000000FA0002000700280404000000000042
:10078400841F7800140007004F0078001100330024
:10079400F0FF2F00838F6C0006003B00040565000A
:1007A4000A00A7000800370009F0A6001000200086
:1007B40008003700820F5400838F5C000300390067
:1007C4001000200001003E000000200009F0A700F6
:1007D4000000EA00000006000084BE0006000700D6
:1007E4000083BE000485BE000280BE000200070034
:1007F400844F750000000600C70ADE00F107B2004E
:10080400F50FB20008003200E1CF420002003200CE
:1008140002E0A80024000500810F700001003200EE
:100824000408050044000500810F700002003A002E
:10083400140005008502E9000000400081C0480062
:10084400FCFF3B0002E0A800240005000080FA0041
:04085400000006009A
:100B64000000FA0002000700640604000000000010
:100B74000400E20006003A000005EB000200E20077
:100B84000F003E000000E200270032000C00370096
:100B9400A10088000200E2000400350008003C00C7
:100BA4000000E20020003200050037006000100061
:100BB400E080180002003B0001F02C001A0037000E
:100BC4000084BE006011B8006B0920000982CF00C8
:100BD400020039000882CF000441B000694252008B
:100BE4000E00320008003B00828171006101640044
:100BF4008904D1000884D3008B05E8000442E8008E
:100C0400F9FF3A00050037000804440089844C00C9
:100C14008B05E9000442E900FBFF3A0003000700EA
:100C24000AF0A70003E0A8000000060081002000ED
:100C3400618055000B003D000B00200061FE2F0079
:100C44000100E1001D003400828171006101640033
:100C54008904D1000884D3000000E800FAFF3A00B8
:100C64007100200061006400030070000200600055
:100C74000900320061044400E0844C000988A500A6
:100C8400050032008B05E8006808E10002003A0024
:100C94008904D1000884D300F20F20000258E10037
:100CA40005003D00C75DDD00F907B20089807500CD
:100CB40008008800000006000BF827001B008800CD
:0C0CC400000005000080FA00000006009F
:1018E8000000FA0007E0AA00EAFA07000080FA0000
:0418F80000000600E6
:10049C000000FA0002000700B60304000000000090
:1004AC00889FBE008A9FBE008C1F780059000700F1
:1004BC00600033006450E1004F0032006420E10022
:1004CC005200320003826C0007003B000905D0008B
:1004DC000306D000820F54000C065D0002003900A8
:1004EC000200320039008800C30088008582550064
:1004FC0004003D000003FD008103FD008502EA00BD
:10050C008B854200840F720002003B0060001000DB
:10051C00E08018006011B8000005EB007A28E100BB
:10052C000A00390006008800C75DDD00F707B2003D
:10053C00878075002D003700828171002A008800A9
:10054C00610560008180D1000080D3008502E90044
:10055C00F9FF3B00060440008784480002003B0082
:10056C0060041400E0841C000988A300070032001A
:10057C008A81710082817100610164008904D1005B
:10058C000884D3008B05E800170037000978A30016
:10059C0013003A001600E200130034008B05E9004A
:1005AC000804440089844C000A4474000978A300B0
:1005BC000D003A001600E200070034008B05E9003C
:1005CC000804440089844C0001003A000B00200010
:1005DC000978A300F7FF32000001EB00020037009E
:1005EC00828171002A008800220007000CF0A7000D
:1005FC0003E0A800180037006420E10002003A0074
:10060C00838F6C00180033000881BE000280BE008E
:10061C00110037000084BE003C0007000083BE00C0
:10062C000485BE000280BE0038000700844F7500B0
:10063C00000006000280BE006450E1000500360098
:10064C006420E100020036000968A30001003A00B2
:10065C000880BE0002C0A8004F0678004F05BE00FF
:10066C004F04BE0000000600F0FF2F00F1FF270032
:10067C00F9FF370081002000618055000B003D0020
:10068C000B00200061FE2F000100E1001D00340072
:10069C0082817100610164008904D1000884D30057
:1006AC000000E800FAFF3A007100200061006400CD
:1006BC000300700002006000090032006104440075
:1006CC00E0844C000988A500050032008B05E80089
:1006DC006808E10002003A008904D1000884D300C4
:1006EC00F20F20000258E10005003D00C75DDD005F
:1006FC00F907B20089807500080088000000060028
:10070C000BF827001B00880000000500C70ADE005C
:10071C00F107B200F50FB20008003200E1CF420041
:10072C000200320002E0A80024000500810F7000D6
:10073C00010032000408050044000500810F700020
:10074C0002003A00140005008502E9000000400098
:10075C0081C04800FCFF3B0002E0A800240005001B
:08076C000080FA000000060005
:100858000000FA0002000700420504000000000042
:10086800889FBE008A9FBE008C1F7800300007005A
:100878003700330003866C006450E1002400320026
:100888006420E100270032006150E10022003200BC
:100898006120E100210032008B854200EB07B100A6
:1008A8000134B800003AB8000804420089844A00BC
:1008B800013AB8000030B8008880400009014A00B9
:1008C8000400330000004000818048000201490014
:1008D8008B05E900C909DD008301700001003200C1
:1008E80013002000C814DE004814DD004709DE00AC
:1008F8001200B200C808DE00088470002400070057
:1009080001F0A1000CF0A70003E0A80019003700CF
:100918006120E1001B0032000881BE000280BE0099
:10092800F7FF37006150E100FCFF3A00150037007F
:100938000084BE003C0007000083BE000485BE00A2
:100948000280BE0038000700844F750000000600D2
:100958000280BE006450E100050036006420E1001A
:10096800020036000968A30001003A000880BE00B2
:1009780002C0A8004F0678004F05BE004F04BE0015
:1009880000000600F0FF2F00F1FF2700F9FF3700F5
:1009980081002000618055000B003D000B00200005
:1009A80061FE2F000100E1001D003400828171000A
:1009B800610164008904D1000884D3000000E800C4
:1009C800FAFF3A0071002000610064000300700023
:1009D800020060000900320061044400E0844C0019
:1009E8000988A500050032008B05E8006808E100C9
:1009F80002003A008904D1000884D300F20F2000D5
:100A08000258E10005003D00C75DDD00F907B200AE
:100A18008980750008008800000006000BF8270090
:100A28001B00880000000500C70ADE00F107B200BD
:100A3800F50FB20008003200E1CF42000200320098
:100A480002E0A80024000500810F700001003200B8
:100A58000408050044000500810F700002003A00F8
:100A6800140005008502E9000000400081C048002C
:100A7800FCFF3B0002E0A800240005000080FA000B
:040A88000000060064
:1018FC000200FA008C00780000C2B3008058780017
:10190C0000C2B3008058780000C2B3008058780041
:10191C0000C2B3008058780000C2B3008058780031
:10192C0000C2B3008058780000C2B3008058780021
:10193C0000C2B3008058780000C2B3008058780011
:10194C0000C3B300805878000020EF008058780066
:10195C0060004700690846006050E10060D8E10073
:10196C001A0032008C1F78008A9FBE00A200200053
:10197C00030020000A00BE000002EB00D6FD0700A9
:10198C004F05BE00020320000300200002014000AE
:10199C000E009000024878008A9FBE00A200200032
:1019AC00030020000A00BE000002EB00F6FD070059
:1019BC004F05BE004F0678000005BE008E0090005B
:1019CC006000470061885000E3FF37000080FA0098
:0419DC000000060001
:1019E0000000FA008B00780000C2B3008058780035
:1019F00000C2B3008058780000C2B300805878005D
:101A000000C2B3008058780000C3B300805878004B
:101A10000020EF0080587800E48145006050E1002C
:101A20000C003200A2002000110009000285D8003D
:101A3000000320000080400080497800A2002000C0
:101A4000110009000285D800000578000620ED008D
:0C1A5000F2FF37000080FA0000000600E2
:100440000200FA000020EF00004798001A407800F0
:1004500080407800014078006004E1000D00320027
:100460008A1F78000085FB00F0FF07004F05780029
:100470008E4090006000470061C840006000470067
:100480001080FB000000450090407800014078009B
:0C049000F1FF37000080FA0000000600B9
:10042C000000FA0050448000000001000080FA0037
:04043C0000000600B6
:100400000000FA0011118000001020000080600040
:100410006000E10002003A0000000000F9FF370030
:0C0420002A1188000080FA00000006008D
:102240000000FA000220EF003202AF000220EC0092
:0C225000010078000080FA000000060089
:101E34000000FA00B1118000010078000080FA006F
:041E44000000060094
:101E48000000FA000A0178008B0178000020EF00FA
:101E5800004278006064E1002A003200F0CFB3004D
:101E68000064E100030032000C80FB000020ED005C
:101E780000467800F00007006000E10002003A0028
:101E880000000000FBFF3700E8FF070080407800F3
:101E9800004978000420EC00130CE10004003A002B
:101EA800614042000620EC00004278000C00370038
:101EB8000820EF008B0178001B4078000104E10046
:101EC80003003A0061404200E1804100020037000F
:101ED800830078000440780081017800004278008F
:101EE800134078006004E10005003A000480FB001C
:101EF800800051000020EF00804878000300370080
:101F0800D4FF37000020EF00004D78000080FA0071
:041F180000000600BF
:101F1C000000FA000020EF00087122000E20EF00F4
:101F2C001620EF001820EF000C20EF0007004500F2
:101F3C00104078006004E1001E00320007004500EC
:101F4C0090407800D0C2B300000CE10003003A00CE
:101F5C00F6FF2F000E20EC00F4FF370007004500C1
:101F6C009040780000C2B300000CE1000B0032007E
:101F7C00070045009080FB0000032000008050000B
:101F8C008000EB00080178008001EB0049FC0700A1
:101F9C008085450001064E0000003700A20020009D
:101FAC00110009000284D800000478000E20EC0017
:101FBC00DEFF37000C00E20003003200600020005E
:101FCC00800178000200370050002000800178006A
:101FDC00060178008B0278000C0378000702780069
:101FEC000320E10012003200821F7800841F780069
:101FFC00831F78008A1F780005007800860078001F
:10200C00A2002000030020000082EB005EFC070011
:10201C004F057800CF0178004F0278004F0178000F
:10202C0080027800010378000820EC00ECFF3700F8
:10203C00050078000400E20002003200E00010000D
:10204C000100370080007800010078000080FA0061
:04205C00000006007A
:100CD0008A1F7800DAFD0700DA002000C8FD07004F
:080CE0004F057800000006003A
:100CE8000000FA00000028000050E10010003A005F
:100CF8008B007800D0C2B3008058780030C3B300AE
:100D08008058780020C3B3008058780070C3B300BF
:100D18008058780060C3B3008058780080C3B3005F
:100D2800805878000020EF008058780029003700AC
:100D38000620EF006050E10004003D00F3FF2F00A3
:100D48006000150000057800000037008B0078006F
:100D580000C2B3008058780000C2B3008058780001
:100D680000C2B3008058780000C2B30080587800F1
:100D780000C2B3008058780000C3B30080587800E0
:100D88000020EF0080587800658245006050E1003F
:100D98000C003200A2002000110009000205D80052
:100DA8000003200000804000004A7800A2002000D4
:100DB800110009000205D800000578000820ED00A0
:100DC800F2FF37000600E20002003200D0C2B30092
:0C0DD800004A78000080FA0000000600CD
:1017CC001600FA008A1F78008B1F78008C1F780097
:1017DC006000470000067800EA458000FB45800069
:1017EC0043000700EB00470030C5B3008058780079
:1017FC0080C6B30080587800F0C6B30080587800DB
:10180C0020C7B3008058780040C7B30080587800D8
:10181C0000C2B3008058780040C5B30080587800EF
:10182C00A0C3B3008058780000C2B3008058780081
:10183C000020EF00805878006B004700000578000E
:10184C008300070060004700000578001DFD0700BD
:10185C0060004700000678000A4680001B468000A6
:10186C0023000700EB004700C0C4B3008058780089
:10187C00F0C6B30080587800E0C6B30080587800FA
:10188C0070C6B3008058780000C2B300805878004E
:10189C0040C5B30080587800A0C3B30080587800CE
:1018AC0000C2B300805878000020EF008058780008
:1018BC006B004700000578006500070060004700DA
:1018CC0000057800FFFC07004F067800CF05780074
:0C18DC004F0578000080FA0000000600B4
:102E4C000A00FA003400F8003600F800801F780001
:102E5C00200020000C000900B01F78008A1F7800A9
:102E6C008B1F78008C1F7800C282BF000000AE0060
:102E7C00CF0037000681BF00200798000881BF00F3
:102E8C00300798000821EF000621EF008500A9000B
:102E9C00204680006000E10009003A000020EF00AD
:102EAC000220EF0030448800414488000020EF00ED
:102EBC000220EF0000079800110798000A00370065
:102ECC001C0020002E059000BE059000B4F90700F0
:102EDC0000079800110798000005BE008FF9070045
:102EEC0030448800414488000E0090009E00900001
:102EFC006266260063F6230054F607000001BE004C
:102F0C00C0458000D1458000C2FB07000000E000F6
:102F1C000020EF0001003D0000A0EE000000E200E8
:102F2C0006003200E0458000F14580006100400061
:102F3C00E0804800E0458800F14588000E009000D4
:102F4C009E009000D2CC2C00C3F823003FF6070063
:102F5C000001BE00C0458000D14580009EF70700EF
:102F6C000000E0000020EF000100340000A0EE00A3
:102F7C000000E2000600320000468000114680008E
:102F8C0061004000E080480000468800114688003F
:102F9C00204680006000E10013003A000020EF00A2
:102FAC00204488000020EF00904588000020EF00AE
:102FBC000220EF003044880041448800A08C20009F
:102FCC001000E00001003200CBF9070010002000D7
:102FDC0020468800A08C20001000E0000100320088
:102FEC00C5F9070072003700204680006100E1003F
:102FFC003E003A000200200083242400304480006C
:10300C004144800074F707000000E0000020EF004E
:10301C000100340000A0EE004007980002002C00D4
:10302C00A35D2400304480004144800079FB0700FC
:10303C000000E0000020EF0001003D0000A0EE00C9
:10304C00CE00900000806000110032000E05900050
:10305C009E05900078F907000E0090009E009000ED
:10306C003246800043468000F8F507001C00200023
:10307C000005BE00C3F907000005BE00ACF907004F
:10308C001100200040882000108840000D003700FF
:10309C00A099290091D92300324680004346800034
:1030AC00EAF507001C0020000005BE00B5F907007A
:1030BC000005BE009EF9070011002000408820008A
:1030CC0010881000204480006800E10006003500E4
:1030DC002000200020468800A08C20001000E0007A
:1030EC000100320084F907003100370020468000CF
:1030FC006200E10007003A00300020002046880002
:10310C00A08C20001000E000010032007AF90700CA
:10311C0027003700204680006300E10018003A00C9
:10312C000E0590009E05900043F907000E059000D7
:10313C009E0590002EF9070002002000833C24001D
:10314C00304480004144800023F707000000E00079
:10315C000020EF000100340000A0EE000000E200AF
:10316C00060032004000200020468800A08C200081
:10317C001000E000010032005FF907000C0037007E
:10318C00204680006400E10007003A000E05900024
:10319C009E05900028F90700AA458000BB458000D9
:1031AC0013F90700020037000020EF0020468800CA
:1031BC000E0090009E009000C0458800D14588000C
:1031CC008660A9004F067800CF0578004F0578007F
:1031DC00A00120000C0009004F1078004F0078006F
:1031EC003600F9003400F9000080FA0000400600B7
:0031FC00D3
:1015AC000400FA008C1F78000A00BE006AFD0700D8
:1015BC00D27B230063382300A4FC07004F0678007D
:1015CC0000079800110798000C0078008000EB00D1
:1015DC0061FD07000E0190009E0190009BFC07002E
:1015EC000001BE000200BE000080FA0000000600F0
:0015FC00EF
:101528000400FA000020EF000220EF0000079800F6
:10153800110798008A9FBE000420EF000620EF00E4
:101548000A00BE0025FE07000000E0000020EF00B2
:101558000100340000A0EE004F05BE000000E200CC
:101568000C0032000A01BE00000020000127240000
:1015780036FE0700020020000310240033FE070097
:101588000200200003002400B1FC070000079800B7
:10159800110798000E0090009E0090000080FA004D
:0415A8000000060039
:100DE4000000FA00F4FF2F0061FE07000080FA0003
:040DF40000000600F5
:100E54000000FA00020007005C0804000000000023
:100E6400889FBE008A9FBE008C1F78003E0007004A
:100E74004500330003866C006450E1002E0032000C
:100E84006420E100330032006150E1002F003200A1
:100E94006120E1003100320085855500EB07B00088
:100EA400090020000804200005003700080444005D
:100EB40089844C000A0031000603430087834B00F9
:100EC4000001530081815B00F8FF33000283BE0000
:100ED4001000A8000804440089844C00F6FF39007F
:100EE400C639DD00830173000100320013002000C5
:100EF4008904D1000884D3000998A30005003200B6
:100F04000800A7000600A8008904D1000884D300C3
:100F14008B05E8008904D1000884D3000001EB00AC
:100F24000281D2002800070001F0A1000CF0A70004
:100F340003E0A8001D0037006420E1001F00320018
:100F44000881BE000280BE00F7FF37006120E10087
:100F54001A0032006000B800F3FF370000002000E0
:100F640001F82700F0FF37000084BE003C000700B2
:100F74000083BE000485BE000280BE003800070066
:100F8400844F7500000006000280BE006450E1003A
:100F9400050036006420E100020036000968A30061
:100FA40001003A000880BE0002C0A8004F06780085
:100FB4004F05BE004F04BE0000000600F0FF2F00E6
:100FC400F1FF2700F9FF3700810020006180550000
:100FD4000B003D000B00200061FE2F000100E1002A
:100FE4001D00340082817100610164008904D10014
:100FF4000884D3000000E800FAFF3A0071002000E2
:101004006100640003007000020060000900320007
:1010140061044400E0844C000988A5000500320006
:101024008B05E8006808E10002003A008904D10059
:101034000884D300F20F20000258E10005003D00AF
:10104400C75DDD00F907B2008980750008008800DB
:10105400000006000BF827001B00880000000500B4
:10106400C70ADE00F107B200F50FB2000800320033
:10107400E1CF42000200320002E0A8002400050093
:10108400810F7000010032000408050044000500CF
:10109400810F700002003A00140005008502E90087
:1010A4000000400081C04800FCFF3B0002E0A800B3
:0C10B400240005000080FA000000060087
:101704000800FA008A1F78008B1F780060004700E9
:10171400800578002A46800072FD070060004700BB
:101724000005780069FD0700CF0578004F057800B3
:081734000080FA00000006002D
:1016440090458000C200DD00208920000100400098
:101654000A88BE00904580000020EC009045880078
:10166400904580006800E100020035000020EF0092
:1016740090458800DFFD0700A0458800B14588003B
:04168400000006005C
:100DF8000820EF000A20EF000620EF00C218DD00EF
:100E080020892000010140001200BE00831F7800E5
:100E18000401BE009FFD0700CF0178000002BE005C
:100E28006718E100020032000620EC00F3FF3700EB
:100E38000400BE0002002000031024000300070085
:0C0E48000001BE000200BE000000060019
:101790008A9FBE000C0078008000EB00F1FC07007F
:1017A000D27B2300633823002BFC07004F05BE00CB
:1017B0000001BE000A00BE00A6FD0700B3FC070042
:0C17C0000001BE000200BE000000060098
:100A8C000000FA0002000700AE05040000000000A0
:100A9C000081BE00190007000470A70003F0A1003C
:100AAC0003F8A30013003A006509B10010003200EE
:100ABC00090035006928E10002003500010028001A
:100ACC000000050000004000818048008502E9001C
:100ADC00FCFF3A0000000600F88F420005003500CC
:100AEC008100D1000080D3008502E800FCFF3A00B1
:100AFC00000006008000EB0000000500C70ADE00C5
:100B0C00F107B200F50FB20008003200E1CF42004D
:100B1C000200320002E0A80024000500810F7000E2
:100B2C00010032000408050044000500810F70002C
:100B3C0002003A00140005008502E90000004000A4
:100B4C0081C04800FCFF3B0002E0A8002400050027
:080B5C000080FA000000060011
:10173C000A0478008B0478001000F800E700200001
:10174C008703E900030035008904D1000884D30025
:10175C00FBFF37001200F900F7FF230087846400B9
:10176C001000E20004003200F93F09000000000004
:10177C000804E900FAFF37000980090000000000A6
:04178C000000060053
:101688000400FA000020EF000220EF000007980095
:10169800110798008A9FBE000420EF000620EF0083
:1016A8000A00BE00CDFD07000000E0000020EF00AA
:1016B8000100340000A0EE004F05BE000000E2006B
:1016C8000A0032000A00BE000200200003102400B5
:1016D8005FFC07000001BE0000002000012F24006D
:1016E800DAFD070000079800110798000E00900027
:0C16F8009E0090000080FA000000060038
:1015FC008A1F78008B1F78008C1F7800CD22A900E1
:10160C000A00BE0032468000434680008FFC070073
:10161C001C0020000005BE005A0007000005BE009B
:10162C0043000700CD22A8004F067800CF057800B4
:08163C004F05780000000600D4
:10225C001600FA003400F8003600F800801F7800F1
:10226C00200020000C000900B01F78008A1F7800A5
:10227C000821EF000621EF000020EF002046880027
:10228C000020EF000220EF00304488004144880019
:10229C00E000470030C5B3008058780040C7B30059
:1022AC008058780010C6B30080587800C0C6B300C0
:1022BC0080587800C0C6B3008058780000C2B300C4
:1022CC008058780040C4B3008058780050C6B300E2
:1022DC008058780040C7B3008058780050C6B300CF
:1022EC008058780030C6B3008058780040C7B300DF
:1022FC008058780050C6B3008058780040C6B300B0
:10230C008058780000C2B30080587800D0C2B30067
:10231C008058780000C2B3008058780090C4B30095
:10232C008058780020C5B3008058780010C5B300E1
:10233C00805878000020EF0080587800600047003B
:10234C0000057800C2FD0700DA002000C3FB07007F
:10235C008500A9004F057800A00120000C000900A1
:10236C004F1078004F0078003600F9003400F90067
:08237C000080FA000040060099
:0200000401F009
:240000000F000000FFFF000003000000E1000000BB0000005F000000FF00000083000000DF00000070
:00000001FF
