:10000000A61704000000000000000000000000002F
:1000100000000000000000000000000000000000E0
:1000200000000000000000000000000000000000D0
:1000300000000000000000000000000000000000C0
:10004000000000000000000050220000000000003E
:1000500000000000000000000000000000000000A0
:100060000000000000000000000000000000000090
:1000700000000000E222000000000000000000007C
:100080000000000000000000000000000000000070
:100090000000000000000000FA2300000000000043
:1000A0000000000000000000000000000000000050
:1000B0000000000000000000000000000000000040
:1000C0000000000000000000000000000000000030
:1000D0000000000000000000000000000000000020
:102F4C002F8E2000F0FF200020A0B70000002000F2
:102F5C0034A0B700400020004420B7003400FA0031
:102F6C008A1F78008B1F78008C1F7800E024EF00FC
:102F7C00E224EF00118820000020EF008048780048
:102F8C000020EF00F04688000020EF00004788008A
:102F9C000020EF00E04688000020EF00C0468800CB
:102FAC000020EF00D04688000020EF00D0448800BD
:102FBC000020EF00004688000020EF000220EF0008
:102FCC0010468800214688000020EF000220EF0008
:102FDC0050468800614688000020EF000220EF0078
:102FEC0070468800814688000020EF0090468800DB
:102FFC00D0CC2C00C1EC2300E0448800F1448800C4
:10300C000020EF00804488000020EF0090448800EE
:10301C000020EF00A04488000020EF000220EF0009
:10302C00B0448800C1448800CD22A800C462A90025
:10303C00C442A900C002A800C922A900C062A9000C
:10304C00C042A9004427EF0011E1A90013E1A90037
:10305C001061A8001021A90010C1A9001081A900BD
:10306C0010A1A90000E023000CA1B70090042000DF
:10307C000EA1B7000821EF000621EF00A800A80060
:10308C00A820A900A840A9008500A9009500A800C7
:10309C0011E1A8001FE1A90021E1A9001E61A8000F
:1030AC001E21A9001EC1A9001E81A9001EA1A900F4
:1030BC0000F824001AA1B700200120001CA1B700C1
:1030CC001621EF001421EF00B200A800B220A900D5
:1030DC00B240A9008780A9009780A8000A202C0084
:1030EC001B00200027FE07009800200077352200E7
:1030FC000E20ED00FEFF3A001020ED00FCFF3A0020
:10310C00E000470030C5B3008058780040C5B300DC
:10311C008058780010C4B30080587800C0C4B30045
:10312C0080587800C0C4B30080587800F0C5B30054
:10313C008058780040C4B3008058780090C4B30025
:10314C008058780030C5B3008058780040C5B30073
:10315C008058780020C5B3008058780090C4B30024
:10316C008058780020C4B3008058780050C5B30054
:10317C008058780040C5B30080587800F0C4B30084
:10318C008058780020C5B30080587800F0C5B30093
:10319C008058780000C5B3008058780050C4B30044
:1031AC008058780020C5B3008058780090C4B300D4
:1031BC0080587800F0C4B3008058780040C4B30045
:1031CC0080587800D0C3B300805878000020EF00FE
:1031DC0080587800600047000005780061FE070009
:1031EC000C802000AA9929009BE92300C5F6070052
:1031FC000A8020005BFE0700E000470040C4B300DB
:10320C008058780070C5B30080587800F0C4B300C3
:10321C008058780020C5B3008058780040C4B300B3
:10322C008058780080C2B3008058780030C5B30055
:10323C008058780040C5B3008058780010C4B300A3
:10324C0080587800C0C4B30080587800C0C4B30064
:10325C0080587800F0C5B3008058780040C4B300A3
:10326C008058780090C4B3008058780030C5B30003
:10327C008058780040C5B3008058780020C5B30052
:10328C008058780090C4B3008058780020C4B300F4
:10329C008058780050C5B3008058780040C5B30002
:1032AC0080587800F0C4B3008058780020C5B30073
:1032BC0080587800F0C5B3008058780000C5B30082
:1032CC008058780050C4B3008058780020C5B300F3
:1032DC008058780090C4B30080587800F0C4B300D4
:1032EC008058780040C4B30080587800F0C2B30016
:1032FC008058780030C4B30080587800C0C4B30044
:10330C0080587800F0C4B3008058780030C4B30003
:10331C0080587800B0C4B30080587800F0C5B30072
:10332C008058780000C5B3008058780050C4B300B2
:10333C008058780020C5B3008058780090C4B30042
:10334C0080587800F0C4B3008058780040C4B300B3
:10335C008058780090C2B30080587800D0C3B30076
:10336C00805878000020EF008058780060004700FB
:10337C0000057800FBFD07000C8020000AE023000C
:10338C009B0420000BFE07000A802000F5FD0700BF
:10339C00E000470000C5B3008058780020C5B3009A
:1033AC0080587800C0C4B30080587800D0C3B300F4
:1033BC00805878000020EF008058780060004700AB
:1033CC0000057800E7FD07000B8020003A0880001C
:1033DC004DFD07000A802000E2FD0700E0004700D9
:1033EC0000C2B3008058780000C2B3008058780047
:1033FC0000C5B3008058780020C5B3008058780011
:10340C0080C4B30080587800D0C3B30080587800D3
:10341C000020EF008058780060004700000578001D
:10342C002AF707000B8020004A08800036FD0700B1
:10343C000A80200025F70700DA00200061F507005C
:10344C003DFA07006240A800AD80A800ADA0A8001E
:10345C00ADC0A8008660A9009660A8009800200066
:10346C00773522000E20ED00FEFF3A001020ED0013
:10347C00FCFF3A001DFD07000000E200EE033200E5
:10348C0005FE0700101F9800010320000100E10059
:10349C000D003A000220EF00F14688000220EF00F8
:1034AC00E14688000220EF00C14688000220EF00B0
:1034BC00D14688000220EF00014788000220EF006F
:1034CC00D1448800DC033700310720000100E10003
:1034DC0001003A0003003700310520000100E10033
:1034EC0054003A00F046800000A0EE00F046880040
:1034FC0027003200E000470030C5B3008058780048
:10350C0040C7B3008058780010C6B30080587800CC
:10351C0040C7B3008058780050C6B300805878007C
:10352C0000C2B30080587800C0C4B3008058780043
:10353C00F0C6B3008058780070C6B300805878008D
:10354C0070C6B3008058780090C6B30080587800DD
:10355C00E0C6B3008058780070C6B300805878007D
:10356C0000C2B30080587800F0C4B30080587800D3
:10357C00E0C4B300805878000020EF008058780039
:10358C006000470000057800D2FC070028003700D7
:10359C00E000470030C5B3008058780040C7B30046
:1035AC008058780010C6B3008058780040C7B3002C
:1035BC008058780050C6B3008058780000C2B30021
:1035CC0080587800C0C4B30080587800F0C6B300AF
:1035DC008058780070C6B3008058780070C6B3006D
:1035EC008058780090C6B30080587800E0C6B300CD
:1035FC008058780070C6B3008058780000C2B300C1
:10360C0080587800F0C4B3008058780060C4B300D0
:10361C008058780060C4B300805878000020EF0018
:10362C00805878006000470000057800A9FC07006E
:10363C0081033700300620009E1890000008E1003E
:10364C0001003A0003003700300420000008E100BC
:10365C002B003A000020EF000220EF0050468800BB
:10366C00614688000020EF000220EF0070468800C1
:10367C0081468800E000470030C4B30080587800D1
:10368C00F0C6B3008058780050C7B300805878005B
:10369C00E0C6B3008058780040C7B300805878006B
:1036AC0030C7B3008058780000C2B300805878004F
:1036BC0030C4B30080587800C0C6B300805878007E
:1036CC0050C6B3008058780010C6B30080587800FC
:1036DC0020C7B3008058780050C6B30080587800DB
:1036EC0040C6B300805878000020EF008058780066
:1036FC00600047000005780076FC07004E03370099
:10370C00200620009E1890000008E10001003A00FD
:10371C0003003700200420000008E1001F013A00DC
:10372C00A1882000D0C0B30080487800B188200068
:10373C000020EF0080487800E000470020C5B3006F
:10374C008058780050C6B3008058780010C6B3007B
:10375C008058780040C6B3008058780090C6B300FB
:10376C0080587800E0C6B3008058780070C6B3006B
:10377C008058780000C2B3008058780020C4B30091
:10378C0080587800C0C6B3008058780010C6B300CB
:10379C0080587800E0C6B30080587800B0C6B300FB
:1037AC008058780090C6B30080587800E0C6B3000B
:1037BC008058780070C6B3008058780000C2B300FF
:1037CC008058780060C5B3008058780010C6B300EC
:1037DC0080587800C0C6B3008058780050C7B3003A
:1037EC008058780050C6B300805878000020EF0055
:1037FC0080587800600047000005780035FC070011
:10380C002CC0B300AB8820000A80200097FD070075
:10381C00E000470020C5B3008058780050C6B300C4
:10382C008058780010C6B3008058780040C6B300AA
:10383C0080587800A0C3B3008058780000C2B30051
:10384C00805878000020EF00805878006000470016
:10385C0000057800C3FC07000A8020001DFC07004F
:10386C000A80200030FD0700CF80DE000081EB00D5
:10387C0016F80700A2702D0033C2230082F7070050
:10388C006044880071448800D2CC2C00C3D423003F
:10389C00FFF607000000E0000020EF0001003400FC
:1038AC0000A0EE000000E200430032006044800003
:1038BC0071448000E0448800F1448800E000470037
:1038CC00E0C4B3008058780050C6B300805878002C
:1038DC0070C7B3008058780000C2B30080587800DD
:1038EC0020C4B30080587800C0C6B300805878005C
:1038FC0010C6B30080587800E0C6B300805878003A
:10390C00B0C6B3008058780090C6B30080587800D9
:10391C00E0C6B3008058780070C6B30080587800B9
:10392C0000C2B3008058780060C5B300805878009E
:10393C0010C6B30080587800C0C6B3008058780019
:10394C0050C7B3008058780050C6B3008058780038
:10395C0000C2B300805878000020EF008058780037
:10396C0060004700000578007EFC0700E044800002
:10397C00F144800002002000832C240042F7070051
:10398C000C8020000005BE00DEF407000A80200039
:10399C0074FC0700E000470050C2B3008058780068
:1039AC000020EF0080587800600047000005780088
:1039BC00C8FB070078003700E000470060C5B30083
:1039CC008058780010C6B30080587800C0C6B30089
:1039DC008058780050C7B3008058780050C6B300A8
:1039EC008058780000C2B3008058780020C5B3001E
:1039FC008058780050C6B3008058780010C6B300C9
:103A0C008058780040C6B3008058780000C2B300DC
:103A1C008058780070C7B3008058780010C6B30087
:103A2C008058780030C7B3008058780000C2B300CB
:103A3C008058780040C7B30080587800F0C6B300B7
:103A4C0080587800F0C6B3008058780000C2B300EC
:103A5C008058780030C7B30080587800D0C6B300C7
:103A6C008058780010C6B30080587800C0C6B300E8
:103A7C0080587800C0C6B3008058780000C2B300EC
:103A8C0080587800D0C6B3008058780050C7B30077
:103A9C008058780030C7B3008058780040C7B30016
:103AAC008058780000C2B3008058780020C6B3005C
:103ABC008058780050C6B3008058780000C2B3001C
:103ACC008058780070C6B3008058780020C7B300C7
:103ADC008058780050C6B3008058780010C6B300E8
:103AEC008058780040C7B3008058780050C6B300A7
:103AFC008058780020C7B3008058780000C2B3000B
:103B0C008058780040C7B3008058780080C6B30056
:103B1C008058780010C6B30080587800E0C6B30017
:103B2C008058780000C2B3008058780050C3B300AE
:103B3C008058780050C2B300805878000020EF0005
:103B4C0080587800600047000005780061FB070092
:103B5C00E0448000F144800002002000832C24000B
:103B6C00C9F607000C8020000005BE0065F40700B4
:103B7C000A802000FBFB0700E000470050C2B300A6
:103B8C00805878000020EF008058780060004700D3
:103B9C00000578004FFB07002702370000072000C4
:103BAC009E1890000008E10001003A000300370065
:103BBC00000520000008E10070003A00E04680009B
:103BCC0000A0EE00E046880035003200E00047001F
:103BDC0000C5B3008058780050C6B30080587800F8
:103BEC0020C7B3008058780090C6B3008058780086
:103BFC00F0C6B3008058780040C6B30080587800F7
:103C0C0000C2B3008058780050C4B30080587800CC
:103C1C0020C7B3008058780020C7B30080587800C4
:103C2C00F0C6B3008058780020C7B30080587800E5
:103C3C0000C2B30080587800C0C4B300805878002C
:103C4C00F0C6B3008058780070C6B3008058780076
:103C5C0070C6B3008058780090C6B30080587800C6
:103C6C00E0C6B3008058780070C6B3008058780066
:103C7C0000C2B30080587800F0C4B30080587800BC
:103C8C00E0C4B300805878000020EF008058780022
:103C9C0060004700000578000EFB07003600370077
:103CAC00E000470000C5B3008058780050C6B30050
:103CBC008058780020C7B3008058780090C6B300B5
:103CCC0080587800F0C6B3008058780040C6B30026
:103CDC008058780000C2B3008058780050C4B300FC
:103CEC008058780020C7B3008058780020C7B300F4
:103CFC0080587800F0C6B3008058780020C7B30015
:103D0C008058780000C2B30080587800C0C4B3005B
:103D1C0080587800F0C6B3008058780070C6B300A5
:103D2C008058780070C6B3008058780090C6B300F5
:103D3C0080587800E0C6B3008058780070C6B30095
:103D4C008058780000C2B30080587800F0C4B300EB
:103D5C008058780060C4B3008058780060C4B30009
:103D6C00805878000020EF008058780060004700F1
:103D7C0000057800D7FA0700AF01370020072000B4
:103D8C009E1890000008E10001003A000300370083
:103D9C00200520000008E1004C003A00004780009C
:103DAC0000A0EE000047880023003200E00047002E
:103DBC0020C5B3008058780000C5B3008058780047
:103DCC00D0C4B3008058780000C2B300805878008B
:103DDC00C0C4B30080587800F0C6B3008058780097
:103DEC0070C6B3008058780070C6B3008058780055
:103DFC0090C6B30080587800E0C6B30080587800B5
:103E0C0070C6B3008058780000C2B30080587800A8
:103E1C00F0C4B30080587800E0C4B3008058780038
:103E2C000020EF0080587800600047000005780003
:103E3C00A8FA070024003700E000470020C5B300B3
:103E4C008058780000C5B30080587800D0C4B30007
:103E5C008058780000C2B30080587800C0C4B3000A
:103E6C0080587800F0C6B3008058780070C6B30054
:103E7C008058780070C6B3008058780090C6B300A4
:103E8C0080587800E0C6B3008058780070C6B30044
:103E9C008058780000C2B30080587800F0C4B3009A
:103EAC008058780060C4B3008058780060C4B300B8
:103EBC00805878000020EF008058780060004700A0
:103ECC000005780083FA07005B01370040072000EB
:103EDC009E1890000008E10001003A000300370032
:103EEC00400520000008E10070003A00C046800048
:103EFC0000A0EE00C046880035003200E00047000C
:103F0C0020C5B3008058780050C6B30080587800A4
:103F1C0010C6B30080587800C0C6B3008058780033
:103F2C0040C5B3008058780090C6B3008058780024
:103F3C00D0C6B3008058780050C6B30080587800C3
:103F4C0000C2B3008058780020C5B30080587800B8
:103F5C0000C5B30080587800D0C4B30080587800F6
:103F6C0000C2B30080587800C0C4B30080587800F9
:103F7C00F0C6B3008058780070C6B3008058780043
:103F8C0070C6B3008058780090C6B3008058780093
:103F9C00E0C6B3008058780070C6B3008058780033
:103FAC0000C2B30080587800F0C4B3008058780089
:103FBC00E0C4B300805878000020EF0080587800EF
:103FCC00600047000005780042FA07003600370011
:103FDC00E000470020C5B3008058780050C6B300FD
:103FEC008058780010C6B30080587800C0C6B30063
:103FFC008058780040C5B3008058780090C6B30054
:10400C0080587800D0C6B3008058780050C6B300F2
:10401C008058780000C2B3008058780020C5B300E7
:10402C008058780000C5B30080587800D0C4B30025
:10403C008058780000C2B30080587800C0C4B30028
:10404C0080587800F0C6B3008058780070C6B30072
:10405C008058780070C6B3008058780090C6B300C2
:10406C0080587800E0C6B3008058780070C6B30062
:10407C008058780000C2B30080587800F0C4B300B8
:10408C008058780060C4B3008058780060C4B300D6
:10409C00805878000020EF008058780060004700BE
:1040AC00000578000BFA0700E300370090062000AB
:1040BC009E1890000008E10001003A000300370050
:1040CC00900420000008E10070003A00D046800007
:1040DC0000A0EE00D046880035003200E00047001A
:1040EC0020C5B3008058780050C6B30080587800C3
:1040FC0010C6B30080587800C0C6B3008058780052
:10410C0040C5B3008058780090C6B3008058780042
:10411C00D0C6B3008058780050C6B30080587800E1
:10412C0000C2B3008058780020C5B30080587800D6
:10413C0000C5B30080587800D0C4B3008058780014
:10414C0000C2B30080587800C0C4B3008058780017
:10415C00F0C6B3008058780070C6B3008058780061
:10416C0070C6B3008058780090C6B30080587800B1
:10417C00E0C6B3008058780070C6B3008058780051
:10418C0000C2B30080587800F0C4B30080587800A7
:10419C00E0C4B300805878000020EF00805878000D
:1041AC006000470000057800CAF9070036003700A8
:1041BC00E000470020C5B3008058780050C6B3001B
:1041CC008058780010C6B30080587800C0C6B30081
:1041DC008058780040C5B3008058780090C6B30072
:1041EC0080587800D0C6B3008058780050C6B30011
:1041FC008058780000C2B3008058780020C5B30006
:10420C008058780000C5B30080587800D0C4B30043
:10421C008058780000C2B30080587800C0C4B30046
:10422C0080587800F0C6B3008058780070C6B30090
:10423C008058780070C6B3008058780090C6B300E0
:10424C0080587800E0C6B3008058780070C6B30080
:10425C008058780000C2B30080587800F0C4B300D6
:10426C008058780060C4B3008058780060C4B300F4
:10427C00805878000020EF008058780060004700DC
:10428C000005780093F907006B003700100620003A
:10429C009E1890000008E10001003A00030037006E
:1042AC00100420000008E10055003A00A08920000D
:1042BC001088EA00A08D20001000E00027003200DA
:1042CC00E000470010C4B3008058780060C7B3000A
:1042DC008058780070C6B3008058780000C2B300D4
:1042EC008058780040C5B3008058780000C2B300F5
:1042FC0080587800C0C4B30080587800F0C6B30072
:10430C008058780070C6B3008058780070C6B3002F
:10431C008058780090C6B30080587800E0C6B3008F
:10432C008058780070C6B3008058780000C2B30083
:10433C0080587800F0C4B30080587800E0C4B30013
:10434C00805878000020EF0080587800600047000B
:10435C00000578005FF9070028003700E0004700EF
:10436C0010C4B3008058780060C7B3008058780040
:10437C0070C6B3008058780000C2B3008058780033
:10438C0040C5B3008058780000C2B3008058780054
:10439C00C0C4B30080587800F0C6B30080587800D1
:1043AC0070C6B3008058780070C6B300805878008F
:1043BC0090C6B30080587800E0C6B30080587800EF
:1043CC0070C6B3008058780000C2B30080587800E3
:1043DC00F0C4B3008058780060C4B30080587800F3
:1043EC0060C4B300805878000020EF00805878003B
:1043FC00600047000005780036F907000E00370012
:10440C00F00320009E1890000008E10001003A0023
:10441C0007003700800620000008E10001003A0088
:10442C0003003700800420000008E10002003A007D
:10443C0041F6070000003700008E20001000E0005D
:10444C000100320019FA0700A08920001000E000DA
:10445C00010032001DFA0700E08D20001000E00082
:10446C000100320021FA0700C08D20001000E0008E
:10447C000100320082F50700C462AA00F7FB370086
:10448C004F067800CF0578004F0578000080FA00C1
:04449C00FFFF3700E7
:102990000800FA00804E2000404488002065210095
:1029A00020448800C047210030448800F0FF2F00F9
:1029B000104488003022EF000000280032A2B70047
:1029C0003062A900C0FB0700823E20000300200007
:1029D00027FB07000003BE0013FB07008000EB008D
:1029E0008100D1000080D30064024000E0824800F2
:1029F0000A01BE000402E900030035000201D00014
:102A00008381D200FBFF370002079800130798006C
:102A1000869FBE008A9FBE000600BE000082EB00BB
:102A2000A0F607004F05BE004F03BE002007980028
:102A3000310798008A9FBE000600BE000E0190007C
:102A40009E0190000082EB006DF607004F05BE006E
:102A50008001780001027800600047005081D100B9
:102A6000C080D300640047003008E1002090E100FE
:102A700003003D00E180410060014A000200370090
:102A800083007800040178006008E1006090E100B4
:102A90002F003A008CFB0700823E2000030020003C
:102AA000F3FA07000003BE00DFFA07008000EB0026
:102AB0008100D1000080D30062024000E082480023
:102AC0000A01BE000402E900030035000201D00043
:102AD0008381D200FBFF370002079800130798009C
:102AE000869FBE000600BE000082EB006DF6070068
:102AF0004F03BE0020079800310798000600BE0073
:102B00000E0190009E0190000082EB003CF6070051
:102B10008001780001027800600047005081D100F8
:102B2000C080D300640047003008E1002090E1003D
:102B300003003D00E180410060014A0002003700CF
:102B400083007800040178003062A800000037009C
:102B500080232000618850003222A90031E2A800C1
:102B60003342A800ABFA07000080FA00000006001C
:002B700065
:1018C80002D02700030020000200BE00000006002E
:0018D80010
:0C162800210020000100780000000600F6
:1016140057052D000E20ED00FEFF3A0000000000EB
:0416240000000600BC
:101670000000FA00020AB800500088000200B8001A
:1016800081004200032AB800810042000080FA0075
:041690000000060050
:1004A4000000FA0002000700A60204000000000099
:1004B4000800E20002003A001000070000000600F5
:1004C400811F78000200E20002003D00600010007D
:1004D400E08018000600E20002003D006001110007
:1004E400E0811900050007004F00E00002003B0016
:1004F40060001000E0801800000006000200070001
:100504000480BE00000006006022B800060220003D
:100514000000D0008180D2000482D2008582D20003
:100524000000A8000202520083825A0003003B002C
:100534000202420083824A000000A1000603E9008F
:10054400F3FF3A00000006000080FA0000000600F5
:00055400A7
:100400000000FA00020007004E0204000000000095
:100410000800E20002003A00100007000000060099
:10042000839F68000200E20002003D0060001000AF
:10043000E08018000600E20002003D0060011100AB
:10044000E0811900050007004F00E00002003B00BA
:1004500060001000E0801800000006006022B80074
:10046000060220000000D0008180D2000482D20069
:100470008582D2000000A8000202520083825A0046
:1004800003003B000202420083824A000000A100F8
:100490000603E900F3FF3A00000006000080FA00BE
:0404A0000000060052
:102B70000000FA000220EF001A40780000417800BF
:102B800002407800014178006004E1000A00320050
:102B90008A1F78000085FB008DF707004F0578003D
:102BA000E14041000180FB0000004500104078003A
:102BB00001417800F4FF37000080FA0000000600B1
:002BC00015
:1009D0000000FA00911180000010200000806000EB
:1009E0006000E10002003A0000000000F9FF37005B
:0C09F000AA1188000080FA000000060038
:100D10002000FA000020EF00500F98008C1F780090
:100D20008A9FBE000A00BE0044FF07004F05BE00B8
:100D30004F0678000001BE00829FBE008C1F780025
:100D40008A9FBE000420EF000620EF000A00BE00CC
:100D500076FF07000000E0000020EF0001003D00EA
:100D600000A0EE004F05BE004F0678004F01BE0008
:100D70000000E20002003200F0FF2F00500F980048
:100D800062004700829FBE008C1F78008A9FBE00D1
:100D9000000678000205BE00A4FE07004F05BE0055
:100DA0004F0678004F01BE008C1F78008A9FBE005E
:100DB0000200BE000081EB00C70207004F05BE0025
:100DC0008A9FBE000001BE000A00BE000BFF0700A4
:100DD00002002500337C24002E02070017FF0700C5
:100DE0004F05BE004F0678000001BE006000E10024
:100DF0006088E10005003D0060001100E0801900FE
:100E0000010178008000780002003700820078003D
:100E1000030178006E0047008C1F78008A9FBE0097
:100E20000006780001057800820578007FFE070043
:100E30004F05BE004F0678000420EF000020EF00B1
:100E4000000798008C00780000C2B300805878003A
:100E500000C2B3008058780000C2B3008058780008
:100E600000C2B3008058780000C2B30080587800F8
:100E700000C2B3008058780000C2B30080587800E8
:100E800000C2B3008058780000C2B30080587800D8
:100E900000C2B3008058780000C3B30080587800C7
:100EA0000020EF0080587800821F78008C1F7800A7
:100EB0008A9FBE000A00BE00E0FE07004F05BE008C
:100EC0006000E1006088E1000020EF0001003A00CE
:100ED00000A0EE00700F98000420EF000620EF0045
:100EE0000A00BE0011FF07000000E0000020EF0034
:100EF00001003D0000A0EE004F0678004F01780091
:100F0000FE089000008060000000E2000500320052
:100F1000D0C2B300004E780011002000010178001B
:100F200000003700AE40900000C2B300000CE100AA
:100F300007003A000E009000E10040000107980011
:100F4000620047000100400090407800F6FF370043
:100F500082017800600CE1000C00320003004600C2
:100F6000014878000E009000E10040000107980061
:100F7000618141006200470001004000104078009C
:100F80008040780082017800F2FF37005E08900010
:100F90006000E1000220EF0001003A0002A0EE0034
:100FA0006018E1000020EF0001003A0000A0EE0010
:100FB00000806000060032008300460000C3B300DA
:100FC000804878006180410000017800010037000E
:100FD000030178006110E1000220EF0001003A00F7
:100FE00002A0EE007A004700108060000600320088
:100FF0008200460000C3B3008048780061004100D1
:10100000000178000000370082004600E0C2B30013
:10101000804878000420EC00600020000007980061
:10102000CE509000600CE1001100320000C2B3000D
:10103000000CE10002003A0001C3B30000003700D9
:1010400002004600014878000E009000E1004000D8
:1010500001079800E10141006E00470001004000D7
:10106000104078000301780080407800EDFF3700E1
:10107000820046000020EF00804878000080FA00DF
:041080000000060066
:10082C000000FA0000002000010028000050E10048
:10083C0001D8E1001A003A008C007800D0C2B30055
:10084C008058780020C3B3008058780010C3B300E0
:10085C008058780040C3B3008058780070C3B30050
:10086C008058780040C3B3008058780080C3B30030
:10087C008058780030C3B3008058780060C3B30050
:10088C008058780040C3B3008058780080C3B30010
:10089C00805878000020EF0080587800470037001F
:1008AC000820EF006050E10060D8E10005003D0039
:1008BC00F4FF2F0060001500E0801D000005BE0055
:1008CC00000037008C00780000C2B300805878001C
:1008DC0000C2B3008058780000C2B3008058780082
:1008EC0000C2B3008058780000C2B3008058780072
:1008FC0000C2B3008058780000C2B3008058780062
:10090C0000C2B3008058780000C2B3008058780051
:10091C0000C2B3008058780000C3B3008058780040
:10092C000020EF0080587800EA0246006050E10099
:10093C0060D8E1001D003200849FBE008C1F78003F
:10094C008A9FBE00A2002000030020000A00BE0007
:10095C000082EB00D0FE07004F05BE004F0678006A
:10096C004F02BE00020320000300200002004000E2
:10097C00804A7800849FBE008C1F78008A9FBE003E
:10098C00A2002000030020000A00BE000082EB0041
:10099C0098FE07004F05BE004F0678004F02BE00C0
:1009AC000005BE000A20ED00E0FF37000800E20061
:1009BC0002003200D0C2B300804A78000080FA00F6
:0409CC000000060021
:100A3C000000FA000200070092050400000000000C
:100A4C000081BE001F0007000470A70003F0A10086
:100A5C006509B100160032000D0035006828E10070
:100A6C0006003500F0FF2F00F1FF27000600E20022
:100A7C0013003B00010028000000050000004000AE
:100A8C00818048008502E900FCFF3A00080037002D
:100A9C00F88F420002003C008000EB0000000500D3
:100AAC008100D1000080D3008502E800FCFF3A00F1
:100ABC000600E20002003B0060001000E08018001D
:100ACC0000000600C70ADE00F107B200F50FB20005
:100ADC0008003200E1CF42000200320002E0A80020
:100AEC0024000500810F700001003200040805008D
:100AFC0044000500810F700002003A00140005004C
:100B0C008502E9000000400081C04800FCFF3B006A
:100B1C0002E0A800240005000080FA000000060096
:000B2C00C9
:100B2C000000FA0014002000020007000080FA0008
:040B3C0000000600AF
:100B40000000FA00020007000E060400000000008A
:100B5000841F7800140007004F0078001100330054
:100B6000F0FF2F00838F6C0006003B00040565003A
:100B70000A00A7000800370009F0A60010002000B6
:100B800008003700820F5400838F5C000300390097
:100B90001000200001003E000000200009F0A70026
:100BA0000000EA00000006000084BE000600070006
:100BB0000083BE000485BE000280BE000200070064
:100BC000844F750000000600C70ADE00F107B2007E
:100BD000F50FB20008003200E1CF420002003200FF
:100BE00002E0A80024000500810F7000010032001F
:100BF0000408050044000500810F700002003A005F
:100C0000140005008502E9000000400081C0480092
:100C1000FCFF3B0002E0A800240005000080FA0071
:040C200000000600CA
:1018D8000000FA00020007001E0D040000000000CE
:1018E8000400E20006003A000005EB000200E200F6
:1018F8000F003E000000E200270032000C00370015
:10190800A10088000200E2000400350008003C0045
:101918000000E200200032000500370060001000DF
:10192800E080180002003B0001F02C001A0037008C
:101938000084BE006011B8006B0920000982CF0046
:10194800020039000882CF000441B0006942520009
:101958000E00320008003B008281710061016400C2
:101968008904D1000884D3008B05E8000442E8000C
:10197800F9FF3A00050037000804440089844C0048
:101988008B05E9000442E900FBFF3A000300070069
:101998000AF0A70003E0A80000000600810020006C
:1019A800618055000B003D000B00200061FE2F00F8
:1019B8000100E1001D0034008281710061016400B2
:1019C8008904D1000884D3000000E800FAFF3A0037
:1019D80071002000610064000300700002006000D4
:1019E8000900320061044400E0844C000988A50025
:1019F800050032008B05E8006808E10002003A00A3
:101A08008904D1000884D300F20F20000258E100B5
:101A180005003D00C75DDD00F907B200898075004B
:101A280008008800000006000BF827001B0088004B
:0C1A3800000005000080FA00000006001D
:1009FC000000FA0007E0AA00D3FE07000080FA000E
:040A0C0000000600E0
:100554000000FA000200070012040400000000007A
:10056400889FBE008A9FBE008C1F78005900070038
:10057400600033006450E1004F0032006420E10069
:100584005200320003826C0007003B000905D000D2
:100594000306D000820F54000C065D0002003900EF
:1005A4000200320039008800C300880085825500AB
:1005B40004003D000003FD008103FD008502EA0004
:1005C4008B854200840F720002003B006000100023
:1005D400E08018006011B8000005EB007A28E10003
:1005E4000A00390006008800C75DDD00F707B20085
:1005F400878075002D003700828171002A008800F1
:10060400610560008180D1000080D3008502E9008B
:10061400F9FF3B00060440008784480002003B00C9
:1006240060041400E0841C000988A3000700320061
:100634008A81710082817100610164008904D100A2
:100644000884D3008B05E800170037000978A3005D
:1006540013003A001600E200130034008B05E90091
:100664000804440089844C000A4474000978A300F7
:100674000D003A001600E200070034008B05E90083
:100684000804440089844C0001003A000B00200057
:100694000978A300F7FF32000001EB0002003700E5
:1006A400828171002A008800220007000CF0A70054
:1006B40003E0A800180037006420E10002003A00BB
:1006C400838F6C00180033000881BE000280BE00D6
:1006D400110037000084BE003C0007000083BE0008
:1006E4000485BE000280BE0038000700844F7500F8
:1006F400000006000280BE006450E10005003600E0
:100704006420E100020036000968A30001003A00F9
:100714000880BE0002C0A8004F0678004F05BE0046
:100724004F04BE0000000600F0FF2F00F1FF270079
:10073400F9FF370081002000618055000B003D0067
:100744000B00200061FE2F000100E1001D003400B9
:1007540082817100610164008904D1000884D3009E
:100764000000E800FAFF3A00710020006100640014
:1007740003007000020060000900320061044400BC
:10078400E0844C000988A500050032008B05E800D0
:100794006808E10002003A008904D1000884D3000B
:1007A400F20F20000258E10005003D00C75DDD00A6
:1007B400F907B2008980750008008800000006006F
:1007C4000BF827001B00880000000500C70ADE00A4
:1007D400F107B200F50FB20008003200E1CF420089
:1007E4000200320002E0A80024000500810F70001E
:1007F400010032000408050044000500810F700068
:1008040002003A00140005008502E90000004000DF
:1008140081C04800FCFF3B0002E0A8002400050062
:080824000080FA00000006004C
:101694000000FA0002000700600C040000000000D3
:1016A400889FBE008A9FBE008C1F78003000070010
:1016B4003700330003866C006450E10024003200DC
:1016C4006420E100270032006150E1002200320072
:1016D4006120E100210032008B854200EB07B1005C
:1016E4000134B800003AB8000804420089844A0072
:1016F400013AB8000030B8008880400009014A006F
:1017040004003300000040008180480002014900C9
:101714008B05E900C909DD00830170000100320076
:1017240013002000C814DE004814DD004709DE0061
:101734001200B200C808DE0008847000240007000C
:1017440001F0A1000CF0A70003E0A8001900370085
:101754006120E1001B0032000881BE000280BE004F
:10176400F7FF37006150E100FCFF3A001500370035
:101774000084BE003C0007000083BE000485BE0058
:101784000280BE0038000700844F75000000060088
:101794000280BE006450E100050036006420E100D0
:1017A400020036000968A30001003A000880BE0068
:1017B40002C0A8004F0678004F05BE004F04BE00CB
:1017C40000000600F0FF2F00F1FF2700F9FF3700AB
:1017D40081002000618055000B003D000B002000BB
:1017E40061FE2F000100E1001D00340082817100C0
:1017F400610164008904D1000884D3000000E8007A
:10180400FAFF3A00710020006100640003007000D8
:10181400020060000900320061044400E0844C00CE
:101824000988A500050032008B05E8006808E1007E
:1018340002003A008904D1000884D300F20F20008A
:101844000258E10005003D00C75DDD00F907B20064
:101854008980750008008800000006000BF8270046
:101864001B00880000000500C70ADE00F107B20073
:10187400F50FB20008003200E1CF4200020032004E
:1018840002E0A80024000500810F7000010032006E
:101894000408050044000500810F700002003A00AE
:1018A400140005008502E9000000400081C04800E2
:1018B400FCFF3B0002E0A800240005000080FA00C1
:0418C400000006001A
:102BC0000200FA008C00780000C2B3008058780040
:102BD00000C2B3008058780000C2B300805878006B
:102BE00000C2B3008058780000C2B300805878005B
:102BF00000C2B3008058780000C2B300805878004B
:102C000000C2B3008058780000C2B300805878003A
:102C100000C3B300805878000020EF00805878008F
:102C200060004700690846006050E10060D8E1009C
:102C30001A0032008C1F78008A9FBE00A20020007C
:102C4000030020000A00BE000002EB0015F607009A
:102C50004F05BE00020320000300200002014000D7
:102C60000E009000024878008A9FBE00A20020005B
:102C7000030020000A00BE000002EB00E0F50700A0
:102C80004F05BE004F0678000005BE008E00900084
:102C90006000470061885000E3FF37000080FA00C1
:042CA000000006002A
:102914000000FA008B00780000C2B30080587800F1
:1029240000C2B3008058780000C2B3008058780019
:1029340000C2B3008058780000C3B3008058780008
:102944000020EF0080587800E48145006050E100E9
:102954000C003200A2002000110009000285D800FA
:10296400000320000080400080497800A20020007D
:10297400110009000285D800000578000620ED004A
:0C298400F2FF37000080FA00000006009F
:1010D8000200FA000020EF00004798001A4078004C
:1010E80080407800014078006004E1000D00320083
:1010F8008A1F78000085FB00FEFE07004F05780078
:101108008E4090006000470061C8400060004700C2
:101118001080FB00000045009040780001407800F6
:0C112800F1FF37000080FA000000060014
:100CFC000000FA0040448000000001000080FA006F
:040D0C0000000600DD
:100A10000000FA001111800000102000008060002A
:100A20006000E10002003A0000000000F9FF37001A
:0C0A30002A1188000080FA000000060077
:101D44004E00FA008A1F7800E000470000C3B30089
:101D54008058780000C2B30080587800A0C3B30054
:101D64008058780000C2B3008058780040C4B300A3
:101D74008058780090C6B3008058780030C7B3000C
:101D84008058780010C6B3008058780020C6B3008D
:101D940080587800C0C6B3008058780050C6B3009D
:101DA4008058780030C7B3008058780000C2B30070
:101DB4008058780010C6B30080587800C0C6B300BD
:101DC40080587800C0C6B3008058780000C2B300C1
:101DD40080587800C0C4B30080587800F0C6B300BF
:101DE4008058780070C6B3008058780070C6B3007D
:101DF4008058780090C6B30080587800E0C6B300DD
:101E04008058780070C6B300805878000020EF0036
:101E1400805878006000470000057800AF02070092
:101E2400E000470030C7B30080587800C0C2B30058
:101E34008058780030C5B3008058780000C2B300E1
:101E440080587800A0C3B3008058780000C2B30063
:101E54008058780030C5B3008058780040C7B3007C
:101E64008058780010C6B3008058780040C7B3008B
:101E74008058780050C6B3008058780000C2B30080
:101E840080587800C0C4B30080587800F0C6B3000E
:101E94008058780070C6B3008058780070C6B300CC
:101EA4008058780090C6B30080587800E0C6B3002C
:101EB4008058780070C6B300805878000020EF0086
:101EC400805878006000470000057800830207000E
:101ED400E000470020C7B30080587800C0C2B300B8
:101EE4008058780020C5B3008058780000C2B30041
:101EF40080587800A0C3B3008058780000C2B300B3
:101F04008058780040C5B30080587800F0C6B3000C
:101F14008058780070C6B3008058780070C6B3004B
:101F240080587800C0C6B3008058780050C6B3000B
:101F34008058780000C2B3008058780020C5B300F0
:101F44008058780000C5B30080587800D0C4B3002E
:101F54008058780000C2B30080587800C0C4B30031
:101F640080587800F0C6B3008058780070C6B3007B
:101F74008058780070C6B3008058780090C6B300CB
:101F840080587800E0C6B3008058780070C6B3006B
:101F9400805878000020EF008058780060004700E7
:101FA400000578004D020700E000470040C7B30079
:101FB40080587800C0C2B3008058780040C5B30090
:101FC4008058780000C2B30080587800A0C3B300E2
:101FD4008058780000C2B3008058780040C5B30030
:101FE40080587800F0C6B3008058780070C6B300FB
:101FF4008058780070C6B30080587800C0C6B3001B
:102004008058780050C6B3008058780000C2B300EE
:102014008058780020C5B3008058780050C6B300BB
:102024008058780010C6B30080587800C0C6B3004A
:102034008058780040C7B3008058780090C6B30039
:1020440080587800D0C6B3008058780050C6B300DA
:102054008058780000C2B3008058780020C5B300CF
:102064008058780000C5B30080587800D0C4B3000D
:102074008058780000C2B30080587800C0C4B30010
:1020840080587800F0C6B3008058780070C6B3005A
:102094008058780070C6B3008058780090C6B300AA
:1020A40080587800E0C6B3008058780070C6B3004A
:1020B4008058780000C2B3008058780080C2B30012
:1020C4008058780030C6B3008058780010C6B3003A
:1020D40080587800E0C6B3008058780000C2B3008E
:1020E4008058780030C6B3008058780010C6B3001A
:1020F4008058780050C7B3008058780030C7B300C8
:102104008058780050C6B3008058780000C2B300ED
:102114008058780090C6B30080587800E0C6B300B9
:102124008058780040C7B3008058780050C6B30088
:102134008058780020C7B3008058780020C7B300C7
:102144008058780050C7B3008058780000C7B300A7
:102154008058780040C7B3008058780000C2B300AC
:102164008058780040C7B3008058780090C6B30008
:1021740080587800D0C6B3008058780090C6B30069
:1021840080587800E0C6B3008058780070C6B30069
:102194008058780000C2B30080587800F0C6B300BD
:1021A4008058780060C7B3008058780050C6B300E8
:1021B4008058780020C7B3008058780020C7B30047
:1021C4008058780050C7B30080587800E0C6B30048
:1021D4008058780000C2B3008058780090C6B300DD
:1021E4008058780030C7B3008058780030C7B300F7
:1021F4008058780050C7B3008058780050C6B300A8
:102204008058780030C7B3008058780090C2B3007B
:10221400805878000020EF00805878006000470064
:1022240000057800AD010700E000470000C7B300D7
:1022340080587800C0C2B3008058780000C5B3004D
:102244008058780000C2B30080587800A0C3B3005F
:102254008058780000C2B3008058780040C5B300AD
:1022640080587800F0C6B3008058780070C6B30078
:102274008058780070C6B30080587800C0C6B30098
:102284008058780050C6B3008058780000C2B3006C
:102294008058780000C5B3008058780050C6B30059
:1022A4008058780020C7B30080587800F0C6B30087
:1022B4008058780090C6B3008058780040C6B300B8
:1022C4008058780000C2B3008058780050C4B3002E
:1022D4008058780020C7B3008058780020C7B30026
:1022E40080587800F0C6B3008058780020C7B30047
:1022F4008058780000C2B30080587800C0C4B3008E
:1023040080587800F0C6B3008058780070C6B300D7
:102314008058780070C6B3008058780090C6B30027
:1023240080587800E0C6B3008058780070C6B300C7
:10233400805878000020EF00805878006000470043
:102344000005780065010700E000470030C6B300CF
:1023540080587800C0C2B3008058780030C4B300FD
:102364008058780000C2B30080587800A0C3B3003E
:102374008058780000C2B3008058780030C4B3009D
:1023840080587800C0C6B3008058780050C6B300A7
:102394008058780010C6B3008058780020C7B30076
:1023A4008058780000C2B3008058780040C4B3005D
:1023B4008058780090C6B3008058780030C7B300C6
:1023C4008058780040C7B3008058780020C7B30015
:1023D4008058780020C6B3008058780050C7B300F6
:1023E4008058780040C7B30080587800F0C6B30026
:1023F4008058780020C7B30080587800F0C5B30037
:102404008058780000C5B3008058780050C6B300E7
:102414008058780020C7B3008058780090C6B30075
:1024240080587800F0C6B3008058780040C6B300E6
:1024340080587800F0C5B3008058780050C4B300C9
:102444008058780020C7B3008058780020C7B300B4
:1024540080587800F0C6B3008058780020C7B300D5
:102464008058780030C7B3008058780000C2B300A9
:102474008058780030C6B30080587800F0C6B300A6
:102484008058780050C7B30080587800E0C6B30085
:102494008058780040C7B3008058780050C6B30015
:1024A4008058780020C7B300805878000020EF00DF
:1024B4008058780060004700000578000701070095
:1024C400E000470090C6B30080587800C0C2B30053
:1024D4008058780090C4B3008058780000C2B300DC
:1024E40080587800A0C3B3008058780000C2B300BD
:1024F4008058780030C5B3008058780040C7B300D6
:102504008058780010C6B30080587800C0C6B30065
:1025140080587800C0C6B3008058780000C2B30069
:102524008058780090C4B30080587800E0C6B300A7
:102534008058780040C7B3008058780050C6B30074
:102544008058780020C7B3008058780020C7B300B3
:102554008058780050C7B3008058780000C7B30093
:102564008058780040C7B3008058780000C2B30098
:1025740080587800C0C4B30080587800F0C6B30017
:102584008058780070C6B3008058780070C6B300D5
:102594008058780090C6B30080587800E0C6B30035
:1025A4008058780070C6B300805878000020EF008F
:1025B400805878006000470000057800C7000700D5
:1025C400E000470010C6B30080587800C0C2B300D2
:1025D4008058780010C4B3008058780000C2B3005B
:1025E40080587800A0C3B3008058780000C2B300BC
:1025F4008058780040C5B30080587800F0C6B30016
:102604008058780070C6B3008058780070C6B30054
:1026140080587800C0C6B3008058780050C6B30014
:102624008058780000C2B3008058780010C4B3000A
:102634008058780060C7B3008058780050C6B30053
:102644008058780020C7B3008058780010C6B300C3
:102654008058780070C6B3008058780050C6B30024
:102664008058780000C2B3008058780000C5B300D9
:102674008058780050C6B3008058780020C7B30053
:102684008058780090C6B30080587800F0C6B30034
:102694008058780040C6B3008058780000C2B30068
:1026A40080587800C0C4B30080587800F0C6B300E6
:1026B4008058780070C6B3008058780070C6B300A4
:1026C4008058780090C6B30080587800E0C6B30004
:1026D4008058780070C6B300805878000020EF005E
:1026E4008058780060004700000578007B000700F0
:1026F400E000470020C6B30080587800C0C2B30091
:102704008058780020C4B3008058780000C2B30019
:1027140080587800A0C3B3008058780000C2B3008A
:102724008058780030C5B3008058780050C6B30094
:102734008058780040C7B3008058780000C2B300C6
:102744008058780020C4B30080587800C0C6B30015
:102754008058780010C6B30080587800E0C6B300F3
:1027640080587800B0C6B3008058780090C6B30093
:1027740080587800E0C6B3008058780070C6B30073
:102784008058780000C2B3008058780000C5B300B8
:102794008058780050C6B3008058780020C7B30032
:1027A4008058780030C6B3008058780050C6B30013
:1027B40080587800E0C6B3008058780040C7B30062
:1027C4008058780000C2B3008058780030C7B30046
:1027D4008058780050C6B30080587800E0C6B30033
:1027E4008058780040C6B3008058780000C2B30017
:1027F4008058780010C6B3008058780030C7B30002
:102804008058780000C2B3008058780010C3B30029
:102814008058780000C3B3008058780000C2B30029
:102824008058780080C2B3008058780010C3B30089
:102834008058780000C3B3008058780050C2B300B9
:102844008058780090C2B30080587800C0C2B300AA
:102854008058780000C2B3008058780050C3B30099
:102864008058780000C3B3008058780000C2B300D9
:102874008058780080C2B3008058780050C3B300F9
:102884008058780000C3B3008058780050C2B30069
:102894008058780090C2B3008058780000C2B3001A
:1028A4008058780050C6B3008058780040C7B30001
:1028B4008058780030C6B300805878000020EF00BC
:1028C4008058780060004700000578000300070086
:0C28D4004F0578000080FA0000000600AC
:1028E0008A1F7800FCF90700DA00200038F807009A
:0828F0004F057800000006000E
:1028F8000000FA000220EF003202AF000220EC00D4
:0C290800010078000080FA0000000600CA
:102CA4000000FA00B1118000010078000080FA00F1
:042CB4000000060016
:102E78000000FA000A0178008B0178000020EF00BA
:102E8800004278006064E1002A003200F0CFB3000D
:102E98000064E100030032000C80FB000020ED001C
:102EA8000046780092FE07006000E10002003A0048
:102EB80000000000FBFF370078FF07008040780023
:102EC800004978000420EC00130CE10004003A00EB
:102ED800614042000620EC00004278000C003700F8
:102EE8000820EF008B0178001B4078000104E10006
:102EF80003003A0061404200E180410002003700CF
:102F0800830078000440780081017800004278004E
:102F1800134078006004E10005003A000480FB00DB
:102F2800800051000020EF0080487800030037003F
:102F3800D4FF37000020EF00004D78000080FA0031
:042F4800000006007F
:102D34000000FA000020EF00087122000E20EF00CE
:102D44001620EF001820EF000C20EF0007004500CC
:102D5400104078006004E1001E00320007004500C6
:102D640090407800D0C2B300000CE10003003A00A8
:102D7400F6FF2F000E20EC00F4FF3700070045009B
:102D84009040780000C2B300000CE1000B00320058
:102D9400070045009080FB000003200000805000E5
:102DA4008000EB00080178008001EB002FFA070097
:102DB4008085450001064E0000003700A200200077
:102DC400110009000284D800000478000E20EC00F1
:102DD400DEFF37000C00E200030032006000200038
:102DE4008001780002003700500020008001780044
:102DF400060178008B0278000C0378000702780043
:102E04000320E10012003200821F7800841F780042
:102E1400831F78008A1F78000500780086007800F8
:102E2400A2002000030020000082EB0073F50700DD
:102E34004F057800CF0178004F0278004F017800E9
:102E440080027800010378000820EC00ECFF3700D2
:102E5400050078000400E20002003200E0001000E7
:102E64000100370080007800010078000080FA003B
:042E74000000060054
:102CB8008A1F78008B1F7800AA468000BB468000D8
:102CC8002CFA0700CF0578004F05780000000600B1
:002CD800FC
:10157C001800FA008A1F78008B1F78008C1F7800E7
:10158C006000470000067800DEFD070060004700A1
:10159C0000057800CF0407004F067800CF057800CF
:0C15AC004F0578000080FA0000000600E7
:102CD8008A1F78008B1F78001A4680002B468000D8
:102CE80024FA0700CF0578004F0578000000060099
:002CF800DC
:102CF8000800FA008A1F78008B1F7800E000470060
:102D080010882000810578001085FB0007F907006E
:102D18006000470000057800EFFE0700CF05780047
:0C2D28004F0578000080FA000000060053
:101134000000FA00000028000050E10010003A000E
:101144008B007800D0C2B3008058780030C3B3005D
:101154008058780020C3B3008058780070C3B3006F
:101164008058780060C3B3008058780080C3B3000F
:10117400805878000020EF0080587800290037005C
:101184000620EF006050E10004003D00F3FF2F0053
:101194006000150000057800000037008B0078001F
:1011A40000C2B3008058780000C2B30080587800B1
:1011B40000C2B3008058780000C2B30080587800A1
:1011C40000C2B3008058780000C3B3008058780090
:1011D4000020EF0080587800658245006050E100EF
:1011E4000C003200A2002000110009000205D80002
:1011F4000003200000804000004A7800A200200084
:10120400110009000205D800000578000820ED004F
:10121400F2FF37000600E20002003200D0C2B30041
:0C122400004A78000080FA00000006007C
:101A8C001600FA008A1F78008B1F78008C1F7800D4
:101A9C0060004700000678005A4680006B468000C4
:101AAC0044040700EB00470030C5B30080587800B1
:101ABC0080C6B30080587800F0C6B3008058780018
:101ACC0020C7B3008058780040C7B3008058780016
:101ADC0000C2B3008058780040C5B300805878002D
:101AEC00A0C3B3008058780000C2B30080587800BF
:101AFC000020EF00805878006B004700000578004C
:101B0C001804070060004700000578007103070007
:101B1C0060004700000678007A4680008B46800003
:101B2C0024040700EB004700C0C4B30080587800C1
:101B3C00F0C6B30080587800E0C6B3008058780037
:101B4C0070C6B3008058780000C2B300805878008B
:101B5C0040C5B30080587800A0C3B300805878000B
:101B6C0000C2B300805878000020EF008058780045
:101B7C006B00470000057800FA030700600047007F
:101B8C0000057800530307004F067800CF05780056
:0C1B9C004F0578000080FA0000000600F1
:10149C000000FA00F4FF2F00A6FD07000080FA0000
:0414AC000000060036
:1047F4003400F8003600F800801F78002000200004
:104804000C000900B01F7800CD22AA008780A900FF
:10481400A00120000C0009004F1078004F00780020
:0C4824003600F9003400F90000400600E6
:1045C4000800FA003400F8003600F800801F780074
:1045D400200020000C000900B01F78008A1F78001A
:1045E4008B1F78008C1F7800C282BF000000AE00D1
:1045F4006F0037000681BF00200798000881BF00C4
:10460400300798000821EF000621EF008500A9007B
:1046140010882000104078006004E10009003A008E
:104624000020EF000220EF00A0468800B146880079
:104634000020EF000220EF00000798001107980007
:104644000A0037001C0020002E059000BE059000D3
:1046540086F5070000079800110798000005BE00C2
:1046640096F50700A0468800B1468800808D20009A
:104674001000E000010032008EF9070010882000CD
:10468400104078006004E1000D003A0045F5070091
:10469400E08D20001000E0000100320095F90700D1
:1046A4001188200010C0B30080487800E08D2000FD
:1046B4001000E000010032008EF907003C003700D2
:1046C40010882000104078006104E1000F003A00D7
:1046D400904680000020EC009046880090468000C0
:1046E4006400E100080039001188200020C0B300F4
:1046F400804878001FE1A800E08D20001000E00051
:10470400010032007BF907002900370010882000DF
:10471400104078006204E10017003A000E05900092
:104724009E0590003BF50700A299290093D1230030
:104734001046800021468000FBF007000000E000E6
:104744000020EF0001003D0000A0EE000000E200A8
:10475400080032001FE1A9001188200030C0B30016
:1047640080487800E08D20001000E0000100320055
:1047740060F907000E003700108820001040780010
:104784006304E10007003A000E0590009E059000C6
:1047940020F507001A4680002B468000A8F4070085
:1047A40003003700118820000020EF0080487800C3
:1047B4000E0090009E00900030468800414688001C
:1047C4008660A9004F067800CF0578004F05780071
:1047D400A00120000C0009004F1078004F00780061
:1047E4003600F9003400F9000080FA0000400600A9
:0047F400C5
:101C70000400FA008C1F78000A00BE0016FF07005F
:101C8000D27B23006338230082FE07004F067800D2
:101C900000079800110798000C0078008000EB0006
:101CA0000DFF07000E0190009E01900079FE0700D5
:101CB0000001BE000200BE000080FA000000060025
:001CC00024
:101CC0000400FA000020EF000220EF000007980057
:101CD000110798008A9FBE000420EF000620EF0045
:101CE0000A00BE00EDFD07000000E0000020EF004C
:101CF0000100340000A0EE004F05BE000000E2002D
:101D00000C0032000A01BE00000020000127240060
:101D100047FD0700020020000310240044FD0700D7
:101D200002002000030024005AFE0700000798006C
:101D3000110798000E0090009E0090000080FA00AD
:041D40000000060099
:101230000000FA00020007004A0A04000000000053
:10124000889FBE008A9FBE008C1F78003E0007006A
:101250004500330003866C006450E1002E0032002C
:101260006420E100330032006150E1002F003200C1
:101270006120E1003100320085855500EB07B000A8
:10128000090020000804200005003700080444007D
:1012900089844C000A0031000603430087834B0019
:1012A0000001530081815B00F8FF33000283BE0020
:1012B0001000A8000804440089844C00F6FF39009F
:1012C000C639DD00830173000100320013002000E5
:1012D0008904D1000884D3000998A30005003200D6
:1012E0000800A7000600A8008904D1000884D300E4
:1012F0008B05E8008904D1000884D3000001EB00CD
:101300000281D2002800070001F0A1000CF0A70024
:1013100003E0A8001D0037006420E1001F00320038
:101320000881BE000280BE00F7FF37006120E100A7
:101330001A0032006000B800F3FF37000000200000
:1013400001F82700F0FF37000084BE003C000700D2
:101350000083BE000485BE000280BE003800070086
:10136000844F7500000006000280BE006450E1005A
:10137000050036006420E100020036000968A30081
:1013800001003A000880BE0002C0A8004F067800A5
:101390004F05BE004F04BE0000000600F0FF2F0006
:1013A000F1FF2700F9FF3700810020006180550020
:1013B0000B003D000B00200061FE2F000100E1004A
:1013C0001D00340082817100610164008904D10034
:1013D0000884D3000000E800FAFF3A007100200002
:1013E0006100640003007000020060000900320028
:1013F00061044400E0844C000988A5000500320027
:101400008B05E8006808E10002003A008904D10079
:101410000884D300F20F20000258E10005003D00CF
:10142000C75DDD00F907B2008980750008008800FB
:10143000000006000BF827001B00880000000500D4
:10144000C70ADE00F107B200F50FB2000800320053
:10145000E1CF42000200320002E0A80024000500B3
:10146000810F7000010032000408050044000500EF
:10147000810F700002003A00140005008502E900A7
:101480000000400081C04800FCFF3B0002E0A800D3
:0C149000240005000080FA0000000600A7
:101BA800CD22A8001FE1A9000020EF000220EF00CD
:101BB800A0468800B14688000020EF000046880053
:101BC8000020EF00904688000020EF000220EF0080
:101BD80010468800214688000620EF00C218DD0064
:101BE800008A2000010140000020EF000220EF00E1
:101BF8000089BE006718E100020032000620EC00F0
:101C0800F6FF37000020EF000046880000000600BD
:001C1800CC
:101C18008A9FBE0024FE07004F05BE000000E200B8
:101C28001000320000468000C200DD00008A20005B
:101C3800010040000A88BE00004680000020EC0039
:101C480000468800004680006800E1000200350078
:101C58000020EF000046880055FE07001046880067
:081C680021468800000006007F
:1014B0000200FA0010882000104078006304E10068
:1014C000160032008A9FBE00A299290093E92300EA
:1014D0000A00BE0095FD07000000E0000020EF00BC
:1014E00001003D0000A0EE004F05BE00000798007F
:1014F000A299290093C923000A00BE00E7FF070054
:101500000000E0000020EF000100340000A0EE0029
:101510008E00900080806000150037008A9FBE001A
:10152000A299290093E923000A00BE007FFD07006D
:101530000000E0000020EF0001003D0000A0EE00F0
:101540004F05BE0000079800D2F22600C3B023006A
:101550000A00BE00D1FF07000000E0000020EF00FD
:101560000100340000A0EE008E009000808060003A
:0C157000010078000080FA000000060076
:1015B8000820EF000A20EF000620EF00C218DD0027
:1015C800008A2000010140001200BE00831F78003D
:1015D8000401BE00DDFB0700CF0178000002BE0059
:1015E8006718E100020032000620EC00F3FF370024
:1015F8000400BE0002002000031024000AFF0700B8
:0C1608000001BE000200BE000000060051
:101A44008A1F78008B1F78008C1F7800CD22A90094
:101A54000A00BE00E2448000F34480000CFF07004B
:101A64001C0020000005BE00F1FE07000005BE00BA
:101A740083FD0700CD22A8004F067800CF0578002B
:081A84004F0578000000060088
:101634008A9FBE000C0078008000EB00A500070024
:10164400D27B230063382300110007004F05BE003E
:101654000001BE000A00BE00F4FE070070FD070092
:0C1664000001BE000200BE0000000600F5
:100C24000000FA00020007007A0604000000000039
:100C34000081BE00190007000470A70003F0A100A2
:100C440003F8A30013003A006509B1001000320054
:100C5400090035006928E100020035000100280080
:100C64000000050000004000818048008502E90082
:100C7400FCFF3A0000000600F88F42000500350032
:100C84008100D1000080D3008502E800FCFF3A0017
:100C9400000006008000EB0000000500C70ADE002B
:100CA400F107B200F50FB20008003200E1CF4200B4
:100CB4000200320002E0A80024000500810F700049
:100CC400010032000408050044000500810F700093
:100CD40002003A00140005008502E900000040000B
:100CE40081C04800FCFF3B0002E0A800240005008E
:080CF4000080FA000000060078
:101084000A0478008B0478001000F800E7002000C0
:101094008703E900030035008904D1000884D300E4
:1010A400FBFF37001200F900F7FF23008784640078
:1010B4001000E20004003200F93F090000000000C3
:1010C4000804E900FAFF3700098009000000000065
:0410D4000000060012
:1044A0001600FA003400F8003600F800801F78008B
:1044B000200020000C000900B01F78008A1F78003F
:1044C0000821EF000621EF00B7F507001188200052
:1044D0000020EF0080487800A08D20001000E00050
:1044E0002E003200E000470030C5B300805878004D
:1044F00040C7B3008058780010C6B30080587800D9
:10450000C0C6B30080587800C0C6B3008058780099
:1045100000C2B3008058780040C4B30080587800CF
:1045200050C6B3008058780040C7B3008058780068
:1045300050C6B3008058780030C6B3008058780069
:1045400040C7B3008058780050C6B3008058780048
:1045500040C6B3008058780000C2B300805878008D
:10456000D0C2B3008058780000C2B30080587800F1
:1045700090C4B3008058780020C5B30080587800FC
:1045800010C5B300805878000020EF0080587800F4
:104590006000470000057800D1F807008500A900F9
:1045A0004F057800A00120000C0009004F10780092
:1045B0004F0078003600F9003400F9000080FA005E
:0445C00000400600B1
:0200000401F009
:240000000F000000FFFF000003000000E1000000BB0000005F000000FF00000083000000DF00000070
:00000001FF
