:020000040000FA
:1000000000380400050000000000000000000000AF
:1000100000000000000000000000000000000000E0
:1000200000000000000000000000000000000000D0
:1000300000000000DCA6000000000000000000003E
:1000400000000000BAA60000000000000000000050
:1000500000000000000000000000000000000000A0
:100060000000000000000000000000000000000090
:100070000000000000000000000000000000000080
:100080000000000000000000000000000000000070
:100090000000000000000000000000000000000060
:1000A0000000000000000000000000000000000050
:1000B0000000000094A50000000000000000000007
:1000C0000000000000000000000000000000000030
:1000D0000000000000000000000000000000000020
:1000E0000000000000000000000000000000000010
:1000F0000000000000000000000000000000000000
:1004000000002A00000020000000000000000000A2
:10041000000000000000E1000800200000002000B3
:10042000000000004000000000002000000100006B
:10043000000008000000200000082000000000006C
:10044000000000000000000000000000000030007C
:10045000000000000500380000802A0000000600AF
:10046000000798001107980033003700C0CFB30091
:10047000005CE1000F003A00610045001080FB00C5
:10048000680060006000E10005003200B00120005B
:1004900001002000000798001107980004003700B1
:1004A000B00120000100200000079800110798000B
:1004B00021003700B0CFB300005CE1000F003A002C
:1004C000610045001080FB00680060006000E100F2
:1004D00005003200000820000100200000079800FD
:1004E00011079800040037000008200001002000D8
:1004F00000079800110798000F003700D0CFB30015
:10050000005CE10001003A0003003700A0CFB30017
:10051000005CE10004003A00B5FF07000007980006
:1005200011079800040037000020EF000220EF00C0
:1005300000079800110798000E0090009E009000A0
:100540000080FA0000000600FFFFFF00FFFFFF0031
:10055000FFFFFF00FFFFFF00FFFFFF00FFFFFF00A7
:10056000FFFFFF00FFFFFF00FFFFFF00FFFFFF0097
:10057000FFFFFF00FFFFFF00FFFFFF00FFFFFF0087
:10058000FFFFFF00FFFFFF00FFFFFF00FFFFFF0077
:10059000FFFFFF00FFFFFF00FFFFFF00FFFFFF0067
:1005A000FFFFFF00FFFFFF00FFFFFF00FFFFFF0057
:1005B000FFFFFF00FFFFFF00FFFFFF00FFFFFF0047
:1005C000FFFFFF00FFFFFF00FFFFFF00FFFFFF0037
:1005D000FFFFFF00FFFFFF00FFFFFF00FFFFFF0027
:1005E000FFFFFF00FFFFFF00FFFFFF00FFFFFF0017
:1005F000FFFFFF00FFFFFF00FFFFFF00FFFFE9001D
:1006000000000000000000000000000000000000EA
:10061000000020000088A000000060000000020030
:1006200004002200000020000000E1000000200083
:1006300000002100000032000000E0000000200067
:100640000100200000002000000040000000000029
:10065000010038000020A80008000200000040004F
:100660000008A0000020A8000000000000004A00D0
:1006700000002100000040000000000000004100D8
:1006800008004100000158008100700000000200D5
:10069000020020000000CA00000018000008CA0084
:1006A00010003200480044000880400000000000B4
:1006B000000020000000A100020028001900360000
:1006C0000000A000020020000080A00000003A000E
:1006D000640205006000410010013A001400360079
:1006E0000000A0000000010000003A0000852E007C
:1006F00000009800080000000000700000000600E4
:100700000280BE006450E100050036006420E10074
:10071000020036000968A30001003A000880BE000C
:1007200002C0A8004F0678004F05BE004F04BE006F
:1007300000000600F0FF2F00F1FF2700F9FF37004F
:1007400081002000618055000B003D000B0020005F
:1007500061FE2F000100E1001D0034008281710064
:10076000610164008904D1000884D3000000E8001E
:10077000FAFF3A007100200061006400030070007D
:10078000020060000900320061044400E0844C0073
:100790000988A500050032008B05E8006808E10023
:1007A00002003A008904D1000884D300F20F20002F
:1007B0000258E10005003D00C75DDD00F907B20009
:1007C0008980750008008800000006000BF82700EB
:1007D0001B00880000000500C70ADE00F107B20018
:1007E000F50FB20008003200E1CF420002003200F3
:1007F00002E0A80024000500810F70000100200025
:1008000004000400000000008003600000002200DB
:10081000000005000000C800000040008000480003
:10082000F03F200000002000000000000000EA006F
:10083000000000006098E1000220EF000100340099
:1008400002A0EE007F10E1006098E1000020EF00C0
:1008500001003D0000A0EE000080600011003200A9
:1008600000072000010020008005410001864900AA
:10087000CD4ADD004342DE00850272004D42DD00BC
:10088000CF31DD000001EB00C758DD000000EB00B8
:10089000000071008180710004007000858070008C
:1008A000600037006010E1006098E1000220EF0076
:1008B00001003A0002A0EE006040E10060C8E100E3
:1008C0000020EF0001003A0000A0EE000080600070
:1008D0000000E20003003200CF30DD000000EB003A
:1008E000500037006010E1006098E1000220EF0046
:1008F00001003A0002A0EE006040E10060C8E100A3
:100900000020EF000100320000A0EE000080600037
:100910000000E2002300320000402000010020001F
:1009200000006400818064006000E1006088E100F4
:1009300005003A000804D0008984D200610151000A
:10094000E0815900F4FF370061024100E082490074
:10095000F0BF2F00010020000001640081816400CD
:1009600000072000010020000004420081844A00AA
:10097000CD1ADD004312DE00850272004D12DD004B
:10098000CF31DD000001EB00C740DD000000EB00CF
:10099000000071008180710004007000858070008B
:1009A000200037007F10E1006098E1000220EF0096
:1009B00001003A0002A0EE006040E10060C8E100E2
:1009C0000020EF0001003A0000A0EE00008060006F
:1009D0000000E20007003200CF31DD000001EB0033
:1009E0000000200001F827000000710081807100E4
:1009F0000C003700CF31DD000001EB0000002000CB
:100A00000000220000017000808111000C08950098
:100A1000420044000000700044004000000031002B
:100A200000007000000004000000BA000000000098
:100A30006308E10003003A00F0CFB300004E7800F5
:100A4000120037006208E10003003A00E0CFB30073
:100A5000004E78000D0037006108E10003003A0005
:100A6000D0CFB300004E7800080037006008E100E6
:100A700006003A001880FB000020EC00004C7800D3
:100A800066804400104E7800000037006280440009
:100A90001080FB008000EB00C801DD000001EB00CE
:100AA000638044001080FB008000EB008000780031
:100AB0000000EB000002710081827100648044003C
:100AC0001081FB008001EB00C818DD004810DE003B
:100AD000810070004810DD00000172008181720009
:100AE000658044001080FB008000EB00801E7100D8
:100AF00081967100618044009080FB00000F20000F
:100B000000836000000620000030E10022003A006F
:100B10001880FB00008044001080FB008000EB0088
:100B2000C801DD000001EB001880FB000020EC0094
:100B3000008044001080FB008000EB008000780003
:100B40000000EB0000027100818271001880FB0040
:100B500000A0EC00008044001081FB008001EB004D
:100B6000C818DD004810DE00810070004810DD006C
:100B700000017200818172001880FB006300400058
:100B8000008044001080FB008000EB00801B71009F
:100B90008193710023003700000420000030E10041
:100BA00008003A001880FB00008044009080FB00A1
:100BB000F0072000008060008000EB00808BBE000A
:100BC00018003700000220000030E10004003A0065
:100BD0000020EF000220EF00808BBE0011003700E4
:100BE0006030E1000C003A007E8045001000780083
:100BF000E200400018407800110178008001E9000F
:100C00000080FB008000EB00000051008180590053
:100C1000808BBE00030037000020EF000220EF00B1
:100C2000808BBE009C45780081FD07000002BE005D
:100C30001D01BE000010E1000198E1000400390030
:100C40000020EF000220EF00808BBE00090037007B
:100C50001701BE003D004100AD8049000400E100E5
:100C60000588E100030036003D005200AD805A00C7
:100C7000808BBE00CF0578000080FA0000000600DF
:100C8000FFFFFF00FFFFFF00FFFFFF00FFFFFF0070
:100C9000FFFFFF00FFFFFF00FFFFFF00FFFFFF0060
:100CA000FFFFFF00FFFFFF00FFFFFF00FFFFFF0050
:100CB000FFFFFF00FFFFFF00FFFFFF00FFFFFF0040
:100CC000FFFFFF00FFFFFF00FFFFFF00FFFFFF0030
:100CD000FFFFFF00FFFFFF00FFFFFF00FFFFFF0020
:100CE000FFFFFF00FFFFFF00FFFFFF00FFFFFF0010
:100CF000FFFFFF00FFFFFF00FFFFFF00FFFFFF0000
:100D0000FFFFFF00FFFFFF00FFFFFF00FFFFFF00EF
:100D1000FFFFFF00FFFFFF00FFFFFF00FFFFFF00DF
:100D2000FFFFFF00FFFFFF00FFFFFF00FFFFFF00CF
:100D3000FFFFFF00FFFFFF00FFFFFF00FFFFFF00BF
:100D4000FFFFFF00FFFFFF00FFFFFF00FFFFFF00AF
:100D5000FFFFFF00FFFFFF00FFFFFF00FFFFFF009F
:100D6000FFFFFF00FFFFFF00FFFFFF00FFFFFF008F
:100D7000FFFFFF00FFFFFF00FFFFFF00FFFFFF007F
:100D8000FFFFFF00FFFFFF00FFFFFF00FFFFFF006F
:100D9000FFFFFF00FFFFFF00FFFFFF00FFFFFF005F
:100DA000FFFFFF00FFFFFF00FFFFFF00FFFFFF004F
:100DB000FFFFFF00FFFFFF00FFFFFF00FFFFFF003F
:100DC000FFFFFF00FFFFFF00FFFFFF00FFFFFF002F
:100DD000FFFFFF00FFFFFF00FFFFFF00FFFFFF001F
:100DE000FFFFFF00FFFFFF00FFFFFF00FFFFFF000F
:100DF000FFFFFF00FFFFFF00FFFFFF00FFFFE90015
:100E00000200FA00CEB997003EBA97004EF1970063
:100E10008EBA97001EBB9700EEB397007EB4970082
:100E20005EB0970050B79F00CEB497007E8045001B
:100E300010007800E40040000107980000C2B300F1
:100E4000804878001800E2000C0032001A00E2002E
:100E5000050032000E009000E100400000C6B30023
:100E600080487800040037000E009000E100400048
:100E700000C4B300804878000B0037001A00E2007D
:100E8000050032000E009000E100400000C2B300F7
:100E900080487800040037000E009000E100400018
:100EA0000020EF008048780060C0B300804C7800DC
:100EB000D0CFB3000014E1000220EF0001003100A8
:100EC00002A0EE007600570010807000070032008C
:100ED0001980FB000020EC00804C78000E00900090
:100EE00066004000024878001B003700F0CFB300D6
:100EF0000014E10006003A000E009000E1004000FE
:100F00001180FB00630070008048780012003700F9
:100F1000E0CFB3000014E10006003A000E0090009C
:100F2000E10040001180FB00620070008048780002
:100F300009003700D0CFB3000014E10006003A00EA
:100F40000E009000E10040001180FB006100700085
:100F500080487800000037000E00900062014000D9
:100F60004830DE008000EB00004978000E00900061
:100F700063014000060078008000EB000049780023
:100F80000E009000640140004828DE00C830DD00FB
:100F900001007000C830DE00004978000E009000AB
:100FA00065004000054878000600E200200032009D
:100FB0001800E200100032000800E20007003200D2
:100FC0000E009000610140009280FB0000052000AF
:100FD0000080700000497800060037000E00900085
:100FE000610140009280FB008005200000807000BD
:100FF000004978000D0037000800E20006003200CA
:101000000000900000000000000000000000000050
:1010100000001800000007000000000001000000B0
:10102000000030000000000000000000200001006F
:101030000000000000002000000000000000000090
:101040000100090000000000000000000000400056
:101050000000000000006800000000000000040024
:101060000000000000003800000041000000000007
:10107000000040000000C3000000680000002000E5
:1010800000004000000028000000100000000000E8
:10109000000000000000CE008000100000003000C2
:1010A0000000020000494000000032000020A800BB
:1010B000000000008100700000000200000000003D
:1010C0000400000001007000000028000000000083
:1010D00005002100000040000000400010800000DA
:1010E00002402800000001000000E80000000000AD
:1010F0000080FA0000000600FFFFFF00FFFFFF0076
:10110000FFFFFF00FFFFFF00FFFFFF00FFFFFF00EB
:10111000FFFFFF00FFFFFF00FFFFFF00FFFFFF00DB
:10112000FFFFFF00FFFFFF00FFFFFF00FFFFFF00CB
:10113000FFFFFF00FFFFFF00FFFFFF00FFFFFF00BB
:10114000FFFFFF00FFFFFF00FFFFFF00FFFFFF00AB
:10115000FFFFFF00FFFFFF00FFFFFF00FFFFFF009B
:10116000FFFFFF00FFFFFF00FFFFFF00FFFFFF008B
:10117000FFFFFF00FFFFFF00FFFFFF00FFFFFF007B
:10118000FFFFFF00FFFFFF00FFFFFF00FFFFFF006B
:10119000FFFFFF00FFFFFF00FFFFFF00FFFFFF005B
:1011A000FFFFFF00FFFFFF00FFFFFF00FFFFFF004B
:1011B000FFFFFF00FFFFFF00FFFFFF00FFFFFF003B
:1011C000FFFFFF00FFFFFF00FFFFFF00FFFFFF002B
:1011D000FFFFFF00FFFFFF00FFFFFF00FFFFFF001B
:1011E000FFFFFF00FFFFFF00FFFFFF00FFFFFF000B
:1011F000FFFFFF00FFFFFF00FFFFFF00FFFFE90011
:1012000000000000000000000000000000000000DE
:10121000000000000000410000002000000020004D
:10122000000020000000100000004000000000004E
:101230000000E00000003000000000000000CD00D1
:101240000000400000002000000000000000CC0072
:101250000000200000002000000000000000060048
:1012600080487800C0042000800045000020EF0086
:1012700080487800000006001600E2000A003200F4
:101280000420EF0064004500820040000020EF00D1
:1012900080487800F00720000010E10002003200D2
:1012A0000420EC00F7FF37000020EF00004D78002D
:1012B000E20045000020EF00800878006008200070
:1012C000800045000020EF00800878000000060044
:1012D000FFFFFF00FFFFFF00FFFFFF00FFFFFF001A
:1012E000FFFFFF00FFFFFF00FFFFFF00FFFFFF000A
:1012F000FFFFFF00FFFFFF00FFFFFF00FFFFFF00FA
:10130000FFFFFF00FFFFFF00FFFFFF00FFFFFF00E9
:10131000FFFFFF00FFFFFF00FFFFFF00FFFFFF00D9
:10132000FFFFFF00FFFFFF00FFFFFF00FFFFFF00C9
:10133000FFFFFF00FFFFFF00FFFFFF00FFFFFF00B9
:10134000FFFFFF00FFFFFF00FFFFFF00FFFFFF00A9
:10135000FFFFFF00FFFFFF00FFFFFF00FFFFFF0099
:10136000FFFFFF00FFFFFF00FFFFFF00FFFFFF0089
:10137000FFFFFF00FFFFFF00FFFFFF00FFFFFF0079
:10138000FFFFFF00FFFFFF00FFFFFF00FFFFFF0069
:10139000FFFFFF00FFFFFF00FFFFFF00FFFFFF0059
:1013A000FFFFFF00FFFFFF00FFFFFF00FFFFFF0049
:1013B000FFFFFF00FFFFFF00FFFFFF00FFFFFF0039
:1013C000FFFFFF00FFFFFF00FFFFFF00FFFFFF0029
:1013D000FFFFFF00FFFFFF00FFFFFF00FFFFFF0019
:1013E000FFFFFF00FFFFFF00FFFFFF00FFFFFF0009
:1013F000FFFFFF00FFFFFF00FFFFFF00FFFFE9000F
:1014000000000000000020000000000000000000BC
:10141000000000000000200000000000000080002C
:10142000000020000000400000000000000040001C
:1014300000004000000040000000410000003800B3
:1014400000000000000048008000200000000000B4
:101450000000300000004400100078001000600020
:101460006000E10004003200100020000000D900FC
:101470000000210000004000000068008000200003
:10148000040036000000E100020030000000C0004F
:101490008181120083003000000020000000000065
:1014A0000201400083814800620047003001410092
:1014B000A0814900020037001E019000AE0190009B
:1014C0008E409000F0CFB300000CE10001003A0024
:1014D0000E0037008E409000E0CFB300000CE1001A
:1014E00001003A00090037008E409000C0CFB300E1
:1014F000000CE10001003A00040037008E4090002B
:10150000A0CFB300000CE10003003A000B05780007
:101510004E190700650037008E409000D0CFB30011
:10152000000CE1000B003A00E400430061004700BA
:101530001080FB00008040008A9FBE00800678007B
:101540003E0690000205BE0008FF07004F05BE00E2
:10155000140037008E409000B0CFB300000CE100C3
:1015600010003A001E009000AE0090006000E10004
:101570006088E1000A003600E40043006100470093
:101580001080FB00008040008A9FBE00800678002B
:101590003E0690000205BE0043FF07004F05BE0057
:1015A000000037000A20EF000606780061004700BF
:1015B0009081FB000002EB00660147003280410091
:1015C000A2004A0061015000E08158000500780047
:1015D000CF80DE000200E1000388E1000B003C0048
:1015E00064004600850040000020EF00804878003D
:1015F00005007800CF80DE000200E1000388E100F2
:10160000020032000A20EC00E8FF37008A1F780051
:101610000B05780054FE07004F0578008E409000BF
:10162000D0CFB300000CE1000220EF000100310038
:1016300002A0EE00610047008C1F78001A20EF0026
:101640001820EF00801F7800811F78006600470097
:10165000B01F7800A01F780062004700B01F78001C
:10166000A01F7800600047001080FB00801F7800FA
:10167000F0FF2F00801F7800F0FF2F00801F780000
:101680007BFD07002F01B1004F067800E200460005
:10169000610047001080FB0080087800C004200033
:1016A0008000460010C0B30080487800CF06780064
:1016B0004F0678004F0578000080FA000000060011
:1016C000FFFFFF00FFFFFF00FFFFFF00FFFFFF0026
:1016D000FFFFFF00FFFFFF00FFFFFF00FFFFFF0016
:1016E000FFFFFF00FFFFFF00FFFFFF00FFFFFF0006
:1016F000FFFFFF00FFFFFF00FFFFFF00FFFFFF00F6
:10170000FFFFFF00FFFFFF00FFFFFF00FFFFFF00E5
:10171000FFFFFF00FFFFFF00FFFFFF00FFFFFF00D5
:10172000FFFFFF00FFFFFF00FFFFFF00FFFFFF00C5
:10173000FFFFFF00FFFFFF00FFFFFF00FFFFFF00B5
:10174000FFFFFF00FFFFFF00FFFFFF00FFFFFF00A5
:10175000FFFFFF00FFFFFF00FFFFFF00FFFFFF0095
:10176000FFFFFF00FFFFFF00FFFFFF00FFFFFF0085
:10177000FFFFFF00FFFFFF00FFFFFF00FFFFFF0075
:10178000FFFFFF00FFFFFF00FFFFFF00FFFFFF0065
:10179000FFFFFF00FFFFFF00FFFFFF00FFFFFF0055
:1017A000FFFFFF00FFFFFF00FFFFFF00FFFFFF0045
:1017B000FFFFFF00FFFFFF00FFFFFF00FFFFFF0035
:1017C000FFFFFF00FFFFFF00FFFFFF00FFFFFF0025
:1017D000FFFFFF00FFFFFF00FFFFFF00FFFFFF0015
:1017E000FFFFFF00FFFFFF00FFFFFF00FFFFFF0005
:1017F000FFFFFF00FFFFFF00FFFFFF00FFFFE9000B
:10180000000078003CBB07008CBB07006000410073
:101810008000380000002000000000001000B2002E
:1018200000007800000068000000000001002000B7
:101830000000610081806100A7018800000B780032
:101840009701880000000000160078006100700019
:10185000A7018800000B780062024300E0824B0081
:101860000403BE001A00BE004601DE00CA09DD0006
:1018700003017100C609DE00F0FF20000100200016
:101880000000610081806100A5018800000A7800E5
:1018900062024300E0824B000403BE001A00BE0057
:1018A000CA09DD004601DE00830171004A01DD0046
:1018B00000C02F0001002000000061008180610055
:1018C000A5018800000A78006C0045001080FB002C
:1018D000EF0060009701880000000000160078000B
:1018E000A7018800010B70008601780007027800CC
:1018F000120037001A00BE000001D0008181D20022
:101900000201D0008381D200F07F2000010020007E
:101910000000610081806100A7018800000B780051
:10192000E200430060814B008101780002027800F0
:101930006C004500A201880090487800E2804100D8
:1019400060014A00810178000202780064004500CD
:1019500010407800A201880080487800E1804100B2
:1019600060014A00640045000020EC00A2018800EC
:1019700090487800E280410060014A0081017800CF
:10198000020278006400450000A0EC00A20188007B
:1019900090487800E180410060014A006400450001
:1019A00063004000A201880090487800E280410076
:1019B00060014A008101780002027800640045005D
:1019C00064004000A201880090487800E180410056
:1019D00060014A006400450065004000A2018800E3
:1019E00090487800E280410060014A00810178005F
:1019F000020278006400450066004000A2018800F1
:101A000090487800E180410060014A006400450090
:101A100067004000A2018800904878006280410081
:101A2000E0004A008B0037009701880000000000AA
:101A300016007800610060006000E1000020EF0007
:101A40000100320000A0EE00800D78001B00E000D5
:101A50002B003200970188000000000096007800FB
:101A6000C0FF2100008060008000EB00008DBE0000
:101A70001A00BE00800078000000EB00008DBE0060
:101A800062004300E0804B000002BE00910188002C
:101A90000000000010017800F0FF2000000061004D
:101AA0008000EB00C609DD004A01DE008301710001
:101AB0004601DD001A00BE00021D70000395700093
:101AC00062004200E0804A000002BE0091018800EE
:101AD000000000001001780000C02F00000061002D
:101AE0004A00DE00000178008001EB001A00BE0011
:101AF000021D7000039570000401BE00090037004C
:101B0000970188000000000096007800C0FF2100C7
:101B1000008060004200DE00000D7800620143009A
:101B2000E0814B00EC0045009301880000000000BC
:101B3000124078000080FB006F0060008048780051
:101B400062004100E08049000002BE0064014500DF
:101B500091018800000000001040780000497800E2
:101B6000640045006101400061004200E0804A00DD
:101B700091018800000000001040780000497800C2
:101B800062014200E0814A000202BE00640045009A
:101B9000E20040009301880000000000124078003D
:101BA0008048780064004500630140006100420005
:101BB000E0804A0091018800000000001040780099
:101BC0000049780062014200E0814A000202BE0042
:101BD00064004500E400400093018800000000001C
:101BE000124078008048780064004500650140009C
:101BF00061004200E0804A0091018800000000007E
:101C0000000068000000600000000000000000000C
:101C10000000100000000000000040000000000074
:101C20000000000000004000000000000000440030
:101C3000000040000000000000004800000000001C
:101C4000000000000000300000006800600002009A
:101C5000000002000080FA0000000600FFFFFF0005
:101C6000FFFFFF00FFFFFF00FFFFFF00FFFFFF0080
:101C7000FFFFFF00FFFFFF00FFFFFF00FFFFFF0070
:101C8000FFFFFF00FFFFFF00FFFFFF00FFFFFF0060
:101C9000FFFFFF00FFFFFF00FFFFFF00FFFFFF0050
:101CA000FFFFFF00FFFFFF00FFFFFF00FFFFFF0040
:101CB000FFFFFF00FFFFFF00FFFFFF00FFFFFF0030
:101CC000FFFFFF00FFFFFF00FFFFFF00FFFFFF0020
:101CD000FFFFFF00FFFFFF00FFFFFF00FFFFFF0010
:101CE000FFFFFF00FFFFFF00FFFFFF00FFFFFF0000
:101CF000FFFFFF00FFFFFF00FFFFFF00FFFFFF00F0
:101D0000FFFFFF00FFFFFF00FFFFFF00FFFFFF00DF
:101D1000FFFFFF00FFFFFF00FFFFFF00FFFFFF00CF
:101D2000FFFFFF00FFFFFF00FFFFFF00FFFFFF00BF
:101D3000FFFFFF00FFFFFF00FFFFFF00FFFFFF00AF
:101D4000FFFFFF00FFFFFF00FFFFFF00FFFFFF009F
:101D5000FFFFFF00FFFFFF00FFFFFF00FFFFFF008F
:101D6000FFFFFF00FFFFFF00FFFFFF00FFFFFF007F
:101D7000FFFFFF00FFFFFF00FFFFFF00FFFFFF006F
:101D8000FFFFFF00FFFFFF00FFFFFF00FFFFFF005F
:101D9000FFFFFF00FFFFFF00FFFFFF00FFFFFF004F
:101DA000FFFFFF00FFFFFF00FFFFFF00FFFFFF003F
:101DB000FFFFFF00FFFFFF00FFFFFF00FFFFFF002F
:101DC000FFFFFF00FFFFFF00FFFFFF00FFFFFF001F
:101DD000FFFFFF00FFFFFF00FFFFFF00FFFFFF000F
:101DE000FFFFFF00FFFFFF00FFFFFF00FFFFFF00FF
:101DF000FFFFFF00FFFFFF00FFFFFF00FFFFE90005
:101E00000000680000007800000040000000810031
:101E1000000030000000000000006800000000002A
:101E20000000450000006800000000002C000100D8
:101E3000C800400000002000000878006C00450049
:101E4000000028002000000000002000000000002A
:101E50000200000000003000620045000000400069
:101E60000000400000003000000040004000000082
:101E700000000000000000002100400000004500BC
:101E80000000680000003000760045000000680097
:101E9000800040000000200080004000000045005D
:101EA0000000780000000000E10040000020EF008A
:101EB000804878007E0045001000780064004000F3
:101EC000E2004000A00120000020EC00104078005B
:101ED000804878007E0045001000780064004000D3
:101EE000630040000D4878004F067800CF05780069
:101EF0000080FA0000000600FFFFFF00FFFFFF0068
:101F0000FFFFFF00FFFFFF00FFFFFF00FFFFFF00DD
:101F1000FFFFFF00FFFFFF00FFFFFF00FFFFFF00CD
:101F2000FFFFFF00FFFFFF00FFFFFF00FFFFFF00BD
:101F3000FFFFFF00FFFFFF00FFFFFF00FFFFFF00AD
:101F4000FFFFFF00FFFFFF00FFFFFF00FFFFFF009D
:101F5000FFFFFF00FFFFFF00FFFFFF00FFFFFF008D
:101F6000FFFFFF00FFFFFF00FFFFFF00FFFFFF007D
:101F7000FFFFFF00FFFFFF00FFFFFF00FFFFFF006D
:101F8000FFFFFF00FFFFFF00FFFFFF00FFFFFF005D
:101F9000FFFFFF00FFFFFF00FFFFFF00FFFFFF004D
:101FA000FFFFFF00FFFFFF00FFFFFF00FFFFFF003D
:101FB000FFFFFF00FFFFFF00FFFFFF00FFFFFF002D
:101FC000FFFFFF00FFFFFF00FFFFFF00FFFFFF001D
:101FD000FFFFFF00FFFFFF00FFFFFF00FFFFFF000D
:101FE000FFFFFF00FFFFFF00FFFFFF00FFFFFF00FD
:101FF000FFFFFF00FFFFFF00FFFFFF00FFFFE90003
:102000000200EA0000007800000000008C1F780049
:102010008D1F7800E101470066014700E20047009C
:10202000600047008106780000067800831F780072
:10203000821F7800DEFA07004F00B1008A1F780087
:102040000B05780038FC07004F0578008E409000A3
:10205000D0CFB300000CE1000220EF0001003100FE
:1020600002A0EE00610047001A20EF00FCFF2F00E5
:10207000801F7800811F780066004700B01F78003D
:10208000A01F780062004700B01F7800A01F7800F2
:10209000600047001080FB00801F7800F0FF2F00D9
:1020A000801F7800F0FF2F00801F780060FB070082
:1020B0002F01B1007E8045001000780000037800F9
:1020C00062014000610047009080FB00660047000D
:1020D00010804000000978001A4078006004E10098
:1020E000160036001A4078000080FB000020ED004A
:1020F000000278008002EB00800020000401BE0096
:102100000000E900030035000201D0008381D20005
:10211000FBFF3700001020000100200002014000FA
:102120008381480062004700B000410020814900DF
:102130008101780002027800020037009E019000C1
:102140002E0290008E409000F0CFB300000CE10012
:1021500047003A00610045001080FB006800600005
:102160006000E100210032000A20EF003E009000F4
:10217000CE009000E1015000608258000500780018
:10218000CF80DE000300E1000488E10015003C0080
:10219000E4004300610047001080FB0005004000A0
:1021A000008140006200470090804200E0E2290088
:1021B000810040002020200032A0B7000000000075
:1021C000114078000049780005007800CF80DE00DB
:1021D0000300E1000488E100020032000A20EC0064
:1021E000E2FF370006017800200037000A20EF00E8
:1021F0003E009000CE009000E10150006082480057
:1022000005007800CF80DE000300E1000488E100D3
:1022100015003C002820200098018800E4004300BD
:10222000610047001080FB00050040000081400075
:1022300062004700908042007075290081004000D4
:102240000000000011407800004978000500780087
:10225000CF80DE000300E1000488E10002003200CC
:102260000A20EC00E2FF370006017800D1003700B9
:102270008E409000E0CFB300000CE1001B003A005C
:102280000820EF00860278003E009000CE0090000B
:1022900061015000E081580004007800CF80DE002A
:1022A0000200E1000388E1000E003C00E4804200EF
:1022B000610047001080FB00040040008080400067
:1022C000144078008048780004007800CF80DE0059
:1022D0000200E1000388E100020032000820EC0067
:1022E000E9FF370005017800B20037008E4090000A
:1022F000D0CFB300000CE1000B003A00E400430033
:10230000610047001080FB000080400080067800DC
:102310003E069000030578008405780008F9070060
:1023200006017800A30037008E409000C0CFB300B4
:10233000000CE1004B003A00610045001080FB00FA
:10234000680060006000E100230032000E20EF0012
:102350003E009000CE00900061025000E0825800E4
:1023600007007800CF80DE000400E1000588E1006E
:1023700017003C002820200098018800E40043005A
:10238000610047001080FB00070040008081400092
:10239000870078004F89DE0062004700908040008F
:1023A00080C42A0081004000000000001140780035
:1023B0008049780007007800CF80DE000400E1004B
:1023C0000588E100020032000E20EC00E0FF37003B
:1023D00006017800220037000E20EF003E0090003A
:1023E000CE00900061025000E082580007007800A3
:1023F000CF80DE000400E1000588E10017003C000A
:102400002820200098018800E40043006100470074
:102410001080FB00070040008081400087007800AA
:102420004F89DE006200470090804000D0C22A0041
:1024300081004000000000001140780080497800D1
:1024400007007800CF80DE000400E1000588E1008D
:10245000020032000E20EC00E0FF37000601780099
:10246000540037008E409000B0CFB300000CE10064
:1024700023003A001E009000AE0090006000E100D2
:102480006088E1000E003A00E4004300610047006C
:102490001080FB008080400010C0B30080487800AE
:1024A00011C0B3006100470010C8400011002000B7
:1024B000020020006600470010981000101019005C
:1024C0003E009000CE0090006000E1006088E100D6
:1024D00009003600E4004300610047001080FB0063
:1024E00000804000800678003E06900003057800DA
:1024F0008405780039F80700060178002D003700C0
:102500008E409000A0CFB300000CE10028003A00FC
:10251000610045001080FB00680060006000E10081
:10252000210032000A20EF003E009000CE00900013
:10253000E10150006082580005007800CF80DE0085
:102540000300E1000488E10015003C00E4004300C2
:10255000610047001080FB00050040000081400042
:102560006200470090804200E000290081004000A6
:102570002020200032A0B7000000000011407800A9
:102580000049780005007800CF80DE000300E100FC
:102590000488E100020032000A20EC00E2FF37006C
:1025A00006017800010037000601780001003700BD
:1025B00006017800C00420008000410010C0B30074
:1025C00080487800CF0678004F067800CF05780065
:1025D0004F0578000080FA0000000600FFFFFF00B2
:1025E000FFFFFF00FFFFFF00FFFFFF00FFFFFF00F7
:1025F000FFFFFF00FFFFFF00FFFFFF00FFFFE900FD
:1026000002000A000000000000000000000020009E
:1026100000000800000000000000000001000000B1
:10262000000000000000400000003000000020001A
:102630000000020000004500000000000000400013
:1026400000800300000020000000200000000000C7
:102650000000200000000000280000000000000032
:102660000000280000800000000070000000000052
:1026700000000000120034000620EF000218E10004
:102680000E003C00E40046006200460090804000DE
:10269000600047000300400090487800E2004600D8
:1026A000110078000020EC00800878000218E1009A
:1026B000020032000620EC00F0FF3700090037006E
:1026C000E400460062004600908040000020EF00D9
:1026D00080487800E2004600110078000020EC00FD
:1026E00080087800CF0678000080FA00000006001D
:1026F000FFFFFF00FFFFFF00FFFFFF00FFFFFF00E6
:10270000FFFFFF00FFFFFF00FFFFFF00FFFFFF00D5
:10271000FFFFFF00FFFFFF00FFFFFF00FFFFFF00C5
:10272000FFFFFF00FFFFFF00FFFFFF00FFFFFF00B5
:10273000FFFFFF00FFFFFF00FFFFFF00FFFFFF00A5
:10274000FFFFFF00FFFFFF00FFFFFF00FFFFFF0095
:10275000FFFFFF00FFFFFF00FFFFFF00FFFFFF0085
:10276000FFFFFF00FFFFFF00FFFFFF00FFFFFF0075
:10277000FFFFFF00FFFFFF00FFFFFF00FFFFFF0065
:10278000FFFFFF00FFFFFF00FFFFFF00FFFFFF0055
:10279000FFFFFF00FFFFFF00FFFFFF00FFFFFF0045
:1027A000FFFFFF00FFFFFF00FFFFFF00FFFFFF0035
:1027B000FFFFFF00FFFFFF00FFFFFF00FFFFFF0025
:1027C000FFFFFF00FFFFFF00FFFFFF00FFFFFF0015
:1027D000FFFFFF00FFFFFF00FFFFFF00FFFFFF0005
:1027E000FFFFFF00FFFFFF00FFFFFF00FFFFFF00F5
:1027F000FFFFFF00FFFFFF00FFFFFF00FFFFE900FB
:10280000000002008A1F7800881F78008D1F780062
:102810001020EF00000007000000600004003000FE
:1028200060004000000078000000400000006800E8
:10283000000020000004600000002A000000780072
:10284000EC0000000000A0000C0678000000A200D0
:1028500000003000000010000A00400000002000CE
:102860000000400000002000800800000E009000E2
:102870004E00000000007800000040000000320020
:10288000000078000E000000100040000000400032
:102890002000000000006800080078007A000000B6
:1028A000000010002400000000C423008000780015
:1028B000010030000800400000003000000040002F
:1028C000010040000000300080007800400020003F
:1028D00000004000000000008A1F7800000578001A
:1028E000C9F607004F05780000079800E0022000B5
:1028F00000004500EC0040001C00780000A0EC0047
:102900008A9FBE008005780001057800EFF6070079
:102910004F05BE008E009000008070002000320045
:102920001B0078007E00400010007800640040002A
:10293000E20040000020EF0080487800E002200024
:10294000000045006C004000E80040001C007800DA
:1029500000A0EC006800400090087800E002200031
:1029600000004500EC0140001C00780062014000BE
:102970001200BE008089BE00E00220000000450079
:102980006C004000E40040001C00780000A0EC0057
:1029900064004000B0187800A010780007003700ED
:1029A0001B0078007E0040001000780064004000AA
:1029B000E2004000F0CFB300804878008B1F780021
:1029C0009C057800B5160700CF0578001C06780036
:1029D0009B0578007506070080007800010037002D
:1029E00088007800310037001C0078007E0040002D
:1029F00010007800640040000020EC0010406800E7
:102A00006204E10028003A00E002200000004500D6
:102A1000EC0040001C00780000A0EC008A9FBE0083
:102A20008005780001057800A8F607004F05BE0074
:102A30000000E20013003200E00220000000450028
:102A40006C004000E80040000020EF0080087800A3
:102A5000E0022000000045006C0140000020EF0073
:102A60000220EF000089BE00E002200000004500C7
:102A70006C004000640140000020EF000220EF00E5
:102A80000089BE008B1F78009C0578008316070024
:102A9000CF0578001C0678009B05780043060700E8
:102AA000800078000100370088007800010078007D
:102AB000CF0678004F067800CF0578000080FA0036
:102AC00000000600FFFFFF00FFFFFF00FFFFFF0009
:102AD000FFFFFF00FFFFFF00FFFFFF00FFFFFF0002
:102AE000FFFFFF00FFFFFF00FFFFFF00FFFFFF00F2
:102AF000FFFFFF00FFFFFF00FFFFFF00FFFFFF00E2
:102B0000FFFFFF00FFFFFF00FFFFFF00FFFFFF00D1
:102B1000FFFFFF00FFFFFF00FFFFFF00FFFFFF00C1
:102B2000FFFFFF00FFFFFF00FFFFFF00FFFFFF00B1
:102B3000FFFFFF00FFFFFF00FFFFFF00FFFFFF00A1
:102B4000FFFFFF00FFFFFF00FFFFFF00FFFFFF0091
:102B5000FFFFFF00FFFFFF00FFFFFF00FFFFFF0081
:102B6000FFFFFF00FFFFFF00FFFFFF00FFFFFF0071
:102B7000FFFFFF00FFFFFF00FFFFFF00FFFFFF0061
:102B8000FFFFFF00FFFFFF00FFFFFF00FFFFFF0051
:102B9000FFFFFF00FFFFFF00FFFFFF00FFFFFF0041
:102BA000FFFFFF00FFFFFF00FFFFFF00FFFFFF0031
:102BB000FFFFFF00FFFFFF00FFFFFF00FFFFFF0021
:102BC000FFFFFF00FFFFFF00FFFFFF00FFFFFF0011
:102BD000FFFFFF00FFFFFF00FFFFFF00FFFFFF0001
:102BE000FFFFFF00FFFFFF00FFFFFF00FFFFFF00F1
:102BF000FFFFFF00FFFFFF00FFFFFF00FFFFE900F7
:102C00008B1F78008C1F78008D1F78001020EF003C
:102C10000020EF00800D78001C007800EC004000E0
:102C200000A0EC008C1F78008A9FBE008006780010
:102C3000010678000B0578008B5E20000020EF0075
:102C4000801F7800151907002F00B1004F05BE0046
:102C50004F0678000000E2006B0032001B00780095
:102C60007E00400010007800E400400010C1B30076
:102C7000804878001B0078007E004000100078003B
:102C800064004000E10040001C0078007E0040002D
:102C900010007800640040000020EC0090487800AC
:102CA0001B0078007E0040001000780064004000A7
:102CB000E20040001C0078007E0040001000780018
:102CC0006400400000A0EC00904878001B007800F1
:102CD0007E0040001000780064004000E3004000E7
:102CE0001C0078007E004000100078006400400066
:102CF00063004000904878001B0078007E00400090
:102D00001000780064004000E40040000020EF0064
:102D1000804878001B0078007E004000100078009A
:102D200064004000E50040000020EF00804878008B
:102D30001B0078007E00400010007800E200400098
:102D400060002000800878001C0078007E004000B1
:102D50001000780064034000610043001080FB0015
:102D60008000EB00800278000002EB00620043006C
:102D70001081FB008001EB00C818DD004810DE0068
:102D8000810070004810DD00000172008181720036
:102D9000630043001080FB008000EB000002710024
:102DA000818271001B0078007E00400010007800D6
:102DB00064004000E5014000E00220000000450002
:102DC000640140001200BE000402E9000300350067
:102DD0008100D1000080D300FBFF3700610060005C
:102DE000804978008B1F78009C057800FA15070051
:102DF000CF0578001C0678009B057800BA0507000F
:102E000000007800000030000000680000000000B2
:102E10000000200000000000000040000000000052
:102E200000000000000020000000400000006800DA
:102E300000000000000000000000E0000000320080
:102E4000800020000000000020000000020540007B
:102E50000000680002050000020100000000000000
:102E60000000200000000000820040000000000080
:102E700000006800808E80000000680000040800E8
:102E80008084000000052000000080000000300069
:102E90001000000000000800E00000000000240016
:102EA00008006000020032000000680001063000E7
:102EB00000003000010020000000680000057800DC
:102EC000000006002F00B1004F05BE004F0678003D
:102ED0000000E200440032001B0078007E00400049
:102EE00010007800E20040003000200080087800E8
:102EF0001B0078007E00400010007800E4004000D5
:102F000000C2B300804878001B0078007E004000BB
:102F10001000780064004000E100400010C0B300E1
:102F2000804878001B0078007E0040001000780088
:102F300064004000E20040000020EF00804878007C
:102F40001C0078007E004000100178000204780028
:102F5000E002200000004500F6004000640041004F
:102F6000630040008A9FBE0080057800010578005C
:102F70001B2307004F05BE006400440000A0EC00C6
:102F80001080FB00610060006000E1000C00320076
:102F9000E00220000000450076004000E80140000B
:102FA0006401440069004100104078000080FB008B
:102FB000C800DD006A0041001080FB0080897000BD
:102FC0008B1F78009C0578002E150700CF05780030
:102FD0001C0678009B057800EE040700800078004E
:102FE00001007800010037000800780080007800B8
:102FF00055003700EC004500E002200000004100D1
:10300000760040008C1F78008A9FBE008006780002
:10301000010678000B057800AB5E2000D3060700A0
:103020004F05BE004F0678000000E2004400320069
:103030001B0078007E00400010007800E200400095
:10304000B0002000800878001B0078007E0040005F
:1030500010007800E400400000C2B300804878000F
:103060001B0078007E0040001000780064004000E3
:10307000E100400040C0B3008048780022002000FA
:103080001B0078007E0040001000780064004000C3
:10309000820040001C0078007E0040001000780094
:1030A0006400400002004000904878006A10E1008F
:1030B000020032000420EC00F1FF3700E0022000A3
:1030C00080004500110078006100700080087800E1
:1030D000E002200080004500A00220008080400027
:1030E0000020EF0080487800E002200080004500CA
:1030F00000022000808040001C00780000A0EC004E
:1031000004000900B01878008B1F78009C05780037
:10311000DC140700CF0578008C1F78008B1F780027
:103120001C0678009B0578009A040700CF057800FC
:103130004F06780080007800010078000100370019
:103140000800780080007800850037002E4090004D
:103150006204E10028003A00E0022000000045007F
:10316000F60040001C00780000A0EC008A9FBE0022
:103170008005780001057800CEF407004F05BE00F9
:103180000000E20013003200E002200000004500D1
:1031900076004000E80040000020EF008008780042
:1031A000E002200000004500760140000020EF0012
:1031B0000220EF000089BE00E00220000000450070
:1031C00076004000640140000020EF000220EF0084
:1031D0000089BE008B1F78009C057800A9140700A9
:1031E000CF0578001C0678009B057800690407006D
:1031F000800078005A0037002E4090006304E10000
:1032000047003A001C007800EC00400000A0EC00F1
:103210008C1F78008A9FBE00800678000106780027
:103220000B0578008B5E2000500607004F05BE009E
:103230004F0678000000E200370032001B007800E3
:103240007E0040001000780000017800E20040009D
:10325000B000200080087800E400410000C2B30004
:103260008048780064004100E100400030C0B300B5
:103270008048780064004100E200400010C0B300C4
:1032800080487800E002200000004500F600400081
:103290001B0078007E0040001000780064004000B1
:1032A000630040008A9FBE00800578000105780019
:1032B000882707004F05BE0064004100E900400078
:1032C000E002200000004500760040006800400059
:1032D0000020EC009048780064004100EA004000C3
:1032E000E002200000004500760040006800400039
:1032F000904878008B1F78009C05780061140700C7
:10330000CF0578001C0678009B0578002104070093
:103310008000780001003700880078001000370036
:103320002E4090006404E10009003A008B1F7800F1
:103330009C05780053140700CF0578001C06780020
:103340009B05780013040700800078000400370014
:103350001C0678009B0578000E04070080007800AA
:1033600001007800CF0678004F067800CF0578007E
:103370000080FA0000000600FFFFFF00FFFFFF00D3
:10338000FFFFFF00FFFFFF00FFFFFF00FFFFFF0049
:10339000FFFFFF00FFFFFF00FFFFFF00FFFFFF0039
:1033A000FFFFFF00FFFFFF00FFFFFF00FFFFFF0029
:1033B000FFFFFF00FFFFFF00FFFFFF00FFFFFF0019
:1033C000FFFFFF00FFFFFF00FFFFFF00FFFFFF0009
:1033D000FFFFFF00FFFFFF00FFFFFF00FFFFFF00F9
:1033E000FFFFFF00FFFFFF00FFFFFF00FFFFFF00E9
:1033F000FFFFFF00FFFFFF00FFFFFF00FFFFE900EF
:103400008A1F78002CF807000050E10053003A00B2
:103410007E80450010007800640040001040780075
:103420006104E1004D003A007E8045001000780004
:103430006401400062004100104078000080FB0001
:10344000C800DD00630041001080FB0000807000B8
:1034500000017800821F78008B1F7800000578003B
:10346000EDF70700CF0578004F01780000027800E3
:103470006000E10005003200A00220008000420050
:1034800010C0B3008048780006003700821F780023
:103490008B1F7800352E0700CF0578004F0178008C
:1034A000000278006020E1002B003200E0022000E2
:1034B0000000420068004000020878007E8045005D
:1034C00010007800640040000020EC0010407800FC
:1034D0006104E10008003A00E00220000000420020
:1034E000EA0040007E804500100078006400400043
:1034F0006400400090487800E00220008000420014
:103500000002200080814000628145001200BE0060
:103510008089BE00E00220008000420000022000FE
:1035200000804000E40040006280450064004000EC
:10353000B0187800A0107800E0022000800042005F
:103540000002200000804000E8004000628045004A
:103550006800400090087800000037004F057800B0
:1035600000000600FFFFFF00FFFFFF00FFFFFF005E
:10357000FFFFFF00FFFFFF00FFFFFF00FFFFFF0057
:10358000FFFFFF00FFFFFF00FFFFFF00FFFFFF0047
:10359000FFFFFF00FFFFFF00FFFFFF00FFFFFF0037
:1035A000FFFFFF00FFFFFF00FFFFFF00FFFFFF0027
:1035B000FFFFFF00FFFFFF00FFFFFF00FFFFFF0017
:1035C000FFFFFF00FFFFFF00FFFFFF00FFFFFF0007
:1035D000FFFFFF00FFFFFF00FFFFFF00FFFFFF00F7
:1035E000FFFFFF00FFFFFF00FFFFFF00FFFFFF00E7
:1035F000FFFFFF00FFFFFF00FFFFFF00FFFFE900ED
:10360000080068000000000000000000000000004A
:103610000000200002002000000000002000200028
:1036200000002000000801000000400010007800A9
:103630000000E10001002000000020000000180050
:1036400000000000000038002000000000004000E2
:1036500000002800000060000000000000000000E2
:103660000000A80000002000000000000000000092
:10367000000058000000000000006800000000008A
:10368000000000000000200000006000000030008A
:103690000000000000008800000000000000300072
:1036A0000000200000000000000004008000300046
:1036B000000037000000680001003000000000003A
:1036C0000000060086007800010078000000060077
:1036D000FFFFFF00FFFFFF00FFFFFF00FFFFFF00F6
:1036E000FFFFFF00FFFFFF00FFFFFF00FFFFFF00E6
:1036F000FFFFFF00FFFFFF00FFFFFF00FFFFFF00D6
:10370000FFFFFF00FFFFFF00FFFFFF00FFFFFF00C5
:10371000FFFFFF00FFFFFF00FFFFFF00FFFFFF00B5
:10372000FFFFFF00FFFFFF00FFFFFF00FFFFFF00A5
:10373000FFFFFF00FFFFFF00FFFFFF00FFFFFF0095
:10374000FFFFFF00FFFFFF00FFFFFF00FFFFFF0085
:10375000FFFFFF00FFFFFF00FFFFFF00FFFFFF0075
:10376000FFFFFF00FFFFFF00FFFFFF00FFFFFF0065
:10377000FFFFFF00FFFFFF00FFFFFF00FFFFFF0055
:10378000FFFFFF00FFFFFF00FFFFFF00FFFFFF0045
:10379000FFFFFF00FFFFFF00FFFFFF00FFFFFF0035
:1037A000FFFFFF00FFFFFF00FFFFFF00FFFFFF0025
:1037B000FFFFFF00FFFFFF00FFFFFF00FFFFFF0015
:1037C000FFFFFF00FFFFFF00FFFFFF00FFFFFF0005
:1037D000FFFFFF00FFFFFF00FFFFFF00FFFFFF00F5
:1037E000FFFFFF00FFFFFF00FFFFFF00FFFFFF00E5
:1037F000FFFFFF00FFFFFF00FFFFFF00FFFFE900EB
:103800000000000000002000200001000000300047
:103810000000680000000000000000001000200010
:1038200000000000000045000000400000002000F3
:1038300000000000100020000000C1000000040093
:1038400010004000000040000000440080083800E4
:103850000000200000005800000005000A053800A4
:103860000000600001000200000020000000450090
:1038700000004000000068008000400002000000DE
:103880000010A000000030000000680008F30700EE
:103890000000BA00000002000A0032001000200000
:1038A0000028DD00808045000020EF0080087800BF
:1038B000F4804500110078000020ED0080087800B9
:1038C000020037000A20EC00D2FF3700000006009B
:1038D000FFFFFF00FFFFFF00FFFFFF00FFFFFF00F4
:1038E000FFFFFF00FFFFFF00FFFFFF00FFFFFF00E4
:1038F000FFFFFF00FFFFFF00FFFFFF00FFFFFF00D4
:10390000FFFFFF00FFFFFF00FFFFFF00FFFFFF00C3
:10391000FFFFFF00FFFFFF00FFFFFF00FFFFFF00B3
:10392000FFFFFF00FFFFFF00FFFFFF00FFFFFF00A3
:10393000FFFFFF00FFFFFF00FFFFFF00FFFFFF0093
:10394000FFFFFF00FFFFFF00FFFFFF00FFFFFF0083
:10395000FFFFFF00FFFFFF00FFFFFF00FFFFFF0073
:10396000FFFFFF00FFFFFF00FFFFFF00FFFFFF0063
:10397000FFFFFF00FFFFFF00FFFFFF00FFFFFF0053
:10398000FFFFFF00FFFFFF00FFFFFF00FFFFFF0043
:10399000FFFFFF00FFFFFF00FFFFFF00FFFFFF0033
:1039A000FFFFFF00FFFFFF00FFFFFF00FFFFFF0023
:1039B000FFFFFF00FFFFFF00FFFFFF00FFFFFF0013
:1039C000FFFFFF00FFFFFF00FFFFFF00FFFFFF0003
:1039D000FFFFFF00FFFFFF00FFFFFF00FFFFFF00F3
:1039E000FFFFFF00FFFFFF00FFFFFF00FFFFFF00E3
:1039F000FFFFFF00FFFFFF00FFFFFF00FFFFE900E9
:103A00000A00400080002000000400008000000048
:103A1000000030000000400000000000800278003C
:103A2000E400400000C2B300804878006480420097
:103A3000E100400060C8B300804878006480420024
:103A400000A0EC0090457800F6F507000000E200C9
:103A50000500320064804200E10040001180FB005C
:103A600061007000804878006480420000A0EC0093
:103A70006480420000A0EC009045780032F207001C
:103A80000003BE0064804200630240004839DE004B
:103A90008001EB00F00F2000010020000000610019
:103AA000004A780064804200640240000701780008
:103AB0008001EB00F00F20000100200000006100F9
:103AC000004A780064804200650240004831DE0010
:103AD000C839DD0003017100C839DE00F00F200095
:103AE0000100200000006100004A7800648042006C
:103AF00066014000F00F200001002000000063007C
:103B0000004978006480420000A0EC0090457800F5
:103B1000D0F207000000E20005003200648042009D
:103B2000E700400010C0B300804878000400370070
:103B300064804200E70040000020EF0080487800E9
:103B4000E28042008000200080087800C00420004D
:103B50008080420010C0B30080487800CF05780014
:103B600000000600FFFFFF00FFFFFF00FFFFFF0058
:103B7000FFFFFF00FFFFFF00FFFFFF00FFFFFF0051
:103B8000FFFFFF00FFFFFF00FFFFFF00FFFFFF0041
:103B9000FFFFFF00FFFFFF00FFFFFF00FFFFFF0031
:103BA000FFFFFF00FFFFFF00FFFFFF00FFFFFF0021
:103BB000FFFFFF00FFFFFF00FFFFFF00FFFFFF0011
:103BC000FFFFFF00FFFFFF00FFFFFF00FFFFFF0001
:103BD000FFFFFF00FFFFFF00FFFFFF00FFFFFF00F1
:103BE000FFFFFF00FFFFFF00FFFFFF00FFFFFF00E1
:103BF000FFFFFF00FFFFFF00FFFFFF00FFFFE900E7
:103C00000800400000002800000000000000400004
:103C100000000000000000000000000000000000A4
:103C200000002000000038000000000001004000FB
:103C300000C0030000003800000040001000320007
:103C40000800600060004000100030006400400088
:103C5000600040000080B300800068000000400069
:103C60000000400000004300000078000000410018
:103C7000C000400000009200800070004000410041
:103C80000000400080813200000040000000410040
:103C9000800040008002310000007000040030000D
:103CA00004004000600040000080B3008000680015
:103CB00040004100610040000000EB00800068000F
:103CC000000041000000000000002000800078009B
:103CD00000004000850040000000310080005000DE
:103CE00004004000E2000000800230000000780084
:103CF000E000000000000000000040000000200084
:103D0000800040000080A200000068000000000069
:103D1000129160006038E10005003600E0022000EA
:103D200000004500640040001098720010107300FD
:103D30007D40E10060C8E1001A0031006540E1000B
:103D400060C8E1000B003100E002200000004500E7
:103D5000640140001200BE0061006000E08060006D
:103D60006000E1006088E10001003A0000003700D7
:103D70000B0037006940E10060C8E100010031003C
:103D8000070037006D40E10060C8E100010031002C
:103D9000030037007540E10060C8E1000000310019
:103DA000000037008B1F78009C0578009C110700ED
:103DB000CF0578001C0678009B0578005C010700A1
:103DC0004F067800CF05780000000600FFFFFF00D7
:103DD000FFFFFF00FFFFFF00FFFFFF00FFFFFF00EF
:103DE000FFFFFF00FFFFFF00FFFFFF00FFFFFF00DF
:103DF000FFFFFF00FFFFFF00FFFFFF00FFFFE900E5
:103E00000600FA008B1F78008C1F78000020EF005E
:103E1000800D7800E002200000004500F600400020
:103E20001C00780000A0EC008A9FBE00800578008E
:103E30000105780093F107004F05BE000000E20085
:103E40005F003200E002200000004500E201400077
:103E50001C0078007E0040001000780064014000E3
:103E600061004100104078000080FB00C800DD00C8
:103E7000620041001080FB00008070008009780023
:103E8000E002200000004500E201400093007800BD
:103E90000000280000816000010028006000470049
:103EA0000110E1000008EB00010032001088EA0078
:103EB00093007800F0FF2700008060008C1F7800DE
:103EC0008A9FBE000005780053F207004F05BE0030
:103ED0004F0678000001BE00E0022000000045000F
:103EE0006A00400020079800104078006E04E1004E
:103EF0000C003A008C1F78008A9FBE0090C22500FB
:103F0000F1E02300B7F107004F05BE004F0678002F
:103F1000600047001000E0000100320000003700A0
:103F2000230037002E009000104078007C04E10050
:103F30000C003A008C1F78008A9FBE0090C22500BA
:103F4000F1E82300A7F107004F05BE004F067800F7
:103F5000600047001000E000010032000000370060
:103F6000130037002E0090009040780000C8B30086
:103F7000000CE1000E003A008C1F78008A9FBE0002
:103F8000C0F5280021FA230096F1070035F4070058
:103F90004F05BE004F0678006000E10000003600CB
:103FA000600047001000E000000032000000370011
:103FB0008B1F78009C05780026110700CF0578003C
:103FC0001C0678009B057800E60007004F06780085
:103FD000CF0578000080FA0000000600FFFFFF0018
:103FE000FFFFFF00FFFFFF00FFFFFF00FFFFFF00DD
:103FF000FFFFFF00FFFFFF00FFFFFF00FFFFE900E3
:104000008B1F78008C1F78008D1F78000C20EF002C
:104010000020EF00800D78001C007800EC004000CC
:1040200000A0EC008C1F78008A9FBE0080067800FC
:10403000010678000B0578008B5E2000C80207009F
:104040004F05BE004F0678000000E2004B00320032
:104050001B0078007E00400010007800E400400063
:1040600000C1B300804878001B0078007E0040004B
:104070001000780064004000E1004000E0022000F1
:104080000000450000A0EC000020EC009048780003
:104090001B0078007E0040001000780064004000A3
:1040A000E2004000E00220000000450000A0EC001B
:1040B000904878001B0078007E00400010007800D7
:1040C00064004000E30040000020EF0080487800DA
:1040D0001B0078007E004000100078006400400063
:1040E000E4004000F0CFB300804878001B00780067
:1040F0007E0040001000780064004000E5004000B1
:10410000F0CFB300804878001B0078007E004000AC
:104110001000780064004000E6004000F0CFB300DB
:10412000804878001B0078007E0040001000780076
:1041300064004000E7004000F0CFB3008048780002
:104140001B0078007E00400010007800E200400074
:1041500080002000800878008B1F78009C05780084
:10416000C5100700CF0578001C0678009B05780075
:104170008500070080007800010037008600780085
:1041800001007800CF0678004F067800CF05780050
:1041900000000600FFFFFF00FFFFFF00FFFFFF0022
:1041A000FFFFFF00FFFFFF00FFFFFF00FFFFFF001B
:1041B000FFFFFF00FFFFFF00FFFFFF00FFFFFF000B
:1041C000FFFFFF00FFFFFF00FFFFFF00FFFFFF00FB
:1041D000FFFFFF00FFFFFF00FFFFFF00FFFFFF00EB
:1041E000FFFFFF00FFFFFF00FFFFFF00FFFFFF00DB
:1041F000FFFFFF00FFFFFF00FFFFFF00FFFFE900E1
:104200008B1F78008C1F78000020EF00800D780055
:10421000E002200000004500F60040001C0078008D
:1042200000A0EC008A9FBE008005780001057800A0
:10423000B8F007004F05BE000000E2003200320077
:10424000E00220000000450000A0EC009000780093
:104250000000280080806000000028000008E100C5
:104260000020EF000100320000A0EE000001780005
:104270000000E20006003200E002200000004500DD
:10428000E20040000020EF008008780005003700C1
:10429000E002200000004500E2004000000028008D
:1042A00080087800E002200000004500EA0040009D
:1042B000114078006E04E10001003A00030037006D
:1042C000114078007C04E10004003A000400E200A0
:1042D00001003200000037000700370091407800ED
:1042E00000C8B300000CE10003003A000400E20043
:1042F00000003200000037008B1F78009C0578001A
:1043000078100700CF0578001C0678009B05780020
:10431000380007004F067800CF057800000006003F
:10432000FFFFFF00FFFFFF00FFFFFF00FFFFFF0099
:10433000FFFFFF00FFFFFF00FFFFFF00FFFFFF0089
:10434000FFFFFF00FFFFFF00FFFFFF00FFFFFF0079
:10435000FFFFFF00FFFFFF00FFFFFF00FFFFFF0069
:10436000FFFFFF00FFFFFF00FFFFFF00FFFFFF0059
:10437000FFFFFF00FFFFFF00FFFFFF00FFFFFF0049
:10438000FFFFFF00FFFFFF00FFFFFF00FFFFFF0039
:10439000FFFFFF00FFFFFF00FFFFFF00FFFFFF0029
:1043A000FFFFFF00FFFFFF00FFFFFF00FFFFFF0019
:1043B000FFFFFF00FFFFFF00FFFFFF00FFFFFF0009
:1043C000FFFFFF00FFFFFF00FFFFFF00FFFFFF00F9
:1043D000FFFFFF00FFFFFF00FFFFFF00FFFFFF00E9
:1043E000FFFFFF00FFFFFF00FFFFFF00FFFFFF00D9
:1043F000FFFFFF00FFFFFF00FFFFFF00FFFFE900DF
:1044000000000000000000000000000000000000AC
:10441000000000000000000000000000000020007C
:10442000000000000000000000000000000020006C
:10443000000000000000200000000000000022003A
:1044400000000000000038002000000000004000D4
:1044500000006800020040000020070080082000E3
:104460000000000000002100000040000000A1004A
:104470000000300000800000000068001000800094
:1044800001000000400001000000410000000000A9
:104490000084000000000000202020000000370001
:1044A000000000000000300000006800C280010031
:1044B0000000300000006800800078004D053000EA
:1044C00000000000140037006280410010007800F6
:1044D0007B00E1000F0031002420200094018800BF
:1044E00064804100E280410011014000D0C22A00F6
:1044F0009100400000000000114078000049780061
:10450000E2804100110078000020EC008008780073
:10451000EDFF370003017800E40041006200410034
:104520009080400010C0B30080487800E200410055
:10453000110078000020EC00800878000620EF00D1
:104540006218E1000B003D00E40041006200410000
:10455000908040000020EF0080487800E200410099
:10456000110078000020EC00800878000620EC00A4
:10457000F3FF37008B1F78009B05780070FF070062
:10458000CF057800800078000100370086007800B1
:1045900001007800CF06780000000600FFFFFF0052
:1045A000FFFFFF00FFFFFF00FFFFFF00FFFFFF0017
:1045B000FFFFFF00FFFFFF00FFFFFF00FFFFFF0007
:1045C000FFFFFF00FFFFFF00FFFFFF00FFFFFF00F7
:1045D000FFFFFF00FFFFFF00FFFFFF00FFFFFF00E7
:1045E000FFFFFF00FFFFFF00FFFFFF00FFFFFF00D7
:1045F000FFFFFF00FFFFFF00FFFFFF00FFFFE900DD
:1046000000002000000000000000680000003800EA
:104610000000000000202A00000000000000000050
:10462000000000007E0046009000780081017800C4
:10463000C00420000080400010407800004F980027
:104640006004E10094003A006480410090407800EA
:1046500000C2B300000CE1008A003A00648041000F
:104660000020EC009080FB00000F200080806000A4
:1046700031079800000420000008E10003003A0020
:104680008C05780002F60700F500370001052000D0
:104690003E0090000100E10003003A008C05780024
:1046A0001BF40700EE003700810520003E0090005B
:1046B0000100E10003003A008C05780059F307007F
:1046C000E7003700010620003E0090000100E100F5
:1046D00003003A008C0578004BF30700E000370038
:1046E000010320003E0090000100E10003003A00B9
:1046F0008C05780056F30700D90037003E00900083
:104700006000E10003003A008C05780057F30700D1
:10471000D30037003E0090007000E10003003A0033
:104720008C057800E4FC0700CD0037003E009000C7
:104730007800E10003003A008C057800D3FC070004
:10474000C7003700010220003E0090000100E10098
:1047500003003A008C05780026FD0700C0003700F2
:10476000010820003E0090000100E10040003A00F6
:10477000648041000020EC00904078006147980080
:1047800000C8B300000CE10003003A008C0578007B
:10479000D4FC0700B200370041C8B3006E4090005F
:1047A0000104E10003003A008C0578005EFC07007C
:1047B000AB00370081C8B3006E4090000104E100F7
:1047C00003003A008C05780042FC0700A400370083
:1047D000C1C8B3006E4090000104E10003003A003C
:1047E0008C05780034FC07009D00370001CAB30037
:1047F0006E4090000104E10003003A008C0568005F
:1048000042FC07009600370041CAB3006E4090009A
:104810000104E10003003A008C05780034FC070035
:104820008F00370081CAB3006E4090000104E100A0
:1048300003003A008C057800F5FC0700880037007B
:1048400091CAB3006E4090000104E10003003A00F9
:104850008C057800BEFE070081003700C0042000F0
:104860008080410050C0B300804878007C00370051
:10487000C00420008080410050C0B3008048780010
:1048800077003700C00420008080410050C0B30092
:1048900080487800720037000E4890006104E10003
:1048A00023003A00E20046006C004600831F7800B7
:1048B0008B1F780080067800010678000B057800D1
:1048C0008BA220000020EF00801F780090110700CD
:1048D0002F00B100CF057800CF0178000000E20082
:1048E000120032001B0078007E00400010007800AB
:1048F000E200400010002000800878001B007800D3
:104900007E00400010007800E40040000020EF002E
:1049100080487800F0FF2F0000079800C0042000B6
:104920008080410020C0B300804878004C003700F0
:104930000E4890006204E10013003A00F50E0700F3
:104940000000E2000F003200831F78008C1F780007
:104950001620EF000C057800BE2207004F067800F5
:10496000CF01780000022000800046000020EF0008
:1049700080087800C00420008080410040C0B3005F
:1049800080487800360037000E4890006304E1004C
:104990001D003A00EC004600620046008C1F7800C3
:1049A0008A9FBE0080067800010678000B0578001B
:1049B0008BA220000020EF00801F78005411070018
:1049C0002F00B1004F05BE004F0678000000E20046
:1049D0000C0032001B0078007E00400010007800C0
:1049E000E200400010002000800878008C0578006C
:1049F000E20307000C057800280C0700F0FF2F00E9
:104A000000079800160037000E4990006414E1007A
:104A10000A003A0000022000000046001000780062
:104A20006300E10004003600C004200080804100E3
:104A300050C0B30080487800090037006514E100D9
:104A400007003A008C057800CC0307008C0578003D
:104A50009A0307000C057800100C070000003700CF
:104A60000E009000CF0678004F067800CF05780042
:104A70004F0578000080FA0000000600FFFFFF00ED
:104A8000FFFFFF00FFFFFF00FFFFFF00FFFFFF0032
:104A9000FFFFFF00FFFFFF00FFFFFF00FFFFFF0022
:104AA000FFFFFF00FFFFFF00FFFFFF00FFFFFF0012
:104AB000FFFFFF00FFFFFF00FFFFFF00FFFFFF0002
:104AC000FFFFFF00FFFFFF00FFFFFF00FFFFFF00F2
:104AD000FFFFFF00FFFFFF00FFFFFF00FFFFFF00E2
:104AE000FFFFFF00FFFFFF00FFFFFF00FFFFFF00D2
:104AF000FFFFFF00FFFFFF00FFFFFF00FFFFFF00C2
:104B0000FFFFFF00FFFFFF00FFFFFF00FFFFFF00B1
:104B1000FFFFFF00FFFFFF00FFFFFF00FFFFFF00A1
:104B2000FFFFFF00FFFFFF00FFFFFF00FFFFFF0091
:104B3000FFFFFF00FFFFFF00FFFFFF00FFFFFF0081
:104B4000FFFFFF00FFFFFF00FFFFFF00FFFFFF0071
:104B5000FFFFFF00FFFFFF00FFFFFF00FFFFFF0061
:104B6000FFFFFF00FFFFFF00FFFFFF00FFFFFF0051
:104B7000FFFFFF00FFFFFF00FFFFFF00FFFFFF0041
:104B8000FFFFFF00FFFFFF00FFFFFF00FFFFFF0031
:104B9000FFFFFF00FFFFFF00FFFFFF00FFFFFF0021
:104BA000FFFFFF00FFFFFF00FFFFFF00FFFFFF0011
:104BB000FFFFFF00FFFFFF00FFFFFF00FFFFFF0001
:104BC000FFFFFF00FFFFFF00FFFFFF00FFFFFF00F1
:104BD000FFFFFF00FFFFFF00FFFFFF00FFFFFF00E1
:104BE000FFFFFF00FFFFFF00FFFFFF00FFFFFF00D1
:104BF000FFFFFF00FFFFFF00FFFFFF00FFFFE900D7
:104C0000000000000000000000000800000000009C
:104C1000000000000000000000002800000020004C
:104C20000000000000000000000000000000200064
:104C300000000000000068000000220000002000CA
:104C4000000038000000000000000000000000002C
:104C50000000040000003000440460001800380028
:104C6000000040000000900000004000E0800500CF
:104C70000000000002003600800678000204780080
:104C8000890A0000000578000020EF00000D780080
:104C90000A0000000000B000000006000000E20072
:104CA000470032000E0090007E00400010007800A7
:104CB000E200400030002000800878000E009000E4
:104CC0007E00400010007800E400400000C2B30005
:104CD000804878000E0090007E00400010007800B0
:104CE00064004000E100400010C0B300804878003C
:104CF0000E0090007E00400010007800640040002C
:104D0000E20040007E804500100078006400400012
:104D100000A0EC00904878000E0090007E0040005B
:104D2000100078006400400000A0EC001040780003
:104D30006004E10007003A00E002200000014500A5
:104D4000F6004100000220000000410004000900BC
:104D5000B0187800E002200080004500000220002A
:104D600000814000C1CA2A002020200032A0B700E4
:104D7000000000000300090031197800E002200063
:104D8000800045000002200000804000E800400054
:104D90000020EF0080087800E002200000014500BC
:104DA00092007800E00F2000008060000009780089
:104DB00053F607000B0678001620EF0073FD07007E
:104DC000040037004EF607000B0678001620EF00AF
:104DD0006EFD0700CF0678004F067800CF057800FB
:104DE0000080FA0000000600FFFFFF00FFFFFF0049
:104DF000FFFFFF00FFFFFF00FFFFFF00FFFFE900D5
:104E00000000780000002800000000000200000000
:104E10000000E0000200020000000000800020000E
:104E2000000000002000070000006000000060009B
:104E3000020002000000000000002200000000004C
:104E4000000078000000780000000600801F780055
:104E5000410B07002F00B1004F0578001A007800C1
:104E6000FE0040001E00900080087800F0FF2F0038
:104E700000079800060037008A1F78001A0578009E
:104E8000FA0A07004F0578000020EF00000D7800B7
:104E90000E0090000080FA0000000600FFFFFF00F7
:104EA000FFFFFF00FFFFFF00FFFFFF00FFFFFF000E
:104EB000FFFFFF00FFFFFF00FFFFFF00FFFFFF00FE
:104EC000FFFFFF00FFFFFF00FFFFFF00FFFFFF00EE
:104ED000FFFFFF00FFFFFF00FFFFFF00FFFFFF00DE
:104EE000FFFFFF00FFFFFF00FFFFFF00FFFFFF00CE
:104EF000FFFFFF00FFFFFF00FFFFFF00FFFFFF00BE
:104F0000FFFFFF00FFFFFF00FFFFFF00FFFFFF00AD
:104F1000FFFFFF00FFFFFF00FFFFFF00FFFFFF009D
:104F2000FFFFFF00FFFFFF00FFFFFF00FFFFFF008D
:104F3000FFFFFF00FFFFFF00FFFFFF00FFFFFF007D
:104F4000FFFFFF00FFFFFF00FFFFFF00FFFFFF006D
:104F5000FFFFFF00FFFFFF00FFFFFF00FFFFFF005D
:104F6000FFFFFF00FFFFFF00FFFFFF00FFFFFF004D
:104F7000FFFFFF00FFFFFF00FFFFFF00FFFFFF003D
:104F8000FFFFFF00FFFFFF00FFFFFF00FFFFFF002D
:104F9000FFFFFF00FFFFFF00FFFFFF00FFFFFF001D
:104FA000FFFFFF00FFFFFF00FFFFFF00FFFFFF000D
:104FB000FFFFFF00FFFFFF00FFFFFF00FFFFFF00FD
:104FC000FFFFFF00FFFFFF00FFFFFF00FFFFFF00ED
:104FD000FFFFFF00FFFFFF00FFFFFF00FFFFFF00DD
:104FE000FFFFFF00FFFFFF00FFFFFF00FFFFFF00CD
:104FF000FFFFFF00FFFFFF00FFFFFF00FFFFE900D3
:105000000200FA008D1F78001020EF000020EF0052
:10501000800D78001C007800EC00400000A0EC003F
:105020008C1F78008A9FBE008006780001067800F9
:105030000B0578008B6620000020EF00801F7800B1
:10504000001007002F00B1004F05BE004F0678008A
:105050000000E2006B0032000420EF001B0078002B
:105060007E00400010007800640040008200400094
:105070000020EF00804878006710E1000200320055
:105080000420EC00F5FF3700610045001080FB00B4
:10509000680060006000E100290032000C20EF0091
:1050A0000020EF00000798001B0078007E00400001
:1050B000100078006400400086024000050278007D
:1050C00061002000600047001009B800A0BD2A0060
:1050D00002004000860040002020200032A0B700DF
:1050E00000000000114078009480FB000080FB006D
:1050F00000807000804A78000E0090006800E10097
:1051000004003200110020006000470010884000B9
:10511000E5FF37006530E100020032000C20EC00B2
:10512000DFFF37001B0078007E0040001000780091
:10513000E20040006000200080087800280037006E
:105140000C20EF000020EF0000079800292020002D
:10515000990188001B0078007E0040001000780054
:1051600064004000860240000502780061002000D3
:10517000600047001009B80040BA2A000200400051
:105180008600400000000000114078009480FB0081
:105190000080FB0000807000804A78000E009000C4
:1051A0006800E100040032001100200060004700A8
:1051B00010884000E5FF37006530E1000200320052
:1051C0000C20EC00DFFF37001B0078007E00400061
:1051D00010007800E20040006000200080087800A5
:1051E0008C1F78008B1F78001C0678009B057800C8
:1051F000A7FC0700CF0578004F06780080007800F4
:10520000000010000000200000000000000040002E
:10521000000000000000000000000000000040004E
:1052200000000000000048000000400000400000B6
:105230000000000060004100020038000001000092
:10524000220007004E001000200020000000020095
:10525000300A0000200007000C001000020460006B
:105260000200380000040000000030000C40000084
:105270002000A1000000020099FB070000051800B3
:105280001E0007004E0010004104600003003800BB
:105290000B040000000098000000060001C2B300EB
:1052A0004E4090000104E10003003A0009F70700B6
:1052B000000798001100370001C3B3004E40900072
:1052C0000104E10003003A00E6F607000007980039
:1052D0000A00370001C4B3004E4090000104E10011
:1052E00003003A0075F50700000798000300370037
:1052F0001C0678009B0578005BFC07000E00900000
:105300004F067800CF0578000080FA000000060004
:10531000FFFFFF00FFFFFF00FFFFFF00FFFFFF0099
:10532000FFFFFF00FFFFFF00FFFFFF00FFFFFF0089
:10533000FFFFFF00FFFFFF00FFFFFF00FFFFFF0079
:10534000FFFFFF00FFFFFF00FFFFFF00FFFFFF0069
:10535000FFFFFF00FFFFFF00FFFFFF00FFFFFF0059
:10536000FFFFFF00FFFFFF00FFFFFF00FFFFFF0049
:10537000FFFFFF00FFFFFF00FFFFFF00FFFFFF0039
:10538000FFFFFF00FFFFFF00FFFFFF00FFFFFF0029
:10539000FFFFFF00FFFFFF00FFFFFF00FFFFFF0019
:1053A000FFFFFF00FFFFFF00FFFFFF00FFFFFF0009
:1053B000FFFFFF00FFFFFF00FFFFFF00FFFFFF00F9
:1053C000FFFFFF00FFFFFF00FFFFFF00FFFFFF00E9
:1053D000FFFFFF00FFFFFF00FFFFFF00FFFFFF00D9
:1053E000FFFFFF00FFFFFF00FFFFFF00FFFFFF00C9
:1053F000FFFFFF00FFFFFF00FFFFFF00FFFFE900CF
:105400000000FA0000006800000020000004800096
:105410002000200000002600600007000000680057
:10542000000798000000200000008000000000003D
:10543000020000004000400000004000000020008A
:1054400002003000000000000000400000004100A9
:105450000000040010008000020030000000800006
:105460000000070000000000610041000000020091
:105470001000200000000200000040000101300088
:105480000400780000002200000002000000160066
:1054900000006000020010000000E80000000500AD
:1054A000800048000000360008202700C5062800BC
:1054B0000000EA000000000026202000960188007D
:1054C000600020000401B800A0BD2A008200400056
:1054D000600047009080400000000000914078008C
:1054E0006000470010804500100CE100020032000F
:1054F0000020EF00080037000E0090006500E1007A
:10550000040032008E009000600047006188400077
:10551000E9FF3700050078000000E20001003200DA
:10552000040037006820E100020032000820EC008F
:10553000DEFF370080007800010078000080FA006C
:1055400000000600FFFFFF00FFFFFF00FFFFFF005E
:10555000FFFFFF00FFFFFF00FFFFFF00FFFFFF0057
:10556000FFFFFF00FFFFFF00FFFFFF00FFFFFF0047
:10557000FFFFFF00FFFFFF00FFFFFF00FFFFFF0037
:10558000FFFFFF00FFFFFF00FFFFFF00FFFFFF0027
:10559000FFFFFF00FFFFFF00FFFFFF00FFFFFF0017
:1055A000FFFFFF00FFFFFF00FFFFFF00FFFFFF0007
:1055B000FFFFFF00FFFFFF00FFFFFF00FFFFFF00F7
:1055C000FFFFFF00FFFFFF00FFFFFF00FFFFFF00E7
:1055D000FFFFFF00FFFFFF00FFFFFF00FFFFFF00D7
:1055E000FFFFFF00FFFFFF00FFFFFF00FFFFFF00C7
:1055F000FFFFFF00FFFFFF00FFFFFF00FFFFE900CD
:105600000800FA000020EF0000008800000C600095
:1056100008003800600041000000010090007800A0
:1056200020000000000058000000080000004000BA
:10563000020030000001400060000100000178001D
:10564000000042000200300001000900200030008C
:1056500000006000000020000000680060E400001E
:1056600000004000000060001C0038000000200026
:1056700000001D0020000100000040000000780034
:105680000C0040000000400010000000030060001B
:105690000100380000002000000010002000010080
:1056A00000004000000078000020040000007800A6
:1056B000000060000000200004003800000020000E
:1056C00000005800A0C72100010000001000780071
:1056D000000088000000300002202100000030009F
:1056E0000000680000803200000006000820EF0083
:1056F00070E48000E10150000320E1002E003C0036
:10570000100020008020DD00A0C721000100400023
:10571000100078006C004000B00078002001780094
:10572000620047003008E1002090E1001E003A00CE
:10573000100020008020DD00A0C7210001004000F3
:10574000100078006C00400064004000B000780059
:1057500020017800660047003008E1002090E10059
:1057600011003A00100020008020DD00A0C72100B9
:1057700001004000100078000020EC001080FB00C9
:10578000700060006000E10007003A001000200097
:105790008020DD00A0C7210001004000100078003B
:1057A00000079800040037000320E10002003200E7
:1057B0000820EC00CEFF37000E0090000080FA00B9
:1057C00000000600FFFFFF00FFFFFF00FFFFFF00DC
:1057D000FFFFFF00FFFFFF00FFFFFF00FFFFFF00D5
:1057E000FFFFFF00FFFFFF00FFFFFF00FFFFFF00C5
:1057F000FFFFFF00FFFFFF00FFFFFF00FFFFE900CB
:1058000000002000000040000000300000006000A8
:105810000000000000002000000000000800000060
:1058200000000000000020000000410010003800CF
:1058300060004000000040000000600000003000F8
:105840000000400000000000C905300000004000DA
:1058500008003000000006006280450080057800E6
:1058600001057800F8EA07000000E20001003200BC
:105870000C0798000E009000CF0578004F057800C7
:105880000080FA0000000600FFFFFF00FFFFFF009E
:10589000FFFFFF00FFFFFF00FFFFFF00FFFFFF0014
:1058A000FFFFFF00FFFFFF00FFFFFF00FFFFFF0004
:1058B000FFFFFF00FFFFFF00FFFFFF00FFFFFF00F4
:1058C000FFFFFF00FFFFFF00FFFFFF00FFFFFF00E4
:1058D000FFFFFF00FFFFFF00FFFFFF00FFFFFF00D4
:1058E000FFFFFF00FFFFFF00FFFFFF00FFFFFF00C4
:1058F000FFFFFF00FFFFFF00FFFFFF00FFFFFF00B4
:10590000FFFFFF00FFFFFF00FFFFFF00FFFFFF00A3
:10591000FFFFFF00FFFFFF00FFFFFF00FFFFFF0093
:10592000FFFFFF00FFFFFF00FFFFFF00FFFFFF0083
:10593000FFFFFF00FFFFFF00FFFFFF00FFFFFF0073
:10594000FFFFFF00FFFFFF00FFFFFF00FFFFFF0063
:10595000FFFFFF00FFFFFF00FFFFFF00FFFFFF0053
:10596000FFFFFF00FFFFFF00FFFFFF00FFFFFF0043
:10597000FFFFFF00FFFFFF00FFFFFF00FFFFFF0033
:10598000FFFFFF00FFFFFF00FFFFFF00FFFFFF0023
:10599000FFFFFF00FFFFFF00FFFFFF00FFFFFF0013
:1059A000FFFFFF00FFFFFF00FFFFFF00FFFFFF0003
:1059B000FFFFFF00FFFFFF00FFFFFF00FFFFFF00F3
:1059C000FFFFFF00FFFFFF00FFFFFF00FFFFFF00E3
:1059D000FFFFFF00FFFFFF00FFFFFF00FFFFFF00D3
:1059E000FFFFFF00FFFFFF00FFFFFF00FFFFFF00C3
:1059F000FFFFFF00FFFFFF00FFFFFF00FFFFE900C9
:105A000040000000000040001000300000002000B6
:105A100000000000000000000000410000005800ED
:105A20000000600000002200000020000000400094
:105A3000000068000000400000004000908041002D
:105A40000000EB00000060000000300000002000BB
:105A500000004400000040001000780000004000FA
:105A6000000070000000600000000600010032002D
:105A700002A0EE000B10E1000020EF000100320058
:105A800000A0EE0000806000070032008201780074
:105A90007800410010017800F88045000020EF00F8
:105AA00080087800EFFF37006010E100030032004B
:105AB000F88041007800410090087800000006005E
:105AC000FFFFFF00FFFFFF00FFFFFF00FFFFFF00E2
:105AD000FFFFFF00FFFFFF00FFFFFF00FFFFFF00D2
:105AE000FFFFFF00FFFFFF00FFFFFF00FFFFFF00C2
:105AF000FFFFFF00FFFFFF00FFFFFF00FFFFFF00B2
:105B0000FFFFFF00FFFFFF00FFFFFF00FFFFFF00A1
:105B1000FFFFFF00FFFFFF00FFFFFF00FFFFFF0091
:105B2000FFFFFF00FFFFFF00FFFFFF00FFFFFF0081
:105B3000FFFFFF00FFFFFF00FFFFFF00FFFFFF0071
:105B4000FFFFFF00FFFFFF00FFFFFF00FFFFFF0061
:105B5000FFFFFF00FFFFFF00FFFFFF00FFFFFF0051
:105B6000FFFFFF00FFFFFF00FFFFFF00FFFFFF0041
:105B7000FFFFFF00FFFFFF00FFFFFF00FFFFFF0031
:105B8000FFFFFF00FFFFFF00FFFFFF00FFFFFF0021
:105B9000FFFFFF00FFFFFF00FFFFFF00FFFFFF0011
:105BA000FFFFFF00FFFFFF00FFFFFF00FFFFFF0001
:105BB000FFFFFF00FFFFFF00FFFFFF00FFFFFF00F1
:105BC000FFFFFF00FFFFFF00FFFFFF00FFFFFF00E1
:105BD000FFFFFF00FFFFFF00FFFFFF00FFFFFF00D1
:105BE000FFFFFF00FFFFFF00FFFFFF00FFFFFF00C1
:105BF000FFFFFF00FFFFFF00FFFFFF00FFFFE900C7
:105C0000000068000000680000004000600005001F
:105C100000000000020040000000400000004000C2
:105C20000000000020000000000000000000400014
:105C30000000000000004000000000000000000024
:105C400000000000000000000000400000004000D4
:105C500000000000200000000000400000000200E2
:105C60002000000000084100000040000002400049
:105C7000F8FF2F000405100040F20700050078002F
:105C800010003700600047001080FB004100DE007C
:105C9000004798000E0090006700E1000400320009
:105CA000110020006000470010884000E4FF37002A
:105CB00003007800000030000100300000006000A8
:105CC000000020000100000002202400000010005D
:105CD00040063000800078000000780000000000DE
:105CE000CF0578000080FA0000000600FFFFFF00EB
:105CF000FFFFFF00FFFFFF00FFFFFF00FFFFFF00B0
:105D0000FFFFFF00FFFFFF00FFFFFF00FFFFFF009F
:105D1000FFFFFF00FFFFFF00FFFFFF00FFFFFF008F
:105D2000FFFFFF00FFFFFF00FFFFFF00FFFFFF007F
:105D3000FFFFFF00FFFFFF00FFFFFF00FFFFFF006F
:105D4000FFFFFF00FFFFFF00FFFFFF00FFFFFF005F
:105D5000FFFFFF00FFFFFF00FFFFFF00FFFFFF004F
:105D6000FFFFFF00FFFFFF00FFFFFF00FFFFFF003F
:105D7000FFFFFF00FFFFFF00FFFFFF00FFFFFF002F
:105D8000FFFFFF00FFFFFF00FFFFFF00FFFFFF001F
:105D9000FFFFFF00FFFFFF00FFFFFF00FFFFFF000F
:105DA000FFFFFF00FFFFFF00FFFFFF00FFFFFF00FF
:105DB000FFFFFF00FFFFFF00FFFFFF00FFFFFF00EF
:105DC000FFFFFF00FFFFFF00FFFFFF00FFFFFF00DF
:105DD000FFFFFF00FFFFFF00FFFFFF00FFFFFF00CF
