:10000000900A040000000000000000000000000052
:1000100000000000000000000000000000000000E0
:1000200000000000000000000000000000000000D0
:10003000000000008809000000000000000000002F
:100040000000000000000000320A00000000000074
:1000500000000000000000000000000000000000A0
:100060000000000000000000000000000000000090
:1000700000000000220C0000000000000000000052
:100080000000000000000000000000000000000070
:100090000000000000000000E60B0000000000006F
:1000A0000000000000000000000000000000000050
:1000B0000000000000000000000000000000000040
:1000C0000000000000000000000000000000000030
:1000D0000000000000000000000000000000000020
:10152000AF832000F0FF200020A0B70000002000C3
:1015300034A0B700400020004420B7000A00FA00A1
:101540008A1F78008B1F7800E024EF00E224EF0070
:10155000CCE2A900C8E2A900CD82A900C982A900F5
:10156000CD22A800C922A900C002A8004427EF008C
:101570000020EF000220EF00304188004141880048
:10158000F0FF2F00A040880000002000C1282400A8
:10159000B0408800C14088000020EF000220EF002A
:1015A000504188006141880000002000614924000A
:1015B000D0408800E14088000020EF000220EF00CA
:1015C000704188008141880000002000A14F240064
:1015D000F0408800014188000020EF000220EF0069
:1015E00090418800A141880000002400C1512400DE
:1015F00010418800214188000000200001272400BC
:10160000B0418800C14188000021EF0005E1A90038
:101610000481A90004A1A80001002100400A2000C3
:10162000108870008460A9009460A80005E1A800FB
:1016300011E1A90013E1A9001061A8001021A9007F
:1016400010C1A9001081A90010A1A900010021006A
:10165000800A200010887000F0FF2F000CA1B70056
:10166000F0FF2F000EA1B7000821EF000621EF00C8
:10167000A800A800A820A900A840A9008500A900EA
:101680009500A80011E1A8001FE1A90021E1A9002F
:101690001E61A8001E21A9001EC1A9001E81A9006B
:1016A0001EA1A90001002100200B2000108870005D
:1016B000407224001AA1B700600020001CA1B700EE
:1016C0001621EF001421EF00B200A800B220A900FB
:1016D000B240A9008780A9009780A8000A202C00AA
:1016E0001B00200057FE07009800200077352200DD
:1016F0000E20ED00FEFF3A001020ED00FCFF3A0046
:10170000E000470030C5B3008058780040C7B30000
:101710008058780010C6B3008058780020C7B30006
:101720008058780040C7B3008058780090C6B30056
:1017300080587800E0C6B3008058780070C6B300C7
:10174000805878000020EF00805878006000470043
:101750000005780027FE07006240A800AD80A800C1
:10176000ADA0A800ADC0A8008660A9009660A80042
:1017700019FE07006000E10001003600DFFE0700EF
:10178000E0004700E0C2B300805878000020EF007E
:1017900080587800600047000005780015FE0700BB
:1017A00098002000773522000E20ED00FEFF3A0061
:1017B0001020ED00FCFF3A00EDFF3700CF05780068
:0C17C0004F0578000080FA00FFFF3700A2
:101044000800FA00E032200080408800E097200089
:1010540090408800C07E200000408800F0FF2F00F0
:10106400104088003022EF000000280032A2B700B0
:101074003062A90083FD0700823E200003002000A7
:101084000AFD07000003BE003DFE07008000EB00E0
:101094008100D1000080D30064024000E082480057
:1010A4000A01BE000402E900030035000201D00079
:1010B4008381D200FBFF37000207980013079800D2
:1010C400869FBE008A9FBE000600BE000082EB0021
:1010D400CAFC07004F05BE004F03BE00200798005E
:1010E400310798008A9FBE000600BE000E019000E2
:1010F4009E0190000082EB00F5FC07004F05BE0046
:101104008001780001027800600047005081D1001E
:10111400C080D300640047003008E1002090E10063
:1011240003003D00E180410060014A0002003700F5
:1011340083007800040178006008E1006090E10019
:101144002F003A004FFD0700823E200003002000DC
:10115400D6FC07000003BE0009FE07008000EB0078
:101164008100D1000080D30062024000E082480088
:101174000A01BE000402E900030035000201D000A8
:101184008381D200FBFF3700020798001307980001
:10119400869FBE000600BE000082EB0097FC07009D
:1011A4004F03BE0020079800310798000600BE00D8
:1011B4000E0190009E0190000082EB00C4FC070029
:1011C4008001780001027800600047005081D1005E
:1011D400C080D300640047003008E1002090E100A3
:1011E40003003D00E180410060014A000200370035
:1011F40083007800040178003062A8000000370002
:1012040080232000618850003222A90031E2A80026
:101214003342A800D5FD07000080FA000000060054
:00122400CA
:1006880002D02700030020000200BE000000060080
:0006980062
:0C098400210020000100780000000600A7
:1009700057052D000E20ED00FEFF3A00000000009C
:04098000000006006D
:1004B0000000FA00020AB800500088000200B800EC
:1004C00081004200032AB800810042000080FA0047
:0404D0000000060022
:100400000000FA000200070054020400000000008F
:100410000800E20002003A00100007000000060099
:10042000811F78000200E20002003D006000100021
:10043000E08018000600E20002003D0060011100AB
:10044000E0811900050007004F00E00002003B00BA
:1004500060001000E08018000000060002000700A5
:100460000480BE00000006006022B80006022000E2
:100470000000D0008180D2000482D2008582D200A8
:100480000000A8000202520083825A0003003B00D1
:100490000202420083824A000000A1000603E90034
:1004A000F3FF3A00000006000080FA00000006009A
:0004B0004C
:1004D4000000FA0002000700B80204000000000057
:1004E4000800E20002003A001000070000000600C5
:1004F400839F68000200E20002003D0060001000DB
:10050400E08018000600E20002003D0060011100D6
:10051400E0811900050007004F00E00002003B00E5
:1005240060001000E0801800000006006022B8009F
:10053400060220000000D0008180D2000482D20094
:100544008582D2000000A8000202520083825A0071
:1005540003003B000202420083824A000000A10023
:100564000603E900F3FF3A00000006000080FA00E9
:04057400000006007D
:100FF4000000FA000220EF001A4078000041780057
:1010040002407800014178006004E1000A003200E7
:101014008A1F78000085FB008FFD07004F057800CC
:10102400E14041000180FB000000450010407800D1
:1010340001417800F4FF37000080FA000000060048
:00104400AC
:10065C000000FA0091118000001020000080600062
:10066C006000E10002003A0000000000F9FF3700D2
:0C067C00AA1188000080FA0000000600AF
:100FD8000000FA000220EF003202AF000220EC000D
:0C0FE800010078000080FA000000060004
:1012FC000000FA00B1118000010078000080FA00B3
:04130C0000000600D7
:1017CC003400F8003600F800801F7800200020005C
:1017DC000C000900B01F7800408120001000E000D0
:1017EC0002003200CD82A90001003700CD82A80092
:1017FC001FE1A900407224001AA1B700600020006C
:10180C001CA1B7001621EF001421EF001FE1A80066
:10181C00F0FF2F00A04088008780A900A0012000C5
:10182C000C0009004F1078004F0078003600F900CA
:08183C003400F9000040060031
:101844000E00FA003400F8003600F800801F78001B
:10185400200020000C000900B01F7800C282BF00E5
:101864000000AE00EE003700CCE2AA000681BF0003
:10187400000798000881BF00100798000821EF00B6
:101884000621EF000E0090009E00900076FD0700F8
:10189400D27B23006338230041FC070060408800AA
:1018A400714088000420EF000620EF0032418800D8
:1018B400434188000420EF000620EF0033FC0700BA
:1018C4000000E0000020EF000100340000A0EE0062
:1018D4000000E2000D00320062408000734080008E
:1018E4000000200001272400C4FC0700020020009F
:1018F40003102400C1FC07000200200003002400A0
:1019040027FC070030418800414188000200200084
:10191400C32824003041800041418000ADFC070011
:101924000000E0000020EF0001003D0000A0EE00F8
:101934002007980002002C00A35D240030418000A1
:101944004141800011FC07000000E0000020EF008E
:101954000100340000A0EE00AE0090000080700092
:10196400040032000020EF000220EF003041880024
:10197400414188000420EF000620EF003041800040
:101984004141800001FC07000000E0000020EF005E
:101994000100340000A0EE000000E200A0003200CC
:1019A40044002000130020006418E10016003D00EC
:1019B400C218DD0060812000010140001200BE0059
:1019C400841F7800831F78000001BE00304180002E
:1019D400414180007FFC07000000E0000020EF0090
:1019E40001003D0000A0EE00CF0178004F02780016
:1019F4000000E20002003200830278000300370096
:101A04000620EC00E8FF3700840278006428E10037
:101A14005A003D00C228DD00608120000102400020
:101A240061805200C200DD0060812000010040009E
:101A34001001BE001400BE00851F78006AFC070078
:101A44000420EF000620EF0062FC07000000E00025
:101A54000020EF000100320000A0EE00CF02780069
:101A64000000E2003D003200C228DD00210798009A
:101A7400A08220000102400061805200C200DD000B
:101A840061079800A0822000010040001001BE0000
:101A94001400BE0054FC070040079800510798004A
:101AA400618120002E0090000082400061812000AE
:101AB4006E009000008040001001BE001400BE00C3
:101AC40049FC070020079800310798004E00900059
:101AD400DE009000829FBE002E019000BE019000A7
:101AE40046FC07004F01BE000003BE0061812000D8
:101AF4006E009000008040001002BE003241800061
:101B040043418000869FBE000400BE0036FC0700EF
:101B14004F03BE000601BE00A1FB0700A382200004
:101B24006E019000028241001401BE002EFC0700E9
:101B340020079800310798000020EF000220EF00F2
:101B4400829FBE002E019000BE01900026FC07007B
:101B54004F01BE000001BE0007003700C228DD00AF
:101B6400A082200001004000B0007800200178002D
:101B7400820178000101780002003700B241800040
:101B8400C3418000829FBE0000002000010C24009D
:101B9400324180004341800081FB07000001BE0008
:101BA4000000200001F8230014FC07004F01BE00D0
:101BB4004040880051408800B0418000C14180000D
:101BC40009FC0700424080005340800074FB07007A
:101BD4002040880031408800D27B230063382300F2
:101BE40006FC07008EFD070005E1A9000021EF00B7
:101BF4008460A9004601DE00CA09DD00030171000A
:101C0400C609DE00120888000281BF006000E100FE
:101C140002003A001000200002A1B70005E1A8006C
:101C24008660A900A00120000C0009004F10780074
:101C34004F0078003600F9003400F9000080FA0003
:041C44000040060056
:100E6C000000FA0002000700E80704000000000080
:100E7C000400E20006003A000005EB000200E2006C
:100E8C000F003E000000E200270032000C0037008B
:100E9C00A10088000200E2000400350008003C00BC
:100EAC000000E20020003200050037006000100056
:100EBC00E080180002003B0001F02C001A00370003
:100ECC000084BE006011B8006B0920000982CF00BD
:100EDC00020039000882CF000441B0006942520080
:100EEC000E00320008003B00828171006101640039
:100EFC008904D1000884D3008B05E8000442E80083
:100F0C00F9FF3A00050037000804440089844C00BE
:100F1C008B05E9000442E900FBFF3A0003000700DF
:100F2C000AF0A70003E0A8000000060081002000E2
:100F3C00618055000B003D000B00200061FE2F006E
:100F4C000100E1001D003400828171006101640028
:100F5C008904D1000884D3000000E800FAFF3A00AD
:100F6C00710020006100640003007000020060004A
:100F7C000900320061044400E0844C000988A5009B
:100F8C00050032008B05E8006808E10002003A0019
:100F9C008904D1000884D300F20F20000258E1002C
:100FAC0005003D00C75DDD00F907B20089807500C2
:100FBC0008008800000006000BF827001B008800C2
:0C0FCC00000005000080FA000000060094
:1009A4000000FA0002000700E8050400000000004F
:1009B400889FBE008A9FBE008C1F7800300007000D
:1009C4003700330003866C006450E10024003200D9
:1009D4006420E100270032006150E100220032006F
:1009E4006120E100210032008B854200EB07B10059
:1009F4000134B800003AB8000804420089844A006F
:100A0400013AB8000030B8008880400009014A006B
:100A140004003300000040008180480002014900C6
:100A24008B05E900C909DD00830170000100320073
:100A340013002000C814DE004814DD004709DE005E
:100A44001200B200C808DE00088470002400070009
:100A540001F0A1000CF0A70003E0A8001900370082
:100A64006120E1001B0032000881BE000280BE004C
:100A7400F7FF37006150E100FCFF3A001500370032
:100A84000084BE003C0007000083BE000485BE0055
:100A94000280BE0038000700844F75000000060085
:100AA4000280BE006450E100050036006420E100CD
:100AB400020036000968A30001003A000880BE0065
:100AC40002C0A8004F0678004F05BE004F04BE00C8
:100AD40000000600F0FF2F00F1FF2700F9FF3700A8
:100AE40081002000618055000B003D000B002000B8
:100AF40061FE2F000100E1001D00340082817100BD
:100B0400610164008904D1000884D3000000E80076
:100B1400FAFF3A00710020006100640003007000D5
:100B2400020060000900320061044400E0844C00CB
:100B34000988A500050032008B05E8006808E1007B
:100B440002003A008904D1000884D300F20F200087
:100B54000258E10005003D00C75DDD00F907B20061
:100B64008980750008008800000006000BF8270043
:100B74001B00880000000500C70ADE00F107B20070
:100B8400F50FB20008003200E1CF4200020032004B
:100B940002E0A80024000500810F7000010032006B
:100BA4000408050044000500810F700002003A00AB
:100BB400140005008502E9000000400081C04800DF
:100BC400FCFF3B0002E0A800240005000080FA00BE
:040BD4000000060017
:100990000000FA00F4FF2F00F7FE07000080FA00C5
:0409A000000006004D
:100578000000FA00020007002A030400000000003F
:10058800841F7800140007004F0078001100330022
:10059800F0FF2F00838F6C0006003B000405650008
:1005A8000A00A7000800370009F0A6001000200084
:1005B80008003700820F5400838F5C000300390065
:1005C8001000200001003E000000200009F0A700F4
:1005D8000000EA00000006000084BE0006000700D4
:1005E8000083BE000485BE000280BE000200070032
:1005F800844F750000000600C70ADE00F107B2004C
:10060800F50FB20008003200E1CF420002003200CC
:1006180002E0A80024000500810F700001003200EC
:100628000408050044000500810F700002003A002C
:10063800140005008502E9000000400081C0480060
:10064800FCFF3B0002E0A800240005000080FA003F
:040658000000060098
:100C00000000FA00020007003207040000000000A4
:100C1000889FBE008A9FBE008C1F78003E000700A0
:100C20004500330003866C006450E1002E00320062
:100C30006420E100330032006150E1002F003200F7
:100C40006120E1003100320085855500EB07B000DE
:100C500009002000080420000500370008044400B3
:100C600089844C000A0031000603430087834B004F
:100C70000001530081815B00F8FF33000283BE0056
:100C80001000A8000804440089844C00F6FF3900D5
:100C9000C639DD008301730001003200130020001B
:100CA0008904D1000884D3000998A300050032000C
:100CB0000800A7000600A8008904D1000884D3001A
:100CC0008B05E8008904D1000884D3000001EB0003
:100CD0000281D2002800070001F0A1000CF0A7005B
:100CE00003E0A8001D0037006420E1001F0032006F
:100CF0000881BE000280BE00F7FF37006120E100DE
:100D00001A0032006000B800F3FF37000000200036
:100D100001F82700F0FF37000084BE003C00070008
:100D20000083BE000485BE000280BE0038000700BC
:100D3000844F7500000006000280BE006450E10090
:100D4000050036006420E100020036000968A300B7
:100D500001003A000880BE0002C0A8004F067800DB
:100D60004F05BE004F04BE0000000600F0FF2F003C
:100D7000F1FF2700F9FF3700810020006180550056
:100D80000B003D000B00200061FE2F000100E10080
:100D90001D00340082817100610164008904D1006A
:100DA0000884D3000000E800FAFF3A007100200038
:100DB000610064000300700002006000090032005E
:100DC00061044400E0844C000988A500050032005D
:100DD0008B05E8006808E10002003A008904D100B0
:100DE0000884D300F20F20000258E10005003D0006
:100DF000C75DDD00F907B200898075000800880032
:100E0000000006000BF827001B008800000005000A
:100E1000C70ADE00F107B200F50FB2000800320089
:100E2000E1CF42000200320002E0A80024000500E9
:100E3000810F700001003200040805004400050025
:100E4000810F700002003A00140005008502E900DD
:100E50000000400081C04800FCFF3B0002E0A80009
:0C0E6000240005000080FA0000000600DD
:100BD8000000FA001400200065FE07000080FA00FB
:040BE8000000060003
:100BEC000000FA0007E0AA00A8FE07000080FA0047
:040BFC0000000600EF
:100698000000FA0002000700B40404000000000093
:1006A800889FBE008A9FBE008C1F780059000700F3
:1006B800600033006450E1004F0032006420E10024
:1006C8005200320003826C0007003B000905D0008D
:1006D8000306D000820F54000C065D0002003900AA
:1006E8000200320039008800C30088008582550066
:1006F80004003D000003FD008103FD008502EA00BF
:100708008B854200840F720002003B0060001000DD
:10071800E08018006011B8000005EB007A28E100BD
:100728000A00390006008800C75DDD00F707B2003F
:10073800878075002D003700828171002A008800AB
:10074800610560008180D1000080D3008502E90046
:10075800F9FF3B00060440008784480002003B0084
:1007680060041400E0841C000988A300070032001C
:100778008A81710082817100610164008904D1005D
:100788000884D3008B05E800170037000978A30018
:1007980013003A001600E200130034008B05E9004C
:1007A8000804440089844C000A4474000978A300B2
:1007B8000D003A001600E200070034008B05E9003E
:1007C8000804440089844C0001003A000B00200012
:1007D8000978A300F7FF32000001EB0002003700A0
:1007E800828171002A008800220007000CF0A7000F
:1007F80003E0A800180037006420E10002003A0076
:10080800838F6C00180033000881BE000280BE0090
:10081800110037000084BE003C0007000083BE00C2
:100828000485BE000280BE0038000700844F7500B2
:10083800000006000280BE006450E100050036009A
:100848006420E100020036000968A30001003A00B4
:100858000880BE0002C0A8004F0678004F05BE0001
:100868004F04BE0000000600F0FF2F00F1FF270034
:10087800F9FF370081002000618055000B003D0022
:100888000B00200061FE2F000100E1001D00340074
:1008980082817100610164008904D1000884D30059
:1008A8000000E800FAFF3A007100200061006400CF
:1008B8000300700002006000090032006104440077
:1008C800E0844C000988A500050032008B05E8008B
:1008D8006808E10002003A008904D1000884D300C6
:1008E800F20F20000258E10005003D00C75DDD0061
:1008F800F907B2008980750008008800000006002A
:100908000BF827001B00880000000500C70ADE005E
:10091800F107B200F50FB20008003200E1CF420043
:100928000200320002E0A80024000500810F7000D8
:10093800010032000408050044000500810F700022
:1009480002003A00140005008502E900000040009A
:1009580081C04800FCFF3B0002E0A800240005001D
:080968000080FA000000060007
:101224000000FA00020007007A0904000000000030
:101234000081BE00190007000470A70003F0A1009C
:1012440003F8A30013003A006509B100100032004E
:10125400090035006928E10002003500010028007A
:101264000000050000004000818048008502E9007C
:10127400FCFF3A0000000600F88F4200050035002C
:101284008100D1000080D3008502E800FCFF3A0011
:10129400000006008000EB0000000500C70ADE0025
:1012A400F107B200F50FB20008003200E1CF4200AE
:1012B4000200320002E0A80024000500810F700043
:1012C400010032000408050044000500810F70008D
:1012D40002003A00140005008502E9000000400005
:1012E40081C04800FCFF3B0002E0A8002400050088
:0812F4000080FA000000060072
:101464000C00FA003400F8003600F800801F780001
:10147400200020000C000900B01F78008A1F7800AB
:101484008500A900E000470030C5B300805878000B
:1014940040C7B3008058780010C6B3008058780065
:1014A400C0C6B30080587800C0C6B3008058780026
:1014B400A0C3B3008058780000C2B30080587800FD
:1014C40090C4B3008058780020C5B30080587800D9
:1014D40010C5B300805878000020EF0080587800D1
:1014E4006000470000057800C1FE0700DA00200014
:1014F40059FC070011E1A9004F057800A001200064
:101504000C0009004F1078004F0078003600F900F5
:0C1514003400F9000080FA0000400600DE
:101310000C00FA003400F8003600F800801F780056
:10132000200020000C000900B01F7800CD82A90029
:1013300000002000011F2400424080005340800034
:1013400098FD07002340800034408000680147007A
:10135000030178008401780024FE0700400798000C
:10136000510798004E009000DE00900000079800A2
:101370001107980060408000714080004E0190008D
:10138000DE01900019FE0700A256280083B2230058
:101390007FFD07000000E0000020EF0001003400A6
:1013A00000A0EE000000E200140032006040800067
:1013B00071408000426C2A0023C523000BFE070009
:1013C00020079800310798000E0190009E019000C0
:1013D0006FFD07000000E0000020EF000100340076
:1013E00000A0EE000000E200040032002E00900099
:1013F000BE0090000007980011079800D27B2300E0
:10140000633823000E0090009E009000FCFD070052
:1014100084FF07000001BE000020EF00A04088000C
:101420001FE1A900D2088800E30888001621EF0018
:101430001421EF008780A9001FE1A80005E1A900A1
:101440008460A900A00120000C0009004F10780062
:101450004F0078003600F9003400F9000080FA00EF
:041460000040060042
:0200000401F009
:240000000F000000FFFF000003000000C3000000B20000005F000000FF00000083000000DF00000097
:00000001FF
