:10000000A00B040000000000000000000000000041
:1000100000000000000000000000000000000000E0
:1000200000000000000000000000000000000000D0
:10003000000000009A09000000000000000000001D
:100040000000000000000000B809000000000000EF
:1000500000000000000000000000000000000000A0
:100060000000000000000000000000000000000090
:1000700000000000D809000000000000000000009F
:100080000000000000000000000000000000000070
:100090000000000000000000640B000000000000F1
:1000A0000000000000000000000000000000000050
:1000B0000000000000000000000000000000000040
:1000C0000000000000000000000000000000000030
:1000D0000000000000000000000000000000000020
:101740002F832000F0FF200020A0B7000000200021
:1017500034A0B700400020004420B7008A1F780062
:101760008B1F7800E024EF00E224EF00C422A900E0
:10177000C002A900C022A900C922A800C902A9006C
:10178000C982A900C9A2A900C9C2A900C8E2A900CA
:101790004427EF000020EF000220EF007040880097
:1017A000814088000020EF000220EF0040408800C8
:1017B00051408800F0FF2F00604088000020EF00BB
:1017C0000220EF0090408800A14088000020EF0038
:1017D0000220EF0010418800214188000000200015
:1017E00061492400B0408800C1408800000020000A
:1017F000010C240030418800414188000000200095
:10180000A14F2400D0408800E14088000000200063
:10181000011224005041880061418800000024002A
:10182000C1512400F04088000141880000002000E0
:1018300001142400704188008141880064A0A80040
:10184000AD80A800ADA0A800ADC0A8008660A9002A
:101850009660A8000021EF0005E1A9000481A9001D
:1018600004A1A90001002100400A20001088700096
:101870008460A9009460A80005E1A80011E1A90016
:1018800013E1A9001061A8001021A90010C1A9004E
:101890001081A90010A1A90001002100800A2000E8
:1018A00010887000F0FF2F000CA1B700F0FF2F0090
:1018B0000EA1B7000821EF000621EF00A800A80044
:1018C000A820A900A840A9008500A9009500A800AB
:1018D00011E1A8001FE1A90021E1A9001E61A800F3
:1018E0001E21A9001EC1A9001E81A9001EA1A900D8
:1018F00001002100200B200010887000407224009D
:101900001AA1B700600020001CA1B7001621EF004B
:101910001421EF00B200A800B220A900B240A90033
:101920008780A9009780A8001FE1A8000A5822001C
:101930000B002000CCFC07008FFD07006000E100D9
:101940000100360085FD0700CDC2AA00CCE2AA0046
:10195000F6FF3700CF0578004F057800FFFF37000E
:0019600087
:100C68000800FA00F0FF2F000040880080212000D3
:100C780030408800202220002040880000202000EA
:100C8800104088002022EF000000280022A2B700B0
:100C98002062A900F5FE0700823E20000300200024
:100CA800F6FE07000003BE00EDFE07008000EB0023
:100CB8008100D1000080D30064024000E082480037
:100CC8000A01BE000402E900030035000201D00059
:100CD8008381D200FBFF37000207980013079800B2
:100CE800869FBE008A9FBE000600BE000082EB0001
:100CF80014FF07004F05BE004F03BE0020079800F1
:100D0800310798008A9FBE000600BE000E019000C1
:100D18009E0190000082EB00E1FE07004F05BE0037
:100D28008001780001027800600047005081D100FE
:100D3800C080D300640047003008E1002090E10043
:100D480003003D00E180410060014A0002003700D5
:100D580083007800040178006008E1006090E100F9
:100D68002F003A00C1FE0700823E20000300200049
:100D7800C2FE07000003BE00B9FE07008000EB00BA
:100D88008100D1000080D30062024000E082480068
:100D98000A01BE000402E900030035000201D00088
:100DA8008381D200FBFF37000207980013079800E1
:100DB800869FBE000600BE000082EB00E1FE070031
:100DC8004F03BE0020079800310798000600BE00B8
:100DD8000E0190009E0190000082EB00B0FE07001B
:100DE8008001780001027800600047005081D1003E
:100DF800C080D300640047003008E1002090E10083
:100E080003003D00E180410060014A000200370014
:100E180083007800040178002062A80000003700F1
:100E280080222000618850002222A90021E2A80027
:100E38002342A80085FE07000080FA000000060093
:000E4800AA
:1008740002D02700030020000200BE000000060092
:0008840074
:0C086800210020000100780000000600C4
:1008540057052D000E20ED00FEFF3A0000000000B9
:04086400000006008A
:100884000000FA00020AB800500088000200B80014
:1008940081004200032AB800810042000080FA006F
:0408A400000006004A
:10094C000000FA0002000700FA0404000000000096
:10095C000800E20002003A00100007000000060048
:10096C00811F78000200E20002003D0060001000D0
:10097C00E08018000600E20002003D00600111005A
:10098C00E0811900050007004F00E00002003B0069
:10099C0060001000E0801800000006000200070054
:1009AC000480BE00000006006022B8000602200091
:1009BC000000D0008180D2000482D2008582D20057
:1009CC000000A8000202520083825A0003003B0080
:1009DC000202420083824A000000A1000603E900E3
:1009EC00F3FF3A00000006000080FA000000060049
:0009FC00FB
:1008A8000000FA0002000700A20404000000000093
:1008B8000800E20002003A001000070000000600ED
:1008C800839F68000200E20002003D006000100003
:1008D800E08018000600E20002003D0060011100FF
:1008E800E0811900050007004F00E00002003B000E
:1008F80060001000E0801800000006006022B800C8
:10090800060220000000D0008180D2000482D200BC
:100918008582D2000000A8000202520083825A0099
:1009280003003B000202420083824A000000A1004B
:100938000603E900F3FF3A00000006000080FA0011
:0409480000000600A5
:100F78000000FA0020408000000001008000780096
:0C0F8800010078000080FA000000060064
:100430000000FA0031118000010078000080FA000D
:0404400000000600B2
:100444000000FA000220EF002202AF000220EC00BC
:0C045400010078000080FA0000000600A3
:100400000000FA000220EF002302AF000220EC00FF
:0C041000010078000080FA0000000600E7
:10041C000000FA00B1118000010078000080FA00A1
:04042C0000000600C6
:10081C000000FA000220EF003202AF000220EC00D0
:0C082C00010078000080FA0000000600C7
:100838000000FA000220EF003302AF000220EC00B3
:0C084800010078000080FA0000000600AB
:100F5C000000FA00304080000000010080007800A2
:0C0F6C00010078000080FA000000060080
:1016C8003400F8003600F800801F78002000200061
:1016D8000C000900B01F7800C08020001000E00056
:1016E80002003200C422A90001003700C422A80069
:1016F8001FE1A900407224001AA1B7006000200071
:101708001CA1B7001621EF001421EF001FE1A8006B
:10171800F0FF2F00604088008780A900A00120000A
:101728000C0009004F1078004F0078003600F900CF
:081738003400F9000040060036
:1013B0001800FA003400F8003600F800801F7800AA
:1013C000200020000C000900B01F7800CA82BF0076
:1013D0000120AE00B3003700CD02A800C422A9004E
:1013E0000681BF00000798000881BF001007980021
:1013F0000821EF000621EF000E0090009E009000F3
:10140000E4FE0700D27B2300633823003CFF070083
:1014100020079800310798000420EF000620EF0015
:1014200072408800834088000420EF000620EF000F
:1014300085FE07000000E0000020EF0001003400FE
:1014400000A0EE000000E2000D0032002E0190002E
:10145000BE019000000020000127240067FD070066
:10146000020020000310240064FD07000200200099
:101470000300240022FF070070408800814088009C
:1014800002002000C32824007040800081408000BA
:10149000ADFE07000000E0000020EF0001003D006D
:1014A00000A0EE00300F980002002C00A35D240085
:1014B000704080008140800063FE07000000E00073
:1014C0000020EF000100340000A0EE00BE089000F4
:1014D00000807000040032000020EF000220EF00C6
:1014E00070408800814088000420EF000620EF0053
:1014F000704080008140800053FE07000000E00043
:101500000020EF000100340000A0EE000000E20027
:1015100063003200CDA2A80040002000000F980018
:10152000130020006418E10015003D00C218DD0022
:1015300020812000010140001200BE00831F7800BE
:101540000001BE0070408000814080007EFE0700E8
:101550000000E0000020EF0001003D0000A0EE00D0
:10156000CF0178000000E20002003200030F980073
:10157000030037006180410080017800E9FF3700F7
:101580000E0890006400E10001003D0000003700FB
:10159000CDA2A90000002000010C240072408000B0
:1015A00083408000D6FE07000001BE00000020003E
:1015B00001F8230011FD070002002000031F240092
:1015C000CFFE0700100F9800210F98001E08900012
:1015D000AE08900040079800510798002E00900038
:1015E000BE0090001E099000AE09900051FE070059
:1015F000A256280083B2230013FE07000000E0007B
:101600000020EF000100340000A0EE000000E20026
:10161000140032002E009000BE009000426C2A00A0
:1016200023C5230043FE0700600798007107980058
:101630004E019000DE01900003FE07000000E00074
:101640000020EF000100340000A0EE000000E200E6
:10165000040032006E009000FE00900040079800E9
:1016600051079800D27B2300633823004E0090007E
:10167000DE009000E1FC0700F8FD07000001BE005D
:101680000020EF00604088001FE1A900D208880018
:10169000E30888001621EF001421EF001FE1A800E5
:1016A000CD02A9008660A900A00120000C0009005D
:1016B0004F1078004F0078003600F9003400F90030
:0816C0000080FA000040060062
:100F94000000FA00020007007C08040000000000C2
:100FA4000400E20006003A000005EB000200E20043
:100FB4000F003E000000E200270032000C00370062
:100FC400A10088000200E2000400350008003C0093
:100FD4000000E2002000320005003700600010002D
:100FE400E080180002003B0001F02C001A003700DA
:100FF4000084BE006011B8006B0920000982CF0094
:10100400020039000882CF000441B0006942520056
:101014000E00320008003B0082817100610164000F
:101024008904D1000884D3008B05E8000442E80059
:10103400F9FF3A00050037000804440089844C0095
:101044008B05E9000442E900FBFF3A0003000700B6
:101054000AF0A70003E0A8000000060081002000B9
:10106400618055000B003D000B00200061FE2F0045
:101074000100E1001D0034008281710061016400FF
:101084008904D1000884D3000000E800FAFF3A0084
:101094007100200061006400030070000200600021
:1010A4000900320061044400E0844C000988A50072
:1010B400050032008B05E8006808E10002003A00F0
:1010C4008904D1000884D300F20F20000258E10003
:1010D40005003D00C75DDD00F907B2008980750099
:1010E40008008800000006000BF827001B00880099
:0C10F400000005000080FA00000006006B
:101100000000FA0002000700960904000000000039
:10111000889FBE008A9FBE008C1F780030000700A9
:101120003700330003866C006450E1002400320075
:101130006420E100270032006150E100220032000B
:101140006120E100210032008B854200EB07B100F5
:101150000134B800003AB8000804420089844A000B
:10116000013AB8000030B8008880400009014A0008
:101170000400330000004000818048000201490063
:101180008B05E900C909DD00830170000100320010
:1011900013002000C814DE004814DD004709DE00FB
:1011A0001200B200C808DE000884700024000700A6
:1011B00001F0A1000CF0A70003E0A800190037001F
:1011C0006120E1001B0032000881BE000280BE00E9
:1011D000F7FF37006150E100FCFF3A0015003700CF
:1011E0000084BE003C0007000083BE000485BE00F2
:1011F0000280BE0038000700844F75000000060022
:101200000280BE006450E100050036006420E10069
:10121000020036000968A30001003A000880BE0001
:1012200002C0A8004F0678004F05BE004F04BE0064
:1012300000000600F0FF2F00F1FF2700F9FF370044
:1012400081002000618055000B003D000B00200054
:1012500061FE2F000100E1001D0034008281710059
:10126000610164008904D1000884D3000000E80013
:10127000FAFF3A0071002000610064000300700072
:10128000020060000900320061044400E0844C0068
:101290000988A500050032008B05E8006808E10018
:1012A00002003A008904D1000884D300F20F200024
:1012B0000258E10005003D00C75DDD00F907B200FE
:1012C0008980750008008800000006000BF82700E0
:1012D0001B00880000000500C70ADE00F107B2000D
:1012E000F50FB20008003200E1CF420002003200E8
:1012F00002E0A80024000500810F70000100320008
:101300000408050044000500810F700002003A0047
:10131000140005008502E9000000400081C048007B
:10132000FCFF3B0002E0A800240005000080FA005A
:0413300000000600B3
:100E48000000FA00F4FF2F0083FD07000080FA007D
:040E58000000060090
:100460000000FA00020007009E02040000000000E5
:10047000841F7800140007004F007800110033003B
:10048000F0FF2F00838F6C0006003B000405650021
:100490000A00A7000800370009F0A600100020009D
:1004A00008003700820F5400838F5C00030039007E
:1004B0001000200001003E000000200009F0A7000D
:1004C0000000EA00000006000084BE0006000700ED
:1004D0000083BE000485BE000280BE00020007004B
:1004E000844F750000000600C70ADE00F107B20065
:1004F000F50FB20008003200E1CF420002003200E6
:1005000002E0A80024000500810F70000100320005
:100510000408050044000500810F700002003A0045
:10052000140005008502E9000000400081C0480079
:10053000FCFF3B0002E0A800240005000080FA0058
:0405400000000600B1
:1009FC000000FA00020007003006040000000000AE
:100A0C00889FBE008A9FBE008C1F78003E000700A6
:100A1C004500330003866C006450E1002E00320068
:100A2C006420E100330032006150E1002F003200FD
:100A3C006120E1003100320085855500EB07B000E4
:100A4C0009002000080420000500370008044400B9
:100A5C0089844C000A0031000603430087834B0055
:100A6C000001530081815B00F8FF33000283BE005C
:100A7C001000A8000804440089844C00F6FF3900DB
:100A8C00C639DD0083017300010032001300200021
:100A9C008904D1000884D3000998A3000500320012
:100AAC000800A7000600A8008904D1000884D30020
:100ABC008B05E8008904D1000884D3000001EB0009
:100ACC000281D2002800070001F0A1000CF0A70061
:100ADC0003E0A8001D0037006420E1001F00320075
:100AEC000881BE000280BE00F7FF37006120E100E4
:100AFC001A0032006000B800F3FF3700000020003D
:100B0C0001F82700F0FF37000084BE003C0007000E
:100B1C000083BE000485BE000280BE0038000700C2
:100B2C00844F7500000006000280BE006450E10096
:100B3C00050036006420E100020036000968A300BD
:100B4C0001003A000880BE0002C0A8004F067800E1
:100B5C004F05BE004F04BE0000000600F0FF2F0042
:100B6C00F1FF2700F9FF370081002000618055005C
:100B7C000B003D000B00200061FE2F000100E10086
:100B8C001D00340082817100610164008904D10070
:100B9C000884D3000000E800FAFF3A00710020003E
:100BAC006100640003007000020060000900320064
:100BBC0061044400E0844C000988A5000500320063
:100BCC008B05E8006808E10002003A008904D100B6
:100BDC000884D300F20F20000258E10005003D000C
:100BEC00C75DDD00F907B200898075000800880038
:100BFC00000006000BF827001B0088000000050011
:100C0C00C70ADE00F107B200F50FB200080032008F
:100C1C00E1CF42000200320002E0A80024000500EF
:100C2C00810F70000100320004080500440005002B
:100C3C00810F700002003A00140005008502E900E3
:100C4C000000400081C04800FCFF3B0002E0A8000F
:0C0C5C00240005000080FA0000000600E3
:100F48000000FA001400200043FD07000080FA00AA
:040F5800000006008F
:100F34000000FA0007E0AA0081FD07000080FA0023
:040F440000000600A3
:100544000000FA00020007000A0404000000000092
:10055400889FBE008A9FBE008C1F78005900070048
:10056400600033006450E1004F0032006420E10079
:100574005200320003826C0007003B000905D000E2
:100584000306D000820F54000C065D0002003900FF
:100594000200320039008800C300880085825500BB
:1005A40004003D000003FD008103FD008502EA0014
:1005B4008B854200840F720002003B006000100033
:1005C400E08018006011B8000005EB007A28E10013
:1005D4000A00390006008800C75DDD00F707B20095
:1005E400878075002D003700828171002A00880001
:1005F400610560008180D1000080D3008502E9009C
:10060400F9FF3B00060440008784480002003B00D9
:1006140060041400E0841C000988A3000700320071
:100624008A81710082817100610164008904D100B2
:100634000884D3008B05E800170037000978A3006D
:1006440013003A001600E200130034008B05E900A1
:100654000804440089844C000A4474000978A30007
:100664000D003A001600E200070034008B05E90093
:100674000804440089844C0001003A000B00200067
:100684000978A300F7FF32000001EB0002003700F5
:10069400828171002A008800220007000CF0A70064
:1006A40003E0A800180037006420E10002003A00CB
:1006B400838F6C00180033000881BE000280BE00E6
:1006C400110037000084BE003C0007000083BE0018
:1006D4000485BE000280BE0038000700844F750008
:1006E400000006000280BE006450E10005003600F0
:1006F4006420E100020036000968A30001003A000A
:100704000880BE0002C0A8004F0678004F05BE0056
:100714004F04BE0000000600F0FF2F00F1FF270089
:10072400F9FF370081002000618055000B003D0077
:100734000B00200061FE2F000100E1001D003400C9
:1007440082817100610164008904D1000884D300AE
:100754000000E800FAFF3A00710020006100640024
:1007640003007000020060000900320061044400CC
:10077400E0844C000988A500050032008B05E800E0
:100784006808E10002003A008904D1000884D3001B
:10079400F20F20000258E10005003D00C75DDD00B6
:1007A400F907B2008980750008008800000006007F
:1007B4000BF827001B00880000000500C70ADE00B4
:1007C400F107B200F50FB20008003200E1CF420099
:1007D4000200320002E0A80024000500810F70002E
:1007E400010032000408050044000500810F700078
:1007F40002003A00140005008502E90000004000F0
:1008040081C04800FCFF3B0002E0A8002400050072
:080814000080FA00000006005C
:100E5C000000FA00020007009607040000000000E2
:100E6C000081BE00190007000470A70003F0A10068
:100E7C0003F8A30013003A006509B100100032001A
:100E8C00090035006928E100020035000100280046
:100E9C000000050000004000818048008502E90048
:100EAC00FCFF3A0000000600F88F420005003500F8
:100EBC008100D1000080D3008502E800FCFF3A00DD
:100ECC00000006008000EB0000000500C70ADE00F1
:100EDC00F107B200F50FB20008003200E1CF42007A
:100EEC000200320002E0A80024000500810F70000F
:100EFC00010032000408050044000500810F700059
:100F0C0002003A00140005008502E90000004000D0
:100F1C0081C04800FCFF3B0002E0A8002400050053
:080F2C000080FA00000006003D
:101370003400F8003600F800801F780020002000BC
:101380000C000900B01F78008500A900C402AA0063
:1013900011E1A900A00120000C0009004F10780005
:1013A0004F0078003600F9003400F90000400600D4
:0013B0003D
:101334003400F8003600F800801F780020002000F8
:101344000C000900B01F78008460A900CD82AA00B7
:10135400A00120000C0009004F1078004F00780015
:0C1364003600F9003400F90000400600DB
:0200000401F009
:240000000F000000FFFF000003000000C1000000BF0000005F000000FF00000083000000DF0000008C
:00000001FF
