:1000000000010400000000000000000000000000EB
:1000100000000000000000000000000000000000E0
:1000200000000000000000000000000000000000D0
:1000300000000000000000000000000000000000C0
:1000400000000000000000000000000000000000B0
:1000500000000000000000000000000000000000A0
:100060000000000000000000000000000000000090
:100070000000000000000000000000000000000080
:100080000000000000000000000000000000000070
:100090000000000000000000000000000000000060
:1000A0000000000000000000000000000000000050
:1000B0000000000000000000000000000000000040
:1000C0000000000000000000000000000000000030
:1000D0000000000000000000000000000000000020
:1000E0000000000000000000000000000000000010
:1000F0000000000000000000000000000000000000
:1001000000000000000000000000000000000000EF
:1001100000000000000000000000000000000000DF
:1001200000000000000000000000000000000000CF
:1001300000000000000000000000000000000000BF
:1001400000000000000000000000000000000000AF
:10015000000000000000000000000000000000009F
:10016000000000000000000000000000000000008F
:10017000000000000000000000000000000000007F
:10018000000000000000000000000000000000006F
:10019000000000000000000000000000000000005F
:1001A000000000000000000000000000000000004F
:1001B000000000000000000000000000000000003F
:1001C000000000000000000000000000000000002F
:1001D000000000000000000000000000000000001F
:1001E000000000000000000000000000000000000F
:1001F00000000000000000000000000000000000FF
:100200000F802000F0FF200020A0B7000000200099
:1002100034A0B700400020004420B700F0FF2F00BA
:10022000A8A2B700C622EF00CC22EF00D222EF0036
:10023000DE22EF00CA22EF00D022EF00D622EF002C
:10024000E222EF00CAA2EE00D0A2EE00D6A2EE009B
:10025000E2A2EE0068062000B79C2B000E20ED0005
:10026000FEFF3A001020ED00FCFF3A000000000005
:08027000F4FF3700FFFF370027
:0200000401F009
:1C000000068700003F000000B38700000F3100000F3300000700000003C0000092
:00000001FF
