:100000000E010400000000000000000000000000DD
:1000100000000000000000000000000000000000E0
:1000200000000000000000000000000000000000D0
:1000300000000000000000000000000000000000C0
:1000400000000000000000000000000000000000B0
:1000500000000000000000000000000000000000A0
:100060000000000000000000000000000000000090
:100070000000000000000000000000000000000080
:100080000000000000000000000000000000000070
:100090000000000000000000000000000000000060
:1000A0000000000000000000000000000000000050
:1000B0000000000000000000000000000000000040
:1000C0000000000000000000000000000000000030
:1000D0000000000000000000000000000000000020
:1000E0000000000000000000000000000000000010
:1000F0000000000000000000000000000000000000
:1001000000000000000000000000000000000000EF
:1001100000000000000000000000000000000000DF
:1001200000000000000000000000000000000000CF
:1001300000000000000000000000000000000000BF
:1001400000000000000000000000000000000000AF
:10015000000000000000000000000000000000009F
:10016000000000000000000000000000000000008F
:10017000000000000000000000000000000000007F
:10018000000000000000000000000000000000006F
:10019000000000000000000000000000000000005F
:1001A000000000000000000000000000000000004F
:1001B000000000000000000000000000000000003F
:1001C000000000000000000000000000000000002F
:1001D000000000000000000000000000000000001F
:1001E000000000000000000000000000000000000F
:1001F00000000000000000000000000000000000FF
:10021C002F802000F0FF200020A0B700000020005D
:10022C0034A0B700400020004420B700F0FF2F009E
:10023C00A8A2B700C622EF00D222EF00DE22EF0008
:10024C00CA22EF00D622EF00E222EF00018020004C
:10025C000020EF0080487800008020009080FB0098
:10026C00101020008100DD00A02C200010887000F0
:10027C00008020009080FB00100020008100DD0039
:10028C00602D200010887000202E20001088700037
:10029C00D8FF070000802000104078006704E100C0
:1002AC000400320011C0B3000080200010C84000D0
:1002BC00E9FF3700018020000020EF008048780023
:1002CC0000802000104078006804E1001500310027
:1002DC00008020009080FB00101020000100DD0049
:1002EC008080EA00A02C2000108860000080200094
:1002FC009080FB00100020000100DD008080EA00EF
:10030C00602D200010886000202E200010886000D6
:10031C00B8FF070011C0B3000080200010C84000D7
:0C032C00E7FF3700C9FF3700FFFF370074
:10020000B8002000D7C222000E20ED00FEFF3A0009
:0C0210001020ED00FCFF3A00000006008A
:0200000401F009
:1C000000068700003F000000B38700000F3100000F3300000700000003C0000092
:00000001FF
