:10000000980E040000000000000000000000000046
:1000100000000000000000000000000000000000E0
:1000200000000000000000000000000000000000D0
:1000300000000000000000000000000000000000C0
:1000400000000000280E000000000000000000007A
:1000500000000000000000000000000000000000A0
:100060000000000000000000000000000000000090
:1000700000000000761100000000000000000000F9
:100080000000000000000000000000000000000070
:100090000000000000000000000000000000000060
:1000A0000000000000000000000000000000000050
:1000B0000000000000000000000000000000000040
:101D30000F852000F0BF200020A0B7000000200089
:101D400034A0B700400020004420B7002E00FA0065
:101D50008A1F78008B1F78008C1F7800E024EF002A
:101D6000E224EF000020EF000220EF004041880055
:101D7000514188000020EF000220EF006041880000
:101D8000714188000020EF000220EF0080418800B0
:101D9000914188000020EF000220EF00A041880060
:101DA000B14188000020EF000220EF00C041880010
:101DB000D14188000020EF000220EF00E0418800C0
:101DC000F14188000020EF000220EF00004288006F
:101DD000114288000020EF000220EF00204288001E
:101DE000314288000020EF00604288000020EF00B0
:101DF00070428800CD22A800C462A900C442A90094
:101E0000C002A800C922A900C062A900C042A9005E
:101E10004427EF0041E1A90042E1A9004201A900E5
:101E20004221A9004241A9004261A9004281A900C2
:101E300040A1A8004101A9004121A9004141A900F8
:101E400040C1A90040E1A9005221EF005021EF005C
:101E500000F0290054A1B7004002200056A1B700AD
:101E6000A780A800A7A0A800A840A90084E0A90016
:101E700094E0A80041E1A8000A202C001B002000EB
:101E80009DFD070098002000773522000E20ED0010
:101E9000FEFF3A001020ED00FCFF3A00E000470092
:101EA00030C5B3008058780040C5B3008058780032
:101EB00010C4B30080587800C0C4B30080587800C4
:101EC000C0C4B30080587800F0C5B30080587800D3
:101ED00040C4B3008058780090C4B30080587800A4
:101EE00030C5B3008058780040C5B30080587800F2
:101EF00020C5B3008058780090C4B30080587800A3
:101F000020C4B3008058780050C5B30080587800D2
:101F100040C5B30080587800F0C4B3008058780002
:101F200020C5B30080587800F0C5B3008058780011
:101F300000C5B3008058780050C4B30080587800C2
:101F400020C5B3008058780090C4B3008058780052
:101F5000F0C4B3008058780040C4B30080587800C3
:101F6000D0C3B300805878000020EF00805878007C
:101F70006000470000057800D7FD07000C802000B6
:101F8000AA9929009BE1230079FC07000A80200020
:101F9000D1FD0700E000470040C4B300805878003E
:101FA00070C5B30080587800F0C4B3008058780042
:101FB00020C5B3008058780040C4B3008058780032
:101FC00080C2B3008058780030C5B30080587800D4
:101FD00040C5B3008058780010C4B3008058780022
:101FE000C0C4B30080587800C0C4B30080587800E3
:101FF000F0C5B3008058780040C4B3008058780022
:1020000090C4B3008058780030C5B3008058780081
:1020100040C5B3008058780020C5B30080587800D0
:1020200090C4B3008058780020C4B3008058780072
:1020300050C5B3008058780040C5B3008058780080
:10204000F0C4B3008058780020C5B30080587800F1
:10205000F0C5B3008058780000C5B3008058780000
:1020600050C4B3008058780020C5B3008058780071
:1020700090C4B30080587800F0C4B3008058780052
:1020800040C4B30080587800F0C2B3008058780094
:1020900030C4B30080587800C0C4B30080587800C2
:1020A000F0C4B3008058780030C4B3008058780082
:1020B000B0C4B30080587800F0C5B30080587800F1
:1020C00000C5B3008058780050C4B3008058780031
:1020D00020C5B3008058780090C4B30080587800C1
:1020E000F0C4B3008058780040C4B3008058780032
:1020F00090C2B30080587800D0C3B30080587800F5
:102100000020EF008058780060004700000578004C
:1021100071FD07000C8020000AF029004B0220000E
:1021200037FE07000A8020006BFD0700E000470033
:1021300000C5B3008058780020C5B30080587800EF
:10214000C0C4B30080587800D0C3B3008058780072
:102150000020EF00805878006000470000057800FC
:102160005DFD07000B802000AA0A8000E1FB07004C
:102170000A80200058FD0700E000470000C2B300BD
:102180008058780000C2B3008058780000C5B300C2
:102190008058780020C5B3008058780080C4B30010
:1021A00080587800D0C3B300805878000020EF003A
:1021B00080587800600047000005780015FB070094
:1021C0000B802000BA0A8000CAFB07000A802000AA
:1021D00010FB0700DA0020002EF907006240A8007B
:1021E000AD80A800ADA0A800ADC0A8008660A90081
:1021F0009660A80098002000773522000E20ED00A0
:10220000FEFF3A001020ED00FCFF3A00E00047001E
:1022100020C5B3008058780000C5B300805878000E
:10222000D0C4B30080587800D0C3B3008058780081
:102230000020EF008058780060004700000578001B
:1022400025FD07000C802000FA4080000B41800033
:10225000C7FB07000A8020001FFD0700E0004700C1
:1022600000C2B3008058780000C2B30080587800E4
:1022700030C5B3008058780040C7B300805878005C
:1022800010C6B3008058780040C7B300805878006B
:1022900050C6B30080587800D0C3B300805878008F
:1022A0000020EF00805878006000470000057800AB
:1022B000D8FA07000B8020007A4280004EFB07000E
:1022C0000A802000D3FA0700DA002000F1F80700A6
:1022D000C462AA00C7FF37004F067800CF05780018
:0C22E0004F0578000080FA00FFFF370077
:1014F8000800FA00A034200030418800F0FF2F00D7
:1015080020418800F0FF2F0010418800F0FF2F00D5
:10151800E04088002022EF000000280022A2B70047
:101528002062A900D7FD0700823E200003002000AA
:10153800D8FD07000003BE00CFFD07008000EB00C8
:101548008100D1000080D30064024000E08248009E
:101558000A01BE000402E900030035000201D000C0
:101568008381D200FBFF3700020798001307980019
:10157800869FBE008A9FBE000600BE000082EB0068
:10158800F6FD07004F05BE004F03BE002007980078
:10159800310798008A9FBE000600BE000E01900029
:1015A8009E0190000082EB00C3FD07004F05BE00BE
:1015B8008001780001027800600047005081D10066
:1015C800C080D300640047003008E1002090E100AB
:1015D80003003D00E180410060014A00020037003D
:1015E80083007800040178006008E1006090E10061
:1015F8002F003A00A3FD0700823E200003002000D0
:10160800A4FD07000003BE009BFD07008000EB005F
:101618008100D1000080D30062024000E0824800CF
:101628000A01BE000402E900030035000201D000EF
:101638008381D200FBFF3700020798001307980048
:10164800869FBE000600BE000082EB00C3FD0700B7
:101658004F03BE0020079800310798000600BE001F
:101668000E0190009E0190000082EB0092FD0700A1
:101678008001780001027800600047005081D100A5
:10168800C080D300640047003008E1002090E100EA
:1016980003003D00E180410060014A00020037007C
:1016A80083007800040178002062A8000000370059
:1016B80080222000618850002222A90021E2A8008F
:1016C8002342A80067FD07000080FA00000006001A
:0016D80012
:100C8C0002D02700030020000200BE000000060076
:000C9C0058
:0C0C8000210020000100780000000600A8
:100C6C0057052D000E20ED00FEFF3A00000000009D
:040C7C00000006006E
:100C9C000000FA00020AB800500088000200B800F8
:100CAC0081004200032AB800810042000080FA0053
:040CBC00000006002E
:100D64000000FA000200070006070400000000006B
:100D74000800E20002003A0010000700000006002C
:100D8400811F78000200E20002003D0060001000B4
:100D9400E08018000600E20002003D00600111003E
:100DA400E0811900050007004F00E00002003B004D
:100DB40060001000E0801800000006000200070038
:100DC4000480BE00000006006022B8000602200075
:100DD4000000D0008180D2000482D2008582D2003B
:100DE4000000A8000202520083825A0003003B0064
:100DF4000202420083824A000000A1000603E900C7
:100E0400F3FF3A00000006000080FA00000006002C
:000E1400DE
:100CC0000000FA0002000700AE0604000000000069
:100CD0000800E20002003A001000070000000600D1
:100CE000839F68000200E20002003D0060001000E7
:100CF000E08018000600E20002003D0060011100E3
:100D0000E0811900050007004F00E00002003B00F1
:100D100060001000E0801800000006006022B800AB
:100D2000060220000000D0008180D2000482D200A0
:100D30008582D2000000A8000202520083825A007D
:100D400003003B000202420083824A000000A1002F
:100D50000603E900F3FF3A00000006000080FA00F5
:040D60000000060089
:1016D8000000FA000220EF001A407800004178006C
:1016E80002407800014178006004E1000A003200FD
:1016F8008A1F78000085FB00E4FB07004F0578008F
:10170800E14041000180FB000000450010407800E6
:1017180001417800F4FF37000080FA00000006005D
:00172800C1
:100694000000FA00111180000010200000806000AA
:1006A4006000E10002003A0000000000F9FF37009A
:0C06B4002A1188000080FA0000000600F7
:101170002000FA000020EF00500F98008C1F78002C
:101180008A9FBE000A00BE0006FD07004F05BE0094
:101190004F0678000001BE00829FBE008C1F7800C1
:1011A0008A9FBE000420EF000620EF000A00BE0068
:1011B000CC0007000000E0000020EF0001003D002F
:1011C00000A0EE004F05BE004F0678004F01BE00A4
:1011D0000000E20002003200F0FF2F00500F9800E4
:1011E00062004700829FBE008C1F78008A9FBE006D
:1011F000000678000205BE0081FC07004F05BE0016
:101200004F0678004F01BE008C1F78008A9FBE00F9
:101210000200BE000081EB00320207004F05BE0055
:101220008A9FBE000001BE000A00BE008AFE0700C1
:1012300002002500337C2400C1FD0700D9FC070013
:101240004F05BE004F0678000001BE006000E100BF
:101250006088E10005003D0060001100E080190099
:1012600001017800800078000200370082007800D9
:10127000030178006E0047008C1F78008A9FBE0033
:101280000006780001057800820578005CFC070004
:101290004F05BE004F0678000420EF000020EF004D
:1012A000000798008C00780000C2B30080587800D6
:1012B00000C2B3008058780000C2B30080587800A4
:1012C00000C2B3008058780000C2B3008058780094
:1012D00000C2B3008058780000C2B3008058780084
:1012E00000C2B3008058780000C2B3008058780074
:1012F00000C2B3008058780000C3B3008058780063
:101300000020EF0080587800821F78008C1F780042
:101310008A9FBE000A00BE00A2FC07004F05BE0067
:101320006000E1006088E1000020EF0001003A0069
:1013300000A0EE00700F98000420EF000620EF00E0
:101340000A00BE00670007000000E0000020EF0078
:1013500001003D0000A0EE004F0678004F0178002C
:10136000FE089000008060000000E20005003200EE
:10137000D0C2B300004E78001100200001017800B7
:1013800000003700AE40900000C2B300000CE10046
:1013900007003A000E009000E100400001079800AD
:1013A000620047000100400090407800F6FF3700DF
:1013B00082017800600CE1000C003200030046005E
:1013C000014878000E009000E100400001079800FD
:1013D0006181410062004700010040001040780038
:1013E0008040780082017800F2FF37005E089000AC
:1013F0006000E1000220EF0001003A0002A0EE00D0
:101400006018E1000020EF0001003A0000A0EE00AB
:1014100000806000060032008300460000C3B30075
:1014200080487800618041000001780001003700A9
:10143000030178006110E1000220EF0001003A0092
:1014400002A0EE007A004700108060000600320023
:101450008200460000C3B30080487800610041006C
:10146000000178000000370082004600E0C2B300AF
:10147000804878000420EC006000200000079800FD
:10148000CE509000600CE1001100320000C2B300A9
:10149000000CE10002003A0001C3B3000000370075
:1014A00002004600014878000E009000E100400074
:1014B00001079800E10141006E0047000100400073
:1014C000104078000301780080407800EDFF37007D
:1014D000820046000020EF00804878000080FA007B
:0414E0000000060002
:100400000000FA0000002000010028000050E10078
:1004100001D8E1001A003A008C007800D0C2B30085
:100420008058780020C3B3008058780010C3B30010
:100430008058780040C3B3008058780070C3B30080
:100440008058780040C3B3008058780080C3B30060
:100450008058780030C3B3008058780060C3B30080
:100460008058780040C3B3008058780080C3B30040
:10047000805878000020EF0080587800470037004F
:100480000820EF006050E10060D8E10005003D0069
:10049000F4FF2F0060001500E0801D000005BE0085
:1004A000000037008C00780000C2B300805878004C
:1004B00000C2B3008058780000C2B30080587800B2
:1004C00000C2B3008058780000C2B30080587800A2
:1004D00000C2B3008058780000C2B3008058780092
:1004E00000C2B3008058780000C2B3008058780082
:1004F00000C2B3008058780000C3B3008058780071
:100500000020EF0080587800EA0246006050E100C9
:1005100060D8E1001D003200849FBE008C1F78006F
:100520008A9FBE00A2002000030020000A00BE0037
:100530000082EB000B0207004F05BE004F0678005B
:100540004F02BE0002032000030020000200400012
:10055000804A7800849FBE008C1F78008A9FBE006E
:10056000A2002000030020000A00BE000082EB0071
:10057000D30107004F05BE004F0678004F02BE00B2
:100580000005BE000A20ED00E0FF37000800E20091
:1005900002003200D0C2B300804A78000080FA0026
:0405A0000000060051
:1005A4000000FA00020007004603040000000000F7
:1005B4000081BE001F0007000470A70003F0A10023
:1005C4006509B100160032000D0035006828E1000D
:1005D40006003500F0FF2F00F1FF27000600E200BF
:1005E40013003B000100280000000500000040004B
:1005F400818048008502E900FCFF3A0008003700CA
:10060400F88F420002003C008000EB00000005006F
:100614008100D1000080D3008502E800FCFF3A008D
:100624000600E20002003B0060001000E0801800B9
:1006340000000600C70ADE00F107B200F50FB200A1
:1006440008003200E1CF42000200320002E0A800BC
:1006540024000500810F7000010032000408050029
:1006640044000500810F700002003A0014000500E8
:100674008502E9000000400081C04800FCFF3B0007
:1006840002E0A800240005000080FA000000060033
:0006940066
:1014E4000000FA0014002000A1FD07000080FA00AB
:0414F40000000600EE
:100B74000000FA000200070028060400000000003C
:100B8400841F7800140007004F0078001100330020
:100B9400F0FF2F00838F6C0006003B000405650006
:100BA4000A00A7000800370009F0A6001000200082
:100BB40008003700820F5400838F5C000300390063
:100BC4001000200001003E000000200009F0A700F2
:100BD4000000EA00000006000084BE0006000700D2
:100BE4000083BE000485BE000280BE000200070030
:100BF400844F750000000600C70ADE00F107B2004A
:100C0400F50FB20008003200E1CF420002003200CA
:100C140002E0A80024000500810F700001003200EA
:100C24000408050044000500810F700002003A002A
:100C3400140005008502E9000000400081C048005E
:100C4400FCFF3B0002E0A800240005000080FA003D
:040C54000000060096
:101AE4000000FA0002000700240E040000000000B9
:101AF4000400E20006003A000005EB000200E200E8
:101B04000F003E000000E200270032000C00370006
:101B1400A10088000200E2000400350008003C0037
:101B24000000E200200032000500370060001000D1
:101B3400E080180002003B0001F02C001A0037007E
:101B44000084BE006011B8006B0920000982CF0038
:101B5400020039000882CF000441B00069425200FB
:101B64000E00320008003B008281710061016400B4
:101B74008904D1000884D3008B05E8000442E800FE
:101B8400F9FF3A00050037000804440089844C003A
:101B94008B05E9000442E900FBFF3A00030007005B
:101BA4000AF0A70003E0A80000000600810020005E
:101BB400618055000B003D000B00200061FE2F00EA
:101BC4000100E1001D0034008281710061016400A4
:101BD4008904D1000884D3000000E800FAFF3A0029
:101BE40071002000610064000300700002006000C6
:101BF4000900320061044400E0844C000988A50017
:101C0400050032008B05E8006808E10002003A0094
:101C14008904D1000884D300F20F20000258E100A7
:101C240005003D00C75DDD00F907B200898075003D
:101C340008008800000006000BF827001B0088003D
:0C1C4400000005000080FA00000006000F
:100C58000000FA0007E0AA00B10207000080FA00CD
:040C68000000060082
:101728000000FA0002000700FC0C040000000000A2
:10173800889FBE008A9FBE008C1F78005900070052
:10174800600033006450E1004F0032006420E10083
:101758005200320003826C0007003B000905D000EC
:101768000306D000820F54000C065D000200390009
:101778000200320039008800C300880085825500C5
:1017880004003D000003FD008103FD008502EA001E
:101798008B854200840F720002003B00600010003D
:1017A800E08018006011B8000005EB007A28E1001D
:1017B8000A00390006008800C75DDD00F707B2009F
:1017C800878075002D003700828171002A0088000B
:1017D800610560008180D1000080D3008502E900A6
:1017E800F9FF3B00060440008784480002003B00E4
:1017F80060041400E0841C000988A300070032007C
:101808008A81710082817100610164008904D100BC
:101818000884D3008B05E800170037000978A30077
:1018280013003A001600E200130034008B05E900AB
:101838000804440089844C000A4474000978A30011
:101848000D003A001600E200070034008B05E9009D
:101858000804440089844C0001003A000B00200071
:101868000978A300F7FF32000001EB0002003700FF
:10187800828171002A008800220007000CF0A7006E
:1018880003E0A800180037006420E10002003A00D5
:10189800838F6C00180033000881BE000280BE00F0
:1018A800110037000084BE003C0007000083BE0022
:1018B8000485BE000280BE0038000700844F750012
:1018C800000006000280BE006450E10005003600FA
:1018D8006420E100020036000968A30001003A0014
:1018E8000880BE0002C0A8004F0678004F05BE0061
:1018F8004F04BE0000000600F0FF2F00F1FF270094
:10190800F9FF370081002000618055000B003D0081
:101918000B00200061FE2F000100E1001D003400D3
:1019280082817100610164008904D1000884D300B8
:101938000000E800FAFF3A0071002000610064002E
:1019480003007000020060000900320061044400D6
:10195800E0844C000988A500050032008B05E800EA
:101968006808E10002003A008904D1000884D30025
:10197800F20F20000258E10005003D00C75DDD00C0
:10198800F907B20089807500080088000000060089
:101998000BF827001B00880000000500C70ADE00BE
:1019A800F107B200F50FB20008003200E1CF4200A3
:1019B8000200320002E0A80024000500810F700038
:1019C800010032000408050044000500810F700082
:1019D80002003A00140005008502E90000004000FA
:1019E80081C04800FCFF3B0002E0A800240005007D
:0819F8000080FA000000060067
:100940000000FA0002000700B605040000000000E5
:10095000889FBE008A9FBE008C1F78003000070071
:100960003700330003866C006450E100240032003D
:100970006420E100270032006150E10022003200D3
:100980006120E100210032008B854200EB07B100BD
:100990000134B800003AB8000804420089844A00D3
:1009A000013AB8000030B8008880400009014A00D0
:1009B000040033000000400081804800020149002B
:1009C0008B05E900C909DD008301700001003200D8
:1009D00013002000C814DE004814DD004709DE00C3
:1009E0001200B200C808DE0008847000240007006E
:1009F00001F0A1000CF0A70003E0A80019003700E7
:100A00006120E1001B0032000881BE000280BE00B0
:100A1000F7FF37006150E100FCFF3A001500370096
:100A20000084BE003C0007000083BE000485BE00B9
:100A30000280BE0038000700844F750000000600E9
:100A40000280BE006450E100050036006420E10031
:100A5000020036000968A30001003A000880BE00C9
:100A600002C0A8004F0678004F05BE004F04BE002C
:100A700000000600F0FF2F00F1FF2700F9FF37000C
:100A800081002000618055000B003D000B0020001C
:100A900061FE2F000100E1001D0034008281710021
:100AA000610164008904D1000884D3000000E800DB
:100AB000FAFF3A007100200061006400030070003A
:100AC000020060000900320061044400E0844C0030
:100AD0000988A500050032008B05E8006808E100E0
:100AE00002003A008904D1000884D300F20F2000EC
:100AF0000258E10005003D00C75DDD00F907B200C6
:100B00008980750008008800000006000BF82700A7
:100B10001B00880000000500C70ADE00F107B200D4
:100B2000F50FB20008003200E1CF420002003200AF
:100B300002E0A80024000500810F700001003200CF
:100B40000408050044000500810F700002003A000F
:100B5000140005008502E9000000400081C0480043
:100B6000FCFF3B0002E0A800240005000080FA0022
:040B7000000006007B
:101A00000200FA008C00780000C2B3008058780011
:101A100000C2B3008058780000C2B300805878003C
:101A200000C2B3008058780000C2B300805878002C
:101A300000C2B3008058780000C2B300805878001C
:101A400000C2B3008058780000C2B300805878000C
:101A500000C3B300805878000020EF008058780061
:101A600060004700690846006050E10060D8E1006E
:101A70001A0032008C1F78008A9FBE00A20020004E
:101A8000030020000A00BE000002EB00B5FC0700C6
:101A90004F05BE00020320000300200002014000A9
:101AA0000E009000024878008A9FBE00A20020002D
:101AB000030020000A00BE000002EB0080FC0700CB
:101AC0004F05BE004F0678000005BE008E00900056
:101AD0006000470061885000E3FF37000080FA0093
:041AE00000000600FC
:1010F4000000FA008B00780000C2B300805878002A
:1011040000C2B3008058780000C2B3008058780051
:1011140000C2B3008058780000C3B3008058780040
:101124000020EF0080587800E48145006050E10021
:101134000C003200A2002000110009000285D80032
:10114400000320000080400080497800A2002000B5
:10115400110009000285D800000578000620ED0082
:0C116400F2FF37000080FA0000000600D7
:100E14000200FA000020EF00004798001A40780012
:100E240080407800014078006004E1000D00320049
:100E34008A1F78000085FB00BBFE07004F05780081
:100E44008E4090006000470061C840006000470089
:100E54001080FB00000045009040780001407800BD
:0C0E6400F1FF37000080FA0000000600DB
:10092C000000FA0030418000000001000080FA0055
:04093C0000000600B1
:100FF8000000FA00000028000050E10010003A004C
:101008008B007800D0C2B3008058780030C3B3009A
:101018008058780020C3B3008058780070C3B300AC
:101028008058780060C3B3008058780080C3B3004C
:10103800805878000020EF00805878002900370099
:101048000620EF006050E10004003D00F3FF2F0090
:101058006000150000057800000037008B0078005C
:1010680000C2B3008058780000C2B30080587800EE
:1010780000C2B3008058780000C2B30080587800DE
:1010880000C2B3008058780000C3B30080587800CD
:101098000020EF0080587800658245006050E1002C
:1010A8000C003200A2002000110009000205D8003F
:1010B8000003200000804000004A7800A2002000C1
:1010C800110009000205D800000578000820ED008D
:1010D800F2FF37000600E20002003200D0C2B3007F
:0C10E800004A78000080FA0000000600BA
:1022EC000800FA003400F8003600F800801F78006F
:1022FC00200020000C000900B01F78008A1F780015
:10230C008B1F7800C282BF000000AE00BC003700FB
:10231C0041E1A9005281BF00300798005081BF00F5
:10232C00200798005221EF005021EF0041E1A80056
:10233C0084E0A9002E009000BE009000E6FD07008E
:10234C00D27B2300633823007AF90700C040880051
:10235C00D14088000420EF000620EF00F2408800F6
:10236C00034188000420EF000620EF00BDFA0700AF
:10237C000000E0000020EF000100340000A0EE009F
:10238C000000E2000D003200C2408000D34080000B
:10239C000000200001272400C6F8070002002000DE
:1023AC0003102400C3F807000200200003002400DF
:1023BC0060F90700F04088000141880070428000FD
:1023CC006000E10014003A000020EF006042880039
:1023DC000020EF000220EF00000798001107980082
:1023EC000200200083242400F04080000141800082
:1023FC009CFA07000000E0000020EF000100340010
:10240C0000A0EE000000E2000200320010002000EC
:10241C007042880070003700704280006100E1005B
:10242C003A003A000200200083342400F04080007F
:10243C00014180008BFA07000000E0000020EF0053
:10244C000100340000A0EE000000E20009003200A0
:10245C000A0020008B342400D2FA0700C040880008
:10246C00D14088000000200081342400F040880016
:10247C000141880060428000C200DD0080822000A3
:10248C0001014000C0408000D14080000089BE00A6
:10249C0011002000C08420001088400060428000A1
:1024AC006800E100040035000020EF006042880065
:1024BC002000200070428800C0408000D140800085
:1024CC003233230033EB23001AF90700000798007E
:1024DC00110798000200200083242400F0408000A3
:1024EC0001418000FCFB07000000E0000020EF0031
:1024FC0001003D0000A0EE000000E20002003200EE
:10250C000020EF00704288003300370070428000DA
:10251C006200E1002E003A0060428000C200DD0043
:10252C008082200001014000C0408000D14080002A
:10253C000089BE0011002000C084200010884000DB
:10254C00604280006800E100020035000020EF00CE
:10255C00604288000020EF000220EF000007980086
:10256C00110798000820EF00C220DD0080822000B7
:10257C00010040001001BE000E0090009E00900073
:10258C00841F780065FC07004F0278000007980054
:10259C00110798006720E100020032000820EC00CF
:1025AC00F1FF370002002000031024000E00900001
:1025BC009E0090003FF807003233230033EB2300DA
:1025CC00DCF807000007980011079800020037009C
:1025DC000020EF0070428800CD22A900D27B23009E
:1025EC00633823000E0090009E00900031F8070025
:1025FC0021FA07000005BE0055FA0700CD22A800FD
:10260C008660A900CF0578004F057800A001200056
:10261C000C0009004F1078004F0078003600F900CC
:0C262C003400F9000080FA0000400600B5
:100FB0000A00BE00020020000310240060FE0700AB
:100FC00002002000030024005DFE07000001BE00B7
:100FD0000000200001272400B9FD070002002000C6
:100FE0000300240056FE070000017800810178000C
:080FF0000200BE000000060033
:1006C0000000FA000200070092040400000000008D
:1006D000889FBE008A9FBE008C1F78003E000700E6
:1006E0004500330003866C006450E1002E003200A8
:1006F0006420E100330032006150E1002F0032003D
:100700006120E1003100320085855500EB07B00023
:1007100009002000080420000500370008044400F8
:1007200089844C000A0031000603430087834B0094
:100730000001530081815B00F8FF33000283BE009B
:100740001000A8000804440089844C00F6FF39001A
:10075000C639DD0083017300010032001300200060
:100760008904D1000884D3000998A3000500320051
:100770000800A7000600A8008904D1000884D3005F
:100780008B05E8008904D1000884D3000001EB0048
:100790000281D2002800070001F0A1000CF0A700A0
:1007A00003E0A8001D0037006420E1001F003200B4
:1007B0000881BE000280BE00F7FF37006120E10023
:1007C0001A0032006000B800F3FF3700000020007C
:1007D00001F82700F0FF37000084BE003C0007004E
:1007E0000083BE000485BE000280BE003800070002
:1007F000844F7500000006000280BE006450E100D6
:10080000050036006420E100020036000968A300FC
:1008100001003A000880BE0002C0A8004F06780020
:100820004F05BE004F04BE0000000600F0FF2F0081
:10083000F1FF2700F9FF370081002000618055009B
:100840000B003D000B00200061FE2F000100E100C5
:100850001D00340082817100610164008904D100AF
:100860000884D3000000E800FAFF3A00710020007D
:1008700061006400030070000200600009003200A3
:1008800061044400E0844C000988A50005003200A2
:100890008B05E8006808E10002003A008904D100F5
:1008A0000884D300F20F20000258E10005003D004B
:1008B000C75DDD00F907B200898075000800880077
:1008C000000006000BF827001B0088000000050050
:1008D000C70ADE00F107B200F50FB20008003200CF
:1008E000E1CF42000200320002E0A800240005002F
:1008F000810F70000100320004080500440005006B
:10090000810F700002003A00140005008502E90022
:100910000000400081C04800FCFF3B0002E0A8004E
:0C092000240005000080FA000000060022
:100F5C000A0478008B0478001000F800E7002000E9
:100F6C008703E900030035008904D1000884D3000D
:100F7C00FBFF37001200F900F7FF230087846400A1
:100F8C001000E20004003200F93F090000000000EC
:100F9C000804E900FAFF370009800900000000008E
:040FAC00000006003B
:100E70000000FA00F4FF2F003EFF07000080FA0098
:040E80000000060068
:100E84000000FA0002000700AA07040000000000A6
:100E94000081BE00190007000470A70003F0A10040
:100EA40003F8A30013003A006509B10010003200F2
:100EB400090035006928E10002003500010028001E
:100EC4000000050000004000818048008502E90020
:100ED400FCFF3A0000000600F88F420005003500D0
:100EE4008100D1000080D3008502E800FCFF3A00B5
:100EF400000006008000EB0000000500C70ADE00C9
:100F0400F107B200F50FB20008003200E1CF420051
:100F14000200320002E0A80024000500810F7000E6
:100F2400010032000408050044000500810F700030
:100F340002003A00140005008502E90000004000A8
:100F440081C04800FCFF3B0002E0A800240005002B
:080F54000080FA000000060015
:101C50001000FA003400F8003600F800801F780009
:101C6000200020000C000900B01F78008A1F7800B7
:101C70005221EF005021EF0084E0A9000020EF0086
:101C800070428800E000470030C5B30080587800FB
:101C900040C7B3008058780010C6B3008058780061
:101CA000C0C6B30080587800C0C6B3008058780022
:101CB00000C2B3008058780040C4B3008058780058
:101CC00050C6B3008058780040C7B30080587800F1
:101CD00050C6B3008058780030C6B30080587800F2
:101CE00040C7B3008058780050C6B30080587800D1
:101CF00040C6B300805878000020EF00805878007C
:101D0000600047000005780073FE07004F0578006B
:101D1000A00120000C0009004F1078004F0078004F
:101D20003600F9003400F9000080FA000040060097
:001D3000B3
:0200000401F009
:200000000F000000FFFF000003000000E1000000BF0000005F000000FF000000830000004F
:00000001FF
