:060000008A150A16002813
:1000060083160317890188018312871388138316C1
:100016000313850186018701880183128501860104
:06002600870188010800BB
:10002C0083120313A0012008F1000130F0007108C5
:10003C0003192428F00D7010FF3E1E28700885044B
:10004C007008860470088704700888040230FB006E
:10005C000430FC00BA30FD00FD0B3228FC0B3228BA
:10006C00FB0B322800002008073A03193F28A00A8E
:04007C001928080037
:1000800083120313A0010830200203186A282008F5
:10009000F1000130F000710803195228F00D7010C2
:1000A000FF3E4C28F0097008850570088605700829
:1000B0008705700888050230FB000430FC00BA3068
:1000C000FD00FD0B6128FC0B6128FB0B6128000083
:0600D000A00A432808000D
:103000008A110A1203208A150A168A110A1216203A
:103010008A150A168A110A1240208A150A160528EE
:02302000102876
:04400E00F22F000786
:00000001FF
